:020000040800F2
:10000000C03000204555000845020008470200089E
:10001000490200084B0200084D02000800000000E1
:100020000000000000000000000000009D0100082A
:100030004F02000800000000E10100087B7B00087F
:100040005F5500085F5500085F5500085F550008C0
:100050005F5500085F5500085F5500085F550008B0
:100060002F0400087B0400085F55000819030008EE
:10007000DB020008650300085F55000875020008F0
:100080005F5500087D0200085F5500085F550008B5
:100090005F5500085F5500085F5500085F55000870
:1000A0005F55000889030008A90300085F55000890
:1000B000AB030008CB030008EB0300085F55000802
:1000C0005F5500085F5500085F5500082B040008C5
:1000D0005F550008550200085F5500085F5500088D
:1000E0005F5500085F5500085F5500085F55000820
:1000F0005F5500085F5500085F5500083B03000886
:100100005F5500085F5500080B0400082D04000827
:100110005F5500085F5500086F030008770300086B
:100120005F5500085F5500089F0200085F550008F2
:100130005F5500085F5500085F5500085F550008CF
:100140005F5500085F5500085F5500085F550008BF
:10015000D10200085F5500085F5500085F55000890
:100160005F5500085F5500085F5500085F5500089F
:100170005F5500085F5500085F5500085F5500088F
:100180005F5500085F550008DFF80CD008F0B0FD9F
:1001900000480047FD520008C0300020234B19687A
:1001A0000868B0E8F04F80F309884FF0000080F352
:1001B000118870470000000003480068006880F361
:1001C000088862B600DF00BF08ED00E0DFF80C0031
:1001D000016841F470010160704700BF88ED00E0E4
:1001E000EFF30980114B1A681EF0100F08BF20EDC5
:1001F000108A20E9F04F106008B54FF0140080F32A
:10020000118807F090FF4FF0000080F31188BDE8DF
:10021000084019680868B0E8F04F1EF0100F08BFDA
:10022000B0EC108A80F30988704700BF24020020D8
:10023000EFF311804FF0140181F31188704780F3C0
:10024000118870477047FEE7FEE7FEE7FEE770475C
:100250007047704710B5894C40F22551204606F092
:10026000D6FE002805D02046BDE81040202106F02B
:10027000CBBE10BD8249834805F0DBBF70B5814D10
:10028000814C30352146284605F0B0FF002805D0C6
:1002900021462846BDE8704005F0CBBF70BD10B5C3
:1002A0007A497B4805F0C5FF7A484178027841EAEF
:1002B0000221794A1180C178827841EA0221774A85
:1002C00011604179007941EA00207549086010BD4C
:1002D0006F487449483005F0ACBF70B5694D724C39
:1002E000483D2146284605F081FF002813D02146CD
:1002F000284605F09EFF6D4802F01DF800280AD13F
:100300006B4C0021204606F0C1FD2046BDE8704040
:10031000012106F0BBBD70BD70B55A4D654C603D06
:100320002146284605F062FF002805D021462846D0
:10033000BDE8704005F07DBF70BD70B5514C5E4D9D
:1003400048342946204605F051FF002809D00021F5
:10035000204605F0C0FE29462046BDE8704005F065
:1003600068BF70BD47484649303805F062BF01217B
:10037000524806F02ABC10B50121514806F025FC70
:100380003E497A20888010BD10B54E4C0121204690
:1003900006F01BFC2088C1064B48016801D5491EA8
:1003A00000E0491C016010BD704710B501218C07A9
:1003B000204606F00AFC2088C1064448016801D5A1
:1003C000491E00E0491C016010BD10B5404C0121E0
:1003D000204606F0FAFB2088C1063E48016801D598
:1003E000491E00E0491C016010BD10B53A4C0121C6
:1003F000204606F0EAFB2088C1063848016801D58E
:10040000491E00E0491C016010BD10B5344C0121AB
:10041000204606F0DAFB2088C1063248016801D583
:10042000491E00E0491C016010BD7047704770B55F
:10043000042005F07DFF00281ED020212A4805F069
:10044000D0F92A4D0421284605F0ACF91C4C0128AE
:1004500005D00421284605F0A5F928B109E00021BE
:10046000204606F04BF804E0204606F04BF8204901
:10047000086020490420086070BD704700100140EA
:10048000208000207060024000802020008020102A
:1004900040640240280300200C000020CC01002012
:1004A000D0010020008800200088001046030020B2
:1004B000004800402080001000800028001000400C
:1004C0000014004000000140100000201400002033
:1004D0000004004018000020000800404C010020EB
:1004E000000C0040C401002000000240000C02404B
:1004F000C8010020143C014070B50546002408F0F6
:100500002DF9FE4902E02A5D0A55641C8442FADB9B
:10051000BDE870400121FA4805F0DDBD70B5F94D28
:1005200006460024315D00290BD0284606F0D4FC95
:100530008021284606F061FD0028F9D0641CE4B251
:10054000F0E770BD70B5EF4E05460024002D0DD0CC
:100550002946304606F0C0FC8021304606F04DFDAD
:100560000028F9D0641CE4B2032CEFD370BD73B53E
:100570000C460020FFF7E6FFE3A0FFF7CFFFDF48C0
:100580002246E2A1823808F0FDFBDC488238FFF702
:10059000C5FFDFA0FFF7C2FFDFA0FFF7BFFFD7480F
:1005A000DAA18238009A08F0EDFBD44E0024D54D34
:1005B000823E2846315D06F08FFC4021284606F039
:1005C0001CFD0028F9D0641C142CF2DBD2A0FFF72C
:1005D000A5FFFF20FFF7B6FFFF20FFF7B3FFBDE841
:1005E0007C40FF20AEE770B505460C46C6A0FFF77D
:1005F00095FFC2482246C5A1823808F0C3FBBF4818
:100600008238FFF78BFFC5A0FFF788FF2846FFF76A
:1006100085FFC1A0FFF782FFBDE87040FF2091E792
:1006200077B5BEA185B00646D1E90001CDE900014C
:10063000B9A0002200680390B3A0B04D0068283D27
:10064000A5F128030290AD4C1146A3F13200A95444
:1006500099548154A154521CD2B21E2AF7D30A21B4
:100660000170FF2444708470C470A448A7A150385E
:10067000079A08F087FBA14902A8503908F056F8FC
:100680009E4802A9823808F051F89C486946823891
:1006900008F04CF899483146823808F047F89748F6
:1006A0009AA15038069A08F06DFB94495039A1F18F
:1006B000320008F03BF8914803A9823808F036F878
:1006C0008E492C706C702839AC70A1F15A0008F07A
:1006D0002DF88A488238FFF70FFF08B070BD2DE96A
:1006E000F74188468DA185B00646D1E90001CDE9E4
:1006F000000189A000220068039083A07F4D00685C
:10070000283DA5F1280102901446A1F13200AC5415
:100710008C548454521CD2B20A2AF8D30A21017094
:10072000FF2747708770C770744878A15038079AC0
:1007300008F028FB714902A8503907F0F7FF6F480D
:1007400002A9823807F0F2FF6C486946823807F048
:10075000EDFF6A483146823807F0E8FF67484146B6
:10076000823807F0E3FF654803A9823807F0DEFF0F
:100770002F706F706149AF70EC7028392C71A1F146
:100780005A0007F0D3FF5D488238FFF7B5FE08B086
:10079000BDE8F08170B50020FFF7D4FE5AA0FFF746
:1007A000BDFE56480D2259A1823808F0EBFA534895
:1007B0008238FFF7B3FE59A0FFF7B0FE594C202155
:1007C000204604F0EFFF02464C4850A1823808F062
:1007D000D9FA4A488238FFF7A1FE1021204604F0DA
:1007E000E1FF0246454849A1823808F0CBFA434868
:1007F0008238FFF793FE4C4D8021284604F0D2FF4B
:1008000002463E4841A1823808F0BCFA3B48823893
:10081000FFF784FE4021284604F0C4FF0246374813
:100820003AA1823808F0AEFA34488238FFF776FEF3
:100830004FF40041204604F0B5FF02462F4833A193
:10084000823808F09FFA2D488238FFF767FE4FF490
:100850008041204604F0A6FF024628482BA182389A
:1008600008F090FA25488238FFF758FE4FF40051FF
:10087000204604F097FF0246204824A1823808F061
:1008800081FA1E488238FFF749FE4021274804F0CC
:1008900089FF024619481DA1823808F073FA1748EB
:1008A0008238FFF73BFE1CA0FFF738FEFF20FFF762
:1008B00049FEFF20FFF746FEBDE87040FF2041E6FD
:1008C000FEB51BA10646D1E90001CDE900011AA041
:1008D00000210A4D0068283DA5F1280202900C462F
:1008E000A2F132006C5454544454491CC9B2322908
:1008F000F8D30A210170FF2747701FE0E6020020AD
:10090000B860024000500040740000002564000000
:100910002E7478743D000000220000002E7478745C
:100920003D2200000008024000000240001002408A
:100930002E76616C3D0000006A0000008770C77071
:100940000022AFF23801FE4808F01CFAFC4902A868
:1009500007F0ECFEFA4802A9323807F0E7FEF84843
:100960006946323807F0E2FE3246AFF26001F448E1
:1009700008F008FAF249A1F1320007F0D7FE2F7013
:100980006F70EF49AF70EC7028312C71A1F15A00F3
:1009900007F0CCFEEA483238FFF7AEFDFEBD2DE988
:1009A000FC414FF08047384605F0ACFDE54D6969E4
:1009B000642640EA014090FBF6F00024019038469E
:1009C00005F0A0FD696940EA014090FBF6F001994D
:1009D0000090401A00D54042322800DA641C00988A
:1009E0000190022CEBDB0098002800DA4042BDE8C1
:1009F000FC812DE9FC41D44F384605F083FDD14DF3
:100A00002969642640EA014090FBF6F00024019039
:100A1000384605F077FD296940EA014090FBF6F081
:100A200001990090401A00D54042322800DA641C37
:100A300000980190022CEBDB00980028D7DA4042A6
:100A4000D5E710B5FFF7ABFF0446FFF7D2FF002C48
:100A500000DA6442002800DA4042204410BD01B5AB
:100A600081B0019800EBC00040000090002801D048
:100A7000401EFAE70CBD01B581B044F25061019807
:100A800048430090002801D0401EFAE70CBD2DE934
:100A9000FC4101211F2004F0EDFF01248DF80440EA
:100AA00000268DF806604FF6FF758DF80740032786
:100AB00000958DF805706946A44804F00DFE8DF888
:100AC00004408DF806608DF8074000958DF805709C
:100AD00069469F4804F000FE8DF804408DF80660DA
:100AE0008DF8074000958DF805706946994804F027
:100AF000F3FD7CE77CB501217E2004F0BBFF0024E0
:100B0000C0208DF80440012500908DF80750022682
:100B10008DF805606946904804F0DEFD06208DF8EA
:100B2000044000908DF807508DF8056069468748AD
:100B300004F0D2FD04208DF8044000908DF8075099
:100B40008DF805606946824804F0C6FD7CBD1FB57E
:100B50004FF4E06004F008FD36208DF80C0000240E
:100B60008DF80D408DF80E4001208DF80F0003A880
:100B700004F0FFFC0121102004F09AFF3220ADF8B0
:100B80000000ADF80840ADF8024040F2E730734C89
:100B900001906946204605F06FFC0121204606F0D1
:100BA00014F801221146204605F0EFFF00212046EF
:100BB00005F0A4FC0121204605F0D6FC1FBD1FB5A1
:100BC0004FF4E06004F0D0FC37208DF80C000024D6
:100BD0008DF80D408DF80E4001208DF80F0003A810
:100BE00004F0C7FC0121202004F062FF4FF4FA70EA
:100BF000ADF80000ADF80840ADF8024040F2E73033
:100C0000574C01906946204605F036FC01212046EC
:100C100005F0DBFF01221146204605F0B6FF00215A
:100C2000204605F06BFC0121204605F09DFC1FBD10
:100C300070B58AB00121022004F044FF01210C208C
:100C400004F018FF424E03220621304604F0CDFD89
:100C500003220721304604F0C8FD03220821304654
:100C600004F0C3FD03220921304604F0BEFD4FF419
:100C70007070059002208DF8180003208DF819007F
:100C800000248DF81A4001258DF81B5005A9304627
:100C900004F022FDA420ADF81C0040F6B830089006
:100CA0002802304EADF82400ADF81E4007A93046AA
:100CB00005F0E2FB6020ADF80000ADF802500294B0
:100CC000ADF80C400121304605F04EFC00213046C5
:100CD00005F014FC6946304605F050FC6946304684
:100CE00005F078FC6946304605F0B0FC69463046B0
:100CF00005F0E6FC0121304605F028FF0AB070BD82
:100D000070B58AB00121082004F0D2FE0121084606
:100D100004F0B0FE104E02220021304604F065FDC2
:100D200002220121304604F060FD022211463046C5
:100D300004F05BFD02220321304604F056FD13E06F
:100D40009602002000000020000001400004024044
:100D500000080240000C0240000002400010004069
:100D600000140040000401400F20059002208DF87F
:100D7000180003208DF8190000248DF81A40012571
:100D80008DF81B5005A9304604F0A6FCBA20ADF83A
:100D90001C0042F210700890ADF82440ADF81E40DF
:100DA00007A9FE4E304605F067FB6020ADF8000055
:100DB000ADF802500294ADF80C400121304605F028
:100DC000D3FB0021304605F099FB6946304605F01B
:100DD000D5FB6946304605F0FDFB6946304605F017
:100DE00035FC6946304605F06BFC0121304605F0C4
:100DF000ADFE83E770B58AB00121042004F058FEEF
:100E000001210D2004F036FEE54E02220C21304671
:100E100004F0EBFC02220D21304604F0E6FC022235
:100E20000E21304604F0E1FC02220F21304604F08E
:100E3000DCFC4FF47040059002208DF81800032070
:100E40008DF8190000248DF81A4001258DF81B50EB
:100E500005A9304604F040FCA420ADF81C0040F683
:100E6000B83008902802CF4EADF82400ADF81E40EF
:100E700007A9304605F000FB6020ADF80000ADF892
:100E800002500294ADF80C400121304605F06CFB95
:100E90000021304605F032FB6946304605F06EFB16
:100EA0006946304605F096FB6946304605F0CEFBB4
:100EB0006946304605F004FC20E770B5012188B092
:100EC000080404F0FFFD0121084604F0D3FDB64EEE
:100ED00003221146304604F088FC032202213046EA
:100EE00004F083FC0C20009002208DF80400032005
:100EF0008DF8050000248DF8064001258DF8075077
:100F00006946304604F0E8FB4FF6FF70A74EADF897
:100F100008400390ADF81040ADF80A4002A93046F1
:100F200005F0AAFA0420ADF81400C820ADF81C00A2
:100F3000ADF81640ADF8185005A9304605F056FD3D
:100F40009B4C00231A460321204605F0B8FE0121E0
:100F5000204605F03AFE01221146204605F015FE16
:100F60000121304605F000FB0021204605F0C6FABD
:100F700008B070BD2DE9F04701218AB0084604F0A1
:100F800097FD0121022004F093FD0121032004F0CC
:100F900071FDDFF8149201220F21484604F025FC70
:100FA000DFF8108201220321404604F01EFC0222D9
:100FB0000421404604F019FC02220521404604F0B9
:100FC00014FC02268DF80460032738208DF8057084
:100FD000002400908DF8064001258DF807506946E1
:100FE000404604F079FB8DF80460E8038DF8057045
:100FF00000908DF806408DF807506946484604F089
:101000006BFB4FF6FF70ADF80C4004904FF0804939
:10101000ADF81440ADF80E4003A9484605F02CFA8F
:10102000DFF894A103A9504605F026FA4FF0040812
:101030001420ADF81880ADF82000ADF81A60ADF8B6
:101040001C5006A9484605F0D1FC06A9504605F0FB
:10105000CDFC02231A460321484605F030FE022348
:101060001A460321504605F02AFE0121484605F0A4
:10107000ACFD0121504605F0A8FD0122114648466D
:1010800005F083FD01221146504605F07EFD012149
:10109000484605F069FA0121504605F065FA00213D
:1010A000484605F02BFA0021504605F027FA780251
:1010B00004F05AFA1D208DF808008DF809708DF89B
:1010C0000A408DF80B5002A804F053FA1C208DF84A
:1010D00008008DF809808DF80A408DF80B5002A8A1
:1010E00004F047FA0AB0BDE8F08770B501218AB074
:1010F000084604F0E7FC0121102004F0BBFC4FF48B
:101100002060009002208DF8040003208DF8050077
:1011100000242A4E8DF8064001258DF807506946B7
:10112000304604F0D9FA01220921304604F05DFB73
:1011300001220B21304604F058FB4FF6FF701B4E86
:10114000ADF808400390ADF81040ADF80A4002A990
:10115000304605F091F90420ADF814000A20ADF8EE
:101160001C00ADF81640ADF8185005A9304605F042
:101170003DFC00231A460321304605F0A0FD012165
:10118000304605F022FD01221146304605F0FDFCF7
:101190000121304605F019FD012211E0000C00404C
:1011A000000C024000080040000002400000014026
:1011B00000400140000402400004004000100240D2
:1011C0001146304605F0E1FC0121304605F0CCF92E
:1011D0000021304605F092F94FF4C06004F0C4F9E4
:1011E00019208DF820008DF821508DF822408DF8BF
:1011F000235008A804F0BDF980E52DE9F0418AB03C
:101200000121042004F054FC0121082004F032FCE8
:101210004FF440500226009003208DF80460002413
:101220008DF805008DF8064001258DF807506946B8
:10123000FE4F384604F050FA4FF6FF70DFF8F083A7
:10124000ADF808400390ADF81040ADF80A4002A98F
:10125000404605F011F902220C21384604F0C5FA87
:1012600002220D21384604F0C0FA0427C820ADF848
:101270001470ADF81C00ADF81660ADF8185005A953
:10128000404605F0B3FB02231A460321404605F011
:1012900016FD0121404605F098FC0122114640460A
:1012A00005F073FC0121404605F05EF942F2107131
:1012B000404605F023F9DE4814300480A8F80050B9
:1012C0004FF4C06004F050F91E208DF820008DF816
:1012D00021708DF822408DF8235008A804F049F9B8
:1012E0000AB0BDE8F0812DE9F0418AB00121082063
:1012F00004F0DEFB0121084604F0BCFB03200226BB
:101300008DF804608DF805000024CA4F00908DF818
:10131000064001258DF807506946384604F0DCF98F
:101320004FF6FF70DFF81083ADF808400390ADF87A
:101330001040ADF80A4002A9404605F09DF802228F
:101340000021384604F051FA02220121384604F007
:101350004CFA0427C820ADF81470ADF81C00ADF8A5
:101360001660ADF8185005A9404605F03FFB022372
:101370001A460321404605F0A2FC0121404605F033
:1013800024FC01221146404605F0FFFB01214046A6
:1013900005F0EAF842F21071404605F0AFF8A648B1
:1013A00014300480A8F800504FF4C06004F0DCF85A
:1013B00032208DF820008DF821708DF822408DF8B4
:1013C000235008A804F0D5F88AE72DE9F0419CB035
:1013D00001219A4804F04EFB01210D02284604F039
:1013E00071FB97480024CDE90040964802A94FF0D0
:1013F000080881E81101A800CDE9054040000790E8
:101400008000CDE908050AA90001012581E8310025
:101410008D4E0D94694630460E9404F023FE012152
:10142000304604F058FE03273C268DF85870159678
:101430008DF85B4015A97F4804F04EF98DF858707F
:1014400015968DF85B4015A9804804F045F93804DD
:10145000CDE91740B001CDE9194017A804F007FC09
:101460001194129413942806754C0F908DF84050E7
:101470004C3C8DF841508DF850800FA9204604F067
:10148000CBFB042301220221204604F03AFC042372
:1014900002220321204604F034FC042303221946CF
:1014A000204604F02EFC04231A460521204604F0B1
:1014B00028FC042305220C21204604F022FC0423EE
:1014C00006220D21204604F01CFC042307220E21D5
:1014D000204604F016FC042308220F21204604F0C5
:1014E00010FC0121204604F089FC0121204604F073
:1014F0007BFC0121204604F0D1FB204604F03BFC9C
:101500001CB0EEE608B54FF4E06004F02DF825209D
:101510008DF8000000208DF801008DF802000120F8
:101520008DF80300684604F024F808BD70B5054640
:1015300096B00121102004F0C5FA0121084604F0FC
:1015400099FA0121880504F095FA4FF4C0601390D0
:1015500002208DF8500000248DF852408DF8534041
:10156000344E8DF8510013A9304604F0B5F8072227
:101570000921304604F039F907220A21304604F0E7
:1015800034F90F95ADF844400C20314DADF8404092
:10159000ADF84600ADF84240ADF848400FA92846E6
:1015A00005F003FC0121284605F070FC4FF4A06013
:1015B00003F0DAFF3A208DF854008DF855408DF88D
:1015C000564001208DF8570015A803F0D2FF1E4E9B
:1015D0003036304604F0BEFC4FF0006000901948F1
:1015E00069461030CDE902040A200490281D0190BC
:1015F0000015CDE905408010CDE9084040020A9071
:1016000004200B9007940320CDE90C0430460E947F
:1016100004F028FD01224021284605F0CEFC0122DD
:101620001021304604F0CCFD012113E0000C0240F3
:101630000008004000000240000C0040050040008F
:101640004C200140180300201064024000080240B2
:1016500000100140304604F03EFD16B070BDF0B5FC
:101660000646012197B0480504F004FA01214D0413
:10167000284604F01DFA0121082004F0FBF960203F
:10168000139002208DF8500000248DF852408DF800
:1016900053408DF8510013A9FE4F384604F01CF852
:1016A00007220521384604F0A0F807220621384613
:1016B00004F09BF80F96ADF844400C20F64EADF8C0
:1016C0004040ADF84600ADF84240ADF848400FA9A3
:1016D000304605F06AFB0121304605F0D7FB4FF498
:1016E000A06003F041FF11208DF854008DF85540A3
:1016F0008DF8564001208DF8570015A803F039FFEA
:10170000E64F384604F026FCA802009040200390E3
:10171000E34802903C200490301D01900015CDE973
:1017200005408010CDE908400420CDE90A50079417
:101730000320CDE90C04694638460E9404F092FC6F
:1017400001228021304605F038FC012280213046FC
:1017500005F033FC01221021384604F031FD01214F
:10176000384604F0B8FC17B0F0BD70B5054601214D
:1017700096B0880404F09CF90121082004F07AF95D
:101780000121480504F076F94FF4407013900220CF
:101790008DF8500000248DF852408DF85340BD4E16
:1017A0008DF8510013A9304603F096FF0722082157
:1017B000304604F01AF807220921304604F015F8E3
:1017C0000F95B84EADF84040ADF844400C25ADF84B
:1017D0004240ADF84840ADF846500FA9304605F0FC
:1017E000E4FA0121304605F051FB4FF4A06003F00C
:1017F000BBFE8DF854508DF855408DF856400120B1
:101800008DF8570015A803F0B4FEA44D783D284686
:1018100004F0A0FB4FF000600090A348CDE9020463
:1018200008200490301D01900015CDE9054080107E
:10183000CDE9084040020A9004200B900794032051
:10184000CDE90C04694628460E9404F00BFC0122F5
:101850004021304605F0B1FB01224021304605F021
:10186000ACFB01221021284604F0AAFC01212846E5
:1018700004F031FCF1E6F0B50646012197B0C8044A
:1018800004F016F90121084604F0F4F80121480596
:1018900004F0F0F802208DF8500000248DF852403A
:1018A0008DF85340814F03258DF85100139513A9EE
:1018B000384603F011FF08220021384603F095FF57
:1018C00008220121384603F090FF0F96ADF84440FE
:1018D0000C20774EADF84040ADF84600ADF84240E0
:1018E000ADF848400FA9304605F05FFA01213046B7
:1018F00005F0CCFA4FF4A06003F036FE0D208DF811
:1019000054008DF855408DF8564001208DF8570051
:1019100015A803F02EFE614F603F384604F01AFB15
:1019200078050090604869460F38CDE90204082028
:101930000490301D01900015CDE905408010CDE9DF
:101940000840400207940A900420CDE90C540B9003
:1019500038460E9404F086FB01224021304605F003
:101960002CFB01224021304605F027FB01221021EB
:10197000384604F025FC0121384604F0ACFBF2E6C1
:101980002DE9F0418046012196B0480504F072F837
:101990000121080504F08CF801210C2004F06AF8FC
:1019A00002258DF8405000248DF84240394F04261E
:1019B0008DF843400F968DF841500FA9384603F03B
:1019C0008BFE8DF840508DF842408DF84340E80280
:1019D0008DF84150374D0F900FA9284603F07CFE3B
:1019E00008220221384603F000FF08220C21284675
:1019F00003F0FBFE4FF4A06003F0B6FD2F208DF83E
:101A0000540005208DF855008DF8560001208DF802
:101A1000570015A803F0ADFDADF84C400C20264D45
:101A2000ADF84840ADF84E00CDF84480ADF84A40DE
:101A3000ADF8504011A9284605F0B7F90121284614
:101A400005F024FA154F1837384604F083FA70066B
:101A5000009040200390144869466038029031207D
:101A60000490281D01900015CDE905408010CDE9B6
:101A700008404002CDE90A0607940320CDE90C0492
:101A800038460E9404F0EEFA01228021284605F033
:101A900094FA13E0000C024000440040A0600240B1
:101AA000780100200048004046030020000002406A
:101AB000004C00400008024000500040012210216C
:101AC000384604F07DFB0121384604F004FB16B0D3
:101AD00007E430B585B00121082003F0CBFF0121D8
:101AE000880303F0EFFF00240C208DF8104001253F
:101AF00003908DF8135003A9FE4803F0EDFD022179
:101B0000032005F0C4FA042000908DF80440102052
:101B10008DF805008DF80650684604F0B9FB0820E2
:101B20008DF808008DF809408DF80A408DF80B50AB
:101B300002A803F01EFD05B030BD10B5012810D07D
:101B4000032819D0042822D0052809D1EA4C2046C0
:101B500005F0C2F94021204605F04FFA0028F9D0DF
:101B600010BDE64C204605F0B7F94021204605F0AF
:101B700044FA0028F9D010BDE14C204605F0ACF93C
:101B80004021204605F039FA0028F9D010BDDD4C7F
:101B9000204605F0A1F94021204605F02EFA002844
:101BA000F9D010BDD84900204862D8490861D84909
:101BB0000860D849C8647047D34900204862D349B7
:101BC00008614FF0804250624861D34A10608861DA
:101BD000CF490860CF49C86470474FF0804100206A
:101BE0004862CA4948617047CB4900200860C7492C
:101BF0008861704770B5C54D0020E87004466121CA
:101C00000120FFF79AFF3220FEF735FF641C022CFB
:101C1000F5D30120E8707A20A87070BD70B5BB4D77
:101C200000206871044661210320FFF786FF3220FF
:101C3000FEF721FF641C022CF5D3012068717A2085
:101C4000287170BD2DE9F14F96B0002014908DF8E9
:101C50000000B24C8DF828004FF40045169AAB49AD
:101C6000AC486E1027154FF480584FF40059122AD3
:101C70006BD2DFE802F009262C3034383C4044486F
:101C80004E52575D61656DFD088901280CD0012217
:101C90002946204603F09EFD2946204603F08CFD90
:101CA000014600229EA04EE000222946204603F075
:101CB00091FD2946204603F07FFD01460022A0A0A9
:101CC00041E0924801228030C16EA5A03BE0016D49
:101CD0000222A5A037E0416D0322A7A033E0C16D29
:101CE0000422A8A02FE0816D0522A9A02BE00622E6
:101CF000C969AAA027E0016E0722ABA023E00C224D
:101D0000096AACA01FE0FEF74AFE01460922ADA019
:101D100019E0C16E0822ADA015E0AE4801680B22A3
:101D2000ADA010E0FEF78DFE01460A22ADA00AE04C
:101D3000816E0D22ADA006E00E22896AAFA002E0FE
:101D4000416E1022B0A0FEF76BFC17B0BDE8F08F1B
:101D5000DFF8BCA20121504603F024FD0246ADA1EC
:101D6000684607F00FF869460AA806F0DFFC022172
:101D7000504603F017FD0246A6A1684607F002F898
:101D800069460AA806F0D2FC3146504603F00AFD27
:101D90000246A0A1684606F0F5FF69460AA806F0CB
:101DA000C5FC2946504603F0FDFC024699A1684651
:101DB00006F0E8FF69460AA806F0B8FC082150467C
:101DC00003F0F0FC024693A1684606F0DBFF69468B
:101DD0000AA806F0ABFC4FF48071504603F0E2FC19
:101DE00002468CA1684606F0CDFF69460AA806F0B7
:101DF0009DFC0421504603F0D5FC024685A16846AF
:101E000006F0C0FF69460AA806F090FC8021504603
:101E100003F0C8FC02467FA1684606F0B3FF69469E
:101E20000AA806F083FC4021504603F0BBFC0246A2
:101E300078A1684606F0A6FF69460AA806F076FC77
:101E40003946504603F0AEFC024672A1684606F0E1
:101E500099FF69460AA806F069FC4146504603F01E
:101E6000A1FC02466BA1684606F08CFF694600E0C3
:101E7000DCE00AA806F05AFC4D464946504603F0FD
:101E800091FC024663A1684606F07CFF69460AA8F9
:101E900006F04CFC2021504603F084FC02465DA174
:101EA000684606F06FFF69460AA806F03FFC10215D
:101EB000504603F077FC024656A1684606F062FFE2
:101EC00069460AA806F032FC2946204603F06AFC5F
:101ED000024650A1684606F055FF69460AA806F07A
:101EE00025FC3146204603F05DFC024649A16846C8
:101EF00092E00000000C0240005000400010014041
:101F000000480040004C004000000140000000205C
:101F10002408004000010020240400400008024082
:101F2000524F424F5420322044414E4720434841B3
:101F3000592053414E20444F3A20202000000000F9
:101F4000524F424F5420322044414E472043484193
:101F5000592053414E2058414E483A20202000003D
:101F6000494D553A000000004C415A45525F4241EC
:101F7000545F424F4E473A004C415A45525F5341DD
:101F8000553A00004C415A45525F504841493A0089
:101F90004C415A45525F545241493A004249454EDC
:101FA0002054524F20593A004249454E2054524F36
:101FB00020583A004249454E2054524F204D414D41
:101FC0003A000000454E5F464C3A000054414D5FD8
:101FD0005900000034040140536572766F5F43611D
:101FE0006D3A0000544F4E473A00000053494C4FA1
:101FF0005F5448415F424F4E473A000054616D20A4
:1020000053494C4F3A00000054414D5F58000000C6
:10201000001002402564000006F0B4FE69460AA8DC
:1020200006F084FB0F220AA9F9A0EAE03946F94834
:1020300003F0C2FB0246AFF22401684606F0A2FE9E
:1020400069460AA806F072FB8021204603F0B4FB23
:102050000246AFF24001684606F094FE69460AA8BF
:1020600006F064FB4FF40071204603F0A5FB024626
:10207000AFF26001684606F085FE69460AA806F0E0
:1020800055FBDFF894A33946504603F095FB024612
:10209000AFF28001684606F075FE69460AA806F0B0
:1020A00045FB4FF4006B5946DA4803F085FB0246C6
:1020B000AFF2A001684606F065FE69460AA806F080
:1020C00035FB44464146D34803F076FB0246AFF267
:1020D000BC01684606F056FE69460AA806F026FBD3
:1020E0004946CC4803F068FB0246AFF2D801684687
:1020F00006F048FE69460AA806F018FB3146C548B6
:1021000003F05AFB0246AFF2F401684606F03AFECD
:1021100069460AA806F00AFB2946BE4803F04CFBB4
:102120000246AFF21011684606F02CFE69460AA876
:1021300006F0FCFA3946504603F03EFB0246AFF289
:102140002C11684606F01EFE69460AA806F0EEFA53
:102150003146504603F030FB0246AFF24811684664
:1021600006F010FE69460AA806F0E0FA5946504605
:1021700003F022FB0246AFF26411684606F002FE4D
:1021800069460AA806F0D2FAA44D4FF48071284699
:1021900003F012FB0246AFF28411684606F0F2FD2E
:1021A00069460AA806F0C2FA5946284603F004FB1D
:1021B0000246AFF2A011684606F0E4FD69460AA89F
:1021C00006F0B4FA2146284603F0F6FA0246AFF2CA
:1021D000BC11684606F0D6FD69460AA806F0A6FAC4
:1021E00040218C4803F0E8FA0246AFF2D811684665
:1021F00006F0C8FD69460AA806F098FA11220AA955
:1022000087A0FEF76CFAA0E50121874803F063BFC1
:1022100011B48648816C009A914201DD002101E0F1
:10222000816C491C8164806C18BC0BE52DE9F0477A
:102230000025794E074601244FF400594FF4804899
:102240004FF4805A00224146304603F0C3FA102072
:10225000FEF705FC274201D0012200E0002249469A
:10226000304603F0B7FA01224146304603F0B2FA95
:102270001020FEF7F4FB5146304603F093FA00B10C
:102280002543600010F0FF04DCD12846BDE8F0874C
:1022900070B5614E4FF4004500222946304603F0E8
:1022A00099FA1020FEF7DBFB0120FFF7BFFF422069
:1022B000FFF7BCFFFF20FFF7B9FFFF20FFF7B6FFD6
:1022C0005A4CB4342070FF20FFF7B0FF6070FF203D
:1022D000FFF7ACFFA070FF20FFF7A8FFE070FF2022
:1022E000FFF7A4FF2071FF20FFF7A0FF60712946D0
:1022F0003046BDE87040012203F06CBA70B5464E1E
:102300004FF4004500222946304603F063FA1020BE
:10231000FEF7A5FB0120FFF789FF4220FFF786FFAC
:10232000044601222946304603F054FA1020FEF7F5
:1023300096FB204670BD3E4A00211167C2793B4999
:10234000B4310D2A09D0FF20087048708870C87019
:102350000871487188710020704702780A704278CD
:102360004A7082788A70C278CA7002790A7142799A
:102370004A7180798871012070472C482C49B4300B
:102380000278FF2A05D14278FF2A02D18278FF2AFB
:1023900009D00A6F531C0B67C82A03DDFF210170A7
:1023A0004170817070470020086770471F48B43043
:1023B000807970471D48B4300078400601D4012070
:1023C0007047002070471948B4300078800701D466
:1023D000012070470020704770B5144C0125803CE7
:1023E000002604F1F803002803D006DDD8709D70A4
:1023F00007E094F82400D87003E0C0F10000D87022
:102400009E70002916D019DDD9719D711AE0000067
:10241000493A000000040240000C02400000024063
:102420004F55543A00000000A06002400001002017
:102430000000002094F82400D87103E0C1F10000EE
:10244000D8719E71002A03D006DDDA729D7270BDCC
:1024500094F82400D87270BDC2F10000D8729E7248
:1024600070BDFE49C870C871C8727047FB49012031
:10247000F83908627047F948C178032907D2C17951
:10248000032904D2C07A032801D20120704700201A
:102490007047F248F838C06CA0F5EA41303901D0F5
:1024A0000120704700207047FFF7A4BBEC48B0F94B
:1024B0000C0040427047EA48B5EEC00AD0ED1E0A53
:1024C000F1EE10FA02D230EE600A01E030EE200A9E
:1024D000BDEEC00A10EE100A704710B5041EE048A9
:1024E0002DED048B00F180009FEDDE8B11D0806B11
:1024F00014DA06F0C2FA41EC190B204606F0BDFAD8
:1025000053EC182B06F0D8F953EC182B06F0CEF943
:1025100013E09FEDD60ABDEC048B10BD06F0ADFABA
:1025200041EC190B204606F0A8FA53EC182B06F0E4
:10253000C3F953EC182B06F018F953EC192B06F0DD
:102540002DFA06F0DDFA00EE100AE4E7B5EEC00A57
:10255000F1EE10FA01DAB1EE400A7047002800DA15
:1025600040427047BE49803191ED060AD1ED071A0D
:10257000F1EE400A80EEA11A00EE900AF8EEE00AB1
:1025800001EE200ABDEEC00A10EE100A7047F0EE10
:10259000401A9FEDB70AF5EEC01AF1EE10FA01D21B
:1025A000F1EE611AF5EEC00AF1EE10FA01D2F1EE89
:1025B000600AB5EEC01AF1EE10FA01D2B1EE411A7E
:1025C000F4EEC01AF1EE10FA01DDB0EE610AF4EE9D
:1025D000C00AF1EE10FA01DDB0EE600AB4EEC01AE6
:1025E000F1EE10FA01DDB0EE410A70479C488030F0
:1025F000806B70479A488030406E704770B5984C39
:102600002DED068B8034B0EE408A04F18005E06C3D
:10261000A0F5EA4130397ED0A26DE16ED4ED170A03
:10262000891A401A00EE100A94ED011A206EB8EED5
:10263000C00A00EEC10AD4ED000AC0EE208A06F0FE
:102640004CFA94ED0B0A41EC190B20EE280A10EE1F
:10265000100A06F042FA41EC100B06F0C1FB9FEDA8
:1026600085AB51EC100B53EC1A2B06F025F953EC0B
:10267000192B06F01BF906F043FAA067206E06F04E
:102680002CFA94ED020AD4ED0B0A41EC190B38EE4A
:10269000800A20EE200A10EE100A06F01EFA41EC25
:1026A000100B06F09DFB9FED751B51EC100B53ECCE
:1026B000112B06F001F953EC192B06F0F7F806F090
:1026C0001FFAE06794ED030AD4ED0B0A38EE800A96
:1026D00020EE200A10EE100A06F0FFF941EC100B74
:1026E00006F07EFB53EC1A2B51EC100B06F0E4F8CD
:1026F00006F006FAC5F80000B5EEC08AF1EE10FA51
:1027000038D0606B80B1012814D0022819D003287A
:1027100030D123E0FFE79FED550A85ED000A84EDF7
:102720001F0A84ED1E0AE7E794ED1E0A30EE480A00
:1027300084ED1E0A94ED1F0A30EE480A84ED1F0A4C
:1027400005E094ED1E0A30EE480A84ED1E0A95ED70
:10275000000A30EE480A85ED000A0BE094ED1E0AEF
:1027600030EE480A84ED1E0A94ED1F0A30EE480A46
:1027700084ED1F0A95ED001AD4ED1F0A94ED1E0A90
:10278000FFF705FF3648D0ED1D0AF8EEE00A80EEAF
:10279000801ABDEEC10A10EE100A2064A16B8142BE
:1027A00000DDA06301202063BDEC068B70BD2C49C9
:1027B000002280310028CA6348640FD18A639FEDEC
:1027C0002B0A47F2305081ED180AC864086581ED84
:1027D000170A4A634A654A660A620FE7704720484B
:1027E000803090ED170AB5EEC00AF1EE10FA04D170
:1027F000416B11B9416D002909D000219FED1B0AE1
:1028000080ED170A41634165C16E8165F6E6704748
:1028100013488030C0ED060A80ED070A7047104A61
:102820008032D36C834209D1D36B8B4206D1D2ED77
:10283000180AF4EE400AF1EE10FA23D0D163916B3E
:1028400009B905219163D16E916582ED180AD064B2
:102850000020906492ED170AD0E600007801002075
:10286000000000209A9999999999B93F00000000B9
:102870006F12833A00000000000000C0000000005A
:10288000000000407047FF4A30B4536D834209D1C5
:10289000D2ED170AF4EE400AF1EE10FA02D1536BB2
:1028A0008B4226D0D46C47F230539C4219D132244B
:1028B000D46305249463984213DAB5EEC00A012369
:1028C000F1EE10FA536602DDD36E834207DCB5EEFB
:1028D000C00AF1EE10FA04D2D36E834201DAB1EEEF
:1028E000400A5163506582ED170A0020906430BCA5
:1028F00084E630BC7047014647F23050C3E71FED15
:10290000250A8CE710B5DF4C2DED028BF0EE608AC6
:10291000D4ED140AB0EE418AF8EEE00AF4EE400A73
:10292000F1EE10FA0BD1E16B814208D1D4ED150A1A
:10293000F8EEE00AF4EE680AF1EE10FA4BD0FDEE84
:10294000C00A0146C4ED140AD4ED1B0AF8EEE00AF1
:1029500030EE600ABDEEC00A10EE102A1FED3D0AEF
:102960001046FFF75CFF94ED1B0AF8EEC00A78EE04
:10297000E00AFDEEE00A10EE900A002800DA40427C
:10298000B8EEC00A642819DDF4EEC08AF1EE10FA40
:1029900001DCB1EE488A18EE100A06F09EF800BF7E
:1029A00006F0AEF8FDEEE80ABDEC028B00EE100A70
:1029B000BDE81040002110EE900A64E738EEC00A2E
:1029C00010EE100A06F089F89FEDAF1B53EC112BA7
:1029D00005F072FFE4E7BDEC028B10BD10B5A94C09
:1029E000606E01282FDDE16E606D401AFFF7B6FDC5
:1029F0000A2812DA0020A0631FED640AE06384ED68
:102A0000170AFFF7FBFD606E411C6166B0F5FA7FA7
:102A100019DDBDE810400020C9E60520616EE063C5
:102A2000FA29A06301DDFB206066616DE06E8842DB
:102A300002DDBFEE000A01E0B7EE000A84ED170ADE
:102A4000BDE81040DAE510BD8E4910B591ED180AC9
:102A5000B5EEC00AF1EE10FA72D18A6B002A6FD07F
:102A6000486D47F2305398426ADA91ED170AB5EE95
:102A7000C00AF1EE10FA7CD0CC6C9C4261D1B5EE6C
:102A8000C00AF1EE10FA04DD4A69CB6E821A9A424E
:102A900009DBB5EEC00AF1EE10FA17D24A69CB6E27
:102AA00002449A4212DD4A6E032A49DAC01AFFF73D
:102AB00055FD0A28486D0ADA8866002088631FEDF4
:102AC000950AC86381ED170A022048667BE091ED04
:102AD0000E0AD1ED170A6B4AB8EEC00ACB6E803AE7
:102AE000984260EE200A91ED050AB8EEC01A80EE19
:102AF000810A0FDDFFF72AFDCB6E486DC01AFFF784
:102B00002DFD00EE900AB8EEE01AD2ED1F0A40EE5D
:102B1000010A0EE0FFF71AFDCB6E486DC01AFFF7F1
:102B20001DFD00EE900AB8EEE01AD2ED1F0A50EE3D
:102B3000410A91ED0E0AB8EEC01A80EE810A42E019
:102B400046E0B5EEC00AF1EE10FA1ADD00EE900A8A
:102B5000B8EEE01A00EE902AF8EEE00A00EEC01A95
:102B6000D1ED040AF8EEE00A31EE601AD1ED1B0A4D
:102B700000E02BE0F8EEE00AB4EEE01AF1EE10FA15
:102B80001DD3B5EEC00AF1EE10FA1CD200EE900A89
:102B9000B8EEE01A00EE902AF8EEE00A00EEC01A55
:102BA000D1ED040AF8EEE00A31EE201AD1ED1B0A4D
:102BB000F8EEE00AB4EEE01AF1EE10FA03DDC96EA9
:102BC000401AFFF78AFCBDE8104017E5886DF6E76C
:102BD00010BD2C48416E02290CDA1FEDDC0A0022E0
:102BE00080ED180A80ED170A47F230514263C16444
:102BF000C0E91412826C521C8264816A8A4202DB30
:102C00008164016A09B1406A00E0002029E41D4A9C
:102C1000936C5B1C9364834204DD906B0844906367
:102C200000209064704710B5FFF740FC154CE0663B
:102C3000FFF7D4FEE26BA06B4FF0FF31002A0BDDF3
:102C400090420ED006DA216C88420ADAFFF78AFC3D
:102C5000012104E0606F02E000283ADD606CFFF7BC
:102C6000D6FFD4E91B01814203D0FFF7EDFEE06EF1
:102C70002067206B00282FD094ED0E0A0148B8EE93
:102C8000C00A05E0800000207B14AE47E17A743F63
:102C90008030D0ED000A20EE200AFFF70CFC94ED06
:102CA0000E0AD4ED1F0A0246B8EEC00A20EE200A32
:102CB000FFF701FC94ED0E0AD4ED1E0A0146B8EEB2
:102CC000C00A20EE200AFFF7F6FBBDE81040FFF730
:102CD00083BBBDE810407CE710BD30B4F84CE46D18
:102CE000A41A01D4224600E06242C2EB021240F272
:102CF0008A25AA4200DD2A469FEDF21A9C4208DD91
:102D000000EE101AC2F10001F8EEC00A00EE101A2F
:102D100006E000EE101AF8EEC00A04DA00EE102AFF
:102D2000B8EEC00A01E09FEDE80A30BCEAE530B435
:102D3000E34CE46DA41A01D4224600E06242C2EBE7
:102D400002124FF4FA75AA4200DD2A469FEDDD1A01
:102D50009C420ADD00EE101AA2F5E162F8EEC00A0C
:102D600000EE102AB8EEC00A11E00ADAC2F5E162FC
:102D700000EE102A00EE901AB8EEC00AF8EEE00A53
:102D800005E000EE101AF8EEC00A9FEDD00A30BC44
:102D9000B8E530B4CA4CA46DA41A01D4224600E0B0
:102DA0006242C2EB02124FF4FA75AA4200DD2A46D3
:102DB0009FEDC71A9C4206DD00EE101AF8EEC00A1D
:102DC00000EE102A08E000EE101AF8EEC00A06DA4B
:102DD000C2F1000100EE101AB8EEC00A01E09FED4A
:102DE000BA0A30BC8EE530B4B54CA46DA41A01D437
:102DF000224600E06242C2EB02124FF4FA75AA4288
:102E000000DD2A469FEDB21A9C420ADDC2F5E1625E
:102E100000EE102A00EE901AB8EEC00AF8EEE00AB2
:102E20000DE000EE101AF8EEC00A06DAA2F5E16233
:102E300000EE102AB8EEC00A01E09FEDA40A30BCF3
:102E400060E52DE9F0419E4BB4332DED028B98786F
:102E5000401FF52801D8012400E000241879401F04
:102E6000F52801D8012500E00025954A187802F1DF
:102E7000B402C10652780FD541060DD581060BD597
:102E8000010609D544B13DB1910605D5BDEC028BD3
:102E90000020BDE8F0418AE45107DFED8E8A03D4BB
:102EA0002321B0EE688A02E00A219FED898A9846C4
:102EB000834EC306A6F1800647F230574FEA4063BF
:102EC0000CD4002B54DA83064FEA006027D5002883
:102ED0004FEAC2702ADA98B3002034E0002B4FEAA0
:102EE00080630BDB002B4FEA006022DA00284FEAF8
:102EF000C27026DA20B34FF4E16024E0002B4FEAE1
:102F0000006006DB002833DAD00731D04FF461705F
:102F100019E0002823DBD0072AD06F4813E00028EF
:102F200026DAD00724D04FF4E1700CE040B16B48B2
:102F300009E000281CDAD0071AD040F2465002E01F
:102F400016E0A8B16648FFF7DAFC98F80000C10661
:102F50000ED541060CD581060AD5000608D584BBDE
:102F60003DB1F06CB84204D00020FFF720FC00E037
:102F70003CBB98F80210404605290DD24278D20792
:102F80000AD0F06CB8424FF0000002D09FED550A15
:102F900012E0B1EE480A0FE0FA2913D998F80100BF
:102FA000C0070FD0F06CB8424FF0000002D0B0EE76
:102FB000680A01E0B0EE480ABDEC028BBDE8F041C2
:102FC00099E4FFE7BDEC028BBDE8F04107E470B582
:102FD0003B48454A0469611C016101464B69002177
:102FE000C82C03D2D4892344436105E0C824B3FB31
:102FF000F4F301610365416185696B1C8361304BAA
:10300000DC696423642D03D295892C44C46104E0F7
:10301000B4FBF3F481614465C161056A6C1C046210
:10302000274C322D646A03D215892C44446204E093
:10303000B4FBF3F40162C4654162856A6C1C84626E
:103040001F4C642DE46A03D253892344C36204E015
:10305000B4FBF3F381628365C162056B6B1C036390
:10306000174B5C6B3223322D03D215882C444463FA
:1030700004E0B4FBF3F4016304664163856B1B4E0B
:103080006C1C84630E4C322DE46B03D255882C44A7
:10309000C46304E0B4FBF3F4F4618163C163056CC1
:1030A0006C1C0464064C322D646C02D2918821445D
:1030B00003E0B4FBF3F232620164416470BD0000CE
:1030C00000010020CDCCCC3D000000000000E14418
:1030D000CDCC4C3E9A99993E7CFCFFFF3EFEFFFF13
:1030E000BAFAFFFF9A9999BE180300200000002049
:1030F00030B4F64D029C1FED091AAD6DEB1AA342D8
:1031000004DD00EE102AF8EEC00A06E00ADA00EE4E
:10311000102AC1F10001F8EEC00A00EE101AB8EE54
:10312000C00A07E000EE102A1FED1A1AF8EEC00AD6
:103130001FED1B0A30BCFFF7E5BB30B4E34D029C2A
:103140001FED201AAD6DEB1AA3420ADDC1F5167111
:1031500000EE101A00EE902AB8EEC00AF8EEE00A6F
:103160000DE000EE102AF8EEC00A06DA01F516713D
:1031700000EE101AB8EEC00A01E09FEDD50A30BC8F
:10318000FFF7C0BB30B4D14D029C1FED321AAD6DBC
:10319000EB1AA34204DD00EE102AF8EEC00A06E0A6
:1031A00000EE102AF8EEC00A06DAC1F1000100EEC6
:1031B000101AB8EEC00A01E01FED3D0A30BCFFF75F
:1031C000A1BB30B4C14D029CED6DEB1A1FED431A4B
:1031D000A34204DD00EE102AF8EEC00A06E000EE7D
:1031E000102AF8EEC00A06DAC1F1000100EE101A4A
:1031F000B8EEC00A01E01FED4C0A30BCFFF782BBFD
:1032000070B5B44D0121284602F0CCFAB24C60B141
:10321000A079C043A07102E0012004F016FF012153
:10322000284602F0BFFA0028F6D0A279AB484FF446
:10323000806122B10022BDE8704002F0CBBA0122C9
:10324000F9E7F0B5A448022400F5BC72816CC369AB
:10325000C8398B4246DB066B016CB14200DA06646A
:10326000036C416B8B4200DD0164036A01250A2770
:10327000B34201DA957303E000268B4202DD9673B8
:10328000D773F0BD076CD91B01D48C4601E0C1F1A6
:10329000000CBCF1050F25DDBB4201DD967300E09B
:1032A0009573002900DA4942884B5960C46A04EBDF
:1032B000D4704010642C01DD642500E005468D4289
:1032C00001DB084603E0642C00DD6420586014280C
:1032D00005DAC82C01DC052000E0142058601879BC
:1032E000D073F0BDD473F0BDF0B57B49D1E91304C0
:1032F000A04200DACC64D1E91202824200DDC86447
:10330000724ACB69002532267832A34201DA9575DC
:1033100003E00124834202DD9475D675F0BDCE6CC6
:10332000981B01D4074600E04742052F15DDB34244
:1033300001DD947500E09575FFF710F943006348CF
:103340004360C96A8B4201DD416003E00F2B01DA63
:103350000F21F9E70079D075F0BD0220FBE75B484B
:103360005D49B4304279C86CFA2A04D90B6D984291
:1033700001DD401E05E0052A07D28A6C904204DA7E
:10338000401CC864C82004F060BE7047F0B55249C4
:10339000D1E91650A84200DACD654E6DC86DB04235
:1033A00000DDCE65494B01243227186E03F1780207
:1033B000A84201DA947403E00025B04202DD95745E
:1033C000D774F0BDCE6D801BFFF7C8F8022817DD5B
:1033D000186ECE6DB04201DD957400E09474801BD0
:1033E000FFF7BCF840005860C96A884200DD5960A8
:1033F00058681E2801DA052058601879D074F0BD8D
:103400000220FBE72DE9F0410122344DD60231467E
:10341000284602F0DFF900222915284602F0DAF9E1
:103420002D4C40F2DC57206DE064384604F00DFE70
:1034300007E04B30814204DA01223146284602F08F
:10344000C9F9206DE16900F10A029142F1DC3846C8
:1034500004F0FBFDA06CE06402E0012004F0F5FD47
:10346000A06CE16932388142F7DB0020174E6062C0
:10347000306DFA2801DA012500E00025052004F06E
:10348000E4FD606A401C60623228F1DB2846BDE83A
:10349000F081114810B5816C0A39C164416EC16573
:1034A000816B01640E49C06E0860091D40F26C70AA
:1034B00008600A4C0022C914204602F08BF9002251
:1034C00021152046BDE8104002F084B9000100201B
:1034D00000001644001002400000002000040240DA
:1034E00034040140FB4C40F2A46525604FF47A7728
:1034F00040F6B8362068643820602068B84203D9A6
:103500002560304604F0A1FDC82004F09EFDF1E7DF
:103510000020FFF74CF94FF47A74204604F095FD33
:10352000FBE770B5EC4DFF21284603F0D5FC0A20DF
:1035300004F08BFDE94C2846218903F0CDFC0A20DC
:1035400004F083FD6189284603F0C6FC0A2004F0DC
:103550007CFDE0480068642180B2B0FBF1F12846B0
:1035600003F0BAFC0A2004F070FD22890A2004F559
:103570008071012A0CD0B1F85C1089B2B1FBF0F176
:10358000284603F0A9FCBDE870400A2004F05DBDA8
:10359000B1F85810F1E72DE9F05FDFF840A31426E9
:1035A00046247D250027C821CAF82C10C94940F2BD
:1035B000A4604FF00A08086040F26631E800CAF8DB
:1035C0004C1004F042FD00210AF5807BCAF824105B
:1035D00077E000BF4FF000095BE000BFAA194FF091
:1035E00000099A4209DDFEF7B9FF0A2290FBF2F2C8
:1035F000DAF840309A1A521E0BE0AA1B9A420ADAF5
:10360000FEF7ACFF0A2290FBF2F2DAF840301A44DF
:10361000521CCAF84020C86E04EB080282420ADD40
:10362000001BFEF79BFF052290FBF2F2DAF85C30FC
:103630009A1A521E0DE0A4EB080282420BDA001B1C
:10364000FEF78CFF052290FBF2F2DAF85C301A44A8
:10365000521CCAF85C20486EC96E084307D0DAE9EC
:103660001621914203DDDAF8540081420DDB384621
:10367000DAF820107F1CCAF84010142805DDFA2063
:10368000CAF82C000020BDE8F09F4FF4C87004F089
:10369000DCFCDBF864305946581B01D4024600E0DC
:1036A0004242B2429ADCCA6E121B00D552424245D7
:1036B00094DC09F101090A2004F0C7FCB9F1640F98
:1036C000E7DBDBF864005946401B00D54042B042BE
:1036D00080DCC86E001B00D540424045F8DC642009
:1036E00004F0B3FCDAF82400401CCAF824000A28CD
:1036F000E7DBFA20CAF82C000120C4E72DE9F14FDE
:10370000744D2DED028B2868754C744E6067002057
:10371000F071FFF7BEFEA4F1800B9FED728ADFED22
:10372000728AA8464FF00A0AF07930B1606FB0F59E
:10373000C86F02DDC8F8000003E040F21451C8F879
:103740000010B06B3064B06CF064092700257781FD
:103750004FF47A7004F079FCA94679E0E80714D0B8
:1037600040F2A460C8F80000A6F80AA04FF47A70EE
:1037700004F06BFC778140F6B83004F066FCE16E33
:10378000606E6D1C084305D01FE040F27E41C8F812
:103790000010E9E702984FF000010128B6EE000A98
:1037A00005D0A9F5487000BFFFF76DF805E009F5F1
:1037B0004870F9E7012004F048FCE16E606E0843B0
:1037C00003D1DBF864000028F4D10020FEF7EFFFFE
:1037D000E16E606E08431AD102984FF00001012893
:1037E000B6EE000A05D009F5487000BFFFF74BF8A8
:1037F00005E0A9F54870F9E7012004F026FCE16E28
:10380000606E084303D1DBF864000028F4D1002087
:10381000FEF7CDFFE16E606E084317D140F2DC5138
:10382000C8F800100021B6EE000A4846FFF72BF852
:1038300002E0012004F009FCDBF864000028F8D164
:10384000FEF7B5FF40F6B83004F0FFFB0A2D04DCAC
:10385000606E10B9E06E002880D00020FEF7A7FF50
:1038600014E07D2804DA4FF00000BEEE000A04E008
:1038700006DD4FF00000B6EE000AFFF73CF801E06D
:10388000FEF7ADFFE16E606E08430FD0606E7D38CD
:10389000FEF764FE0A2802DD606EFF28E1D10020F9
:1038A000FEF785FF40F2A467454662E00020FEF780
:1038B0007EFFD8F80000D6E0E06E502821DD2868B1
:1038C000B8421ED2286840F2AA51884228680DD218
:1038D000001D0CE0340401400048004000000020BE
:1038E00000010020CDCC4C3ECDCC4CBE0A3028602F
:1038F000286840F27261884200D92F60142004F0D9
:10390000A4FB606E872803DD0020B0EE480A04E0C7
:10391000732805DA0020B0EE680AFEF7ECFF01E03C
:10392000FEF75DFF28681921A0F27E40B0FBF1F0A0
:10393000FEF714FEC0F11901072900DA0721E26E33
:10394000606E10437ED04FF4E160FEF7D8FF286828
:10395000B842B1D32868B84205D1E06E462802DAF1
:10396000606EFF28A8D10020FEF721FF642004F03C
:103970006CFB2868B842EAD32868B84205D1E06EEB
:10398000462802DA606EFF28E1D10020FEF70FFF23
:103990004FF47A7004F059FB40E078294FF00000B2
:1039A00002DDB0EE480A01E0B0EE680AFEF7A3FFC0
:1039B000E16E606E084352D0606E01467D3800D5DE
:1039C00040422828E9DC0020FEF7F1FE4FF4E167D1
:1039D00014E0462903DA4FF00501384604E006DD1D
:1039E0004FF005014FF00000FEF789FF02E00020D4
:1039F000FEF7DDFEE16E606E084330D0606E7D380C
:103A000000D54042282806DCE06E0146463800D545
:103A100040420F28DDDC0020FEF7C9FE606E7D38D5
:103A200000D540422828C7DCE06E463800D5404229
:103A30000F28C1DC0020FEF7BAFEFFF7ACFD50B145
:103A4000002000E00BE0FEF7B2FEA6F80AA0FFF7A8
:103A5000D9FC00280BD10020FEF7A9FE64E6002067
:103A6000FEF7A5FE286860670120F0715CE6BDECFA
:103A7000028BBDE8F88F2DE9F0410F46FB49FC4E63
:103A80002DED048B51F82040308900219FEDF99AEB
:103A90009FEDF98ADFEDF98ADFEDF99A06F5807579
:103AA000012802D002287CD0F6E0716269E0A86D9E
:103AB00084422EDD47B1B0EE681AF0EE690A4FF08D
:103AC0000A00B0EE480A4CE0A0EB0400FEF746FD09
:103AD00002461E2800DD1E22E968686D401AFEF7C6
:103AE0003DFD00EB80004100EB68686DB0EE681AA8
:103AF0009842F0EE690A02F1050002DDA1F561715C
:103B000002E001F56171494200EE101AB8EEC00AF8
:103B100027E033DA3FB1B0EE681AF0EE690A0A2006
:103B2000B0EE490A1DE0001BFEF718FD01461E28F5
:103B300000DD1E21EA68686D801AFEF70FFD00EBBC
:103B400080004200EB68686D98420DDDC2F561703F
:103B500000EE100AB0EE681AF0EE690AB8EEC00A7C
:103B6000481DFEF7CFFE0CE002F56172B0EE681A58
:103B7000F0EE690A481D00EE102AC7E70020FEF7A4
:103B800016FEA86D001BFEF7E9FC03288FDC012060
:103B900004F05BFA706A401C70623228F1DB7BE053
:103BA000FFE771626AE0E86D844231DD47B1B0EE53
:103BB000681AF0EE690A4FF00A00B0EE490A51E0C7
:103BC000A0EB0400FEF7CAFC41001E2900DD1E2107
:103BD000EA68686D801AFEF7C1FC00EB80004200C5
:103BE000EB68686D98420BDDC2F5617000EE100A5B
:103BF000B0EE681AF0EE690AB8EEC00A481D31E06E
:103C0000B0EE681AF0EE690A481D02F5617224E010
:103C100031DA3FB1B0EE681AF0EE690A0A20B0EE70
:103C2000480A1FE0001BFEF799FC41001E2900DD39
:103C30001E21EA68686D801AFEF790FC00EB800098
:103C40004200EB68686DB0EE681A9842F0EE690ABF
:103C500001F1050009DDA2F5617200EE102A00BF36
:103C6000B8EEC00AFEF74EFE08E002F5617251425E
:103C700000EE101AF4E70020FEF799FDE86D001B36
:103C8000FEF76CFC03288EDC012004F0DEF9706A7C
:103C9000401C70623228F1DBBDEC048B0020BDE8D3
:103CA000F041FEF784BD2DE9F0410546FDF784FFA4
:103CB000744E01229102304601F08CFD012128460C
:103CC000FFF7D9FE0020FEF772FD0A210020FEF763
:103CD00016FE674C00206C4F606202E00A2004F080
:103CE000B4F90421384601F05DFD0128F6D0606A80
:103CF000401C60623228F4DB00224FF40061304641
:103D000001F068FD40F2DC566581304604F09DF913
:103D100005206081304604F098F954484FF46171F1
:103D20004F4250F825602089584D012814D00228B0
:103D30002CD032E0A86D864203DD4FF005013846F5
:103D400003E005DA4FF005014046FEF7D8FD04E038
:103D50000020FEF72CFD00E08846A86D801BFEF7D2
:103D6000FDFB0128E6DC18E0E86D864203DD4FF03C
:103D70000501404603E005DA4FF005013846FEF73D
:103D8000BEFD04E00020FEF712FD00E08846E86D6D
:103D9000801BFEF7E3FB0128E6DC606DE065BDE813
:103DA000F08130B532490F24384AC86B4FF42F7375
:103DB0000F38086402E0106D98420DDB0D6C086A44
:103DC000401BFEF7CBFB0528F5DCC86B20440864DC
:103DD00006E0106D984203DAC86B0864012030BD1C
:103DE0000C6C086A001BFEF7B9FB0528F1DCC86BF8
:103DF0000864002030BD70B51D4C05460021E06B05
:103E000020642846FFF737FEFFF7CBFFC8B16E1CD2
:103E100009E0E06B206400213046FFF72CFEFFF73D
:103E2000C0FF80B1761C052EF3DB6D1E0DD4E06B58
:103E3000206400212846FFF71EFEFFF7B2FF00288E
:103E4000F3D1284670BD304670BD0125D6E72DE977
:103E5000F041064E8046064C56F8287000200B4D67
:103E600060622089012820D031E00000500300204A
:103E70000000002000006144000061C46666663FE7
:103E80000000000000040240001002400001002079
:103E90001E3081424FF002033A464FF0000101DD2F
:103EA0001E2000E00F20FEF774FF696DE868814274
:103EB000EEDC10E01E3188424FF002033A464FF02C
:103EC000000101DD1E2000E00F20FEF706FFE9687B
:103ED000686D8842EEDC052004F0B7F8606A401C8B
:103EE00060623228BDDB4046FFF785FF05464FF490
:103EF0007A770A2815D056F825600020FEF757FC7F
:103F0000E06B012220649102F84801F063FC40F666
:103F1000B838404604F099F82089F54C01281CD0A7
:103F200028E0FDF749FE0A214FF4E160FEF7E7FCC7
:103F300002E00A2004F089F8FCF783FDB842F8DBC0
:103F40000020FEF734FC384604F07FF8FBE702233C
:103F5000324600210F20FEF71CFF0421204601F00D
:103F600021FC0128F3D00BE00223324600210F2070
:103F7000FEF7B3FE0421204601F014FC0128F3D023
:103F80000020FEF714FC0A210020FEF7B8FC404692
:103F900004F05BF80020FEF70AFC61210120FDF728
:103FA000CCFD384604F051F82846F8E6D148012205
:103FB000816EC165416C0164D102CC4801F00ABC3C
:103FC0002DE9F0412DED048BFDF7F6FD9FEDCA8A3A
:103FD000B0EE481A5FED568A3C20F0EE680A1FEDFD
:103FE0005B0AFEF78FFC40F6C41402E0012004F0E7
:103FF0002CF8FCF726FDA042F8DB00224FF400610C
:10400000BA4801F0E7FBB0EE481AF0EE680A3C202F
:104010009FEDBA0AFEF776FC4FF47A6402E00120C5
:1040200004F013F8FCF70DFDA042F8DBB0EE481ADF
:10403000F0EE680A28209FEDB20AFEF763FCAD4C53
:10404000002504F58076656202E0012003F0FDFFA3
:10405000B06D6428F9DC606A401C60623228F7DBCE
:10406000FDF7AAFD4FF49667656208E00523162266
:1040700000212820FEF78DFE012003F0E6FFFCF76B
:10408000E0FCB842F2DB606A401C60623228F6DB7A
:1040900040F6AC57656208E005231122002132206A
:1040A000FEF777FE012003F0D0FFFCF7CAFCB84210
:1040B000F2DB606A401C60623228F6DBB0EE489AA0
:1040C000B0EE688AB0EE491AB0EE480A2D20F0EE44
:1040D000400AFEF717FC656202E0012003F0B5FF1D
:1040E000B06D2328F9DB606A401C60623228F7DB80
:1040F000FDF762FDB0EE480AB0EE491AF0EE400A54
:104100001E20FEF7FFFB4FF4167402E0012003F0BF
:104110009CFFFCF796FCA042F8DB0020FEF747FB73
:10412000FDF74AFDB0EE491AF0EE480A32209FED45
:10413000750AFEF7E7FB4FF4E16402E0012003F0AB
:1041400084FFFCF77EFCA042F8DBFFF7A2F96E4C7F
:1041500005E0052300212820A268FEF744FEFCF7B5
:1041600070FCB842F5DBBDEC048B0020BDE8F041EB
:10417000FEF71DBB70B55F4C00252DED028B4FF493
:104180009666656208E00523162200212820FEF7C6
:1041900000FE012003F059FFFCF753FCB042F2DBB4
:1041A000606A401C60623228F6DB41F28836656244
:1041B00008E00523112200212820FEF7EAFD012056
:1041C00003F043FFFCF73DFCB042F2DB606A401CA9
:1041D00060623228F6DBA06B2064206EE06500226E
:1041E0004FF40061414801F0F5FADFED438AB0EE8B
:1041F000681A1FEDDD8A2D20B0EE480AF0EE400A65
:10420000FEF780FB6562414D02E0012003F01DFFD7
:10421000A86D2328F9DB606A401C60623228F7DB56
:10422000FDF7CAFCB0EE480AB0EE681AF0EE400A9C
:104230001E20FEF767FB4FF4167402E0012003F026
:1042400004FFFCF7FEFBA042F8DB0020FEF7AFFA0C
:10425000FDF7B2FCB0EE681AF0EE480A32209FED8E
:10426000290AFEF74FFB4FF4E16402E0012003F05E
:10427000ECFEFCF7E6FBA042F8DB234D40F6AC5425
:10428000FCF7DFFBA04206DA052300212820AA68FC
:10429000FEF7A9FDF4E7B0EE681AF0EE480A0A202E
:1042A0009FED1B0AFEF72EFB40F63C7402E0012056
:1042B00003F0CBFEFCF7C5FBA042F8DBBDEC028BA4
:1042C0000020BDE87040FEF772BA104A9FED110A57
:1042D000A0F10F01D36D192B20DAF0EE400AB7EEF2
:1042E000081A08469FED0C0A22E000000004024074
:1042F0000010024000000020CDCCCC3D000048441E
:1043000000002F44000066445003002000010020FC
:104310000000E144000000000000E143926DB7EEB0
:10432000081A322AF0EE400A02DA08469FEDFD0A2A
:10433000FEF7E8BA2DE9F05FFB4C40F2E7372DEDD0
:10434000048B00250A26E06B2064206EE065FDF7F3
:1043500033FC1FED108AB7EE081A3C20B0EE480A75
:10436000F0EE400AFEF7CEFA02E0012003F06DFE07
:10437000FEF79CF8FEF7F2F86428F6DC4FF000092F
:10438000DFF8A8834FF4804B4FF4004AC4F8249020
:1043900005E03C20FFF799FF012003F056FE594647
:1043A000404601F0FFF928B95146404601F0FAF9BC
:1043B0000028EED0052003F048FE606A401C6062D1
:1043C0001E28ECDBFDF7F8FBC846C4F824904FF438
:1043D000FA6905E03C20FFF778FF012003F035FE85
:1043E000FCF72FFB4845F5DB606A401C6062322811
:1043F000F6DBC146C4F82480DFF8348305E02320CF
:10440000FFF763FF012003F020FED8F85C00FA28D4
:10441000F5DB052003F019FE606A401C60621E286F
:10442000F3DBDFF810A34FF46171CAF800100A2023
:10443000FEF7BDF90220C8F808000120BE49DFEDF3
:10444000BF8A606251F82000D8F85820101AFEF791
:1044500085F8B8420BDA606AD8F8582051F8200085
:10446000101AFEF77BF80746606AC8F80800606A11
:10447000401C60620428E5DB9FEDB19ADFEDB19A44
:104480000F46D8F80800D8F85820394657F82000C9
:10449000101AFEF763F805281CDDD8F8080051F85B
:1044A0002000D8F85810884208DDB0EE681AF0EE07
:1044B000480A4FF01E00B0EE490A08E0E1DAB0EE1B
:1044C000681AF0EE480A4FF01E00B0EE690AFEF7D7
:1044D00019FAD6E74F46C4F8249002E0012003F011
:1044E000B4FD216C206AA1F10A02904202DA0A317D
:1044F0008842F3DC052003F0A8FD606A401C60627E
:104500003228EEDB67624FF4C8794FF487770CE00E
:10451000B0EE480A4845B0EE681AF0EE400A01DDF8
:104520001E2000E01420FEF7EDF9D8F85400B84240
:10453000EEDC052003F089FD606A401C60621E28E5
:10454000F3DB082060810020FEF731F94FF4967705
:10455000D8F8680086420FD10A206D1C03F075FD63
:10456000BD42F5DBB0EE480AB0EE681AF0EE400A44
:104570000F20FEF7C7F916E0064600250A2003F0D3
:1045800064FDE5E70A2003F060FD00BFD8F868008D
:10459000042805DDD8F80C10D8F854008842F1DC66
:1045A000012003F052FDD8F80C10D8F854008842CE
:1045B000ECDCD8F86800052801D2C8F808004FF4F0
:1045C0002F71CAF8001007206081D8F80800FFF7A3
:1045D0003EFCC8F80800FFF766FBBDEC048B00202A
:1045E000BDE8F05FFEF7E3B82DE9F04152484E4CCC
:1045F0002DED068B8668606D9FED53AAB0EE4A1ACA
:104600005FEDBC9AE0652820F0EE690A1FEDC09AC4
:10461000B0EE490AFEF776F90027454D676202E0E1
:10462000012003F012FDE968686D32398842F7DB3A
:10463000052003F00AFD606A401C60621E28F2DB60
:1046400000224FF48061414801F0C4F8A06B9FED57
:10465000408B20642BE0A86D86420EDDA6EB0000A7
:1046600004F00BFA53EC182B04F026F904F016FAB8
:10467000FDF774FFA0F5C8600EE018DAA6EB0000A5
:1046800004F0FBF953EC182B04F016F904F006FAC9
:10469000FDF764FFC0F5C86000EE100AB0EE4A1ADC
:1046A000F0EE690AB8EEC00A2820FEF72BF9A86DD3
:1046B000801BFDF753FF0528CDDCB0EE4A1AF0EE63
:1046C000690A1E20B0EE490AFEF71CF94FF4E176A4
:1046D000676202E0012003F0B8FC686DB042F9DBCC
:1046E000052003F0B2FC606A401C60621E28F4DB07
:1046F000FDF762FA40F2DC5402E0012003F0A5FC71
:10470000FCF79FF9A042F8DBFEF7C3FE0A20FEF794
:104710004EF8BDEC068B4FF4FA60BDE8F04103F0B3
:1047200094BC00000000E1C3000000200010024023
:104730000001002034040140500300206666663FFB
:10474000000096C3000096439A99993E00040240E7
:10475000000000000000044070B5FFF731FCFE4C83
:104760004FF4E16503E007212846FEF7C8F8606EC4
:104770000028F8D0E16E123900D549420A29F2DC4E
:10478000BDE87040642003F060BC2DE9F0412DEDE0
:10479000048BFDF711FA9FEDF18AB0EE481ADFEDB8
:1047A000F08A3C20F0EE680A9FEDEE0AFEF7AAF8C8
:1047B0004FF4FA6702E0012003F047FCFCF741F9EF
:1047C000B842F8DBE84C00224FF40061A06B206493
:1047D000206EE065E54800F0FDFFB0EE481AF0EE0F
:1047E000680A3C209FEDE20AFEF78CF84FF47A65E8
:1047F00002E0012003F029FCFCF723F9A842F8DBD2
:10480000B0EE481AF0EE680A3C209FEDDA0AFEF797
:1048100079F80026D04D666202E0012003F015FC15
:10482000E86D2828F9DC606A401C60623228F7DBFA
:10483000B0EE489AB0EE688AB0EE491AF0EE480A37
:104840003C209FEDCD0AFEF75DF8666202E0012094
:1048500003F0FBFBE86D1928F9DC606A401C60621C
:104860003228F7DBFDF7A8F9F0EE498AB0EE480AE6
:10487000B0EE681AF0EE400A3C20FEF743F802E082
:10488000012003F0E2FBFCF7DCF8B842F8DBB0EE05
:10489000480AB0EE681AF0EE400A2D20FEF732F812
:1048A000666202E0012003F0D0FBE86D2328F9DB0B
:1048B000606A401C60623228F7DBFDF77DF9B0EEDC
:1048C000480AB0EE681AF0EE400A1E20FEF71AF809
:1048D0004FF4167402E0012003F0B7FBFCF7B1F8C7
:1048E000A042F8DB0020FDF762FFFDF765F9B0EEAE
:1048F000681AF0EE480A3C209FEDA00AFEF702F885
:104900004FF4E16402E0012003F09FFBFCF799F80B
:10491000A042F8DB9A4D40F6AC5400BFFCF791F88A
:10492000A04206DA052300212820AA68FEF7FFF935
:10493000F4E7FDF741F9B0EE681AF0EE480A0F20EF
:104940009FED900AFDF7DEFF4FF4FA7402E00120BC
:1049500003F07BFBFCF775F8A042F8DBBDEC048BA1
:104960000020BDE8F041FDF722BF70B57E4C002568
:104970002DED028B4FF49666656208E005230A224E
:1049800000212820FEF7A9F9012003F05EFBFCF7C7
:1049900058F8B042F2DB606A401C60623228F6DBF5
:1049A00041F28836656208E00523072200212820AD
:1049B000FEF793F9012003F048FBFCF742F8B04200
:1049C000F2DB606A401C60623228F6DBA06B206478
:1049D000206EE06500224FF40061644800F0FAFEAA
:1049E000DFED5E8AB0EE681A9FED5D8A2D20B0EE95
:1049F000480AF0EE400AFDF785FF6562564D02E079
:104A0000012003F022FBE86D1928F9DB606A401CE5
:104A100060623228F7DBFDF7CFF8B0EE480AB0EE5F
:104A2000681AF0EE400A1E20FDF76CFF4FF4167472
:104A300002E0012003F009FBFCF703F8A042F8DBD9
:104A40000020FDF7B4FEFDF7B7F8B0EE681AF0EEFF
:104A5000480A3C209FED490AFDF754FF4FF4FA64E1
:104A600002E0012003F0F1FAFBF7EBFFA042F8DBD4
:104A7000434D40F6AC5400BFFBF7E3FFA04206DA1B
:104A8000052300212820AA68FEF751F9F4E7002049
:104A9000FDF78DFEB0EE681AF0EE480A0A209FED91
:104AA000390AFDF72FFF40F63C7401E003F0CDFA20
:104AB000FBF7C7FFA0424FF00100F7DBBDEC028B14
:104AC000BDE8704003F0C1BA234A9FED250AA0F16A
:104AD0000F01D36D192B07DAF0EE400AB7EE081A72
:104AE00008469FED290A09E0926DB7EE081A322AAE
:104AF000F0EE400A02DA08461FEDF60AFDF702BFA3
:104B00002DE9F05F184C40F2E7372DED048B0025BE
:104B10000A26E06B2064206EE065FDF74DF89FEDFE
:104B2000108AB7EE081A3C20B0EE480AF0EE400AB0
:104B3000FDF7E8FE02E0012003F087FAFDF7B6FC7E
:104B4000FDF70CFD6428F6DC4FF00009DFF83C802F
:104B50004FF4804B1CE0000000010020CDCCCC3D88
:104B600000000000000061C40000002000040240BA
:104B7000000048C40000FAC3000048C3000066C437
:104B8000500300200000E1440000E1430010024017
:104B90004FF4004AC4F8249005E03C20FFF794FF4E
:104BA000012003F052FA5946404600F0FBFD28B1BF
:104BB0005146404600F0F6FD0028EED1606A401CE8
:104BC00060623228EFDBFCF7F7FFC846C4F8249098
:104BD0004FF4FA6905E03C20FFF776FF012003F06F
:104BE00034FAFBF72EFF4845F5DB606A401C606233
:104BF0003228F6DBC146C4F82480DFF830844FF455
:104C0000FA7A05E02320FFF75FFF012003F01DFA89
:104C1000D8F858005045F5DB606A401C60623228C5
:104C2000F6DB0020FDF7C3FDDFF804A44FF461714B
:104C3000CAF800100220C8F808000120FD49DFED85
:104C4000FE8A606251F82000D8F85C20101AFDF747
:104C500085FCB8420BDA606AD8F85C2051F8200075
:104C6000101AFDF77BFC0746606AC8F80800606A06
:104C7000401C60620428E5DB9FEDF09ADFEDF09ABE
:104C80000F46D8F80800D8F85C20394657F82000BD
:104C9000101AFDF763FC05281CDDD8F8080051F850
:104CA0002000D8F85C10884208DDB0EE681AF0EEFB
:104CB000480A4FF01400B0EE490A08E0E1DAB0EE1D
:104CC000681AF0EE480A4FF01400B0EE690AFDF7DA
:104CD00019FED6E7C4F8249002E0012003F0B5F9EC
:104CE000206C216AA0F10A02914202DA0A30814264
:104CF000F3DC052003F0A9F9606A401C60623228E9
:104D0000EEDB4FF4C87700BFD8F85400FA2810DD66
:104D1000B0EE480AB842B0EE681AF0EE400A01DD83
:104D20001E2000E01420FDF7EDFD0A2003F08DF9B0
:104D3000EAE7082060810020FDF739FD4FF49677FF
:104D4000D8F8680086420FD10A206D1C03F07DF967
:104D5000BD42F5DBB0EE480AB0EE681AF0EE400A4C
:104D60000F20FDF7CFFD16E0064600250A2003F0D0
:104D70006CF9E5E70A2003F068F900BFD8F868008D
:104D8000042805DDD8F80C10D8F854008842F1DC6E
:104D9000012003F05AF9D8F80C10D8F854008842D2
:104DA000ECDCD8F86800052801D2C8F808004FF4F8
:104DB0002F71CAF8001007206081D8F80800FFF7AB
:104DC00046F8C8F80800FEF76EFFBDEC048B002023
:104DD000BDE8F05FFDF7EBBC2DE9F0419548994C3B
:104DE0002DED068B8668606D9FED979AB0EE491A9F
:104DF0005FEDA59AE0652820F0EE690A1FED9FAAF5
:104E0000B0EE4A0AFDF77EFD0027884D676202E09A
:104E1000012003F01AF9E868696D32388142F7DB46
:104E2000052003F012F9606A401C60621E28F2DB64
:104E300000224FF48061854800F0CCFCA06B9FED10
:104E4000848B20642FE0E86D86420EDDA6EB000027
:104E500003F013FE53EC182B03F02EFD03F01EFE9F
:104E6000FDF77CFBC0F5C8600EE018DAA6EB000089
:104E700003F003FE53EC182B03F01EFD03F00EFEAF
:104E8000FDF76CFBA0F5C86000EE100AB0EE491A01
:104E9000F0EE690AB8EEC00A3220FDF733FD686D06
:104EA000B0F5C87F05DCE86D801BFDF757FB0528D2
:104EB000C9DCB0EE491AF0EE690A1E20B0EE4A0ACB
:104EC000FDF720FD4FF4E176676202E0012003F078
:104ED000BCF8686DB042F9DB052003F0B6F8606AF3
:104EE000401C60621E28F4DBFCF766FE40F2DC54D6
:104EF00002E0012003F0A9F8FBF7A3FDA042F8DBD4
:104F0000FEF7C7FA1420FDF752FCBDEC068B4FF4F8
:104F1000FA60BDE8F04103F098B810B5FFF735FC32
:104F200007214FF4E160FDF7EAFC404C02E0642009
:104F300003F08BF8606E0028F9D0E06E123800D5CF
:104F400040420A28F3DC10BD2DE9F0412DED048B21
:104F5000FCF732FE9FED408AB0EE481ADFED3F8A43
:104F60003C209FED3F0AF0EE680AFDF7CBFC40F6CF
:104F7000C41402E0012003F068F8FBF762FDA042D0
:104F8000F8DB00224FF40061304800F023FCB0EE63
:104F9000481AF0EE680A3C209FED320AFDF7B2FC99
:104FA0004FF47A6402E0012003F04FF8FBF749FD6B
:104FB000A042F8DBB0EE481AF0EE680A32209FED0E
:104FC0002A0AFDF79FFC1F4C0026184D666202E07E
:104FD000012003F03AF8E86D2828F9DC606A401CEB
:104FE00060623228F7DBFCF7E7FD40F6AC576662FB
:104FF00008E00323052200213220FDF76EFE012088
:1050000003F023F8FBF71DFDB842F2DB606A401C99
:1050100060623228F6DBB0EE489AB0EE688AB0EEF5
:10502000491AB0EE480AF0EE400A1FE000010020E5
:1050300034040140500300206666663F000096433A
:10504000000096C3000000209A99993E0004024097
:105050000000000000000440CDCCCC3D000000006A
:10506000000061C4000048C400002FC42D20FDF7DB
:1050700049FC666202E0012002F0E7FFE86D2328A8
:10508000F9DB606A401C60623228F7DBFCF794FDB4
:10509000B0EE480AB0EE491AF0EE400A1E20FDF7C5
:1050A00031FC4FF4167402E0012002F0CEFFFBF752
:1050B000C8FCA042F8DB0020FDF779FBFCF77CFD83
:1050C000B0EE491AF0EE480A32209FEDA00AFDF733
:1050D00019FC4FF4E16402E0012002F0B6FFFBF797
:1050E000B0FCA042F8DBFEF7D4F94FF4486405E0C9
:1050F0000323502200212820FDF719FEFBF7A1FC15
:10510000A042F5DBBDEC048B0020BDE8F041FDF7CB
:105110004EBB012800D0F3E4FFF70CB9012800D002
:105120005AE6FFF761BA1120FDF772F80F2002F07E
:105130008CFFF8E7864C00BFFDF749FF607818B197
:10514000FEF77FF8FEF722F9FEF7CEF8052002F011
:105150007CFFF1E77F4DA5F1B4042878606668789C
:10516000E066A878A066E8782067FEF7DAF90720FD
:1051700002F06BFFF1E700BFFDF755FD052002F0DF
:1051800064FFF9E71FB5FBF782FCFBF7B3FCFBF705
:105190004FFDFBF72FFEFBF7B3FDFBF7EBFEFBF735
:1051A000A4FFFCF72AF8FCF710F9FBF708FD4FF411
:1051B000E1342046FCF7BAF92046FCF750FA2046C5
:1051C000FCF7D3FA2046FCF756FBE000FCF7D8FBCF
:1051D000FCF710FDFCF7F0FC5D4C00254FF48076E9
:1051E00025700095019502952B4632465AA15F48DD
:1051F000039502F053FD0095019502950023324678
:105200005BA16148039502F049FD00950195029567
:10521000002332465DA16248039502F03FFDA06C79
:10522000E06102E0012002F010FFA06CE169143897
:105230008142F7DB5B4D012666700221284600F0B3
:10524000B1FA08B1268101E0022020810A206081A4
:105250004FF4FA7002F0F9FE09206081A06CE0645E
:10526000A06DE065A06B01222064D102284600F009
:10527000B1FAFA204C49E06240F2A4600860091DCE
:1052800040F26C700860FEF704F947F2305002F00B
:10529000DCFE21894548012918D00C21016031210B
:1052A0004160572181607E21C160A321404D016191
:1052B0000121284600F076FA98B10821284600F02E
:1052C00071FAB8B10020FDF772FAF1E740F23B1134
:1052D0000160F4214160AA2181605D21C160142137
:1052E000E4E740F6B8352089FEF708FA284602F0D0
:1052F000ACFEF8E7FFF728FEFEF70AF97FB50024B9
:105300004FF4807500940194029423462A4629A103
:105310002B48039402F0C2FC0094019402940023F1
:105320002A4628A12A48039402F0B8FC009401946C
:10533000029400232A4615A11948039402F0AEFCFA
:1053400002F0D2FF04B0002070BD0000000066C46F
:1053500000000020B40100207461736B526F626F13
:1053600074416E616C797469637300007751000851
:105370007461736B526F626F74416E616C797469A2
:1053800063735F7561727400555100087461736BCB
:10539000446965754B6869656E436F4361750000CC
:1053A000355100080004024034040140500300203D
:1053B000001002407461736B4D61696E0000000063
:1053C000855100087461736B4779726F00000000AB
:1053D000275100080CB500205149019000900A683F
:1053E00042F480320A604FF4A0630A6802F400328B
:1053F0000092019A521C0192009A12B9019A9A42A3
:10540000F3D10A68920334D501200090444840301B
:10541000026842F0805202604248026842F48042D0
:1054200002603F48083002680260026842F40042AD
:105430000260026842F4A0520260031F3A4A1A60F6
:105440000A6842F080720A600A689201FCD5374A05
:1054500040F205611160016821F0030101600168FB
:1054600041F0020101600168C1F381010229FAD112
:105470000CBD00900CBD2A4810B5016841F0010137
:105480000160274A0021083211600268284B1A4047
:105490000260031D274A1A60026822F4802202601B
:1054A0001F480C300160FFF795FF23494FF0006063
:1054B000086010BD70B51A4C083420681F4A10F0FF
:1054C0000C011F4804D05510042903D0082903D02B
:1054D00002601BE0056019E01149091D0B68C3F368
:1054E00080560B6803F03F0316B1B5FBF3F201E001
:1054F000B2FBF3F20B680968C3F388135A43C1F394
:105500000141491C4900B2FBF1F1016021680C4ADC
:10551000C1F30311121D515C0268CA40026070BDE4
:10552000003802400070004008544007003C024030
:10553000FFFFF6FE1030002408ED00E00024F40028
:10554000D40100200648804706480047FEE7FEE7F2
:10555000FEE7FEE7FEE7FEE7FEE7FEE7FEE7FEE723
:105560007754000889010008284908432849086041
:10557000704730B50F22C47801780123FCB1244C68
:10558000246801F1E02104F4E064C4F5E064C4F3AC
:105590000724C4F10405E2404478AC408578154006
:1055A00025432A0181F80024007800F01F018B4078
:1055B0004009800000F1E020C0F8003130BD01F06A
:1055C0001F0083404809800000F1E020C0F88031CE
:1055D00030BD104A114001430D48001F0160704763
:1055E0000B4A121D0029116801D0014300E08143DC
:1055F000116070474FF0E0210428086903D020F0C3
:1056000004000861704740F00400FAE70000FA0562
:105610000CED00E080FFFF1F7C4910B5884206D1E9
:105620000121084600F058FA002101204FE0784996
:10563000884206D10121022000F04EFA002102200A
:1056400045E07449884206D10121042000F044FA63
:10565000002104203BE07049884206D10121082046
:1056600000F03AFA0021082031E06C49884206D166
:105670000121102000F030FA0021102027E06849B5
:10568000884206D10121202000F026FA00212020A6
:105690001DE06449884206D10121402000F01CFA37
:1056A0000021402013E06049884206D1012180207A
:1056B00000F012FA0021802009E05C4988420AD1FA
:1056C00084150121204600F007FA00212046BDE89C
:1056D000104000F001BA10BDF0B5002301240327EB
:1056E0000D6804FA03F21540954242D1D0F800C08B
:1056F0005E0007FA06F52CEA050CC0F800C091F828
:1057000004C0D0F800E00CFA06FC4CEA0E0CC0F81D
:1057100000C091F804C0BCF1010F02D0BCF1020F2F
:105720001FD1D0F808C02CEA050CC0F808C091F8C9
:1057300005C0D0F808E00CFA06FC4CEA0E0CC0F8E4
:1057400008C0D0F804C02CEA020CC0F804C04268BB
:1057500091F806C00CFA03FC1FFA8CFC42EA0C021A
:105760004260C268AA43C260CA79C568B2402A438F
:10577000C2605B1C102BB3D3F0BD4FF6FF7101600C
:105780000021017141718171C171704708B541F407
:1057900080320092C261C1610099C161C169C06972
:1057A000009008BD0246002012690A4200D0012084
:1057B0007047006980B270470246002052690A4271
:1057C00000D001207047406980B270470183704764
:1057D000418370470AB1018370474183704741613B
:1057E000704742694A40426170474B07DB0E9A405E
:1057F000C90810B500EB8100016A0F249C40A14349
:105800000162016A1143016210BD00000000024004
:105810000004024000080240000C02400010024058
:105820000014024000180240001C02400020024008
:10583000EA48016841F001010160E84A00210832AC
:1058400011600268E64B1A400260031DE54A1A60C7
:10585000026822F480220260E0480C300160704748
:10586000DE490022891C0A70087070470246002039
:10587000510901290CD002290CD0D849743109688A
:1058800002F01F02012393400B4200D00120704719
:10589000D249F4E7D1497031F1E718B500204FF44F
:1058A000A06400903120FFF7E1FF0099491C0091AE
:1058B000A14201D00028F5D03120FFF7D7FF002802
:1058C00000D0012018BDC5490A6822F0F80242EA5A
:1058D000C00008607047C44908607047BF49002293
:1058E00070310A700A70012802D0042801D1052005
:1058F00008707047BD490860704741EA82115A0834
:1059000010B5BB4B029C03EB02421143014341EA39
:105910000460B249091D086010BDB34908667047AC
:10592000800140EA0170AD49843108607047AE499A
:1059300088667047AC49C8647047A84A0832136843
:10594000084323F0EC63184310607047A34A083201
:105950001368084323F078431843106070479F4A48
:105960000832116821F003010143116070479B4820
:105970000830006800F00C007047984A083211683F
:1059800021F0F001014311607047944A0832116818
:1059900021F4E051014311607047904908310A68D1
:1059A00022F4604242EAC0000860704770B58B4A3A
:1059B000083211688F4C11F00C0104D066100429D4
:1059C00003D0082903D004601BE0066019E0834976
:1059D000091D0B68C3F380550B6803F03F0315B135
:1059E000B6FBF3F301E0B4FBF3F30C680968C4F30E
:1059F00088146343C1F30141491C4900B3FBF1F131
:105A0000016011680F2303EA11117B4B5C5C016894
:105A1000E14041601468072505EA94241C5D21FAE1
:105A200004F48460126805EA52329A5CD140C16085
:105A300070BDC0F30121032908D1684A08321168FA
:105A400021F4F8136D490140194311606349703125
:105A50000A68C0F30B0002430A6070476349443987
:105A60000860704761494039086070475E49C1F875
:105A70005C017047594A30320029116801D0014356
:105A800000E0814311607047544A343200291168A4
:105A900001D0014300E08143116070474F4A383222
:105AA0000029116801D0014300E081431160704773
:105AB0004A4A40320029116801D0014300E0814385
:105AC00011607047454A44320029116801D00143F2
:105AD00000E0814311607047404A1032002911688C
