:020000040800F2
:10000000B83000200D5500084502000847020008DE
:10001000490200084B0200084D02000800000000E1
:100020000000000000000000000000009D0100082A
:100030004F02000800000000E1010008437B0008B7
:1000400027550008275500082755000827550008A0
:100050002755000827550008275500082755000890
:100060002F0400087B040008275500081903000826
:10007000DB02000865030008275500087502000828
:10008000275500087D02000827550008275500085D
:100090002755000827550008275500082755000850
:1000A0002755000889030008A90300082755000800
:1000B000AB030008CB030008EB030008275500083A
:1000C0002755000827550008275500082B0400086D
:1000D0002755000855020008275500082755000835
:1000E0002755000827550008275500082755000800
:1000F0002755000827550008275500083B0300082E
:1001000027550008275500080B0400082D04000897
:1001100027550008275500086F03000877030008DB
:1001200027550008275500089F020008275500089A
:1001300027550008275500082755000827550008AF
:10014000275500082755000827550008275500089F
:10015000D102000827550008275500082755000838
:10016000275500082755000827550008275500087F
:10017000275500082755000827550008275500086F
:100180002755000827550008DFF80CD008F064FD5B
:1001900000480047C7520008B8300020234B1968B8
:1001A0000868B0E8F04F80F309884FF0000080F352
:1001B000118870470000000003480068006880F361
:1001C000088862B600DF00BF08ED00E0DFF80C0031
:1001D000016841F470010160704700BF88ED00E0E4
:1001E000EFF30980114B1A681EF0100F08BF20EDC5
:1001F000108A20E9F04F106008B54FF0140080F32A
:10020000118807F074FF4FF0000080F31188BDE8FB
:10021000084019680868B0E8F04F1EF0100F08BFDA
:10022000B0EC108A80F30988704700BF20020020DC
:10023000EFF311804FF0140181F31188704780F3C0
:10024000118870477047FEE7FEE7FEE7FEE770475C
:100250007047704710B5894C40F22551204606F092
:10026000BAFE002805D02046BDE81040202106F047
:10027000AFBE10BD8249834805F0BFBF70B5814D48
:10028000814C30352146284605F094FF002805D0E2
:1002900021462846BDE8704005F0AFBF70BD10B5DF
:1002A0007A497B4805F0A9FF7A484178027841EA0B
:1002B0000221794A1180C178827841EA0221774A85
:1002C00011604179007941EA00207549086010BD4C
:1002D0006F487449483005F090BF70B5694D724C55
:1002E000483D2146284605F065FF002813D02146E9
:1002F000284605F082FF6D4802F01DF800280AD15B
:100300006B4C0021204606F0A5FD2046BDE870405C
:10031000012106F09FBD70BD70B55A4D654C603D22
:100320002146284605F046FF002805D021462846EC
:10033000BDE8704005F061BF70BD70B5514C5E4DB9
:1003400048342946204605F035FF002809D0002111
:10035000204605F0A4FE29462046BDE8704005F081
:100360004CBF70BD47484649303805F046BF0121B3
:10037000524806F00EBC10B50121514806F009FCA8
:100380003E497A20888010BD10B54E4C0121204690
:1003900006F0FFFB2088C1064B48016801D5491EC5
:1003A00000E0491C016010BD704710B501218C07A9
:1003B000204606F0EEFB2088C1064448016801D5BE
:1003C000491E00E0491C016010BD10B5404C0121E0
:1003D000204606F0DEFB2088C1063E48016801D5B4
:1003E000491E00E0491C016010BD10B53A4C0121C6
:1003F000204606F0CEFB2088C1063848016801D5AA
:10040000491E00E0491C016010BD10B5344C0121AB
:10041000204606F0BEFB2088C1063248016801D59F
:10042000491E00E0491C016010BD7047704770B55F
:10043000042005F061FF00281ED020212A4805F085
:10044000B4F92A4D0421284605F090F91C4C0128E6
:1004500005D00421284605F089F928B109E00021DA
:10046000204606F02FF804E0204606F02FF8204939
:10047000086020490420086070BD704700100140EA
:10048000208000207060024000802020008020102A
:1004900040640240240300200C000020C80100201A
:1004A000CC010020008800200088001042030020BA
:1004B000004800402080001000800028001000400C
:1004C0000014004000000140100000201400002033
:1004D0000004004018000020000800404C010020EB
:1004E000000C0040C001002000000240000C02404F
:1004F000C4010020143C014070B50546002408F0FA
:1005000011F9FE4902E02A5D0A55641C8442FADBB7
:10051000BDE870400121FA4805F0C1BD70B5F94D44
:1005200006460024315D00290BD0284606F0B8FCB1
:100530008021284606F045FD0028F9D0641CE4B26D
:10054000F0E770BD70B5EF4E05460024002D0DD0CC
:100550002946304606F0A4FC8021304606F031FDE5
:100560000028F9D0641CE4B2032CEFD370BD73B53E
:100570000C460020FFF7E6FFE3A0FFF7CFFFDF48C0
:100580002246E2A1823808F0E1FBDC488238FFF71E
:10059000C5FFDFA0FFF7C2FFDFA0FFF7BFFFD7480F
:1005A000DAA18238009A08F0D1FBD44E0024D54D50
:1005B000823E2846315D06F073FC4021284606F055
:1005C00000FD0028F9D0641C142CF2DBD2A0FFF748
:1005D000A5FFFF20FFF7B6FFFF20FFF7B3FFBDE841
:1005E0007C40FF20AEE770B505460C46C6A0FFF77D
:1005F00095FFC2482246C5A1823808F0A7FBBF4834
:100600008238FFF78BFFC5A0FFF788FF2846FFF76A
:1006100085FFC1A0FFF782FFBDE87040FF2091E792
:1006200077B5BEA185B00646D1E90001CDE900014C
:10063000B9A0002200680390B3A0B04D0068283D27
:10064000A5F128030290AD4C1146A3F13200A95444
:1006500099548154A154521CD2B21E2AF7D30A21B4
:100660000170FF2444708470C470A448A7A150385E
:10067000079A08F06BFBA14902A8503908F03AF834
:100680009E4802A9823808F035F89C4869468238AD
:1006900008F030F899483146823808F02BF897482E
:1006A0009AA15038069A08F051FB94495039A1F1AB
:1006B000320008F01FF8914803A9823808F01AF8B0
:1006C0008E492C706C702839AC70A1F15A0008F07A
:1006D00011F88A488238FFF70FFF08B070BD2DE986
:1006E000F74188468DA185B00646D1E90001CDE9E4
:1006F000000189A000220068039083A07F4D00685C
:10070000283DA5F1280102901446A1F13200AC5415
:100710008C548454521CD2B20A2AF8D30A21017094
:10072000FF2747708770C770744878A15038079AC0
:1007300008F00CFB714902A8503907F0DBFF6F4845
:1007400002A9823807F0D6FF6C486946823807F064
:10075000D1FF6A483146823807F0CCFF67484146EE
:10076000823807F0C7FF654803A9823807F0C2FF47
:100770002F706F706149AF70EC7028392C71A1F146
:100780005A0007F0B7FF5D488238FFF7B5FE08B0A2
:10079000BDE8F08170B50020FFF7D4FE5AA0FFF746
:1007A000BDFE56480D2259A1823808F0CFFA5348B1
:1007B0008238FFF7B3FE59A0FFF7B0FE594C202155
:1007C000204604F0D3FF02464C4850A1823808F07E
:1007D000BDFA4A488238FFF7A1FE1021204604F0F6
:1007E000C5FF0246454849A1823808F0AFFA4348A0
:1007F0008238FFF793FE4C4D8021284604F0B6FF67
:1008000002463E4841A1823808F0A0FA3B488238AF
:10081000FFF784FE4021284604F0A8FF024637482F
:100820003AA1823808F092FA34488238FFF776FE0F
:100830004FF40041204604F099FF02462F4833A1AF
:10084000823808F083FA2D488238FFF767FE4FF4AC
:100850008041204604F08AFF024628482BA18238B6
:1008600008F074FA25488238FFF758FE4FF400511B
:10087000204604F07BFF0246204824A1823808F07D
:1008800065FA1E488238FFF749FE4021274804F0E8
:100890006DFF024619481DA1823808F057FA174823
:1008A0008238FFF73BFE1CA0FFF738FEFF20FFF762
:1008B00049FEFF20FFF746FEBDE87040FF2041E6FD
:1008C000FEB51BA10646D1E90001CDE900011AA041
:1008D00000210A4D0068283DA5F1280202900C462F
:1008E000A2F132006C5454544454491CC9B2322908
:1008F000F8D30A210170FF2747701FE0E2020020B1
:10090000B860024000500040740000002564000000
:100910002E7478743D000000220000002E7478745C
:100920003D2200000008024000000240001002408A
:100930002E76616C3D0000006A0000008770C77071
:100940000022AFF23801FE4808F000FAFC4902A884
:1009500007F0D0FEFA4802A9323807F0CBFEF8487B
:100960006946323807F0C6FE3246AFF26001F448FD
:1009700008F0ECF9F249A1F1320007F0BBFE2F704C
:100980006F70EF49AF70EC7028312C71A1F15A00F3
:1009900007F0B0FEEA483238FFF7AEFDFEBD2DE9A4
:1009A000FC414FF08047384605F090FDE54D696900
:1009B000642640EA014090FBF6F00024019038469E
:1009C00005F084FD696940EA014090FBF6F0019969
:1009D0000090401A00D54042322800DA641C00988A
:1009E0000190022CEBDB0098002800DA4042BDE8C1
:1009F000FC812DE9FC41D44F384605F067FDD14D0F
:100A00002969642640EA014090FBF6F00024019039
:100A1000384605F05BFD296940EA014090FBF6F09D
:100A200001990090401A00D54042322800DA641C37
:100A300000980190022CEBDB00980028D7DA4042A6
:100A4000D5E710B5FFF7ABFF0446FFF7D2FF002C48
:100A500000DA6442002800DA4042204410BD01B5AB
:100A600081B0019800EBC00040000090002801D048
:100A7000401EFAE70CBD01B581B044F25061019807
:100A800048430090002801D0401EFAE70CBD2DE934
:100A9000FC4101211F2004F0D1FF01248DF8044006
:100AA00000268DF806604FF6FF758DF80740032786
:100AB00000958DF805706946A44804F0F1FD8DF8A5
:100AC00004408DF806608DF8074000958DF805709C
:100AD00069469F4804F0E4FD8DF804408DF80660F7
:100AE0008DF8074000958DF805706946994804F027
:100AF000D7FD7CE77CB501217E2004F09FFF002418
:100B0000C0208DF80440012500908DF80750022682
:100B10008DF805606946904804F0C2FD06208DF806
:100B2000044000908DF807508DF8056069468748AD
:100B300004F0B6FD04208DF8044000908DF80750B5
:100B40008DF805606946824804F0AAFD7CBD1FB59A
:100B50004FF4E06004F0ECFC36208DF80C0000242B
:100B60008DF80D408DF80E4001208DF80F0003A880
:100B700004F0E3FC0121102004F07EFF3220ADF8E8
:100B80000000ADF80840ADF8024040F2E730734C89
:100B900001906946204605F053FC0121204605F0EE
:100BA000F8FF01221146204605F0D3FF0021204620
:100BB00005F088FC0121204605F0BAFC1FBD1FB5D9
:100BC0004FF4E06004F0B4FC37208DF80C000024F2
:100BD0008DF80D408DF80E4001208DF80F0003A810
:100BE00004F0ABFC0121202004F046FF4FF4FA7022
:100BF000ADF80000ADF80840ADF8024040F2E73033
:100C0000574C01906946204605F01AFC0121204608
:100C100005F0BFFF01221146204605F09AFF002192
:100C2000204605F04FFC0121204605F081FC1FBD48
:100C300070B58AB00121022004F028FF01210C20A8
:100C400004F0FCFE424E03220621304604F0B1FDC2
:100C500003220721304604F0ACFD03220821304670
:100C600004F0A7FD03220921304604F0A2FD4FF451
:100C70007070059002208DF8180003208DF819007F
:100C800000248DF81A4001258DF81B5005A9304627
:100C900004F006FDA420ADF81C0040F6B830089022
:100CA0002802304EADF82400ADF81E4007A93046AA
:100CB00005F0C6FB6020ADF80000ADF802500294CC
:100CC000ADF80C400121304605F032FC00213046E1
:100CD00005F0F8FB6946304605F034FC69463046BD
:100CE00005F05CFC6946304605F094FC69463046E8
:100CF00005F0CAFC0121304605F00CFF0AB070BDBA
:100D000070B58AB00121082004F0B6FE0121084622
:100D100004F094FE104E02220021304604F049FDFA
:100D200002220121304604F044FD022211463046E1
:100D300004F03FFD02220321304604F03AFD13E0A7
:100D40009202002000000020000001400004024048
:100D500000080240000C0240000002400010004069
:100D600000140040000401400F20059002208DF87F
:100D7000180003208DF8190000248DF81A40012571
:100D80008DF81B5005A9304604F08AFCBA20ADF856
:100D90001C0042F210700890ADF82440ADF81E40DF
:100DA00007A9FE4E304605F04BFB6020ADF8000071
:100DB000ADF802500294ADF80C400121304605F028
:100DC000B7FB0021304605F07DFB6946304605F053
:100DD000B9FB6946304605F0E1FB6946304605F04F
:100DE00019FC6946304605F04FFC0121304605F0FC
:100DF00091FE83E770B58AB00121042004F03CFE27
:100E000001210D2004F01AFEE54E02220C2130468D
:100E100004F0CFFC02220D21304604F0CAFC02226D
:100E20000E21304604F0C5FC02220F21304604F0AA
:100E3000C0FC4FF47040059002208DF8180003208C
:100E40008DF8190000248DF81A4001258DF81B50EB
:100E500005A9304604F024FCA420ADF81C0040F69F
:100E6000B83008902802CF4EADF82400ADF81E40EF
:100E700007A9304605F0E4FA6020ADF80000ADF8AF
:100E800002500294ADF80C400121304605F050FBB1
:100E90000021304605F016FB6946304605F052FB4E
:100EA0006946304605F07AFB6946304605F0B2FBEC
:100EB0006946304605F0E8FB20E770B5012188B0AF
:100EC000080404F0E3FD0121084604F0B7FDB64E26
:100ED00003221146304604F06CFC03220221304606
:100EE00004F067FC0C20009002208DF80400032021
:100EF0008DF8050000248DF8064001258DF8075077
:100F00006946304604F0CCFB4FF6FF70A74EADF8B3
:100F100008400390ADF81040ADF80A4002A93046F1
:100F200005F08EFA0420ADF81400C820ADF81C00BE
:100F3000ADF81640ADF8185005A9304605F03AFD59
:100F40009B4C00231A460321204605F09CFE0121FC
:100F5000204605F01EFE01221146204605F0F9FD4F
:100F60000121304605F0E4FA0021204605F0AAFAF6
:100F700008B070BD2DE9F04701218AB0084604F0A1
:100F80007BFD0121022004F077FD0121032004F004
:100F900055FDDFF8149201220F21484604F009FCA8
:100FA000DFF8108201220321404604F002FC0222F5
:100FB0000421404604F0FDFB02220521404604F0D6
:100FC000F8FB02268DF80460032738208DF80570A1
:100FD000002400908DF8064001258DF807506946E1
:100FE000404604F05DFB8DF80460E8038DF8057061
:100FF00000908DF806408DF807506946484604F089
:101000004FFB4FF6FF70ADF80C4004904FF0804955
:10101000ADF81440ADF80E4003A9484605F010FAAB
:10102000DFF894A103A9504605F00AFA4FF004082E
:101030001420ADF81880ADF82000ADF81A60ADF8B6
:101040001C5006A9484605F0B5FC06A9504605F017
:10105000B1FC02231A460321484605F014FE022380
:101060001A460321504605F00EFE0121484605F0C0
:1010700090FD0121504605F08CFD012211464846A5
:1010800005F067FD01221146504605F062FD012181
:10109000484605F04DFA0121504605F049FA002175
:1010A000484605F00FFA0021504605F00BFA780289
:1010B00004F03EFA1D208DF808008DF809708DF8B7
:1010C0000A408DF80B5002A804F037FA1C208DF866
:1010D00008008DF809808DF80A408DF80B5002A8A1
:1010E00004F02BFA0AB0BDE8F08770B501218AB090
:1010F000084604F0CBFC0121102004F09FFC4FF4C3
:101100002060009002208DF8040003208DF8050077
:1011100000242A4E8DF8064001258DF807506946B7
:10112000304604F0BDFA01220921304604F041FBAB
:1011300001220B21304604F03CFB4FF6FF701B4EA2
:10114000ADF808400390ADF81040ADF80A4002A990
:10115000304605F075F90420ADF814000A20ADF80A
:101160001C00ADF81640ADF8185005A9304605F042
:1011700021FC00231A460321304605F084FD01219D
:10118000304605F006FD01221146304605F0E1FC2F
:101190000121304605F0FDFC012211E0000C004069
:1011A000000C024000080040000002400000014026
:1011B00000400140000402400004004000100240D2
:1011C0001146304605F0C5FC0121304605F0B0F966
:1011D0000021304605F076F94FF4C06004F0A8F91C
:1011E00019208DF820008DF821508DF822408DF8BF
:1011F000235008A804F0A1F980E52DE9F0418AB058
:101200000121042004F038FC0121082004F016FC20
:101210004FF440500226009003208DF80460002413
:101220008DF805008DF8064001258DF807506946B8
:10123000FE4F384604F034FA4FF6FF70DFF8F083C3
:10124000ADF808400390ADF81040ADF80A4002A98F
:10125000404605F0F5F802220C21384604F0A9FAC0
:1012600002220D21384604F0A4FA0427C820ADF864
:101270001470ADF81C00ADF81660ADF8185005A953
:10128000404605F097FB02231A460321404605F02D
:10129000FAFC0121404605F07CFC01221146404643
:1012A00005F057FC0121404605F042F942F2107169
:1012B000404605F007F9DE4814300480A8F80050D5
:1012C0004FF4C06004F034F91E208DF820008DF832
:1012D00021708DF822408DF8235008A804F02DF9D4
:1012E0000AB0BDE8F0812DE9F0418AB00121082063
:1012F00004F0C2FB0121084604F0A0FB03200226F3
:101300008DF804608DF805000024CA4F00908DF818
:10131000064001258DF807506946384604F0C0F9AB
:101320004FF6FF70DFF81083ADF808400390ADF87A
:101330001040ADF80A4002A9404605F081F80222AB
:101340000021384604F035FA02220121384604F023
:1013500030FA0427C820ADF81470ADF81C00ADF8C1
:101360001660ADF8185005A9404605F023FB02238E
:101370001A460321404605F086FC0121404605F04F
:1013800008FC01221146404605F0E3FB01214046DE
:1013900005F0CEF842F21071404605F093F8A648E9
:1013A00014300480A8F800504FF4C06004F0C0F876
:1013B00032208DF820008DF821708DF822408DF8B4
:1013C000235008A804F0B9F88AE72DE9F0419CB051
:1013D00001219A4804F032FB01210D02284604F055
:1013E00055FB97480024CDE90040964802A94FF0EC
:1013F000080881E81101A800CDE9054040000790E8
:101400008000CDE908050AA90001012581E8310025
:101410008D4E0D94694630460E9404F007FE01216E
:10142000304604F03CFE03273C268DF85870159694
:101430008DF85B4015A97F4804F032F98DF858709B
:1014400015968DF85B4015A9804804F029F93804F9
:10145000CDE91740B001CDE9194017A804F0EBFB26
:101460001194129413942806754C0F908DF84050E7
:101470004C3C8DF841508DF850800FA9204604F067
:10148000AFFB042301220221204604F01EFC0423AA
:1014900002220321204604F018FC042303221946EB
:1014A000204604F012FC04231A460521204604F0CD
:1014B0000CFC042305220C21204604F006FC042326
:1014C00006220D21204604F000FC042307220E21F1
:1014D000204604F0FAFB042308220F21204604F0E2
:1014E000F4FB0121204604F06DFC0121204604F0AC
:1014F0005FFC0121204604F0B5FB204604F01FFCF0
:101500001CB0EEE608B54FF4E06004F011F82520B9
:101510008DF8000000208DF801008DF802000120F8
:101520008DF80300684604F008F808BD70B505465C
:1015300096B00121102004F0A9FA0121084604F018
:101540007DFA0121880504F079FA4FF4C060139008
:1015500002208DF8500000248DF852408DF8534041
:10156000344E8DF8510013A9304604F099F8072243
:101570000921304604F01DF907220A21304604F003
:1015800018F90F95ADF844400C20314DADF84040AE
:10159000ADF84600ADF84240ADF848400FA92846E6
:1015A00005F0E7FB0121284605F054FC4FF4A0604C
:1015B00003F0BEFF3A208DF854008DF855408DF8A9
:1015C000564001208DF8570015A803F0B6FF1E4EB7
:1015D0003036304604F0A2FC4FF00060009019480D
:1015E00069461030CDE902040A200490281D0190BC
:1015F0000015CDE905408010CDE9084040020A9071
:1016000004200B9007940320CDE90C0430460E947F
:1016100004F00CFD01224021284605F0B2FC012215
:101620001021304604F0B0FD012113E0000C02400F
:101630000008004000000240000C0040050040008F
:101640004C200140140300201064024000080240B6
:1016500000100140304604F022FD16B070BDF0B518
:101660000646012197B0480504F0E8F901214D0430
:10167000284604F001FA0121082004F0DFF9602077
:10168000139002208DF8500000248DF852408DF800
:1016900053408DF8510013A9FE4F384604F000F86E
:1016A00007220521384604F084F80722062138462F
:1016B00004F07FF80F96ADF844400C20F64EADF8DC
:1016C0004040ADF84600ADF84240ADF848400FA9A3
:1016D000304605F04EFB0121304605F0BBFB4FF4D0
:1016E000A06003F025FF11208DF854008DF85540BF
:1016F0008DF8564001208DF8570015A803F01DFF06
:10170000E64F384604F00AFCA802009040200390FF
:10171000E34802903C200490301D01900015CDE973
:1017200005408010CDE908400420CDE90A50079417
:101730000320CDE90C04694638460E9404F076FC8B
:1017400001228021304605F01CFC01228021304618
:1017500005F017FC01221021384604F015FD012187
:10176000384604F09CFC17B0F0BD70B50546012169
:1017700096B0880404F080F90121082004F05EF995
:101780000121480504F05AF94FF4407013900220EB
:101790008DF8500000248DF852408DF85340BD4E16
:1017A0008DF8510013A9304603F07AFF0722082173
:1017B000304603F0FEFF07220921304603F0F9FF0F
:1017C0000F95B84EADF84040ADF844400C25ADF84B
:1017D0004240ADF84840ADF846500FA9304605F0FC
:1017E000C8FA0121304605F035FB4FF4A06003F044
:1017F0009FFE8DF854508DF855408DF856400120CD
:101800008DF8570015A803F098FEA44D783D2846A2
:1018100004F084FB4FF000600090A348CDE902047F
:1018200008200490301D01900015CDE9054080107E
:10183000CDE9084040020A9004200B900794032051
:10184000CDE90C04694628460E9404F0EFFB012212
:101850004021304605F095FB01224021304605F03D
:1018600090FB01221021284604F08EFC012128461D
:1018700004F015FCF1E6F0B50646012197B0C80466
:1018800004F0FAF80121084604F0D8F801214805CF
:1018900004F0D4F802208DF8500000248DF8524056
:1018A0008DF85340814F03258DF85100139513A9EE
:1018B000384603F0F5FE08220021384603F079FF90
:1018C00008220121384603F074FF0F96ADF844401A
:1018D0000C20774EADF84040ADF84600ADF84240E0
:1018E000ADF848400FA9304605F043FA01213046D3
:1018F00005F0B0FA4FF4A06003F01AFE0D208DF849
:1019000054008DF855408DF8564001208DF8570051
:1019100015A803F012FE614F603F384604F0FEFA4E
:1019200078050090604869460F38CDE90204082028
:101930000490301D01900015CDE905408010CDE9DF
:101940000840400207940A900420CDE90C540B9003
:1019500038460E9404F06AFB01224021304605F01F
:1019600010FB01224021304605F00BFB0122102123
:10197000384604F009FC0121384604F090FBF2E6F9
:101980002DE9F0418046012196B0480504F056F853
:101990000121080504F070F801210C2004F04EF834
:1019A00002258DF8405000248DF84240394F04261E
:1019B0008DF843400F968DF841500FA9384603F03B
:1019C0006FFE8DF840508DF842408DF84340E8029C
:1019D0008DF84150374D0F900FA9284603F060FE57
:1019E00008220221384603F0E4FE08220C21284692
:1019F00003F0DFFE4FF4A06003F09AFD2F208DF876
:101A0000540005208DF855008DF8560001208DF802
:101A1000570015A803F091FDADF84C400C20264D61
:101A2000ADF84840ADF84E00CDF84480ADF84A40DE
:101A3000ADF8504011A9284605F09BF90121284630
:101A400005F008FA154F1837384604F067FA7006A3
:101A5000009040200390144869466038029031207D
:101A60000490281D01900015CDE905408010CDE9B6
:101A700008404002CDE90A0607940320CDE90C0492
:101A800038460E9404F0D2FA01228021284605F04F
:101A900078FA13E0000C024000440040A0600240CD
:101AA0007401002000480040420300200000024072
:101AB000004C00400008024000500040012210216C
:101AC000384604F061FB0121384604F0E8FA16B00C
:101AD00007E430B585B00121082003F0AFFF0121F4
:101AE000880303F0D3FF00240C208DF8104001255B
:101AF00003908DF8135003A9FE4803F0D1FD022195
:101B0000032005F0A8FA042000908DF8044010206E
:101B10008DF805008DF80650684604F09DFB0820FE
:101B20008DF808008DF809408DF80A408DF80B50AB
:101B300002A803F002FD05B030BD10B5012810D099
:101B4000032819D0042822D0052809D1EA4C2046C0
:101B500005F0A6F94021204605F033FA0028F9D017
:101B600010BDE64C204605F09BF94021204605F0CB
:101B700028FA0028F9D010BDE14C204605F090F974
:101B80004021204605F01DFA0028F9D010BDDD4C9B
:101B9000204605F085F94021204605F012FA00287C
:101BA000F9D010BDD84900204862D8490861D84909
:101BB0000860D849C8647047D34900204862D349B7
:101BC00008614FF0804250624861D34A10608861DA
:101BD000CF490860CF49C86470474FF0804100206A
:101BE0004862CA4948617047CB4900200860C7492C
:101BF0008861704770B5C54D0020E87004466121CA
:101C00000120FFF79AFF3220FEF735FF641C022CFB
:101C1000F5D30120E8707A20A87070BD70B5BB4D77
:101C200000206871044661210320FFF786FF3220FF
:101C3000FEF721FF641C022CF5D3012068717A2085
:101C4000287170BD2DE9F14F96B0002014908DF8E9
:101C50000000B24C8DF828004FF40045169AAB49AD
:101C6000AC486E1027154FF480584FF40059122AD3
:101C70006BD2DFE802F009262C3034383C4044486F
:101C80004E52575D61656DFD088901280CD0012217
:101C90002946204603F082FD2946204603F070FDC8
:101CA000014600229EA04EE000222946204603F075
:101CB00075FD2946204603F063FD01460022A0A0E1
:101CC00041E0924801228030C16EA5A03BE0016D49
:101CD0000222A5A037E0416D0322A7A033E0C16D29
:101CE0000422A8A02FE0816D0522A9A02BE00622E6
:101CF000C969AAA027E0016E0722ABA023E00C224D
:101D0000096AACA01FE0FEF74AFE01460922ADA019
:101D100019E0C16E0822ADA015E0AE4801680B22A3
:101D2000ADA010E0FEF78DFE01460A22ADA00AE04C
:101D3000816E0D22ADA006E00E22896AAFA002E0FE
:101D4000416E1022B0A0FEF76BFC17B0BDE8F08F1B
:101D5000DFF8BCA20121504603F008FD0246ADA108
:101D6000684606F0F3FF69460AA806F0C3FC0221A4
:101D7000504603F0FBFC0246A6A1684606F0E6FFCB
:101D800069460AA806F0B6FC3146504603F0EEFC60
:101D90000246A0A1684606F0D9FF69460AA806F0E7
:101DA000A9FC2946504603F0E1FC024699A1684689
:101DB00006F0CCFF69460AA806F09CFC08215046B4
:101DC00003F0D4FC024693A1684606F0BFFF6946C3
:101DD0000AA806F08FFC4FF48071504603F0C6FC51
:101DE00002468CA1684606F0B1FF69460AA806F0D3
:101DF00081FC0421504603F0B9FC024685A16846E7
:101E000006F0A4FF69460AA806F074FC802150463B
:101E100003F0ACFC02467FA1684606F097FF6946D6
:101E20000AA806F067FC4021504603F09FFC0246DA
:101E300078A1684606F08AFF69460AA806F05AFCAF
:101E40003946504603F092FC024672A1684606F0FD
:101E50007DFF69460AA806F04DFC4146504603F056
:101E600085FC02466BA1684606F070FF694600E0FB
:101E7000DCE00AA806F03EFC4D464946504603F019
:101E800075FC024663A1684606F060FF69460AA831
:101E900006F030FC2021504603F068FC02465DA1AC
:101EA000684606F053FF69460AA806F023FC102195
:101EB000504603F05BFC024656A1684606F046FF1A
:101EC00069460AA806F016FC2946204603F04EFC97
:101ED000024650A1684606F039FF69460AA806F096
:101EE00009FC3146204603F041FC024649A1684600
:101EF00092E00000000C0240005000400010014041
:101F000000480040004C004000000140000000205C
:101F10002408004000010020240400400008024082
:101F2000524F424F5420322044414E4720434841B3
:101F3000592053414E20444F3A20202000000000F9
:101F4000524F424F5420322044414E472043484193
:101F5000592053414E2058414E483A20202000003D
:101F6000494D553A000000004C415A45525F4241EC
:101F7000545F424F4E473A004C415A45525F5341DD
:101F8000553A00004C415A45525F504841493A0089
:101F90004C415A45525F545241493A004249454EDC
:101FA0002054524F20593A004249454E2054524F36
:101FB00020583A004249454E2054524F204D414D41
:101FC0003A000000454E5F464C3A000054414D5FD8
:101FD0005900000034040140536572766F5F43611D
:101FE0006D3A0000544F4E473A00000053494C4FA1
:101FF0005F5448415F424F4E473A000054616D20A4
:1020000053494C4F3A00000054414D5F58000000C6
:10201000001002402564000006F098FE69460AA8F8
:1020200006F068FB0F220AA9F9A0EAE03946F94850
:1020300003F0A6FB0246AFF22401684606F086FED6
:1020400069460AA806F056FB8021204603F098FB5B
:102050000246AFF24001684606F078FE69460AA8DB
:1020600006F048FB4FF40071204603F089FB02465E
:10207000AFF26001684606F069FE69460AA806F0FC
:1020800039FBDFF894A33946504603F079FB02464A
:10209000AFF28001684606F059FE69460AA806F0CC
:1020A00029FB4FF4006B5946DA4803F069FB0246FE
:1020B000AFF2A001684606F049FE69460AA806F09C
:1020C00019FB44464146D34803F05AFB0246AFF29F
:1020D000BC01684606F03AFE69460AA806F00AFB0B
:1020E0004946CC4803F04CFB0246AFF2D8016846A3
:1020F00006F02CFE69460AA806F0FCFA3146C548EF
:1021000003F03EFB0246AFF2F401684606F01EFE05
:1021100069460AA806F0EEFA2946BE4803F030FBED
:102120000246AFF21011684606F010FE69460AA892
:1021300006F0E0FA3946504603F022FB0246AFF2C1
:102140002C11684606F002FE69460AA806F0D2FA8B
:102150003146504603F014FB0246AFF24811684680
:1021600006F0F4FD69460AA806F0C4FA594650463E
:1021700003F006FB0246AFF26411684606F0E6FD86
:1021800069460AA806F0B6FAA44D4FF480712846B5
:1021900003F0F6FA0246AFF28411684606F0D6FD67
:1021A00069460AA806F0A6FA5946284603F0E8FA56
:1021B0000246AFF2A011684606F0C8FD69460AA8BB
:1021C00006F098FA2146284603F0DAFA0246AFF202
:1021D000BC11684606F0BAFD69460AA806F08AFAFC
:1021E00040218C4803F0CCFA0246AFF2D811684681
:1021F00006F0ACFD69460AA806F07CFA11220AA98D
:1022000087A0FEF76CFAA0E50121874803F047BFDD
:1022100011B48648816C009A914201DD002101E0F1
:10222000816C491C8164806C18BC0BE52DE9F0477A
:102230000025794E074601244FF400594FF4804899
:102240004FF4805A00224146304603F0A7FA10208E
:10225000FEF705FC274201D0012200E0002249469A
:10226000304603F09BFA01224146304603F096FACD
:102270001020FEF7F4FB5146304603F077FA00B128
:102280002543600010F0FF04DCD12846BDE8F0874C
:1022900070B5614E4FF4004500222946304603F0E8
:1022A0007DFA1020FEF7DBFB0120FFF7BFFF422085
:1022B000FFF7BCFFFF20FFF7B9FFFF20FFF7B6FFD6
:1022C0005A4CB0342070FF20FFF7B0FF6070FF2041
:1022D000FFF7ACFFA070FF20FFF7A8FFE070FF2022
:1022E000FFF7A4FF2071FF20FFF7A0FF60712946D0
:1022F0003046BDE87040012203F050BA70B5464E3A
:102300004FF4004500222946304603F047FA1020DA
:10231000FEF7A5FB0120FFF789FF4220FFF786FFAC
:10232000044601222946304603F038FA1020FEF711
:1023300096FB204670BD3E4A00211167C2793B4999
:10234000B0310D2A09D0FF20087048708870C8701D
:102350000871487188710020704702780A704278CD
:102360004A7082788A70C278CA7002790A7142799A
:102370004A7180798871012070472C482C49B0300F
:102380000278FF2A05D14278FF2A02D18278FF2AFB
:1023900009D00A6F531C0B67C82A03DDFF210170A7
:1023A0004170817070470020086770471F48B03047
:1023B000807970471D48B0300078400601D4012074
:1023C0007047002070471948B0300078800701D46A
:1023D000012070470020704770B5144C0125803CE7
:1023E000002604F1F403002803D006DDD8709D70A8
:1023F00007E094F82400D87003E0C0F10000D87022
:102400009E70002916D019DDD9719D711AE0000067
:10241000493A000000040240000C02400000024063
:102420004F55543A00000000A06002400001002017
:102430000000002094F82400D87103E0C1F10000EE
:10244000D8719E71002A03D006DDDA729D7270BDCC
:1024500094F82400D87270BDC2F10000D8729E7248
:1024600070BDFE49C870C871C8727047FB49012031
:10247000F43908627047F948C178032907D2C17955
:10248000032904D2C07A032801D20120704700201A
:102490007047F248F438C06CA0F5EA41303901D0F9
:1024A0000120704700207047FFF7A4BBEC48B0F94B
:1024B0000C0040427047EA48B5EEC00AD0ED1E0A53
:1024C000F1EE10FA02D230EE600A01E030EE200A9E
:1024D000BDEEC00A10EE100A704710B5041EE048A9
:1024E0002DED048B00F180009FEDDE8B11D0806B11
:1024F00014DA06F0A6FA41EC190B204606F0A1FA10
:1025000053EC182B06F0BCF953EC182B06F0B2F97B
:1025100013E09FEDD60ABDEC048B10BD06F091FAD6
:1025200041EC190B204606F08CFA53EC182B06F000
:10253000A7F953EC182B06F0FCF853EC192B06F016
:1025400011FA06F0A2FA00EE100AE4E7B5EEC00AAE
:10255000F1EE10FA01DAB1EE400A7047002800DA15
:1025600040427047BE49803191ED060AD1ED071A0D
:10257000F1EE400A80EEA11A00EE900AF8EEE00AB1
:1025800001EE200ABDEEC00A10EE100A7047F0EE10
:10259000401A9FEDB70AF5EEC01AF1EE10FA01D21B
:1025A000F1EE611AF5EEC00AF1EE10FA01D2F1EE89
:1025B000600AB5EEC01AF1EE10FA01D2B1EE411A7E
:1025C000F4EEC01AF1EE10FA01DDB0EE610AF4EE9D
:1025D000C00AF1EE10FA01DDB0EE600AB4EEC01AE6
:1025E000F1EE10FA01DDB0EE410A70479C488030F0
:1025F000806B70479A488030406E704770B5984C39
:102600002DED068B8034B0EE408A04F18005E06C3D
:10261000A0F5EA4130397ED0A26DE16ED4ED170A03
:10262000891A401A00EE100A94ED011A206EB8EED5
:10263000C00A00EEC10AD4ED000AC0EE208A06F0FE
:1026400011FA94ED0B0A41EC190B20EE280A10EE5A
:10265000100A06F007FA41EC100B06F0A5FB9FEDFF
:1026600085AB51EC100B53EC1A2B06F009F953EC27
:10267000192B06F0FFF806F008FAA067206E06F0A6
:10268000F1F994ED020AD4ED0B0A41EC190B38EE86
:10269000800A20EE200A10EE100A06F0E3F941EC61
:1026A000100B06F081FB9FED751B51EC100B53ECEA
:1026B000112B06F0E5F853EC192B06F0DBF806F0C9
:1026C000E4F9E06794ED030AD4ED0B0A38EE800AD2
:1026D00020EE200A10EE100A06F0C4F941EC100BAF
:1026E00006F062FB53EC1A2B51EC100B06F0C8F805
:1026F00006F0CBF9C5F80000B5EEC08AF1EE10FA8D
:1027000038D0606B80B1012814D0022819D003287A
:1027100030D123E0FFE79FED550A85ED000A84EDF7
:102720001F0A84ED1E0AE7E794ED1E0A30EE480A00
:1027300084ED1E0A94ED1F0A30EE480A84ED1F0A4C
:1027400005E094ED1E0A30EE480A84ED1E0A95ED70
:10275000000A30EE480A85ED000A0BE094ED1E0AEF
:1027600030EE480A84ED1E0A94ED1F0A30EE480A46
:1027700084ED1F0A95ED001AD4ED1F0A94ED1E0A90
:10278000FFF705FF3648D0ED1D0AF8EEE00A80EEAF
:10279000801ABDEEC10A10EE100A2064A16B8142BE
:1027A00000DDA06301202063BDEC068B70BD2C49C9
:1027B000002280310028CA6348640FD18A639FEDEC
:1027C0002B0A47F2305081ED180AC864086581ED84
:1027D000170A4A634A654A660A620FE7704720484B
:1027E000803090ED170AB5EEC00AF1EE10FA04D170
:1027F000416B11B9416D002909D000219FED1B0AE1
:1028000080ED170A41634165C16E8165F6E6704748
:1028100013488030C0ED060A80ED070A7047104A61
:102820008032D36C834209D1D36B8B4206D1D2ED77
:10283000180AF4EE400AF1EE10FA23D0D163916B3E
:1028400009B905219163D16E916582ED180AD064B2
:102850000020906492ED170AD0E600007401002079
:10286000000000209A9999999999B93F00000000B9
:102870006F12833A00000000000000C0000000005A
:10288000000000407047FF4A30B4536D834209D1C5
:10289000D2ED170AF4EE400AF1EE10FA02D1536BB2
:1028A0008B4226D0D46C47F230539C4219D132244B
:1028B000D46305249463984213DAB5EEC00A012369
:1028C000F1EE10FA536602DDD36E834207DCB5EEFB
:1028D000C00AF1EE10FA04D2D36E834201DAB1EEEF
:1028E000400A5163506582ED170A0020906430BCA5
:1028F00084E630BC7047014647F23050C3E71FED15
:10290000250A8CE710B5DF4C2DED028BF0EE608AC6
:10291000D4ED140AB0EE418AF8EEE00AF4EE400A73
:10292000F1EE10FA0BD1E16B814208D1D4ED150A1A
:10293000F8EEE00AF4EE680AF1EE10FA4BD0FDEE84
:10294000C00A0146C4ED140AD4ED1B0AF8EEE00AF1
:1029500030EE600ABDEEC00A10EE102A1FED3D0AEF
:102960001046FFF75CFF94ED1B0AF8EEC00A78EE04
:10297000E00AFDEEE00A10EE900A002800DA40427C
:10298000B8EEC00A642819DDF4EEC08AF1EE10FA40
:1029900001DCB1EE488A18EE100A06F063F800BFB9
:1029A00006F073F8FDEEE80ABDEC028B00EE100AAB
:1029B000BDE81040002110EE900A64E738EEC00A2E
:1029C00010EE100A06F04EF89FEDAF1B53EC112BE2
:1029D00005F056FFE4E7BDEC028B10BD10B5A94C25
:1029E000606E01282FDDE16E606D401AFFF7B6FDC5
:1029F0000A2812DA0020A0631FED640AE06384ED68
:102A0000170AFFF7FBFD606E411C6166B0F5FA7FA7
:102A100019DDBDE810400020C9E60520616EE063C5
:102A2000FA29A06301DDFB206066616DE06E8842DB
:102A300002DDBFEE000A01E0B7EE000A84ED170ADE
:102A4000BDE81040DAE510BD8E4910B591ED180AC9
:102A5000B5EEC00AF1EE10FA72D18A6B002A6FD07F
:102A6000486D47F2305398426ADA91ED170AB5EE95
:102A7000C00AF1EE10FA7CD0CC6C9C4261D1B5EE6C
:102A8000C00AF1EE10FA04DD4A69CB6E821A9A424E
:102A900009DBB5EEC00AF1EE10FA17D24A69CB6E27
:102AA00002449A4212DD4A6E032A49DAC01AFFF73D
:102AB00055FD0A28486D0ADA8866002088631FEDF4
:102AC000950AC86381ED170A022048667BE091ED04
:102AD0000E0AD1ED170A6B4AB8EEC00ACB6E803AE7
:102AE000984260EE200A91ED050AB8EEC01A80EE19
:102AF000810A0FDDFFF72AFDCB6E486DC01AFFF784
:102B00002DFD00EE900AB8EEE01AD2ED1F0A40EE5D
:102B1000010A0EE0FFF71AFDCB6E486DC01AFFF7F1
:102B20001DFD00EE900AB8EEE01AD2ED1F0A50EE3D
:102B3000410A91ED0E0AB8EEC01A80EE810A42E019
:102B400046E0B5EEC00AF1EE10FA1ADD00EE900A8A
:102B5000B8EEE01A00EE902AF8EEE00A00EEC01A95
:102B6000D1ED040AF8EEE00A31EE601AD1ED1B0A4D
:102B700000E02BE0F8EEE00AB4EEE01AF1EE10FA15
:102B80001DD3B5EEC00AF1EE10FA1CD200EE900A89
:102B9000B8EEE01A00EE902AF8EEE00A00EEC01A55
:102BA000D1ED040AF8EEE00A31EE201AD1ED1B0A4D
:102BB000F8EEE00AB4EEE01AF1EE10FA03DDC96EA9
:102BC000401AFFF78AFCBDE8104017E5886DF6E76C
:102BD00010BD2C48416E02290CDA1FEDDC0A0022E0
:102BE00080ED180A80ED170A47F230514263C16444
:102BF000C0E91412826C521C8264816A8A4202DB30
:102C00008164016A09B1406A00E0002029E41D4A9C
:102C1000936C5B1C9364834204DD906B0844906367
:102C200000209064704710B5FFF740FC154CE0663B
:102C3000FFF7D4FEE26BA06B4FF0FF31002A0BDDF3
:102C400090420ED006DA216C88420ADAFFF78AFC3D
:102C5000012104E0606F02E000283ADD606CFFF7BC
:102C6000D6FFD4E91B01814203D0FFF7EDFEE06EF1
:102C70002067206B00282FD094ED0E0A0148B8EE93
:102C8000C00A05E0800000207B14AE47E17A743F63
:102C90008030D0ED000A20EE200AFFF70CFC94ED06
:102CA0000E0AD4ED1F0A0246B8EEC00A20EE200A32
:102CB000FFF701FC94ED0E0AD4ED1E0A0146B8EEB2
:102CC000C00A20EE200AFFF7F6FBBDE81040FFF730
:102CD00083BBBDE810407CE710BD30B4F84CE46D18
:102CE000A41A01D4224600E06242C2EB021240F272
:102CF0008A25AA4200DD2A469FEDF21A9C4208DD91
:102D000000EE101AC2F10001F8EEC00A00EE101A2F
:102D100006E000EE101AF8EEC00A04DA00EE102AFF
:102D2000B8EEC00A01E09FEDE80A30BCEAE530B435
:102D3000E34CE46DA41A01D4224600E06242C2EBE7
:102D400002124FF4FA75AA4200DD2A469FEDDD1A01
:102D50009C420ADD00EE101AA2F5E162F8EEC00A0C
:102D600000EE102AB8EEC00A11E00ADAC2F5E162FC
:102D700000EE102A00EE901AB8EEC00AF8EEE00A53
:102D800005E000EE101AF8EEC00A9FEDD00A30BC44
:102D9000B8E530B4CA4CA46DA41A01D4224600E0B0
:102DA0006242C2EB02124FF4FA75AA4200DD2A46D3
:102DB0009FEDC71A9C4206DD00EE101AF8EEC00A1D
:102DC00000EE102A08E000EE101AF8EEC00A06DA4B
:102DD000C2F1000100EE101AB8EEC00A01E09FED4A
:102DE000BA0A30BC8EE530B4B54CA46DA41A01D437
:102DF000224600E06242C2EB02124FF4FA75AA4288
:102E000000DD2A469FEDB21A9C420ADDC2F5E1625E
:102E100000EE102A00EE901AB8EEC00AF8EEE00AB2
:102E20000DE000EE101AF8EEC00A06DAA2F5E16233
:102E300000EE102AB8EEC00A01E09FEDA40A30BCF3
:102E400060E52DE9F0419E4BB0332DED028B987873
:102E5000401FF52801D8012400E000241879401F04
:102E6000F52801D8012500E00025954A187802F1DF
:102E7000B002C10652780FD541060DD581060BD59B
:102E8000010609D544B13DB1910605D5BDEC028BD3
:102E90000020BDE8F0418AE45107DFED8E8A03D4BB
:102EA0002321B0EE688A02E00A219FED898A9846C4
:102EB000834EC306A6F1800647F230574FEA4063BF
:102EC0000CD4002B54DA83064FEA006027D5002883
:102ED0004FEAC2702ADA98B3002034E0002B4FEAA0
:102EE00080630BDB002B4FEA006022DA00284FEAF8
:102EF000C27026DA20B34FF4E16024E0002B4FEAE1
:102F0000006006DB002833DAD00731D04FF461705F
:102F100019E0002823DBD0072AD06F4813E00028EF
:102F200026DAD00724D04FF4E1700CE040B16B48B2
:102F300009E000281CDAD0071AD040F2465002E01F
:102F400016E0A8B16648FFF7DAFC98F80000C10661
:102F50000ED541060CD581060AD5000608D584BBDE
:102F60003DB1F06CB84204D00020FFF720FC00E037
:102F70003CBB98F80210404605290DD24278D20792
:102F80000AD0F06CB8424FF0000002D09FED550A15
:102F900012E0B1EE480A0FE0FA2913D998F80100BF
:102FA000C0070FD0F06CB8424FF0000002D0B0EE76
:102FB000680A01E0B0EE480ABDEC028BBDE8F041C2
:102FC00099E4FFE7BDEC028BBDE8F04107E470B582
:102FD0003B48454A0469611C016101464B69002177
:102FE000C82C03D2D4892344436105E0C824B3FB31
:102FF000F4F301610365416185696B1C8361304BAA
:10300000DC696423642D03D295892C44C46104E0F7
:10301000B4FBF3F481614465C161056A6C1C046210
:10302000274C322D646A03D215892C44446204E093
:10303000B4FBF3F40162C4654162856A6C1C84626E
:103040001F4C642DE46A03D253892344C36204E015
:10305000B4FBF3F381628365C162056B6B1C036390
:10306000174B5C6B3223322D03D215882C444463FA
:1030700004E0B4FBF3F4016304664163856B1B4E0B
:103080006C1C84630E4C322DE46B03D255882C44A7
:10309000C46304E0B4FBF3F4F4618163C163056CC1
:1030A0006C1C0464064C322D646C02D2918821445D
:1030B00003E0B4FBF3F232620164416470BD0000CE
:1030C00000010020CDCCCC3D000000000000E14418
:1030D000CDCC4C3E9A99993E7CFCFFFF3EFEFFFF13
:1030E000BAFAFFFF9A9999BE14030020000000204D
:1030F00030B4FE4D029C1FED091AAD6DEB1AA342D0
:1031000004DD00EE102AF8EEC00A06E00ADA00EE4E
:10311000102AC1F10001F8EEC00A00EE101AB8EE54
:10312000C00A07E000EE102A1FED1A1AF8EEC00AD6
:103130001FED1B0A30BCFFF7E5BB30B4EB4D029C22
:103140001FED201AAD6DEB1AA3420ADDC1F5167111
:1031500000EE101A00EE902AB8EEC00AF8EEE00A6F
:103160000DE000EE102AF8EEC00A06DA01F516713D
:1031700000EE101AB8EEC00A01E09FEDDD0A30BC87
:10318000FFF7C0BB30B4D94D029C1FED321AAD6DB4
:10319000EB1AA34204DD00EE102AF8EEC00A06E0A6
:1031A00000EE102AF8EEC00A06DAC1F1000100EEC6
:1031B000101AB8EEC00A01E01FED3D0A30BCFFF75F
:1031C000A1BB30B4C94D029CED6DEB1A1FED431A43
:1031D000A34204DD00EE102AF8EEC00A06E000EE7D
:1031E000102AF8EEC00A06DAC1F1000100EE101A4A
:1031F000B8EEC00A01E01FED4C0A30BCFFF782BBFD
:1032000070B5BC4D0121284602F0B0FABA4C60B14D
:10321000A079C043A07102E0012004F0FAFE012170
:10322000284602F0A3FA0028F6D0A279B3484FF45A
:10323000806122B10022BDE8704002F0AFBA0122E5
:10324000F9E7F0B5AC48022400F5BA72816CC369A5
:10325000C8398B4246DB066B016CB14200DA06646A
:10326000036C416B8B4200DD0164036A01250A2770
:10327000B34201DA957303E000268B4202DD9673B8
:10328000D773F0BD076CD91B01D48C4601E0C1F1A6
:10329000000CBCF1050F25DDBB4201DD967300E09B
:1032A0009573002900DA4942904B5960C46A04EBD7
:1032B000D4704010642C01DD642500E005468D4289
:1032C00001DB084603E0642C00DD6420586014280C
:1032D00005DAC82C01DC052000E0142058601879BC
:1032E000D073F0BDD473F0BDF0B58349D1E91304B8
:1032F000A04200DACC64D1E91202824200DDC86447
:103300007A4ACB69002532267432A34201DA9575D8
:1033100003E00124834202DD9475D675F0BDCE6CC6
:10332000981B01D4074600E04742052F15DDB34244
:1033300001DD947500E09575FFF710F943006B48C7
:103340004360C96A8B4201DD416003E00F2B01DA63
:103350000F21F9E70079D075F0BD0220FBE7634843
:103360006549B0304279C86CFA2A04D90B6D98428D
:1033700001DD401E05E0052A07D28A6C904204DA7E
:10338000401CC864C82004F044BE7047F0B55A49D8
:10339000D1E91650A84200DACD654E6DC86DB04235
:1033A00000DDCE65514B01243227186E03F1740203
:1033B000A84201DA947403E00025B04202DD95745E
:1033C000D774F0BDCE6D801BFFF7C8F8022817DD5B
:1033D000186ECE6DB04201DD957400E09474801BD0
:1033E000FFF7BCF840005860C96A884200DD5960A8
:1033F00058681E2801DA052058601879D074F0BD8D
:103400000220FBE770B501223C4DD602314628462A
:1034100002F0C4F900222915284602F0BFF9364C03
:10342000206DE06440F2DC5004F0F3FD07E04B3027
:10343000814204DA01223146284602F0AFF9206DBC
:10344000E16900F10A029142F1DC40F6B83004F083
:10345000E0FDA06CE06402E0012004F0DAFDA06C65
:10346000E16932388142F7DB0020204E6062306D26
:10347000FA2801DA012500E00025052004F0C9FD45
:10348000606A401C60623228F1DB284616E61A4862
:1034900010B5816C0A39C164416EC165816B0164EC
:1034A0001749C06E0860091D40F26C700860134C2B
:1034B0000022C914204602F071F90022211520468D
:1034C000BDE8104002F06AB90D4C40F2A4652560D9
:1034D0004FF47A7740F6B836206864382060206868
:1034E000B84211D9256030460CE0000000010020F0
:1034F00000001644001002400000002000040240BA
:103500003404014004F085FDC82004F082FDE3E7A7
:103510000020FFF74CF94FF47A74204604F079FD4F
:10352000FBE770B5FD4DFF21284603F0B9FC0A20EA
:1035300004F06FFDFA4C2846218903F0B1FC0A2003
:1035400004F067FD6189284603F0AAFC0A2004F014
:1035500060FDF4480068642180B2B0FBF1F12846B8
:1035600003F09EFC0A2004F054FD22890A2004F591
:103570008071012A0CD0B1F85C1089B2B1FBF0F176
:10358000284603F08DFCBDE870400A2004F041BDE0
:10359000B1F85810F1E72DE9F05FDFF884A31426A5
:1035A00046247D250027C821CAF82C10DD4940F2A9
:1035B000A4604FF00A080860DAF84810E800CAF87A
:1035C0004C1004F026FD00210AF5807BCAF8241077
:1035D00077E000BF4FF000095BE000BFAA194FF091
:1035E00000099A4209DDFEF7B9FF0A2290FBF2F2C8
:1035F000DAF840309A1A521E0BE0AA1B9A420ADAF5
:10360000FEF7ACFF0A2290FBF2F2DAF840301A44DF
:10361000521CCAF84020C86E04EB080282420ADD40
:10362000001BFEF79BFF052290FBF2F2DAF85C30FC
:103630009A1A521E0DE0A4EB080282420BDA001B1C
:10364000FEF78CFF052290FBF2F2DAF85C301A44A8
:10365000521CCAF85C20486EC96E084307D0DAE9EC
:103660001621914203DDDAF8540081420DDB384621
:10367000DAF820107F1CCAF84010142805DDFA2063
:10368000CAF82C000020BDE8F09F4FF4C87004F089
:10369000C0FCDBF864305946581B01D4024600E0F8
:1036A0004242B2429ADCCA6E121B00D552424245D7
:1036B00094DC09F101090A2004F0ABFCB9F1640FB4
:1036C000E7DBDBF864005946401B00D54042B042BE
:1036D00080DCC86E001B00D540424045F8DC642009
:1036E00004F097FCDAF82400401CCAF824000A28E9
:1036F000E7DBFA20CAF82C000120C4E72DE9F14FDE
:103700002DED028BFFF7C3FEDFF814B2DFF814A231
:103710000BF1800B9FED848ADFED848A804F0BF1E3
:1037200080044FF00A0900224FF40061804802F043
:1037300035F8B86B3864B86CF864092600257E81CA
:103740004FF47A7004F065FCA84679E0E80714D0DD
:1037500040F2A460CAF80000A7F80A904FF47A700B
:1037600004F057FC7E8140F6B83004F052FCE16E64
:10377000606E6D1C084305D01FE04FF48C61CAF8E1
:103780000010E9E702984FF000010128B6EE000AA8
:1037900005D0A8F5487000BFFFF775F805E008F5FB
:1037A0004870F9E7012004F034FCE16E606E0843D4
:1037B00003D1DBF864000028F4D10020FEF7F7FF06
:1037C000E16E606E08431AD102984FF000010128A3
:1037D000B6EE000A05D008F5487000BFFFF753F8B1
:1037E00005E0A8F54870F9E7012004F012FCE16E4D
:1037F000606E084303D1DBF864000028F4D1002098
:10380000FEF7D5FFE16E606E084317D140F2DC5140
:10381000CAF800100021B6EE000A4046FFF733F860
:1038200002E0012004F0F5FBDBF864000028F8D189
:10383000FEF7BDFF40F6B83004F0EBFB0A2D04DCC8
:10384000606E10B9E06E002880D00020FEF7AFFF58
:1038500014E07D2804DA4FF00000BEEE000A04E018
:1038600006DD4FF00000B6EE000AFFF744F801E075
:10387000FEF7B5FFE16E606E08437DD0606E7D3867
:10388000FEF76CFE0A2802DD606EFF28E1D1002001
:10389000FEF78DFF554640F2A4665DE0E06E5028CD
:1038A00015DD2868B04212D2286840F2AA51884239
:1038B000286801D2801C00E0001D2860286840F2C2
:1038C0007261884200D92E60142004F0A2FB606E61
:1038D000872803DD0020B0EE480A04E0732805DAEB
:1038E0000020B0EE680AFFF706F801E0FEF777FF68
:1038F00028681921A0F58C60B0FBF1F0FEF72EFED0
:10390000C0F11601072900DA0721E26E606E10434C
:1039100032D04FF4E160FEF7F2FF0BE000480040C8
:103920000000002034040140CDCC4C3ECDCC4CBE38
:10393000000402402868B042B0D32868B04205D1E4
:10394000E06E462802DA606EFF28A7D10020FEF75D
:103950002EFF642004F05DFB2868B042DDD32868A8
:10396000B04205D1E06E462802DA606EFF28D4D15D
:103970000020FEF71CFF00E060E04FF47A7004F0D6
:1039800048FB40E078294FF0000002DDB0EE480A25
:1039900001E0B0EE680AFEF7AEFFE16E606E08432C
:1039A0004CD0606E01467D3800D540422828E9DCC5
:1039B0000020FEF7FCFE4FF4E16514E0462903DA2F
:1039C0004FF00501284604E006DD4FF005014FF0F9
:1039D0000000FEF794FF02E00020FEF7E8FEE16E33
:1039E000606E08432AD0606E7D3800D5404228289A
:1039F00006DCE06E0146463800D540420F28DDDC8B
:103A00000020FEF7D4FE606E7D3800D540422828A5
:103A1000C7DCE06E463800D540420F28C1DC0020EC
:103A2000FEF7C5FEFFF7B7FD40B10020FEF7BFFE71
:103A3000A7F80A90FFF7E6FC002803D10020FEF764
:103A4000B6FE70E6BDEC028BBDE8F88F2DE9F041C3
:103A50000F46F849F84E2DED048B51F8204030897F
:103A600000219FEDF69A9FEDF68ADFEDF68ADFEDF5
:103A7000F69A06F58075012802D002287DD0F7E07D
:103A800071626AE0A86D84422FDD47B1B0EE681A1A
:103A9000F0EE690A4FF00A00B0EE480A4DE0A0EBE4
:103AA0000400FEF75BFD02461E2800DD1E22E968C9
:103AB000686D401AFEF752FD00EB80004100EB6894
:103AC000686DB0EE681A9842F0EE690A02F10500DE
:103AD00002DDA1F5617102E001F56171494200EE7C
:103AE000101A00BFB8EEC00A27E033DA3FB1B0EEDB
:103AF000681AF0EE690A0A20B0EE490A1DE0001BC0
:103B0000FEF72CFD01461E2800DD1E21EA68686DC7
:103B1000801AFEF723FD00EB80004200EB68686D21
:103B200098420DDDC2F5617000EE100AB0EE681A21
:103B3000F0EE690AB8EEC00A481DFEF7E3FE0CE09D
:103B400002F56172B0EE681AF0EE690A481D00EEE7
:103B5000102AC7E70020FEF72AFEA86D001BFEF71B
:103B6000FDFC03288EDC012004F053FA706A401C2F
:103B700070623228F1DB7BE0FFE771626AE0E86D9A
:103B8000844231DD47B1B0EE681AF0EE690A4FF0B9
:103B90000A00B0EE490A51E0A0EB0400FEF7DEFC9B
:103BA00041001E2900DD1E21EA68686D801AFEF7BB
:103BB000D5FC00EB80004200EB68686D98420BDD9D
:103BC000C2F5617000EE100AB0EE681AF0EE690AF4
:103BD000B8EEC00A481D31E0B0EE681AF0EE690A8E
:103BE000481D02F5617224E031DA3FB1B0EE681A87
:103BF000F0EE690A0A20B0EE480A1FE0001BFEF74B
:103C0000ADFC41001E2900DD1E21EA68686D801AA6
:103C1000FEF7A4FC00EB80004200EB68686DB0EE9C
:103C2000681A9842F0EE690A01F1050009DDA2F573
:103C3000617200EE102A00BFB8EEC00AFEF762FE05
:103C400008E002F56172514200EE101AF4E700201C
:103C5000FEF7ADFDE86D001BFEF780FC03288EDC4F
:103C6000012004F0D6F9706A401C70623228F1DB42
:103C7000BDEC048B0020BDE8F041FEF798BD2DE9B6
:103C8000F0410546FDF798FF704E01229102304643
:103C900001F084FD01212846FFF7D8FE0020FEF741
:103CA00086FD0A210020FEF72AFE634C0020684FA3
:103CB000606202E00A2004F0ACF90421384601F009
:103CC00055FD0128F6D0606A401C60623228F4DBA2
:103CD00000224FF40061304601F060FD40F2DC56F6
:103CE0006581304604F095F905206081304604F086
:103CF00090F950484FF461714F4250F82560208987
:103D0000544D012814D002282CD032E0A86D8642F0
:103D100003DD4FF00501384603E005DA4FF00501F9
:103D20004046FEF7ECFD04E00020FEF740FD00E019
:103D30008846A86D801BFEF711FC0128E6DC18E020
:103D4000E86D864203DD4FF00501404603E005DAE9
:103D50004FF005013846FEF7D2FD04E00020FEF7E3
:103D600026FD00E08846E86D801BFEF7F7FB012882
:103D7000E6DC606DE065BDE8F08130B52E490F24CA
:103D8000344AC86B4FF42F730F38086402E0106D8B
:103D900098420DDB0D6C086A401BFEF7DFFB05281F
:103DA000F5DCC86B2044086406E0106D984203DA25
:103DB000C86B0864012030BD0C6C086A001BFEF75C
:103DC000CDFB0528F1DCC86B0864002030BD2DE96F
:103DD000F041194C0F460546E06B2064002128464F
:103DE000FFF734FEFFF7C9FF10B36E1C09E0E06B6C
:103DF000206400213046FFF729FEFFF7BEFF18B10F
:103E0000761C1FB1052002E03046B4E70420B04222
:103E1000EDDC6D1E07B30020A8421FDCE06B2064C0
:103E200000212846FFF712FEFFF7A7FF0028F0D178
:103E30002846A0E74C030020000000200000614459
:103E4000000061C46666663F000000000004024096
:103E500000100240000100200120DDE70125BBE742
:103E60002DE9F047FD4E0746FD4C56F8278000200F
:103E7000894604F580756062208901280DD01EE016
:103E80001E3081424FF0020342464FF0000101DD37
:103E90001E2000E00F20FEF77CFF696DE86881427C
:103EA000EEDC10E01E3081424FF0020342464FF03C
:103EB000000101DD1E2000E00F20FEF70EFF696DFE
:103EC000E8688142EEDC052004F0A3F8606A401C3B
:103ED00060623228D0DB49463846FFF778FF054656
:103EE0004FF47A770A2815D056F825600020FEF79F
:103EF0005EFCE06B012220649102DA4801F04EFC86
:103F000040F6B838404604F084F82089D64C0128A1
:103F10001CD028E0FDF750FE0A214FF4E160FEF7C7
:103F2000EEFC02E00A2004F074F8FCF78AFDB842C7
:103F3000F8DB0020FEF73BFC384604F06AF8FBE7AC
:103F40000223324600210F20FEF723FF04212046E2
:103F500001F00CFC0128F3D00BE0022332460021D3
:103F60000F20FEF7BAFE0421204601F0FFFB0128D6
:103F7000F3D00020FEF71BFC0A210020FEF7BFFC57
:103F8000404604F046F80020FEF711FC61210120B4
:103F9000FDF7D3FD384604F03CF82846BDE8F0872D
:103FA000AF480122816EC165416C0164D102AD4808
:103FB00001F0F4BB2DE9F0412DED048BFDF7FCFD84
:103FC0009FEDAA8AB0EE481A5FED618A3C20F0EEC0
:103FD000680A1FED660AFEF795FC40F6C41402E07D
:103FE000012004F016F8FCF72CFDA042F8DB0022BB
:103FF0004FF400619B4801F0D1FBB0EE481AF0EE9F
:10400000680A3C209FED9A0AFEF77CFC4FF47A6424
:1040100002E0012003F0FDFFFCF713FDA042F8DBF6
:10402000B0EE481AF0EE680A28209FED920AFEF7DB
:1040300069FC8B4C002504F58076656202E0012066
:1040400003F0E7FFB06D6428F9DC606A401C606231
:104050003228F7DBFDF7B0FD4FF49667656208E0A4
:104060000523162200212820FEF793FE012003F0ED
:10407000D0FFFCF7E6FCB842F2DB606A401C6062ED
:104080003228F6DB40F6AC57656208E005231122C2
:1040900000213220FEF77DFE012003F0BAFFFCF77D
:1040A000D0FCB842F2DB606A401C60623228F6DB6A
:1040B000B0EE489AB0EE688AB0EE491AB0EE480AFF
:1040C0002D20F0EE400AFEF71DFC656202E00120A3
:1040D00003F09FFFB06D2328F9DB606A401C60622B
:1040E0003228F7DBFDF768FDB0EE480AB0EE491A5A
:1040F000F0EE400A1E20FEF705FC4FF4167402E0B5
:10410000012003F086FFFCF79CFCA042F8DB0020B6
:10411000FEF74DFBFDF750FDB0EE491AF0EE480AF0
:1041200032209FED550AFEF7EDFB4FF4E16402E00B
:10413000012003F06EFFFCF784FCA042F8DB474C43
:10414000FCF77FFCB84206DA052300212820A2688C
:10415000FEF749FEF4E7BDEC048B0020BDE8F0411A
:10416000FEF725BB70B53E4C00252DED028B4FF4BC
:104170009666656208E00523162200212820FEF7D6
:1041800008FE012003F045FFFCF75BFCB042F2DBC8
:10419000606A401C60623228F6DB41F28836656254
:1041A00008E00523112200212820FEF7F2FD01205E
:1041B00003F02FFFFCF745FCB042F2DB606A401CC5
:1041C00060623228F6DBA06B2064206EE06500227E
:1041D0004FF40061234801F0E1FADFED248AB0EEEC
:1041E000681A1FEDE78A2D20B0EE480AF0EE400A6B
:1041F000FEF788FB6562214D02E0012003F009FF14
:10420000A86D2328F9DB606A401C60623228F7DB66
:10421000FDF7D2FCB0EE480AB0EE681AF0EE400AA4
:104220001E20FEF76FFB4FF4167402E0012003F02E
:10423000F0FEFCF706FCA042F8DB0020FEF7B7FA20
:10424000FDF7BAFCB0EE681AF0EE480A32209FED96
:104250000A0AFEF757FB4FF4E16414E04C03002018
:10426000000000200004024000100240CDCCCC3DF4
:104270000000484400002F44000066440001002074
:10428000012003F0C6FEFCF7DCFBA042F8DBFD4D8D
:1042900040F6AC54FCF7D5FBA04206DA052300211A
:1042A0002820AA68FEF79FFDF4E7B0EE681AF0EE4A
:1042B000480A0A209FEDF40AFEF724FB40F63C74FE
:1042C00002E0012003F0A5FEFCF7BBFBA042F8DBF7
:1042D000BDEC028B0020BDE87040FEF768BAEB4AE7
:1042E000A0F10F019FEDEA0AD36D192B07DAF0EE6A
:1042F000400AB7EE081A08469FEDE60A09E0926DFB
:10430000B7EE081A322AF0EE400A02DA08469FEDAC
:10431000E20AFEF7F7BA2DE9F05FE04D83462DED96
:10432000048B40F2E7380026E86B2864286E0A27E1
:10433000E865FDF741FCB7EE081A9FEDD58A3C20F1
:10434000B0EE480AF0EE400AFEF7DCFA02E0012087
:1043500003F05FFEFEF7AAF8FEF700F96428F6DC2A
:104360004FF00009CE4C4FF4804AC5F8249005E088
:104370003C20FFF7B4FF012003F04BFE51462046DE
:1043800001F0F4F930B94FF40041204601F0EEF9A4
:104390000028EDD0052003F03CFE686A401C6862EE
:1043A0001E28EBDBFDF708FC4C46C5F824904FF4C3
:1043B000FA6905E03C20FFF792FF012003F029FE97
:1043C000FCF73FFB4845F5DB686A401C6862322811
:1043D000F6DBA1466C62AD4C05E02320FFF77FFFC2
:1043E000012003F016FEE06DFA28F6DB052003F04D
:1043F00010FE686A401C68621E28F4DB002240211F
:10440000A84801F0CBF9DFF8A0A24FF46171CAF817
:1044100000100A20FEF7CBF90220A0600120994984
:10442000DFEDA28AC5F8240051F82000A26D101A11
:10443000FEF794F8404509DA686AA26D51F8200049
:10444000101AFEF78BF88046686AA060686A401C04
:1044500068620428E8DB9FED969ADFED969A88461D
:10446000A068A26D414658F82000101AFEF776F8B1
:1044700005281ADDA06851F82000A16D884208DDEA
:10448000B0EE681AF0EE480A4FF01E00B0EE490A8E
:1044900008E0E5DAB0EE681AF0EE480A4FF01E00C8
:1044A000B0EE690AFEF72EFADAE7C846C5F824909E
:1044B00002E0012003F0ADFD296C286AA1F10A0297
:1044C000904202DA0A318842F3DC052003F0A1FDB4
:1044D000686A401C68623228EEDBC5F824804FF41D
:1044E000C8780CE0B0EE480A4045B0EE681AF0EE2D
:1044F000400A01DD1E2000E01420FEF703FA606D83
:10450000FA28EFDC052003F084FD686A401C68622D
:104510001E28F4DB082068810020FEF748F9BBF173
:10452000000F2FD04FF49678A06E87420FD10A204B
:10453000761C03F06EFD4645F6DBB0EE480AB0EEA1
:10454000681AF0EE400A0F20FEF7DCF912E0074689
:1045500000260A2003F05DFDE6E70A2003F059FD7E
:10456000A06E042803DDE168606D8842F5DC01205F
:1045700003F04FFDE168606D8842F1DCA06E052814
:1045800000D2A0604FF42F71CAF800100720688194
:104590005946A068FFF764FCA060FFF770FB00209D
:1045A000FEF705F9BDEC048B01224021BDE8F05F68
:1045B0003C4801F0F3B82DE9F0413248374C2DED7D
:1045C000048B86689FED3C8ADFED318A9FED2E9A41
:1045D000606DE065B0EE481AF0EE680A3220B0EE89
:1045E000490AFEF78FF90027284D676202E0012093
:1045F00003F00FFD686D3228F9DB052003F009FD9B
:10460000606A401C60621E28F4DB00224FF4806167
:10461000244801F0C3F8A06B206420E0A86D864216
:1046200008DDA6EB000000EB4000FDF797FFA0F2CD
:10463000DC5009E013DAA6EB000000EB4000FDF7C8
:104640008DFFA0F2DC50404200EE100AB0EE481A96
:10465000F0EE680AB8EEC00A3220FEF753F9A86DF2
:10466000801BFDF77BFF0328D8DCB0EE481AF0EE84
:10467000680A3220B0EE490AFEF744F94FF4E176B9
:1046800067621BE04C0300200000E14400010020B1
:10469000000000000000E1430000E1C30000002032
:1046A0000010024000040240340401406666663F88
:1046B000000096C3000096439A99993E686DB042F7
:1046C000DFDB012003F0A5FC052003F0A2FC606AFB
:1046D000401C60621E28D4DBFDF76EFAB0EE481A6B
:1046E000F0EE680A1E20B0EE490AFEF70BF940F220
:1046F000DC5402E0012003F08CFCFCF7A2F9A0429C
:10470000F8DBFEF7C4FE0A20FEF751F8BDEC048B7F
:104710004FF4FA60BDE8F04103F07BBC70B5FFF7E1
:1047200049FCFB4C4FF4E16503E007212846FEF706
:10473000E6F8606E0028F8D0E16E123900D54942E3
:104740000A29F2DCBDE87040642003F062BC2DE968
:10475000F041F04C4B202DED048BE062FDF72CFA7C
:104760009FEDED8A5FED368A3C20B0EE481AF0EE00
:10477000680A9FEDEA0AFEF7C5F84FF4FA6702E00F
:10478000012003F046FCFCF75CF9B842F8DBB0EE20
:10479000481AF0EE680A3C209FEDE10AFEF7B2F8F5
:1047A0004FF47A6502E0012003F033FCFCF749F98D
:1047B000A842F8DBB0EE481AF0EE680A3C209FED04
:1047C000D90AFEF79FF80026D14D666202E001206B
:1047D00003F01FFCE86D2828F9DC606A401C606269
:1047E0003228F7DBB0EE481AF0EE680A3C209FED65
:1047F000CE0AFEF787F8666202E0012003F009FCAA
:10480000E86D1928F9DC606A401C60623228F7DB29
:10481000FDF7D2F9B0EE489AB0EE688AA06BB0EE20
:10482000480A2064B0EE491AF0EE400A3C20FEF738
:1048300069F802E0012003F0ECFBFCF702F9B84252
:10484000F8DBB0EE480AB0EE491AF0EE400A2D202F
:10485000FEF758F8666202E0012003F0DAFBE86D2B
:104860002328F9DB606A401C60623228F7DBFDF721
:10487000A3F9B0EE480AB0EE491AF0EE400A1E2045
:10488000FEF740F84FF4167502E0012003F0C1FB7B
:10489000FCF7D7F8A842F8DB0020FDF788FFFDF70A
:1048A0008BF9B0EE491AF0EE480A28209FED9F0AD6
:1048B000FEF728F84FF4E16502E0012003F0A9FBC0
:1048C000FCF7BFF8A842F8DB606E994D4FF44866DC
:1048D000E06505E0052300212820AA68FEF727FAF5
:1048E000FCF7AFF8B042F5DBFDF766F9B0EE491A18
:1048F000F0EE480A0F201FED9C0AFEF703F84FF474
:10490000FA7502E0012003F084FBFCF79AF8A84254
:10491000F8DB0020FDF74BFFFA20E062BDEC048BD2
:10492000BDE8F08170B57B4C00252DED028B4B204E
:1049300065620601E06208E00523082200212820C4
:10494000FEF7CBF9012003F064FBFCF77AF8B042E4
:10495000F2DB606A401C60623228F6DBA06B6562A5
:1049600041F28836206408E0052303220021282034
:10497000FEF7B3F9012003F04CFBFCF762F8B042FC
:10498000F2DB606A401C60623228F6DBDFED628A8F
:10499000B0EE681A1FEDC28A2D20B0EE480AF0EE84
:1049A000400AFDF7AFFF6562594D02E0012003F0B8
:1049B00030FBE86D1928F9DB606A401C6062322820
:1049C000F7DBFDF7F9F8B0EE480AB0EE681AF0EE42
:1049D000400A1E20FDF796FF4FF4167502E00120F5
:1049E00003F017FBFCF72DF8A842F8DB0020FDF7D9
:1049F000DEFEFDF7E1F8B0EE681AF0EE480A3C2062
:104A00009FED4A0AFDF77EFF4FF4FA6502E00120B0
:104A100003F0FFFAFCF715F8A842F8DB606EE065DA
:104A2000FEF735FD424E40F6AC5505E0052300216A
:104A30002820B268FEF77BF9FCF703F8A842F5DB03
:104A40000020FDF7B4FEB0EE681AF0EE480A0A2026
:104A50001FEDF30AFDF756FF40F63C7502E000BF7C
:104A600003F0D7FAFBF7EDFFA8424FF00100F7DBA8
:104A700003F0CFFAFA20E062BDEC028B70BD244A4D
:104A80009FED2C0AA0F10F01D36D192B07DAF0EE80
:104A9000400AB7EE081A08469FED270A09E0926D12
:104AA000B7EE081A322AF0EE400A02DA08469FED05
:104AB000230AFDF727BF2DE9F05F164D83462DED44
:104AC000048B40F2E7380026E86B2864286E0A273A
:104AD000E865FDF771F89FED178AB7EE081A3C20DC
:104AE000B0EE480AF0EE400AFDF70CFF02E00120AC
:104AF00003F08FFAFDF7DAFCFDF730FD6428F6DCF1
:104B00004FF000090E4C4FF4804AC5F824901FE086
:104B10000001002000000020CDCCCC3D000061C48D
:104B2000000048C40000FAC3000048C3000066C487
:104B30004C030020000000000000E1430000E1C33E
:104B4000001002403C20FFF79AFF012003F061FAB9
:104B50005146204600F00AFE30B14FF40041204695
:104B600000F004FE0028EDD1686A401C686232281B
:104B7000EEDBFDF721F84C46C5F824904FF4FA69B6
:104B800005E03C20FFF77BFF012003F042FAFBF732
:104B900058FF4845F5DB686A401C68623228F6DB3E
:104BA000A1466C62FE4C4FF4FA7A05E02320FFF731
:104BB00066FF012003F02DFAA06D5045F6DB686A10
:104BC000401C68623228F7DB0020FDF7F0FD002270
:104BD0004021F44800F0E2FDDFF8CCA34FF461710E
:104BE000CAF800100220A0600120F049DFEDF08A31
:104BF000C5F8240051F82000E26D101AFDF7AEFC54
:104C0000404509DA686AE26D51F82000101AFDF794
:104C1000A5FC8046686AA060686A401C6862042837
:104C2000E8DB9FEDE49ADFEDE49A8846A068E26D48
:104C3000414658F82000101AFDF790FC05281ADDAF
:104C4000A06851F82000E16D884208DDB0EE681AD6
:104C5000F0EE480A4FF01400B0EE490A08E0E5DA39
:104C6000B0EE681AF0EE480A4FF01400B0EE690A90
:104C7000FDF748FEDAE7C5F8249002E0012003F0D2
:104C8000C8F9286C296AA0F10A02914202DA0A30B6
:104C90008142F3DC052003F0BCF9686A401C6862BD
:104CA0003228EEDB4FF4C878606DFA2810DDB0EEE4
:104CB000480A4045B0EE681AF0EE400A01DD1E20B9
:104CC00000E01420FDF71EFE0A2003F0A2F9EBE736
:104CD000082068810020FDF76AFDBBF1000F2FD08E
:104CE0004FF49678A06E87420FD10A20761C03F00D
:104CF00090F94645F6DBB0EE480AB0EE681AF0EEE1
:104D0000400A0F20FDF7FEFD12E0074600260A20AC
:104D100003F07FF9E6E70A2003F07BF9A06E042890
:104D200003DDE168606D8842F5DC012003F071F974
:104D3000E168606D8842F1DCA06E052800D2A060B9
:104D40004FF42F71CAF80010072068815946A068F7
:104D5000FFF786F8A060FEF792FF012240219148FC
:104D600000F01CFDBDEC048B0020BDE8F05FFDF7FA
:104D70001EBD2DE9F0418D48904C2DED048B8668C9
:104D8000606D9FED8F9AB0EE491A1FED968AE0652F
:104D90003220F0EE480ADFED8B8AB0EE680AFDF7AC
:104DA000B1FD00277E4D676202E0012003F031F97A
:104DB000686D3228F9DB052003F02BF9606A401C8E
:104DC00060621E28F4DB00224FF48061754800F019
:104DD000E5FCA06B206424E0E86D86420BDDA6EBC9
:104DE000000000EB40004FEA4000FDF7B7FBA0F2E7
:104DF000DC5040420AE014DAA6EB000000EB400071
:104E00004FEA4000FDF7AAFBA0F2DC5000EE100ACA
:104E1000B0EE491AF0EE480AB8EEC00A3220FDF7AB
:104E200071FDE86D801BFDF799FB0328D4DCB0EE23
:104E3000491AF0EE480A3220B0EE680AFDF762FD2A
:104E40004FF4E176676202E0012003F0E2F8686D5A
:104E5000B042F9DB052003F0DCF8606A401C6062B8
:104E60001E28F4DBFCF7A8FEB0EE491AF0EE480A63
:104E70001E20B0EE680AFDF745FD40F2DC5402E06A
:104E8000012003F0C6F8FBF7DCFDA042F8DBFEF7DB
:104E9000FEFA1420FDF78BFCBDEC048B4FF4FA6096
:104EA000BDE8F04103F0B5B810B5FFF750FC07219D
:104EB0004FF4E160FDF723FD394C02E0642003F07C
:104EC000A8F8606E0028F9D0E06E0028F6D010BD7A
:104ED0002DE9F0412DED048BFCF76EFE1FEDF28AFB
:104EE000B0EE481A5FEDED8A3C20F0EE680A1FED47
:104EF000F50AFDF707FD40F6C41402E0012003F0B7
:104F000088F8FBF79EFDA042F8DB00224FF4006119
:104F1000244800F043FCB0EE481AF0EE680A3C204A
:104F20009FED290AFDF7EEFC4FF47A6402E00120C0
:104F300003F06FF8FBF785FDA042F8DBB0EE481AEE
:104F4000F0EE680A32209FED210AFDF7DBFC1B4CD6
:104F50000026134D666202E0012003F05AF8E86D66
:104F60002828F9DC606A401C60623228F7DBFCF715
:104F700023FE40F6AC57666208E0032305220021B9
:104F80003220FDF7AAFE012003F043F8FBF759FD9C
:104F9000B842F2DB606A401C60623228F6DB17E040
:104FA0000001002000040240340401404C030020B2
:104FB0006666663F00009643000096C3000000202E
:104FC0009A99993E0000E144000048C400002FC4B3
:104FD000B0EE489AB0EE688AB0EE491AB0EE480AD0
:104FE0002D20F0EE400AFDF78DFC666202E0012004
:104FF00003F00FF8E86D2328F9DB606A401C60625B
:105000003228F7DBFCF7D8FDB0EE480AB0EE491ABB
:10501000F0EE400A1E20FDF775FC4FF4167402E016
:10502000012002F0F6FFFBF70CFDA042F8DB0020A8
:10503000FDF7BDFBFCF7C0FDB0EE491AF0EE480AE3
:1050400032209FEDB40AFDF75DFC4FF4E16402E00D
:10505000012002F0DEFFFBF7F4FCA042F8DBFEF7D4
:1050600016FA4FF4486405E003235022002128205B
:10507000FDF75DFEFBF7E5FCA042F5DBBDEC048B24
:105080000020BDE8F041FDF792BB012800D00BE7FE
:10509000FFF744BB012800D044E4FFF763B80128C0
:1050A000084600D007E5FFF736B9012800D060E6D2
:1050B000FFF781BA054640F6B8342846FEF71EFBD6
:1050C00000212846FFF7EBFF2846FFF7EEFF2046BA
:1050D00002F09FFFF1E71120FDF79AF80F2002F090
:1050E00098FFF8E78C4C00BFFDF771FF607818B1AE
:1050F000FEF7A7F8FEF74AF9FEF7F6F8052002F0EA
:1051000088FFF1E7854DA5F1B004287860666878DE
:10511000E066A878A066E8782067FEF702FA072024
:1051200002F077FFF1E700BFFDF77DFD052002F0FB
:1051300070FFF9E71FB5FBF7AAFCFBF7DBFCFBF7F9
:1051400077FDFBF757FEFBF7DBFDFBF713FFFBF7E4
:10515000CCFFFCF752F8FCF738F9FBF730FD4FF4C1
:10516000E1342046FCF7E2F92046FCF778FA2046C5
:10517000FCF7FBFA2046FCF77EFBE000FCF700FCA6
:10518000FCF738FDFCF718FD634D00244FF48076E2
:105190002C700094019402942346324660A1654825
:1051A000039402F05FFD00940194029400233246C0
:1051B00061A16748039402F055FD009401940294A4
:1051C0000023324663A16848039402F04BFDA86CAB
:1051D000E86102E0012002F01CFFA86CE9691438C4
:1051E0008142F7DB614C01266E700221204600F0FF
:1051F000BDFA08B12E8101E0022028810A206881D1
:105200004FF4FA7002F005FF092068810122402165
:10521000204600F0C3FA0122D102204600F0BEFA77
:10522000534940F2A4600860FEF7BAFE41F2707084
:1052300002F0EFFEFA20E86229894E4801291DD0CC
:105240000C21016033214160592181607D21C160C1
:10525000A721494C01610821204600F087FAC0B11E
:105260000221204600F082FAB8B10121204600F068
:105270007DFAC0B10020FDF79AFAECE740F2471141
:105280000160F7214160AD2181605E21C160122182
:10529000DFE72889FFF7F9FE02E02889FFF7FAFE29
:1052A0002889FFF707FF40F6B8342889FEF726FA69
:1052B00000212889FFF7F3FE2889FFF7F6FE204634
:1052C00002F0A7FEF1E77FB500244FF4807500944B
:1052D0000194029423462A4628A12B48039402F005
:1052E000C1FC00940194029400232A4627A12A4875
:1052F000039402F0B7FC00940194029400232A4620
:1053000014A11948039402F0ADFC02F0D1FF04B0DF
:10531000002070BD000066C400000020B001002025
:105320007461736B526F626F74416E616C797469F2
:1053300063730000275100087461736B526F626FD2
:1053400074416E616C79746963735F756172740026
:10535000055100087461736B446965754B68696534
:105360006E436F4361750000E55000080004024081
:10537000340401404C030020001002407461736B40
:105380004D61696E00000000355100087461736B57
:105390004779726F00000000D75000080CB500205C
:1053A0005149019000900A6842F480320A604FF43B
:1053B000A0630A6802F400320092019A521C019222
:1053C000009A12B9019A9A42F3D10A68920334D52D
:1053D0000120009044484030026842F08052026050
:1053E0004248026842F4804202603F480830026846
:1053F0000260026842F400420260026842F4A05275
:105400000260031F3A4A1A600A6842F080720A601A
:105410000A689201FCD5374A40F2056111600168C3
:1054200021F003010160016841F00201016001689F
:10543000C1F381010229FAD10CBD00900CBD2A48AC
:1054400010B5016841F001010160274A00210832CE
:1054500011600268284B1A400260031D274A1A6037
:10546000026822F4802202601F480C300160FFF7BE
:1054700095FF23494FF00060086010BD70B51A4CCD
:10548000083420681F4A10F00C011F4804D0551042
:10549000042903D0082903D002601BE0056019E04D
:1054A0001149091D0B68C3F380560B6803F03F03D5
:1054B00016B1B5FBF3F201E0B2FBF3F20B68096839
:1054C000C3F388135A43C1F30141491C4900B2FB9D
:1054D000F1F1016021680C4AC1F30311121D515C06
:1054E0000268CA40026070BD00380240007000408F
:1054F00008544007003C0240FFFFF6FE1030002435
:1055000008ED00E00024F400D001002006488047A8
:1055100006480047FEE7FEE7FEE7FEE7FEE7FEE798
:10552000FEE7FEE7FEE7FEE73F54000889010008BA
:105530002849084328490860704730B50F22C478CD
:1055400001780123FCB1244C246801F1E02104F42A
:10555000E064C4F5E064C4F30724C4F10405E24048
:105560004478AC408578154025432A0181F8002411
:10557000007800F01F018B404009800000F1E0201E
:10558000C0F8003130BD01F01F00834048098000A1
:1055900000F1E020C0F8803130BD104A11400143D5
:1055A0000D48001F016070470B4A121D0029116849
:1055B00001D0014300E08143116070474FF0E021CA
:1055C0000428086903D020F004000861704740F007
:1055D0000400FAE70000FA050CED00E080FFFF1F71
:1055E0007C4910B5884206D10121084600F058FADE
:1055F000002101204FE07849884206D10121022094
:1056000000F04EFA0021022045E07449884206D19C
:105610000121042000F044FA002104203BE07049FD
:10562000884206D10121082000F03AFA0021082022
:1056300031E06C49884206D10121102000F030FA97
:105640000021102027E06849884206D1012120204E
:1056500000F026FA002120201DE06449884206D18E
:105660000121402000F01CFA0021402013E0604995
:10567000884206D10121802000F012FA002180200A
:1056800009E05C4988420AD184150121204600F0D6
:1056900007FA00212046BDE8104000F001BA10BD15
:1056A000F0B50023012403270D6804FA03F2154026
:1056B000954242D1D0F800C05E0007FA06F52CEA08
:1056C000050CC0F800C091F804C0D0F800E00CFA56
:1056D00006FC4CEA0E0CC0F800C091F804C0BCF106
:1056E000010F02D0BCF1020F1FD1D0F808C02CEA84
:1056F000050CC0F808C091F805C0D0F808E00CFA15
:1057000006FC4CEA0E0CC0F808C0D0F804C02CEA25
:10571000020CC0F804C0426891F806C00CFA03FC01
:105720001FFA8CFC42EA0C024260C268AA43C260C3
:10573000CA79C568B2402A43C2605B1C102BB3D340
:10574000F0BD4FF6FF71016000210171417181715F
:10575000C171704708B541F480320092C261C161E5
:105760000099C161C169C069009008BD024600206E
:1057700012690A4200D001207047006980B2704768
:105780000246002052690A4200D001207047406959
:1057900080B2704701837047418370470AB101832B
:1057A0007047418370474161704742694A40426196
:1057B00070474B07DB0E9A40C90810B500EB81001B
:1057C000016A0F249C40A1430162016A11430162F6
:1057D00010BD00000000024000040240000802402A
:1057E000000C024000100240001402400018024069
:1057F000001C024000200240EA48016841F001011B
:105800000160E84A0021083211600268E64B1A4044
:105810000260031DE54A1A60026822F480220260D9
:10582000E0480C3001607047DE490022891C0A7094
:105830000870704702460020510901290CD0022946
:105840000CD0D8497431096802F01F02012393403B
:105850000B4200D001207047D249F4E7D1497031A2
:10586000F1E718B500204FF4A06400903120FFF755
:10587000E1FF0099491C0091A14201D00028F5D018
:105880003120FFF7D7FF002800D0012018BDC549FF
:105890000A6822F0F80242EAC00008607047C44972
:1058A00008607047BF49002270310A700A700128F1
:1058B00002D0042801D1052008707047BD49086056
:1058C000704741EA82115A0810B5BB4B029C03EBAA
:1058D00002421143014341EA0460B249091D0860D4
:1058E00010BDB34908667047800140EA0170AD49B8
:1058F000843108607047AE4988667047AC49C86417
:105900007047A84A08321368084323F0EC63184331
:1059100010607047A34A08321368084323F07843A5
:105920001843106070479F4A0832116821F0030144
:105930000143116070479B480830006800F00C007C
:105940007047984A0832116821F0F0010143116054
:105950007047944A0832116821F4E0510143116004
:105960007047904908310A6822F4604242EAC00058
:105970000860704770B58B4A083211688F4C11F07F
:105980000C0104D06610042903D0082903D0046058
:105990001BE0066019E08349091D0B68C3F38055BD
:1059A0000B6803F03F0315B1B6FBF3F301E0B4FB62
:1059B000F3F30C680968C4F388146343C1F301412D
:1059C000491C4900B3FBF1F1016011680F2303EAA0
:1059D00011117B4B5C5C0168E14041601468072554
:1059E00005EA94241C5D21FA04F48460126805EA37
:1059F00052329A5CD140C16070BDC0F301210329CD
:105A000008D1684A0832116821F4F8136D49014041
:105A100019431160634970310A68C0F30B000243F7
:105A20000A607047634944390860704761494039EA
:105A3000086070475E49C1F85C017047594A3032CE
:105A40000029116801D0014300E0814311607047D3
:105A5000544A34320029116801D0014300E08143E7
:105A6000116070474F4A38320029116801D0014354
:105A700000E08143116070474A4A403200291168B2
:105A800001D0014300E0814311607047454A443230
:105A90000029116801D0014300E081431160704783
:105AA000404A10320029116801D0014300E08143CF
:105AB000116070473B4A14320029116801D001433C
:105AC00000E0814311607047364A1832002911689E
:105AD00001D0014300E0814311607047314A203218
