:020000040800F2
:10000000B8300020F55400084502000847020008F7
:10001000490200084B0200084D02000800000000E1
:100020000000000000000000000000009D0100082A
:100030004F02000800000000E10100082B7B0008CF
:100040000F5500080F5500080F5500080F55000800
:100050000F5500080F5500080F5500080F550008F0
:100060002F0400087B0400080F550008190300083E
:10007000DB020008650300080F5500087502000840
:100080000F5500087D0200080F5500080F550008A5
:100090000F5500080F5500080F5500080F550008B0
:1000A0000F55000889030008A90300080F55000830
:1000B000AB030008CB030008EB0300080F55000852
:1000C0000F5500080F5500080F5500082B040008B5
:1000D0000F550008550200080F5500080F5500087D
:1000E0000F5500080F5500080F5500080F55000860
:1000F0000F5500080F5500080F5500083B03000876
:100100000F5500080F5500080B0400082D040008C7
:100110000F5500080F5500086F030008770300080B
:100120000F5500080F5500089F0200080F550008E2
:100130000F5500080F5500080F5500080F5500080F
:100140000F5500080F5500080F5500080F550008FF
:10015000D10200080F5500080F5500080F55000880
:100160000F5500080F5500080F5500080F550008DF
:100170000F5500080F5500080F5500080F550008CF
:100180000F5500080F550008DFF80CD008F058FD97
:1001900000480047AD520008B8300020234B1968D2
:1001A0000868B0E8F04F80F309884FF0000080F352
:1001B000118870470000000003480068006880F361
:1001C000088862B600DF00BF08ED00E0DFF80C0031
:1001D000016841F470010160704700BF88ED00E0E4
:1001E000EFF30980114B1A681EF0100F08BF20EDC5
:1001F000108A20E9F04F106008B54FF0140080F32A
:10020000118807F068FF4FF0000080F31188BDE807
:10021000084019680868B0E8F04F1EF0100F08BFDA
:10022000B0EC108A80F30988704700BF20020020DC
:10023000EFF311804FF0140181F31188704780F3C0
:10024000118870477047FEE7FEE7FEE7FEE770475C
:100250007047704710B5894C40F22551204606F092
:10026000AEFE002805D02046BDE81040202106F053
:10027000A3BE10BD8249834805F0B3BF70B5814D60
:10028000814C30352146284605F088FF002805D0EE
:1002900021462846BDE8704005F0A3BF70BD10B5EB
:1002A0007A497B4805F09DFF7A484178027841EA17
:1002B0000221794A1180C178827841EA0221774A85
:1002C00011604179007941EA00207549086010BD4C
:1002D0006F487449483005F084BF70B5694D724C61
:1002E000483D2146284605F059FF002813D02146F5
:1002F000284605F076FF6D4802F01DF800280AD167
:100300006B4C0021204606F099FD2046BDE8704068
:10031000012106F093BD70BD70B55A4D654C603D2E
:100320002146284605F03AFF002805D021462846F8
:10033000BDE8704005F055BF70BD70B5514C5E4DC5
:1003400048342946204605F029FF002809D000211D
:10035000204605F098FE29462046BDE8704005F08D
:1003600040BF70BD47484649303805F03ABF0121CB
:10037000524806F002BC10B50121514806F0FDFBC1
:100380003E497A20888010BD10B54E4C0121204690
:1003900006F0F3FB2088C1064B48016801D5491ED1
:1003A00000E0491C016010BD704710B501218C07A9
:1003B000204606F0E2FB2088C1064448016801D5CA
:1003C000491E00E0491C016010BD10B5404C0121E0
:1003D000204606F0D2FB2088C1063E48016801D5C0
:1003E000491E00E0491C016010BD10B53A4C0121C6
:1003F000204606F0C2FB2088C1063848016801D5B6
:10040000491E00E0491C016010BD10B5344C0121AB
:10041000204606F0B2FB2088C1063248016801D5AB
:10042000491E00E0491C016010BD7047704770B55F
:10043000042005F055FF00281ED020212A4805F091
:10044000A8F92A4D0421284605F084F91C4C0128FE
:1004500005D00421284605F07DF928B109E00021E6
:10046000204606F023F804E0204606F023F8204951
:10047000086020490420086070BD704700100140EA
:10048000208000207060024000802020008020102A
:1004900040640240240300200C000020C80100201A
:1004A000CC010020008800200088001042030020BA
:1004B000004800402080001000800028001000400C
:1004C0000014004000000140100000201400002033
:1004D0000004004018000020000800404C010020EB
:1004E000000C0040C001002000000240000C02404F
:1004F000C4010020143C014070B50546002408F0FA
:1005000005F9FE4902E02A5D0A55641C8442FADBC3
:10051000BDE870400121FA4805F0B5BD70B5F94D50
:1005200006460024315D00290BD0284606F0ACFCBD
:100530008021284606F039FD0028F9D0641CE4B279
:10054000F0E770BD70B5EF4E05460024002D0DD0CC
:100550002946304606F098FC8021304606F025FDFD
:100560000028F9D0641CE4B2032CEFD370BD73B53E
:100570000C460020FFF7E6FFE3A0FFF7CFFFDF48C0
:100580002246E2A1823808F0D5FBDC488238FFF72A
:10059000C5FFDFA0FFF7C2FFDFA0FFF7BFFFD7480F
:1005A000DAA18238009A08F0C5FBD44E0024D54D5C
:1005B000823E2846315D06F067FC4021284606F061
:1005C000F4FC0028F9D0641C142CF2DBD2A0FFF755
:1005D000A5FFFF20FFF7B6FFFF20FFF7B3FFBDE841
:1005E0007C40FF20AEE770B505460C46C6A0FFF77D
:1005F00095FFC2482246C5A1823808F09BFBBF4840
:100600008238FFF78BFFC5A0FFF788FF2846FFF76A
:1006100085FFC1A0FFF782FFBDE87040FF2091E792
:1006200077B5BEA185B00646D1E90001CDE900014C
:10063000B9A0002200680390B3A0B04D0068283D27
:10064000A5F128030290AD4C1146A3F13200A95444
:1006500099548154A154521CD2B21E2AF7D30A21B4
:100660000170FF2444708470C470A448A7A150385E
:10067000079A08F05FFBA14902A8503908F02EF84C
:100680009E4802A9823808F029F89C4869468238B9
:1006900008F024F899483146823808F01FF8974846
:1006A0009AA15038069A08F045FB94495039A1F1B7
:1006B000320008F013F8914803A9823808F00EF8C8
:1006C0008E492C706C702839AC70A1F15A0008F07A
:1006D00005F88A488238FFF70FFF08B070BD2DE992
:1006E000F74188468DA185B00646D1E90001CDE9E4
:1006F000000189A000220068039083A07F4D00685C
:10070000283DA5F1280102901446A1F13200AC5415
:100710008C548454521CD2B20A2AF8D30A21017094
:10072000FF2747708770C770744878A15038079AC0
:1007300008F000FB714902A8503907F0CFFF6F485D
:1007400002A9823807F0CAFF6C486946823807F070
:10075000C5FF6A483146823807F0C0FF6748414606
:10076000823807F0BBFF654803A9823807F0B6FF5F
:100770002F706F706149AF70EC7028392C71A1F146
:100780005A0007F0ABFF5D488238FFF7B5FE08B0AE
:10079000BDE8F08170B50020FFF7D4FE5AA0FFF746
:1007A000BDFE56480D2259A1823808F0C3FA5348BD
:1007B0008238FFF7B3FE59A0FFF7B0FE594C202155
:1007C000204604F0C7FF02464C4850A1823808F08A
:1007D000B1FA4A488238FFF7A1FE1021204604F002
:1007E000B9FF0246454849A1823808F0A3FA4348B8
:1007F0008238FFF793FE4C4D8021284604F0AAFF73
:1008000002463E4841A1823808F094FA3B488238BB
:10081000FFF784FE4021284604F09CFF024637483B
:100820003AA1823808F086FA34488238FFF776FE1B
:100830004FF40041204604F08DFF02462F4833A1BB
:10084000823808F077FA2D488238FFF767FE4FF4B8
:100850008041204604F07EFF024628482BA18238C2
:1008600008F068FA25488238FFF758FE4FF4005127
:10087000204604F06FFF0246204824A1823808F089
:1008800059FA1E488238FFF749FE4021274804F0F4
:1008900061FF024619481DA1823808F04BFA17483B
:1008A0008238FFF73BFE1CA0FFF738FEFF20FFF762
:1008B00049FEFF20FFF746FEBDE87040FF2041E6FD
:1008C000FEB51BA10646D1E90001CDE900011AA041
:1008D00000210A4D0068283DA5F1280202900C462F
:1008E000A2F132006C5454544454491CC9B2322908
:1008F000F8D30A210170FF2747701FE0E2020020B1
:10090000B860024000500040740000002564000000
:100910002E7478743D000000220000002E7478745C
:100920003D2200000008024000000240001002408A
:100930002E76616C3D0000006A0000008770C77071
:100940000022AFF23801FE4808F0F4F9FC4902A891
:1009500007F0C4FEFA4802A9323807F0BFFEF84893
:100960006946323807F0BAFE3246AFF26001F44809
:1009700008F0E0F9F249A1F1320007F0AFFE2F7064
:100980006F70EF49AF70EC7028312C71A1F15A00F3
:1009900007F0A4FEEA483238FFF7AEFDFEBD2DE9B0
:1009A000FC414FF08047384605F084FDE54D69690C
:1009B000642640EA014090FBF6F00024019038469E
:1009C00005F078FD696940EA014090FBF6F0019975
:1009D0000090401A00D54042322800DA641C00988A
:1009E0000190022CEBDB0098002800DA4042BDE8C1
:1009F000FC812DE9FC41D44F384605F05BFDD14D1B
:100A00002969642640EA014090FBF6F00024019039
:100A1000384605F04FFD296940EA014090FBF6F0A9
:100A200001990090401A00D54042322800DA641C37
:100A300000980190022CEBDB00980028D7DA4042A6
:100A4000D5E710B5FFF7ABFF0446FFF7D2FF002C48
:100A500000DA6442002800DA4042204410BD01B5AB
:100A600081B0019800EBC00040000090002801D048
:100A7000401EFAE70CBD01B581B044F25061019807
:100A800048430090002801D0401EFAE70CBD2DE934
:100A9000FC4101211F2004F0C5FF01248DF8044012
:100AA00000268DF806604FF6FF758DF80740032786
:100AB00000958DF805706946A44804F0E5FD8DF8B1
:100AC00004408DF806608DF8074000958DF805709C
:100AD00069469F4804F0D8FD8DF804408DF8066003
:100AE0008DF8074000958DF805706946994804F027
:100AF000CBFD7CE77CB501217E2004F093FF002430
:100B0000C0208DF80440012500908DF80750022682
:100B10008DF805606946904804F0B6FD06208DF812
:100B2000044000908DF807508DF8056069468748AD
:100B300004F0AAFD04208DF8044000908DF80750C1
:100B40008DF805606946824804F09EFD7CBD1FB5A6
:100B50004FF4E06004F0E0FC36208DF80C00002437
:100B60008DF80D408DF80E4001208DF80F0003A880
:100B700004F0D7FC0121102004F072FF3220ADF800
:100B80000000ADF80840ADF8024040F2E730734C89
:100B900001906946204605F047FC0121204605F0FA
:100BA000ECFF01221146204605F0C7FF0021204638
:100BB00005F07CFC0121204605F0AEFC1FBD1FB5F1
:100BC0004FF4E06004F0A8FC37208DF80C000024FE
:100BD0008DF80D408DF80E4001208DF80F0003A810
:100BE00004F09FFC0121202004F03AFF4FF4FA703A
:100BF000ADF80000ADF80840ADF8024040F2E73033
:100C0000574C01906946204605F00EFC0121204614
:100C100005F0B3FF01221146204605F08EFF0021AA
:100C2000204605F043FC0121204605F075FC1FBD60
:100C300070B58AB00121022004F01CFF01210C20B4
:100C400004F0F0FE424E03220621304604F0A5FDDA
:100C500003220721304604F0A0FD0322082130467C
:100C600004F09BFD03220921304604F096FD4FF469
:100C70007070059002208DF8180003208DF819007F
:100C800000248DF81A4001258DF81B5005A9304627
:100C900004F0FAFCA420ADF81C0040F6B83008902F
:100CA0002802304EADF82400ADF81E4007A93046AA
:100CB00005F0BAFB6020ADF80000ADF802500294D8
:100CC000ADF80C400121304605F026FC00213046ED
:100CD00005F0ECFB6946304605F028FC69463046D5
:100CE00005F050FC6946304605F088FC6946304600
:100CF00005F0BEFC0121304605F000FF0AB070BDD2
:100D000070B58AB00121082004F0AAFE012108462E
:100D100004F088FE104E02220021304604F03DFD12
:100D200002220121304604F038FD022211463046ED
:100D300004F033FD02220321304604F02EFD13E0BF
:100D40009202002000000020000001400004024048
:100D500000080240000C0240000002400010004069
:100D600000140040000401400F20059002208DF87F
:100D7000180003208DF8190000248DF81A40012571
:100D80008DF81B5005A9304604F07EFCBA20ADF862
:100D90001C0042F210700890ADF82440ADF81E40DF
:100DA00007A9FE4E304605F03FFB6020ADF800007D
:100DB000ADF802500294ADF80C400121304605F028
:100DC000ABFB0021304605F071FB6946304605F06B
:100DD000ADFB6946304605F0D5FB6946304605F067
:100DE0000DFC6946304605F043FC0121304605F014
:100DF00085FE83E770B58AB00121042004F030FE3F
:100E000001210D2004F00EFEE54E02220C21304699
:100E100004F0C3FC02220D21304604F0BEFC022285
:100E20000E21304604F0B9FC02220F21304604F0B6
:100E3000B4FC4FF47040059002208DF81800032098
:100E40008DF8190000248DF81A4001258DF81B50EB
:100E500005A9304604F018FCA420ADF81C0040F6AB
:100E6000B83008902802CF4EADF82400ADF81E40EF
:100E700007A9304605F0D8FA6020ADF80000ADF8BB
:100E800002500294ADF80C400121304605F044FBBD
:100E90000021304605F00AFB6946304605F046FB66
:100EA0006946304605F06EFB6946304605F0A6FB04
:100EB0006946304605F0DCFB20E770B5012188B0BB
:100EC000080404F0D7FD0121084604F0ABFDB64E3E
:100ED00003221146304604F060FC03220221304612
:100EE00004F05BFC0C20009002208DF8040003202D
:100EF0008DF8050000248DF8064001258DF8075077
:100F00006946304604F0C0FB4FF6FF70A74EADF8BF
:100F100008400390ADF81040ADF80A4002A93046F1
:100F200005F082FA0420ADF81400C820ADF81C00CA
:100F3000ADF81640ADF8185005A9304605F02EFD65
:100F40009B4C00231A460321204605F090FE012108
:100F5000204605F012FE01221146204605F0EDFD67
:100F60000121304605F0D8FA0021204605F09EFA0E
:100F700008B070BD2DE9F04701218AB0084604F0A1
:100F80006FFD0121022004F06BFD0121032004F01C
:100F900049FDDFF8149201220F21484604F0FDFBC1
:100FA000DFF8108201220321404604F0F6FB022202
:100FB0000421404604F0F1FB02220521404604F0E2
:100FC000ECFB02268DF80460032738208DF80570AD
:100FD000002400908DF8064001258DF807506946E1
:100FE000404604F051FB8DF80460E8038DF805706D
:100FF00000908DF806408DF807506946484604F089
:1010000043FB4FF6FF70ADF80C4004904FF0804961
:10101000ADF81440ADF80E4003A9484605F004FAB7
:10102000DFF894A103A9504605F0FEF94FF004083B
:101030001420ADF81880ADF82000ADF81A60ADF8B6
:101040001C5006A9484605F0A9FC06A9504605F023
:10105000A5FC02231A460321484605F008FE022398
:101060001A460321504605F002FE0121484605F0CC
:1010700084FD0121504605F080FD012211464846BD
:1010800005F05BFD01221146504605F056FD012199
:10109000484605F041FA0121504605F03DFA00218D
:1010A000484605F003FA0021504605F0FFF97802A2
:1010B00004F032FA1D208DF808008DF809708DF8C3
:1010C0000A408DF80B5002A804F02BFA1C208DF872
:1010D00008008DF809808DF80A408DF80B5002A8A1
:1010E00004F01FFA0AB0BDE8F08770B501218AB09C
:1010F000084604F0BFFC0121102004F093FC4FF4DB
:101100002060009002208DF8040003208DF8050077
:1011100000242A4E8DF8064001258DF807506946B7
:10112000304604F0B1FA01220921304604F035FBC3
:1011300001220B21304604F030FB4FF6FF701B4EAE
:10114000ADF808400390ADF81040ADF80A4002A990
:10115000304605F069F90420ADF814000A20ADF816
:101160001C00ADF81640ADF8185005A9304605F042
:1011700015FC00231A460321304605F078FD0121B5
:10118000304605F0FAFC01221146304605F0D5FC48
:101190000121304605F0F1FC012211E0000C004075
:1011A000000C024000080040000002400000014026
:1011B00000400140000402400004004000100240D2
:1011C0001146304605F0B9FC0121304605F0A4F97E
:1011D0000021304605F06AF94FF4C06004F09CF934
:1011E00019208DF820008DF821508DF822408DF8BF
:1011F000235008A804F095F980E52DE9F0418AB064
:101200000121042004F02CFC0121082004F00AFC38
:101210004FF440500226009003208DF80460002413
:101220008DF805008DF8064001258DF807506946B8
:10123000FE4F384604F028FA4FF6FF70DFF8F083CF
:10124000ADF808400390ADF81040ADF80A4002A98F
:10125000404605F0E9F802220C21384604F09DFAD8
:1012600002220D21384604F098FA0427C820ADF870
:101270001470ADF81C00ADF81660ADF8185005A953
:10128000404605F08BFB02231A460321404605F039
:10129000EEFC0121404605F070FC0122114640465B
:1012A00005F04BFC0121404605F036F942F2107181
:1012B000404605F0FBF8DE4814300480A8F80050E2
:1012C0004FF4C06004F028F91E208DF820008DF83E
:1012D00021708DF822408DF8235008A804F021F9E0
:1012E0000AB0BDE8F0812DE9F0418AB00121082063
:1012F00004F0B6FB0121084604F094FB032002260B
:101300008DF804608DF805000024CA4F00908DF818
:10131000064001258DF807506946384604F0B4F9B7
:101320004FF6FF70DFF81083ADF808400390ADF87A
:101330001040ADF80A4002A9404605F075F80222B7
:101340000021384604F029FA02220121384604F02F
:1013500024FA0427C820ADF81470ADF81C00ADF8CD
:101360001660ADF8185005A9404605F017FB02239A
:101370001A460321404605F07AFC0121404605F05B
:10138000FCFB01221146404605F0D7FB01214046F7
:1013900005F0C2F842F21071404605F087F8A64801
:1013A00014300480A8F800504FF4C06004F0B4F882
:1013B00032208DF820008DF821708DF822408DF8B4
:1013C000235008A804F0ADF88AE72DE9F0419CB05D
:1013D00001219A4804F026FB01210D02284604F061
:1013E00049FB97480024CDE90040964802A94FF0F8
:1013F000080881E81101A800CDE9054040000790E8
:101400008000CDE908050AA90001012581E8310025
:101410008D4E0D94694630460E9404F0FBFD01217B
:10142000304604F030FE03273C268DF858701596A0
:101430008DF85B4015A97F4804F026F98DF85870A7
:1014400015968DF85B4015A9804804F01DF9380405
:10145000CDE91740B001CDE9194017A804F0DFFB32
:101460001194129413942806754C0F908DF84050E7
:101470004C3C8DF841508DF850800FA9204604F067
:10148000A3FB042301220221204604F012FC0423C2
:1014900002220321204604F00CFC042303221946F7
:1014A000204604F006FC04231A460521204604F0D9
:1014B00000FC042305220C21204604F0FAFB04233F
:1014C00006220D21204604F0F4FB042307220E21FE
:1014D000204604F0EEFB042308220F21204604F0EE
:1014E000E8FB0121204604F061FC0121204604F0C4
:1014F00053FC0121204604F0A9FB204604F013FC14
:101500001CB0EEE608B54FF4E06004F005F82520C5
:101510008DF8000000208DF801008DF802000120F8
:101520008DF80300684603F0FCFF08BD70B5054662
:1015300096B00121102004F09DFA0121084604F024
:1015400071FA0121880504F06DFA4FF4C060139020
:1015500002208DF8500000248DF852408DF8534041
:10156000344E8DF8510013A9304604F08DF807224F
:101570000921304604F011F907220A21304604F00F
:101580000CF90F95ADF844400C20314DADF84040BA
:10159000ADF84600ADF84240ADF848400FA92846E6
:1015A00005F0DBFB0121284605F048FC4FF4A06064
:1015B00003F0B2FF3A208DF854008DF855408DF8B5
:1015C000564001208DF8570015A803F0AAFF1E4EC3
:1015D0003036304604F096FC4FF000600090194819
:1015E00069461030CDE902040A200490281D0190BC
:1015F0000015CDE905408010CDE9084040020A9071
:1016000004200B9007940320CDE90C0430460E947F
:1016100004F000FD01224021284605F0A6FC01222D
:101620001021304604F0A4FD012113E0000C02401B
:101630000008004000000240000C0040050040008F
:101640004C200140140300201064024000080240B6
:1016500000100140304604F016FD16B070BDF0B524
:101660000646012197B0480504F0DCF901214D043C
:10167000284604F0F5F90121082004F0D3F9602090
:10168000139002208DF8500000248DF852408DF800
:1016900053408DF8510013A9FE4F384603F0F4FF74
:1016A00007220521384604F078F80722062138463B
:1016B00004F073F80F96ADF844400C20F64EADF8E8
:1016C0004040ADF84600ADF84240ADF848400FA9A3
:1016D000304605F042FB0121304605F0AFFB4FF4E8
:1016E000A06003F019FF11208DF854008DF85540CB
:1016F0008DF8564001208DF8570015A803F011FF12
:10170000E64F384604F0FEFBA8020090402003900C
:10171000E34802903C200490301D01900015CDE973
:1017200005408010CDE908400420CDE90A50079417
:101730000320CDE90C04694638460E9404F06AFC97
:1017400001228021304605F010FC01228021304624
:1017500005F00BFC01221021384604F009FD01219F
:10176000384604F090FC17B0F0BD70B50546012175
:1017700096B0880404F074F90121082004F052F9AD
:101780000121480504F04EF94FF4407013900220F7
:101790008DF8500000248DF852408DF85340BD4E16
:1017A0008DF8510013A9304603F06EFF072208217F
:1017B000304603F0F2FF07220921304603F0EDFF27
:1017C0000F95B84EADF84040ADF844400C25ADF84B
:1017D0004240ADF84840ADF846500FA9304605F0FC
:1017E000BCFA0121304605F029FB4FF4A06003F05C
:1017F00093FE8DF854508DF855408DF856400120D9
:101800008DF8570015A803F08CFEA44D783D2846AE
:1018100004F078FB4FF000600090A348CDE902048B
:1018200008200490301D01900015CDE9054080107E
:10183000CDE9084040020A9004200B900794032051
:10184000CDE90C04694628460E9404F0E3FB01221E
:101850004021304605F089FB01224021304605F049
:1018600084FB01221021284604F082FC0121284635
:1018700004F009FCF1E6F0B50646012197B0C80472
:1018800004F0EEF80121084604F0CCF801214805E7
:1018900004F0C8F802208DF8500000248DF8524062
:1018A0008DF85340814F03258DF85100139513A9EE
:1018B000384603F0E9FE08220021384603F06DFFA8
:1018C00008220121384603F068FF0F96ADF8444026
:1018D0000C20774EADF84040ADF84600ADF84240E0
:1018E000ADF848400FA9304605F037FA01213046DF
:1018F00005F0A4FA4FF4A06003F00EFE0D208DF861
:1019000054008DF855408DF8564001208DF8570051
:1019100015A803F006FE614F603F384604F0F2FA66
:1019200078050090604869460F38CDE90204082028
:101930000490301D01900015CDE905408010CDE9DF
:101940000840400207940A900420CDE90C540B9003
:1019500038460E9404F05EFB01224021304605F02B
:1019600004FB01224021304605F0FFFA012210213C
:10197000384604F0FDFB0121384604F084FBF2E612
:101980002DE9F0418046012196B0480504F04AF85F
:101990000121080504F064F801210C2004F042F84C
:1019A00002258DF8405000248DF84240394F04261E
:1019B0008DF843400F968DF841500FA9384603F03B
:1019C00063FE8DF840508DF842408DF84340E802A8
:1019D0008DF84150374D0F900FA9284603F054FE63
:1019E00008220221384603F0D8FE08220C2128469E
:1019F00003F0D3FE4FF4A06003F08EFD2F208DF88E
:101A0000540005208DF855008DF8560001208DF802
:101A1000570015A803F085FDADF84C400C20264D6D
:101A2000ADF84840ADF84E00CDF84480ADF84A40DE
:101A3000ADF8504011A9284605F08FF9012128463C
:101A400005F0FCF9154F1837384604F05BFA7006BC
:101A5000009040200390144869466038029031207D
:101A60000490281D01900015CDE905408010CDE9B6
:101A700008404002CDE90A0607940320CDE90C0492
:101A800038460E9404F0C6FA01228021284605F05B
:101A90006CFA13E0000C024000440040A0600240D9
:101AA0007401002000480040420300200000024072
:101AB000004C00400008024000500040012210216C
:101AC000384604F055FB0121384604F0DCFA16B024
:101AD00007E430B585B00121082003F0A3FF012100
:101AE000880303F0C7FF00240C208DF81040012567
:101AF00003908DF8135003A9FE4803F0C5FD0221A1
:101B0000032005F09CFA042000908DF8044010207A
:101B10008DF805008DF80650684604F091FB08200A
:101B20008DF808008DF809408DF80A408DF80B50AB
:101B300002A803F0F6FC05B030BD10B5012810D0A6
:101B4000032819D0042822D0052809D1EA4C2046C0
:101B500005F09AF94021204605F027FA0028F9D02F
:101B600010BDE64C204605F08FF94021204605F0D7
:101B70001CFA0028F9D010BDE14C204605F084F98C
:101B80004021204605F011FA0028F9D010BDDD4CA7
:101B9000204605F079F94021204605F006FA002894
:101BA000F9D010BDD84900204862D8490861D84909
:101BB0000860D849C8647047D34900204862D349B7
:101BC00008614FF0804250624861D34A10608861DA
:101BD000CF490860CF49C86470474FF0804100206A
:101BE0004862CA4948617047CB4900200860C7492C
:101BF0008861704770B5C54D0020E87004466121CA
:101C00000120FFF79AFF3220FEF735FF641C022CFB
:101C1000F5D30120E8707A20A87070BD70B5BB4D77
:101C200000206871044661210320FFF786FF3220FF
:101C3000FEF721FF641C022CF5D3012068717A2085
:101C4000287170BD2DE9F14F96B0002014908DF8E9
:101C50000000B24C8DF828004FF40045169AAB49AD
:101C6000AC486E1027154FF480584FF40059122AD3
:101C70006BD2DFE802F009262C3034383C4044486F
:101C80004E52575D61656DFD088901280CD0012217
:101C90002946204603F076FD2946204603F064FDE0
:101CA000014600229EA04EE000222946204603F075
:101CB00069FD2946204603F057FD01460022A0A0F9
:101CC00041E0924801228030C16EA5A03BE0016D49
:101CD0000222A5A037E0416D0322A7A033E0C16D29
:101CE0000422A8A02FE0816D0522A9A02BE00622E6
:101CF000C969AAA027E0016E0722ABA023E00C224D
:101D0000096AACA01FE0FEF74AFE01460922ADA019
:101D100019E0C16E0822ADA015E0AE4801680B22A3
:101D2000ADA010E0FEF78DFE01460A22ADA00AE04C
:101D3000816E0D22ADA006E00E22896AAFA002E0FE
:101D4000416E1022B0A0FEF76BFC17B0BDE8F08F1B
:101D5000DFF8BCA20121504603F0FCFC0246ADA115
:101D6000684606F0E7FF69460AA806F0B7FC0221BC
:101D7000504603F0EFFC0246A6A1684606F0DAFFE3
:101D800069460AA806F0AAFC3146504603F0E2FC78
:101D90000246A0A1684606F0CDFF69460AA806F0F3
:101DA0009DFC2946504603F0D5FC024699A16846A1
:101DB00006F0C0FF69460AA806F090FC08215046CC
:101DC00003F0C8FC024693A1684606F0B3FF6946DB
:101DD0000AA806F083FC4FF48071504603F0BAFC69
:101DE00002468CA1684606F0A5FF69460AA806F0DF
:101DF00075FC0421504603F0ADFC024685A16846FF
:101E000006F098FF69460AA806F068FC8021504653
:101E100003F0A0FC02467FA1684606F08BFF6946EE
:101E20000AA806F05BFC4021504603F093FC0246F2
:101E300078A1684606F07EFF69460AA806F04EFCC7
:101E40003946504603F086FC024672A1684606F009
:101E500071FF69460AA806F041FC4146504603F06E
:101E600079FC02466BA1684606F064FF694600E013
:101E7000DCE00AA806F032FC4D464946504603F025
:101E800069FC024663A1684606F054FF69460AA849
:101E900006F024FC2021504603F05CFC02465DA1C4
:101EA000684606F047FF69460AA806F017FC1021AD
:101EB000504603F04FFC024656A1684606F03AFF32
:101EC00069460AA806F00AFC2946204603F042FCAF
:101ED000024650A1684606F02DFF69460AA806F0A2
:101EE000FDFB3146204603F035FC024649A1684619
:101EF00092E00000000C0240005000400010014041
:101F000000480040004C004000000140000000205C
:101F10002408004000010020240400400008024082
:101F2000524F424F5420322044414E4720434841B3
:101F3000592053414E20444F3A20202000000000F9
:101F4000524F424F5420322044414E472043484193
:101F5000592053414E2058414E483A20202000003D
:101F6000494D553A000000004C415A45525F4241EC
:101F7000545F424F4E473A004C415A45525F5341DD
:101F8000553A00004C415A45525F504841493A0089
:101F90004C415A45525F545241493A004249454EDC
:101FA0002054524F20593A004249454E2054524F36
:101FB00020583A004249454E2054524F204D414D41
:101FC0003A000000454E5F464C3A000054414D5FD8
:101FD0005900000034040140536572766F5F43611D
:101FE0006D3A0000544F4E473A00000053494C4FA1
:101FF0005F5448415F424F4E473A000054616D20A4
:1020000053494C4F3A00000054414D5F58000000C6
:10201000001002402564000006F08CFE69460AA804
:1020200006F05CFB0F220AA9F9A0EAE03946F9485C
:1020300003F09AFB0246AFF22401684606F07AFEEE
:1020400069460AA806F04AFB8021204603F08CFB73
:102050000246AFF24001684606F06CFE69460AA8E7
:1020600006F03CFB4FF40071204603F07DFB024676
:10207000AFF26001684606F05DFE69460AA806F008
:102080002DFBDFF894A33946504603F06DFB024662
:10209000AFF28001684606F04DFE69460AA806F0D8
:1020A0001DFB4FF4006B5946DA4803F05DFB024616
:1020B000AFF2A001684606F03DFE69460AA806F0A8
:1020C0000DFB44464146D34803F04EFB0246AFF2B7
:1020D000BC01684606F02EFE69460AA806F0FEFA24
:1020E0004946CC4803F040FB0246AFF2D8016846AF
:1020F00006F020FE69460AA806F0F0FA3146C54807
:1021000003F032FB0246AFF2F401684606F012FE1D
:1021100069460AA806F0E2FA2946BE4803F024FB05
:102120000246AFF21011684606F004FE69460AA89E
:1021300006F0D4FA3946504603F016FB0246AFF2D9
:102140002C11684606F0F6FD69460AA806F0C6FAA4
:102150003146504603F008FB0246AFF2481168468C
:1021600006F0E8FD69460AA806F0B8FA5946504656
:1021700003F0FAFA0246AFF26411684606F0DAFD9F
:1021800069460AA806F0AAFAA44D4FF480712846C1
:1021900003F0EAFA0246AFF28411684606F0CAFD7F
:1021A00069460AA806F09AFA5946284603F0DCFA6E
:1021B0000246AFF2A011684606F0BCFD69460AA8C7
:1021C00006F08CFA2146284603F0CEFA0246AFF21A
:1021D000BC11684606F0AEFD69460AA806F07EFA14
:1021E00040218C4803F0C0FA0246AFF2D81168468D
:1021F00006F0A0FD69460AA806F070FA11220AA9A5
:1022000087A0FEF76CFAA0E50121874803F03BBFE9
:1022100011B48648816C009A914201DD002101E0F1
:10222000816C491C8164806C18BC0BE52DE9F0477A
:102230000025794E074601244FF400594FF4804899
:102240004FF4805A00224146304603F09BFA10209A
:10225000FEF705FC274201D0012200E0002249469A
:10226000304603F08FFA01224146304603F08AFAE5
:102270001020FEF7F4FB5146304603F06BFA00B134
:102280002543600010F0FF04DCD12846BDE8F0874C
:1022900070B5614E4FF4004500222946304603F0E8
:1022A00071FA1020FEF7DBFB0120FFF7BFFF422091
:1022B000FFF7BCFFFF20FFF7B9FFFF20FFF7B6FFD6
:1022C0005A4CB0342070FF20FFF7B0FF6070FF2041
:1022D000FFF7ACFFA070FF20FFF7A8FFE070FF2022
:1022E000FFF7A4FF2071FF20FFF7A0FF60712946D0
:1022F0003046BDE87040012203F044BA70B5464E46
:102300004FF4004500222946304603F03BFA1020E6
:10231000FEF7A5FB0120FFF789FF4220FFF786FFAC
:10232000044601222946304603F02CFA1020FEF71D
:1023300096FB204670BD3E4A00211167C2793B4999
:10234000B0310D2A09D0FF20087048708870C8701D
:102350000871487188710020704702780A704278CD
:102360004A7082788A70C278CA7002790A7142799A
:102370004A7180798871012070472C482C49B0300F
:102380000278FF2A05D14278FF2A02D18278FF2AFB
:1023900009D00A6F531C0B67C82A03DDFF210170A7
:1023A0004170817070470020086770471F48B03047
:1023B000807970471D48B0300078400601D4012074
:1023C0007047002070471948B0300078800701D46A
:1023D000012070470020704770B5144C0125803CE7
:1023E000002604F1F403002803D006DDD8709D70A8
:1023F00007E094F82400D87003E0C0F10000D87022
:102400009E70002916D019DDD9719D711AE0000067
:10241000493A000000040240000C02400000024063
:102420004F55543A00000000A06002400001002017
:102430000000002094F82400D87103E0C1F10000EE
:10244000D8719E71002A03D006DDDA729D7270BDCC
:1024500094F82400D87270BDC2F10000D8729E7248
:1024600070BDFE49C870C871C8727047FB49012031
:10247000F43908627047F948C178032907D2C17955
:10248000032904D2C07A032801D20120704700201A
:102490007047F248F438C06CA0F5EA41303901D0F9
:1024A0000120704700207047FFF7A4BBEC48B0F94B
:1024B0000C0040427047EA48B5EEC00AD0ED1E0A53
:1024C000F1EE10FA02D230EE600A01E030EE200A9E
:1024D000BDEEC00A10EE100A704710B5041EE048A9
:1024E0002DED048B00F180009FEDDE8B11D0806B11
:1024F00014DA06F09AFA41EC190B204606F095FA28
:1025000053EC182B06F0B0F953EC182B06F0A6F993
:1025100013E09FEDD60ABDEC048B10BD06F085FAE2
:1025200041EC190B204606F080FA53EC182B06F00C
:102530009BF953EC182B06F0F0F853EC192B06F02E
:1025400005FA06F096FA00EE100AE4E7B5EEC00AC6
:10255000F1EE10FA01DAB1EE400A7047002800DA15
:1025600040427047BE49803191ED060AD1ED071A0D
:10257000F1EE400A80EEA11A00EE900AF8EEE00AB1
:1025800001EE200ABDEEC00A10EE100A7047F0EE10
:10259000401A9FEDB70AF5EEC01AF1EE10FA01D21B
:1025A000F1EE611AF5EEC00AF1EE10FA01D2F1EE89
:1025B000600AB5EEC01AF1EE10FA01D2B1EE411A7E
:1025C000F4EEC01AF1EE10FA01DDB0EE610AF4EE9D
:1025D000C00AF1EE10FA01DDB0EE600AB4EEC01AE6
:1025E000F1EE10FA01DDB0EE410A70479C488030F0
:1025F000806B70479A488030406E704770B5984C39
:102600002DED068B8034B0EE408A04F18005E06C3D
:10261000A0F5EA4130397ED0A26DE16ED4ED170A03
:10262000891A401A00EE100A94ED011A206EB8EED5
:10263000C00A00EEC10AD4ED000AC0EE208A06F0FE
:1026400005FA94ED0B0A41EC190B20EE280A10EE66
:10265000100A06F0FBF941EC100B06F099FB9FED18
:1026600085AB51EC100B53EC1A2B06F0FDF853EC34
:10267000192B06F0F3F806F0FCF9A067206E06F0BF
:10268000E5F994ED020AD4ED0B0A41EC190B38EE92
:10269000800A20EE200A10EE100A06F0D7F941EC6D
:1026A000100B06F075FB9FED751B51EC100B53ECF6
:1026B000112B06F0D9F853EC192B06F0CFF806F0E1
:1026C000D8F9E06794ED030AD4ED0B0A38EE800ADE
:1026D00020EE200A10EE100A06F0B8F941EC100BBB
:1026E00006F056FB53EC1A2B51EC100B06F0BCF81D
:1026F00006F0BFF9C5F80000B5EEC08AF1EE10FA99
:1027000038D0606B80B1012814D0022819D003287A
:1027100030D123E0FFE79FED550A85ED000A84EDF7
:102720001F0A84ED1E0AE7E794ED1E0A30EE480A00
:1027300084ED1E0A94ED1F0A30EE480A84ED1F0A4C
:1027400005E094ED1E0A30EE480A84ED1E0A95ED70
:10275000000A30EE480A85ED000A0BE094ED1E0AEF
:1027600030EE480A84ED1E0A94ED1F0A30EE480A46
:1027700084ED1F0A95ED001AD4ED1F0A94ED1E0A90
:10278000FFF705FF3648D0ED1D0AF8EEE00A80EEAF
:10279000801ABDEEC10A10EE100A2064A16B8142BE
:1027A00000DDA06301202063BDEC068B70BD2C49C9
:1027B000002280310028CA6348640FD18A639FEDEC
:1027C0002B0A47F2305081ED180AC864086581ED84
:1027D000170A4A634A654A660A620FE7704720484B
:1027E000803090ED170AB5EEC00AF1EE10FA04D170
:1027F000416B11B9416D002909D000219FED1B0AE1
:1028000080ED170A41634165C16E8165F6E6704748
:1028100013488030C0ED060A80ED070A7047104A61
:102820008032D36C834209D1D36B8B4206D1D2ED77
:10283000180AF4EE400AF1EE10FA23D0D163916B3E
:1028400009B905219163D16E916582ED180AD064B2
:102850000020906492ED170AD0E600007401002079
:10286000000000209A9999999999B93F00000000B9
:102870006F12833A00000000000000C0000000005A
:10288000000000407047FF4A30B4536D834209D1C5
:10289000D2ED170AF4EE400AF1EE10FA02D1536BB2
:1028A0008B4226D0D46C47F230539C4219D132244B
:1028B000D46305249463984213DAB5EEC00A012369
:1028C000F1EE10FA536602DDD36E834207DCB5EEFB
:1028D000C00AF1EE10FA04D2D36E834201DAB1EEEF
:1028E000400A5163506582ED170A0020906430BCA5
:1028F00084E630BC7047014647F23050C3E71FED15
:10290000250A8CE710B5DF4C2DED028BF0EE608AC6
:10291000D4ED140AB0EE418AF8EEE00AF4EE400A73
:10292000F1EE10FA0BD1E16B814208D1D4ED150A1A
:10293000F8EEE00AF4EE680AF1EE10FA4BD0FDEE84
:10294000C00A0146C4ED140AD4ED1B0AF8EEE00AF1
:1029500030EE600ABDEEC00A10EE102A1FED3D0AEF
:102960001046FFF75CFF94ED1B0AF8EEC00A78EE04
:10297000E00AFDEEE00A10EE900A002800DA40427C
:10298000B8EEC00A642819DDF4EEC08AF1EE10FA40
:1029900001DCB1EE488A18EE100A06F057F800BFC5
:1029A00006F067F8FDEEE80ABDEC028B00EE100AB7
:1029B000BDE81040002110EE900A64E738EEC00A2E
:1029C00010EE100A06F042F89FEDAF1B53EC112BEE
:1029D00005F04AFFE4E7BDEC028B10BD10B5A94C31
:1029E000606E01282FDDE16E606D401AFFF7B6FDC5
:1029F0000A2812DA0020A0631FED640AE06384ED68
:102A0000170AFFF7FBFD606E411C6166B0F5FA7FA7
:102A100019DDBDE810400020C9E60520616EE063C5
:102A2000FA29A06301DDFB206066616DE06E8842DB
:102A300002DDBFEE000A01E0B7EE000A84ED170ADE
:102A4000BDE81040DAE510BD8E4910B591ED180AC9
:102A5000B5EEC00AF1EE10FA72D18A6B002A6FD07F
:102A6000486D47F2305398426ADA91ED170AB5EE95
:102A7000C00AF1EE10FA7CD0CC6C9C4261D1B5EE6C
:102A8000C00AF1EE10FA04DD4A69CB6E821A9A424E
:102A900009DBB5EEC00AF1EE10FA17D24A69CB6E27
:102AA00002449A4212DD4A6E032A49DAC01AFFF73D
:102AB00055FD0A28486D0ADA8866002088631FEDF4
:102AC000950AC86381ED170A022048667BE091ED04
:102AD0000E0AD1ED170A6B4AB8EEC00ACB6E803AE7
:102AE000984260EE200A91ED050AB8EEC01A80EE19
:102AF000810A0FDDFFF72AFDCB6E486DC01AFFF784
:102B00002DFD00EE900AB8EEE01AD2ED1F0A40EE5D
:102B1000010A0EE0FFF71AFDCB6E486DC01AFFF7F1
:102B20001DFD00EE900AB8EEE01AD2ED1F0A50EE3D
:102B3000410A91ED0E0AB8EEC01A80EE810A42E019
:102B400046E0B5EEC00AF1EE10FA1ADD00EE900A8A
:102B5000B8EEE01A00EE902AF8EEE00A00EEC01A95
:102B6000D1ED040AF8EEE00A31EE601AD1ED1B0A4D
:102B700000E02BE0F8EEE00AB4EEE01AF1EE10FA15
:102B80001DD3B5EEC00AF1EE10FA1CD200EE900A89
:102B9000B8EEE01A00EE902AF8EEE00A00EEC01A55
:102BA000D1ED040AF8EEE00A31EE201AD1ED1B0A4D
:102BB000F8EEE00AB4EEE01AF1EE10FA03DDC96EA9
:102BC000401AFFF78AFCBDE8104017E5886DF6E76C
:102BD00010BD2C48416E02290CDA1FEDDC0A0022E0
:102BE00080ED180A80ED170A47F230514263C16444
:102BF000C0E91412826C521C8264816A8A4202DB30
:102C00008164016A09B1406A00E0002029E41D4A9C
:102C1000936C5B1C9364834204DD906B0844906367
:102C200000209064704710B5FFF740FC154CE0663B
:102C3000FFF7D4FEE26BA06B4FF0FF31002A0BDDF3
:102C400090420ED006DA216C88420ADAFFF78AFC3D
:102C5000012104E0606F02E000283ADD606CFFF7BC
:102C6000D6FFD4E91B01814203D0FFF7EDFEE06EF1
:102C70002067206B00282FD094ED0E0A0148B8EE93
:102C8000C00A05E0800000207B14AE47E17A743F63
:102C90008030D0ED000A20EE200AFFF70CFC94ED06
:102CA0000E0AD4ED1F0A0246B8EEC00A20EE200A32
:102CB000FFF701FC94ED0E0AD4ED1E0A0146B8EEB2
:102CC000C00A20EE200AFFF7F6FBBDE81040FFF730
:102CD00083BBBDE810407CE710BD30B4F84CE46D18
:102CE000A41A01D4224600E06242C2EB021240F272
:102CF0008A25AA4200DD2A469FEDF21A9C4208DD91
:102D000000EE101AC2F10001F8EEC00A00EE101A2F
:102D100006E000EE101AF8EEC00A04DA00EE102AFF
:102D2000B8EEC00A01E09FEDE80A30BCEAE530B435
:102D3000E34CE46DA41A01D4224600E06242C2EBE7
:102D400002124FF4FA75AA4200DD2A469FEDDD1A01
:102D50009C420ADD00EE101AA2F5E162F8EEC00A0C
:102D600000EE102AB8EEC00A11E00ADAC2F5E162FC
:102D700000EE102A00EE901AB8EEC00AF8EEE00A53
:102D800005E000EE101AF8EEC00A9FEDD00A30BC44
:102D9000B8E530B4CA4CA46DA41A01D4224600E0B0
:102DA0006242C2EB02124FF4FA75AA4200DD2A46D3
:102DB0009FEDC71A9C4206DD00EE101AF8EEC00A1D
:102DC00000EE102A08E000EE101AF8EEC00A06DA4B
:102DD000C2F1000100EE101AB8EEC00A01E09FED4A
:102DE000BA0A30BC8EE530B4B54CA46DA41A01D437
:102DF000224600E06242C2EB02124FF4FA75AA4288
:102E000000DD2A469FEDB21A9C420ADDC2F5E1625E
:102E100000EE102A00EE901AB8EEC00AF8EEE00AB2
:102E20000DE000EE101AF8EEC00A06DAA2F5E16233
:102E300000EE102AB8EEC00A01E09FEDA40A30BCF3
:102E400060E52DE9F0419E4BB0332DED028B987873
:102E5000401FF52801D8012400E000241879401F04
:102E6000F52801D8012500E00025954A187802F1DF
:102E7000B002C10652780FD541060DD581060BD59B
:102E8000010609D544B13DB1910605D5BDEC028BD3
:102E90000020BDE8F0418AE45107DFED8E8A03D4BB
:102EA0002321B0EE688A02E00A219FED898A9846C4
:102EB000834EC306A6F1800647F230574FEA4063BF
:102EC0000CD4002B54DA83064FEA006027D5002883
:102ED0004FEAC2702ADA98B3002034E0002B4FEAA0
:102EE00080630BDB002B4FEA006022DA00284FEAF8
:102EF000C27026DA20B34FF4E16024E0002B4FEAE1
:102F0000006006DB002833DAD00731D04FF461705F
:102F100019E0002823DBD0072AD06F4813E00028EF
:102F200026DAD00724D04FF4E1700CE040B16B48B2
:102F300009E000281CDAD0071AD040F2465002E01F
:102F400016E0A8B16648FFF7DAFC98F80000C10661
:102F50000ED541060CD581060AD5000608D584BBDE
:102F60003DB1F06CB84204D00020FFF720FC00E037
:102F70003CBB98F80210404605290DD24278D20792
:102F80000AD0F06CB8424FF0000002D09FED550A15
:102F900012E0B1EE480A0FE0FA2913D998F80100BF
:102FA000C0070FD0F06CB8424FF0000002D0B0EE76
:102FB000680A01E0B0EE480ABDEC028BBDE8F041C2
:102FC00099E4FFE7BDEC028BBDE8F04107E470B582
:102FD0003B48454A0469611C016101464B69002177
:102FE000C82C03D2D4892344436105E0C824B3FB31
:102FF000F4F301610365416185696B1C8361304BAA
:10300000DC696423642D03D295892C44C46104E0F7
:10301000B4FBF3F481614465C161056A6C1C046210
:10302000274C322D646A03D215892C44446204E093
:10303000B4FBF3F40162C4654162856A6C1C84626E
:103040001F4C642DE46A03D253892344C36204E015
:10305000B4FBF3F381628365C162056B6B1C036390
:10306000174B5C6B3223322D03D215882C444463FA
:1030700004E0B4FBF3F4016304664163856B1B4E0B
:103080006C1C84630E4C322DE46B03D255882C44A7
:10309000C46304E0B4FBF3F4F4618163C163056CC1
:1030A0006C1C0464064C322D646C02D2918821445D
:1030B00003E0B4FBF3F232620164416470BD0000CE
:1030C00000010020CDCCCC3D000000000000E14418
:1030D000CDCC4C3E9A99993E7CFCFFFF3EFEFFFF13
:1030E000BAFAFFFF9A9999BE14030020000000204D
:1030F00030B4F64D029C1FED091AAD6DEB1AA342D8
:1031000004DD00EE102AF8EEC00A06E00ADA00EE4E
:10311000102AC1F10001F8EEC00A00EE101AB8EE54
:10312000C00A07E000EE102A1FED1A1AF8EEC00AD6
:103130001FED1B0A30BCFFF7E5BB30B4E34D029C2A
:103140001FED201AAD6DEB1AA3420ADDC1F5167111
:1031500000EE101A00EE902AB8EEC00AF8EEE00A6F
:103160000DE000EE102AF8EEC00A06DA01F516713D
:1031700000EE101AB8EEC00A01E09FEDD50A30BC8F
:10318000FFF7C0BB30B4D14D029C1FED321AAD6DBC
:10319000EB1AA34204DD00EE102AF8EEC00A06E0A6
:1031A00000EE102AF8EEC00A06DAC1F1000100EEC6
:1031B000101AB8EEC00A01E01FED3D0A30BCFFF75F
:1031C000A1BB30B4C14D029CED6DEB1A1FED431A4B
:1031D000A34204DD00EE102AF8EEC00A06E000EE7D
:1031E000102AF8EEC00A06DAC1F1000100EE101A4A
:1031F000B8EEC00A01E01FED4C0A30BCFFF782BBFD
:1032000070B5B44D0121284602F0A4FAB24C60B169
:10321000A079C043A07102E0012004F0EEFE01217C
:10322000284602F097FA0028F6D0A279AB484FF46E
:10323000806122B10022BDE8704002F0A3BA0122F1
:10324000F9E7F0B5A448022400F5BA72816CC369AD
:10325000C8398B4246DB066B016CB14200DA06646A
:10326000036C416B8B4200DD0164036A01250A2770
:10327000B34201DA957303E000268B4202DD9673B8
:10328000D773F0BD076CD91B01D48C4601E0C1F1A6
:10329000000CBCF1050F25DDBB4201DD967300E09B
:1032A0009573002900DA4942884B5960C46A04EBDF
:1032B000D4704010642C01DD642500E005468D4289
:1032C00001DB084603E0642C00DD6420586014280C
:1032D00005DAC82C01DC052000E0142058601879BC
:1032E000D073F0BDD473F0BDF0B57B49D1E91304C0
:1032F000A04200DACC64D1E91202824200DDC86447
:10330000724ACB69002532267432A34201DA9575E0
:1033100003E00124834202DD9475D675F0BDCE6CC6
:10332000981B01D4074600E04742052F15DDB34244
:1033300001DD947500E09575FFF710F943006348CF
:103340004360C96A8B4201DD416003E00F2B01DA63
:103350000F21F9E70079D075F0BD0220FBE75B484B
:103360005D49B0304279C86CFA2A04D90B6D984295
:1033700001DD401E05E0052A07D28A6C904204DA7E
:10338000401CC864C82004F038BE7047F0B55249EC
:10339000D1E91650A84200DACD654E6DC86DB04235
:1033A00000DDCE65494B01243227186E03F174020B
:1033B000A84201DA947403E00025B04202DD95745E
:1033C000D774F0BDCE6D801BFFF7C8F8022817DD5B
:1033D000186ECE6DB04201DD957400E09474801BD0
:1033E000FFF7BCF840005860C96A884200DD5960A8
:1033F00058681E2801DA052058601879D074F0BD8D
:103400000220FBE72DE9F0410122344DD60231467E
:10341000284602F0B7F900222915284602F0B2F931
:103420002D4C40F2DC57206DE064384604F0E5FD99
:1034300007E04B30814204DA01223146284602F08F
:10344000A1F9206DE16900F10A029142F1DC3846F0
:1034500004F0D3FDA06CE06402E0012004F0CDFD97
:10346000A06CE16932388142F7DB0020174E6062C0
:10347000306DFA2801DA012500E00025052004F06E
:10348000BCFD606A401C60623228F1DB2846BDE862
:10349000F081114810B5816C0A39C164416EC16573
:1034A000816B01640E49C06E0860091D40F26C70AA
:1034B00008600A4C0022C914204602F063F9002279
:1034C00021152046BDE8104002F05CB90001002043
:1034D00000001644001002400000002000040240DA
:1034E00034040140FA4C40F2A46525604FF47A7729
:1034F00040F6B8362068643820602068B84203D9A6
:103500002560304604F079FDC82004F076FDF1E72F
:103510000020FFF74CF94FF47A74204604F06DFD5B
:10352000FBE770B5EB4DFF21284603F0ADFC0A2008
:1035300004F063FDE84C2846218903F0A5FC0A202D
:1035400004F05BFD6189284603F09EFC0A2004F02C
:1035500054FDDF480068642180B2B0FBF1F12846D9
:1035600003F092FC0A2004F048FD22890A2004F5A9
:103570008071012A0CD0B1F85C1089B2B1FBF0F176
:10358000284603F081FCBDE870400A2004F035BDF8
:10359000B1F85810F1E72DE9F05FDFF83CA31426ED
:1035A00046247D250027C821CAF82C10C84940F2BE
:1035B000A4604FF00A08086040F26631E800CAF8DB
:1035C0004C1004F01AFD00210AF5807BCAF8241083
:1035D00077E000BF4FF000095BE000BFAA194FF091
:1035E00000099A4209DDFEF7B9FF0A2290FBF2F2C8
:1035F000DAF840309A1A521E0BE0AA1B9A420ADAF5
:10360000FEF7ACFF0A2290FBF2F2DAF840301A44DF
:10361000521CCAF84020C86E04EB080282420ADD40
:10362000001BFEF79BFF052290FBF2F2DAF85C30FC
:103630009A1A521E0DE0A4EB080282420BDA001B1C
:10364000FEF78CFF052290FBF2F2DAF85C301A44A8
:10365000521CCAF85C20486EC96E084307D0DAE9EC
:103660001621914203DDDAF8540081420DDB384621
:10367000DAF820107F1CCAF84010142805DDFA2063
:10368000CAF82C000020BDE8F09F4FF4C87004F089
:10369000B4FCDBF864305946581B01D4024600E004
:1036A0004242B2429ADCCA6E121B00D552424245D7
:1036B00094DC09F101090A2004F09FFCB9F1640FC0
:1036C000E7DBDBF864005946401B00D54042B042BE
:1036D00080DCC86E001B00D540424045F8DC642009
:1036E00004F08BFCDAF82400401CCAF824000A28F5
:1036F000E7DBFA20CAF82C000120C4E72DE9F14FDE
:103700002DED028BFFF7C5FEDFF8CCB1DFF8C0A1CD
:103710000BF1800B9FED718ADFED718A6E4F0BF11B
:1037200080044FF00A09B86B3864B86CF864092655
:1037300000257E814FF47A7004F05FFCA84679E0A2
:10374000E80714D040F2A460CAF80000A7F80A9075
:103750004FF47A7004F051FC7E8140F6B83004F0EA
:103760004CFCE16E606E6D1C084305D01FE040F21A
:103770007E41CAF80010E9E702984FF000010128E5
:10378000B6EE000A05D0A8F5487000BFFFF77BF839
:1037900005E008F54870F9E7012004F02EFCE16E21
:1037A000606E084303D1DBF864000028F4D10020E8
:1037B000FEF7FDFFE16E606E08431AD102984FF0EC
:1037C00000010128B6EE000A05D008F5487000BFD8
:1037D000FFF759F805E0A8F54870F9E7012004F073
:1037E0000CFCE16E606E084303D1DBF86400002836
:1037F000F4D10020FEF7DBFFE16E606E084317D1C5
:1038000040F2DC51CAF800100021B6EE000A404632
:10381000FFF739F802E0012004F0EFFBDBF8640069
:103820000028F8D1FEF7C3FF40F6B83004F0E5FBFE
:103830000A2D04DC606E10B9E06E002880D00020F4
:10384000FEF7B5FF14E07D2804DA4FF00000BEEE6D
:10385000000A04E006DD4FF00000B6EE000AFFF7B4
:103860004AF801E0FEF7BBFFE16E606E08437CD0D2
:10387000606E7D38FEF772FE0A2802DD606EFF285A
:10388000E1D10020FEF793FF554640F2A4665AE0CE
:10389000E06E502815DD2868B04212D2286840F248
:1038A000AA518842286801D2801C00E0001D2860CF
:1038B000286840F27261884200D92E60142004F01A
:1038C0009CFB606E87280DDD0020B0EE480A0EE0FC
:1038D000340401400048004000000020CDCC4C3EA4
:1038E000CDCC4CBE732805DA0020B0EE680AFFF795
:1038F00002F801E0FEF773FF28681921A0F27E406C
:10390000B0FBF1F0FEF72AFEC0F11901072900DA39
:103910000721E26E606E104327D04FF4E160FEF79E
:10392000EEFF2868B042B3D32868B04205D1E06EFC
:10393000462802DA606EFF28AAD10020FEF737FF82
:10394000642004F05AFB2868B042EAD32868B042E9
:1039500005D1E06E462802DA606EFF28E1D1002032
:10396000FEF725FF4FF47A7000E05EE004F045FBBF
:1039700040E078294FF0000002DDB0EE480A01E097
:10398000B0EE680AFEF7B7FFE16E606E08434CD0F8
:10399000606E01467D3800D540422828E9DC0020D1
:1039A000FEF705FF4FF4E16514E0462903DA4FF016
:1039B0000501284604E006DD4FF005014FF0000048
:1039C000FEF79DFF02E00020FEF7F1FEE16E606E63
:1039D00008432AD0606E7D3800D54042282806DC96
:1039E000E06E0146463800D540420F28DDDC00205D
:1039F000FEF7DDFE606E7D3800D540422828C7DC2A
:103A0000E06E463800D540420F28C1DC0020FEF7AA
:103A1000CEFEFFF7C0FD40B10020FEF7C8FEA7F8BC
:103A20000A90FFF7EFFC002803D10020FEF7BFFE4D
:103A300079E6BDEC028BBDE8F88F2DE9F0410F4629
:103A4000F849F94E2DED048B51F8204030890021C2
:103A50009FEDF69A9FEDF68ADFEDF68ADFEDF69A96
:103A600006F58075012802D002287CD0F6E071624C
:103A700069E0A86D84422EDD47B1B0EE681AF0EE21
:103A8000690A4FF00A00B0EE480A4CE0A0EB0400CF
:103A9000FEF764FD02461E2800DD1E22E968686DFF
:103AA000401AFEF75BFD00EB80004100EB68686D9B
:103AB000B0EE681A9842F0EE690A02F1050002DDE4
:103AC000A1F5617102E001F56171494200EE101A41
:103AD000B8EEC00A27E033DA3FB1B0EE681AF0EE74
:103AE000690A0A20B0EE490A1DE0001BFEF736FD08
:103AF00001461E2800DD1E21EA68686D801AFEF767
:103B00002DFD00EB80004200EB68686D98420DDDF2
:103B1000C2F5617000EE100AB0EE681AF0EE690AA4
:103B2000B8EEC00A481DFEF7EDFE0CE002F561722A
:103B3000B0EE681AF0EE690A481D00EE102AC7E7D9
:103B40000020FEF734FEA86D001BFEF707FD0328DA
:103B50008FDC012004F051FA706A401C7062322838
:103B6000F1DB7BE0FFE771626AE0E86D844231DD02
:103B700047B1B0EE681AF0EE690A4FF00A00B0EEF5
:103B8000490A51E0A0EB0400FEF7E8FC41001E29C1
:103B900000DD1E21EA68686D801AFEF7DFFC00EB8D
:103BA00080004200EB68686D98420BDDC2F56170E1
:103BB00000EE100AB0EE681AF0EE690AB8EEC00A1C
:103BC000481D31E0B0EE681AF0EE690A481D02F5B2
:103BD000617224E031DA3FB1B0EE681AF0EE690AA2
:103BE0000A20B0EE480A1FE0001BFEF7B7FC4100B8
:103BF0001E2900DD1E21EA68686D801AFEF7AEFC02
:103C000000EB80004200EB68686DB0EE681A9842E5
:103C1000F0EE690A01F1050009DDA2F5617200EE1E
:103C2000102A00BFB8EEC00AFEF76CFE08E002F5ED
:103C30006172514200EE101AF4E70020FEF7B7FD62
:103C4000E86D001BFEF78AFC03288EDC012004F0DF
:103C5000D4F9706A401C70623228F1DBBDEC048B31
:103C60000020BDE8F041FEF7A2BD2DE9F041054678
:103C7000FDF7A2FF714E01229102304601F082FD54
:103C800001212846FFF7D9FE0020FEF790FD0A210A
:103C90000020FEF734FE644C0020694F606202E0B1
:103CA0000A2004F0AAF90421384601F053FD012846
:103CB000F6D0606A401C60623228F4DB00224FF4C8
:103CC0000061304601F05EFD40F2DC566581304611
:103CD00004F093F905206081304604F08EF95148D4
:103CE0004FF461714F4250F825602089554D0128ED
:103CF00014D002282CD032E0A86D864203DD4FF0AC
:103D00000501384603E005DA4FF005014046FEF7AD
:103D1000F6FD04E00020FEF74AFD00E08846A86DAD
:103D2000801BFEF71BFC0128E6DC18E0E86D8642EC
:103D300003DD4FF00501404603E005DA4FF00501D1
:103D40003846FEF7DCFD04E00020FEF730FD00E021
:103D50008846E86D801BFEF701FC0128E6DC606DFB
:103D6000E065BDE8F08130B52F490F24354AC86BB6
:103D70004FF42F730F38086402E0106D98420DDB8A
:103D80000D6C086A401BFEF7E9FB0528F5DCC86BE3
:103D90002044086406E0106D984203DAC86B08649A
:103DA000012030BD0C6C086A001BFEF7D7FB05280C
:103DB000F1DCC86B0864002030BD2DE9F0411A4CDD
:103DC0000F460546E06B206400212846FFF735FECC
:103DD000FFF7C9FF10B36E1C09E0E06B20640021FF
:103DE0003046FFF72AFEFFF7BEFF18B1761C1FB161
:103DF000052002E03046B4E70420B042EDDC6D1E41
:103E000077B10020A8421FDCE06B20640021284627
:103E1000FFF713FEFFF7A7FF0028F0D12846A0E721
:103E20000120EFE74C030020000000200000614467
:103E3000000061C46666663F0000000000040240A6
:103E400000100240000100200125BBE72DE9F047EA
:103E5000FE4E0746FE4C56F827800020894604F5A2
:103E600080756062208901280DD01EE01E308142DD
:103E70004FF0020342464FF0000101DD1E2000E03A
:103E80000F20FEF786FF696DE8688142EEDC10E0E6
:103E90001E3081424FF0020342464FF0000101DD27
:103EA0001E2000E00F20FEF718FF696DE8688142D0
:103EB000EEDC052004F0A1F8606A401C6062322844
:103EC000D0DB49463846FFF778FF05464FF47A774E
:103ED0000A2815D056F825600020FEF768FCE06B34
:103EE000012220649102DB4801F04CFC40F6B83816
:103EF000404604F082F82089D74C01281CD028E0E5
:103F0000FDF75AFE0A214FF4E160FEF7F8FC02E0EB
:103F10000A2004F072F8FCF794FDB842F8DB0020A8
:103F2000FEF745FC384604F068F8FBE7022332460A
:103F300000210F20FEF72DFF0421204601F00AFC8E
:103F40000128F3D00BE00223324600210F20FEF7B8
:103F5000C4FE0421204601F0FDFB0128F3D000201F
:103F6000FEF725FC0A210020FEF7C9FC404604F0BC
:103F700044F80020FEF71BFC61210120FDF7DDFD68
:103F8000384604F03AF82846BDE8F087B0480122E8
:103F9000816EC165416C0164D102AE4801F0F2BB93
:103FA0002DE9F0412DED048BFDF706FE9FEDAB8A68
:103FB000B0EE481A5FED608A3C20F0EE680A1FED13
:103FC000650AFEF79FFC40F6C41402E0012004F0ED
:103FD00014F8FCF736FDA042F8DB00224FF4006134
:103FE0009C4801F0CFFBB0EE481AF0EE680A3C2086
:103FF0009FED9B0AFEF786FC4FF47A6402E00120F5
:1040000003F0FBFFFCF71DFDA042F8DBB0EE481A01
:10401000F0EE680A28209FED930AFEF773FC8C4CA3
:10402000002504F58076656202E0012003F0E5FFDB
:10403000B06D6428F9DC606A401C60623228F7DBEE
:10404000FDF7BAFD4FF49667656208E00523162276
:1040500000212820FEF79DFE012003F0CEFFFCF793
:10406000F0FCB842F2DB606A401C60623228F6DB8A
:1040700040F6AC57656208E005231122002132208A
:10408000FEF787FE012003F0B8FFFCF7DAFCB84228
:10409000F2DB606A401C60623228F6DBB0EE489AC0
:1040A000B0EE688AB0EE491AB0EE480A2D20F0EE64
:1040B000400AFEF727FC656202E0012003F09DFF45
:1040C000B06D2328F9DB606A401C60623228F7DBA0
:1040D000FDF772FDB0EE480AB0EE491AF0EE400A64
:1040E0001E20FEF70FFC4FF4167402E0012003F0CF
:1040F00084FFFCF7A6FCA042F8DB0020FEF757FB8C
:10410000FDF75AFDB0EE491AF0EE480A32209FED55
:10411000560AFEF7F7FB4FF4E16402E0012003F0DA
:104120006CFFFCF78EFCA042F8DBFFF7B2F9474CBE
:1041300005E0052300212820A268FEF754FEFCF7C5
:1041400080FCB842F5DBBDEC048B0020BDE8F041FB
:10415000FEF72DBB70B53E4C00252DED028B4FF4C4
:104160009666656208E00523162200212820FEF7E6
:1041700010FE012003F041FFFCF763FCB042F2DBCC
:10418000606A401C60623228F6DB41F28836656264
:1041900008E00523112200212820FEF7FAFD012066
:1041A00003F02BFFFCF74DFCB042F2DB606A401CD1
:1041B00060623228F6DBA06B2064206EE06500228E
:1041C0004FF40061234801F0DDFADFED248AB0EE00
:1041D000681A1FEDE78A2D20B0EE480AF0EE400A7B
:1041E000FEF790FB6562214D02E0012003F005FF20
:1041F000A86D2328F9DB606A401C60623228F7DB77
:10420000FDF7DAFCB0EE480AB0EE681AF0EE400AAC
:104210001E20FEF777FB4FF4167402E0012003F036
:10422000ECFEFCF70EFCA042F8DB0020FEF7BFFA24
:10423000FDF7C2FCB0EE681AF0EE480A32209FED9E
:104240000A0AFEF75FFB4FF4E16414E04C03002020
:10425000000000200004024000100240CDCCCC3D04
:104260000000484400002F44000066440001002084
:10427000012003F0C2FEFCF7E4FBA042F8DBFE4D98
:1042800040F6AC54FCF7DDFBA04206DA0523002122
:104290002820AA68FEF7A7FDF4E7B0EE681AF0EE52
:1042A000480A0A209FEDF50AFEF72CFB40F63C7405
:1042B00002E0012003F0A1FEFCF7C3FBA042F8DB03
:1042C000BDEC028B0020BDE87040FEF770BAEC4AEE
:1042D000A0F10F019FEDEB0AD36D192B07DAF0EE79
:1042E000400AB7EE081A08469FEDE70A09E0926D0A
:1042F000B7EE081A322AF0EE400A02DA08469FEDBD
:10430000E30AFEF7FFBA2DE9F05FE14D83462DED9C
:10431000048B40F2E7380026E86B2864286E0A27F1
:10432000E865FDF749FCB7EE081A9FEDD68A3C20F8
:10433000B0EE480AF0EE400AFEF7E4FA02E001208F
:1043400003F05BFEFEF7B2F8FEF708F96428F6DC2E
:104350004FF00009CF4C4FF4004AC5F8249005E017
:104360003C20FFF7B4FF012003F047FE4FF48041EB
:10437000204601F0EFF928B95146204601F0EAF94C
:104380000028EDD0052003F038FE686A401C686202
:104390001E28EBDBFDF710FC4FF4FA64C5F82490FF
:1043A00005E03C20FFF793FF012003F026FEFCF719
:1043B00048FBA042F5DB686A401C68623228F6DBE5
:1043C000AF4CC5F8249005E02320FFF780FF0120C3
:1043D00003F013FEE06DFA28F6DB052003F00DFE76
:1043E000686A401C68621E28F4DBDFF8ACA24FF458
:1043F0006171CAF800100A20FEF7D9F90220A06006
:1044000001209D49DFEDA58AC5F8240051F8200060
:10441000A26D101AFEF7A2F8404509DA686AA26D8B
:1044200051F82000101AFEF799F88046686AA060DB
:10443000686A401C68620428E8DB9FED999ADFED0A
:10444000999A8846A068A26D414658F82000101A33
:10445000FEF784F805281ADDA06851F82000A16D48
:10446000884208DDB0EE681AF0EE480A4FF01E00F0
:10447000B0EE490A08E0E5DAB0EE681AF0EE480A54
:104480004FF01E00B0EE690AFEF73CFADAE7C846C4
:10449000C5F8249002E0012003F0AFFD286C296AE2
:1044A000A0F10A02914202DA0A308142F3DC0520CF
:1044B00003F0A3FD686A401C68623228EEDBC5F891
:1044C00024804FF4C8780CE0B0EE480A4045B0EEC6
:1044D000681AF0EE400A01DD1E2000E01420FEF70D
:1044E00011FA606DFA28EFDC052003F086FD686A9A
:1044F000401C68621E28F4DB082068810020FEF75B
:1045000056F9BBF1000F2FD04FF49678A06E87427A
:104510000FD10A20761C03F070FD4645F6DBB0EEA5
:10452000480AB0EE681AF0EE400A0F20FEF7EAF9EA
:1045300012E0074600260A2003F05FFDE6E70A20A6
:1045400003F05BFDA06E042803DDE168606D884226
:10455000F5DC012003F051FDE168606D8842F1DC7B
:10456000A06E052800D2A0604FF42F71CAF8001089
:10457000072068815946A068FFF768FCA060FFF734
:1045800074FBBDEC048B0020BDE8F05FFEF70FB9B3
:104590002DE9F04138483E4C2DED048B8668606D66
:1045A0009FED418ADFED378A9FED349AE065B0EEEA
:1045B000481AF0EE680A3220B0EE490AFEF7A2F976
:1045C00000272F4D676202E0012003F016FD686DA1
:1045D0003228F9DB052003F010FD606A401C6062A0
:1045E0001E28F4DB00224FF48061304801F0CAF845
:1045F000A06B206420E0A86D864208DDA6EB0000D9
:1046000000EB4000FDF7AAFFA0F2DC5009E013DA4E
:10461000A6EB000000EB4000FDF7A0FFA0F2DC508D
:10462000404200EE100AB0EE481AF0EE680AB8EE0A
:10463000C00A3220FEF766F9A86D801BFDF78EFFD9
:104640000328D8DCB0EE481AF0EE680A3220B0EE4B
:10465000490AFEF757F94FF4E1766762686DB04298
:10466000FCDB012003F0C9FC052003F0C6FC606AF6
:10467000401C60621E281BE04C0300200000E14447
:1046800000010020000000000000E1430000E1C341
:104690000000002000100240340401406666663FBE
:1046A000000096C3000096439A99993E0004024088
:1046B000D4DBFDF781FAB0EE481AF0EE680A1E204E
:1046C000B0EE490AFEF71EF940F2DC5402E0012088
:1046D00003F093FCFCF7B5F9A042F8DBFEF7D9FE36
:1046E0000A20FEF764F8BDEC048B4FF4FA60BDE8D5
:1046F000F04103F082BC70B5FFF752FCFE4C4FF462
:10470000E16503E007212846FEF7F9F8606E00280E
:10471000F8D0E16E123900D549420A29F2DCBDE831
:104720007040642003F069BC2DE9F0412DED048B4D
:10473000FDF742FA9FEDF18A5FED2E8A3C20B0EE44
:10474000481AF0EE680A9FEDEE0AFEF7DBF84FF428
:10475000FA6702E0012003F050FCFCF772F9B8425E
:10476000F8DBE84C00224FF40061A06B2064206E5F
:10477000E065E54801F006F8B0EE481AF0EE680A88
:104780003C209FEDE20AFEF7BDF84FF47A6502E0A7
:10479000012003F032FCFCF754F9A842F8DBB0EE3C
:1047A000481AF0EE680A3C209FEDD90AFEF7AAF8F5
:1047B0000026D14D666202E0012003F01EFCE86D88
:1047C0002828F9DC606A401C60623228F7DBB0EE12
:1047D000489AB0EE688AB0EE491AF0EE480A3C20DA
:1047E0009FEDCC0AFEF78EF8666202E0012003F02E
:1047F00004FCE86D1928F9DC606A401C606232280C
:10480000F7DBFDF7D9F9F0EE498AB0EE480AB0EED1
:10481000681AF0EE400A3C20FEF774F802E001202E
:1048200003F0EBFBFCF70DF9B842F8DBB0EE480AF9
:10483000B0EE681AF0EE400A2D20FEF763F86662CB
:1048400002E0012003F0D9FBE86D2328F9DB606A60
:10485000401C60623228F7DBFDF7AEF9B0EE480A83
:10486000B0EE681AF0EE400A1E20FEF74BF84FF447
:10487000167402E0012003F0C0FBFCF7E2F8A0424E
:10488000F8DB0020FDF793FFFDF796F9B0EE681A0C
:10489000F0EE480A3C209FEDA00AFEF733F84FF4F3
:1048A000E16402E0012003F0A8FBFCF7CAF8A04293
:1048B000F8DB9A4D40F6AC54FCF7C3F8A04206DA98
:1048C000052300212820AA68FEF731FAF4E7FDF756
:1048D00073F9B0EE681AF0EE480A0F201FED990A3E
:1048E000FEF710F84FF4FA7402E0012003F085FBA4
:1048F000FCF7A7F8A042F8DBBDEC048B0020BDE874
:10490000F041FDF754BF70B57E4C00252DED028BB4
:104910004FF49666656208E005230A2200212820EC
:10492000FEF7DBF9012003F068FBFCF78AF8B042E0
:10493000F2DB606A401C60623228F6DB41F28836A6
:10494000656208E00523072200212820FEF7C5F94B
:10495000012003F052FBFCF774F8B042F2DB606A0E
:10496000401C60623228F6DBA06B2064206EE0659C
:1049700000224FF40061644800F004FFDFED5F8A1D
:10498000B0EE681A1FEDC18A2D20B0EE480AF0EE95
:10499000400AFDF7B7FF6562574D02E0012003F0C2
:1049A0002CFBE86D1928F9DB606A401C6062322834
:1049B000F7DBFDF701F9B0EE480AB0EE681AF0EE49
:1049C000400A1E20FDF79EFF4FF4167402E00120FE
:1049D00003F013FBFCF735F8A042F8DB0020FDF7ED
:1049E000E6FEFDF7E9F8B0EE681AF0EE480A3C2062
:1049F0009FED490AFDF786FF4FF4FA6402E00120BB
:104A000003F0FBFAFCF71DF8A042F8DB434D40F63B
:104A1000AC5400BFFCF715F8A04206DA05230021CC
:104A20002820AA68FEF783F9F4E70020FDF7BFFE0F
:104A3000B0EE681AF0EE480A0A201FEDF00AFDF702
:104A400061FF40F63C7401E003F0D7FAFBF7F9FF91
:104A5000A0424FF00100F7DBBDEC028BBDE87040D7
:104A600003F0CBBA244AA0F10F011FEDFA0AD36D6F
:104A7000192B07DAF0EE400AB7EE081A08469FED48
:104A8000280A09E0926DB7EE081A322AF0EE400AC1
:104A900002DA08469FED230AFDF734BF2DE9F05FE7
:104AA000184D83462DED048B40F2E7380026E86B65
:104AB0002864286E0A27E865FDF77EF89FED1A8ABC
:104AC000B7EE081A3C20B0EE480AF0EE400AFDF7B7
:104AD00019FF02E0012003F090FAFDF7E7FCFDF773
:104AE0003DFD6428F6DC4FF00009104C4FF4004AFD
:104AF000C5F8249022E0000000010020CDCCCC3D80
:104B0000000061C40000002000040240000048C40E
:104B10000000FAC3000048C3000066C44C03002034
:104B20000000E1430000E1C300000000001002406B
:104B30003C20FFF797FF012003F05FFA4FF480411C
:104B4000204600F007FE28B15146204600F002FE44
:104B50000028EDD1686A401C68623228EEDBFDF760
:104B60002BF84C46C5F824904FF4FA6905E03C2038
:104B7000FFF778FF012003F040FAFBF762FF48459A
:104B8000F5DB686A401C68623228F6DBA1466C627D
:104B9000FE4C4FF4FA7A05E02320FFF763FF012073
:104BA00003F02BFAA06D5045F6DB696A491C696277
:104BB0003229F7DB0020FDF7FAFDDFF8D4A34FF42C
:104BC0006171CAF800100220A0600120F149DFEDF8
:104BD000F28A686251F82000E26D101AFDF7BEFCFF
:104BE000404509DA686AE26D51F82000101AFDF7B5
:104BF000B5FC8046686AA060686A401C6862042848
:104C0000E8DB9FEDE69ADFEDE69A8846A068E26D64
:104C1000414658F82000101AFDF7A0FC05281ADDBF
:104C2000A06851F82000E16D884208DDB0EE681AF6
:104C3000F0EE480A4FF01400B0EE490A08E0E5DA59
:104C4000B0EE681AF0EE480A4FF01400B0EE690AB0
:104C5000FDF758FEDAE7C5F8249002E0012003F0E2
:104C6000CCF9286C296AA0F10A02914202DA0A30D2
:104C70008142F3DC052003F0C0F9686A401C6862D9
:104C80003228EEDB4FF4C878606DFA2810DDB0EE04
:104C9000480A4045B0EE681AF0EE400A01DD1E20D9
:104CA00000E01420FDF72EFE0A2003F0A6F9EBE742
:104CB000082068810020FDF77AFDBBF1000F2FD09E
:104CC0004FF49678A06E87420FD10A20761C03F02D
:104CD00094F94645F6DBB0EE480AB0EE681AF0EEFD
:104CE000400A0F20FDF70EFE12E0074600260A20BC
:104CF00003F083F9E6E70A2003F07FF9A06E0428A9
:104D000003DDE168606D8842F5DC012003F075F990
:104D1000E168606D8842F1DCA06E052800D2A060D9
:104D20004FF42F71CAF80010072068815946A06817
:104D3000FFF78CF8A060FEF798FFBDEC048B002015
:104D4000BDE8F05FFDF733BD2DE9F0419148954C8A
:104D50002DED048B8668606D9FED939AB0EE491A35
:104D60001FED8F8AE0653220F0EE480ADFED8F8A72
:104D7000B0EE680AFDF7C6FD0027844D676202E0C9
:104D8000012003F03AF9686D3228F9DB052003F0C1
:104D900034F9606A401C60621E28F4DB00224FF484
:104DA0008061834800F0EEFCA06B206424E0E86D95
:104DB00086420BDDA6EB000000EB40004FEA40000E
:104DC000FDF7CCFBA0F2DC5040420AE014DAA6EB7F
:104DD000000000EB40004FEA4000FDF7BFFBA0F2EF
:104DE000DC5000EE100AB0EE491AF0EE480AB8EEB8
:104DF000C00A3220FDF786FDE86D801BFDF7AEFB93
:104E00000328D4DCB0EE491AF0EE480A3220B0EEA6
:104E1000680AFDF777FD4FF4E176676202E0012052
:104E200003F0EBF8686DB042F9DB052003F0E5F81C
:104E3000606A401C60621E28F4DBFCF7BDFEB0EE29
:104E4000491AF0EE480A1E20B0EE680AFDF75AFD36
:104E500040F2DC5402E0012003F0CFF8FBF7F1FD53
:104E6000A042F8DBFEF715FB1420FDF7A0FCBDEC1B
:104E7000048B4FF4FA60BDE8F04103F0BEB810B502
:104E8000FFF752FC07214FF4E160FDF738FD3F4C7E
:104E900002E0642003F0B1F8606E0028F9D0E06E03
:104EA000123800D540420A28F3DC10BD2DE9F0414C
:104EB0002DED048BFCF780FE1FEDF08AB0EE481A52
:104EC0005FEDE78A3C20F0EE680A1FEDF30AFDF77C
:104ED00019FD40F6C41402E0012003F08EF8FBF740
:104EE000B0FDA042F8DB00224FF40061304800F032
:104EF00049FCB0EE481AF0EE680A3C201FEDFD0AAE
:104F0000FDF700FD4FF47A6402E0012003F075F82C
:104F1000FBF797FDA042F8DBB0EE481AF0EE680A06
:104F200032209FED240AFDF7EDFC1E4C0026174DA4
:104F3000666202E0012003F060F8E86D2828F9DCE1
:104F4000606A401C60623228F7DBFCF735FE40F6F1
:104F5000AC57666208E00323052200213220FDF7EA
:104F6000BCFE012003F049F8FBF76BFDB842F2DB11
:104F7000606A401C60623228F6DBB0EE489AB0EE00
:104F8000688AB0EE491AB0EE480A15E00001002028
:104F9000340401404C0300206666663F00009643DF
:104FA000000096C3000000209A99993E0000E14459
:104FB0000004024000002FC4F0EE400A2D20FDF74F
:104FC000A1FC666202E0012003F017F8E86D2328D7
:104FD000F9DB606A401C60623228F7DBFCF7ECFD0D
:104FE000B0EE480AB0EE491AF0EE400A1E20FDF776
:104FF00089FC4FF4167402E0012002F0FEFFFBF77B
:1050000020FDA042F8DB0020FDF7D1FBFCF7D4FD2A
:10501000B0EE491AF0EE480A32209FEDB80AFDF7CB
:1050200071FC4FF4E16402E0012002F0E6FFFBF7BF
:1050300008FDA042F8DBFEF72CFA4FF4486405E0C7
:105040000323502200212820FDF771FEFBF7F9FC15
:10505000A042F5DBBDEC048B0020BDE8F041FDF77C
:10506000A6BB012800D00AE7FFF745BB012800D006
:1050700049E4FFF76FB80128084600D00EE5FFF7B6
:1050800042B9012800D05FE6FFF782BA0446204605
:10509000FEF734FB00212046FFF7EDFF2046FFF727
:1050A000F0FFF4E71120FDF7B3F80F2002F0A5FFA1
:1050B000F8E7934CFDF78BFF607818B1FEF7C1F865
:1050C000FEF764F9FEF710F9052002F096FFF1E70C
:1050D0008C4DA5F1B004287860666878E066A87801
:1050E000A066E8782067FEF71CFA072002F085FF2B
:1050F000F1E700BFFDF797FD052002F07EFFF9E71D
:105100001FB5FBF7C4FCFBF7F5FCFBF791FDFBF7C4
:1051100071FEFBF7F5FDFBF72DFFFBF7E6FFFCF754
:105120006CF8FCF752F9FBF74AFD4FF4E1342046E6
:10513000FCF7FCF92046FCF792FA2046FCF715FB39
:105140002046FCF798FBE000FCF71AFCFCF752FD48
:10515000FCF732FD6A4C00254FF4807625700095EF
:10516000019502952B46324667A16C48039502F0E3
:105170006DFD0095019502950023324668A16E48A9
:10518000039502F063FD00950195029500233246D8
:105190006AA16F48039502F059FDA06CE06102E03E
:1051A000012002F02AFFA06CE16914388142F7DB8C
:1051B000684D012666700221284600F0CBFA08B13E
:1051C000268101E0022020810A2060814FF4FA70DC
:1051D00002F013FF09206081FA20E062A06CE06415
:1051E000A06DE065A06B01222064D102284600F08A
:1051F000C9FA594940F2A4600860091D40F26C7078
:105200000860FEF746F940F6B835284602F0F5FE8C
:1052100020895249012822D00C20086031204860A2
:10522000572088607920C860A3204D4E086108216E
:10523000304600F08FFAE8B10221304600F08AFAD9
:10524000E0B10121304600F085FAE8B1082130468E
:1052500000F080FA30B30020FDF7A9FAE7E740F24A
:105260003B100860F4204860AA2088605D20C86078
:105270001420DAE72089FFF7F4FE02E02089FFF727
:10528000F5FE2089FFF702FF2089FEF737FA00219B
:105290002089FFF7F0FE2089FFF7F3FE284602F091
:1052A000ACFEF1E7FFF702FEFEF732F97FB500240E
:1052B0004FF4807500940194029423462A4629A154
:1052C0002B48039402F0C2FC009401940294002342
:1052D0002A4628A12A48039402F0B8FC00940194BD
:1052E000029400232A4615A11948039402F0AEFC4B
:1052F00002F0D2FF04B0002070BD0000000066C4C0
:1053000000000020B00100207461736B526F626F67
:1053100074416E616C79746963730000F350000826
:105320007461736B526F626F74416E616C797469F2
:1053300063735F7561727400D15000087461736BA0
:10534000446965754B6869656E436F43617500001C
:10535000B350000800040240340401404C03002014
:10536000001002407461736B4D61696E00000000B3
:10537000015100087461736B4779726F000000007F
:10538000A55000080CB500205149019000900A6812
:1053900042F480320A604FF4A0630A6802F40032DB
:1053A0000092019A521C0192009A12B9019A9A42F3
:1053B000F3D10A68920334D501200090444840306C
:1053C000026842F0805202604248026842F4804221
:1053D00002603F48083002680260026842F40042FE
:1053E0000260026842F4A0520260031F3A4A1A6047
:1053F0000A6842F080720A600A689201FCD5374A56
:1054000040F205611160016821F00301016001684B
:1054100041F0020101600168C1F381010229FAD162
:105420000CBD00900CBD2A4810B5016841F0010187
:105430000160274A0021083211600268284B1A4097
:105440000260031D274A1A60026822F4802202606B
:105450001F480C300160FFF795FF23494FF00060B3
:10546000086010BD70B51A4C083420681F4A10F04F
:105470000C011F4804D05510042903D0082903D07B
:1054800002601BE0056019E01149091D0B68C3F3B8
:1054900080560B6803F03F0316B1B5FBF3F201E051
:1054A000B2FBF3F20B680968C3F388135A43C1F3E4
:1054B0000141491C4900B2FBF1F1016021680C4A2D
:1054C000C1F30311121D515C0268CA40026070BD35
:1054D000003802400070004008544007003C024081
:1054E000FFFFF6FE1030002408ED00E00024F40079
:1054F000D00100200648804706480047FEE7FEE747
:10550000FEE7FEE7FEE7FEE7FEE7FEE7FEE7FEE773
:1055100027540008890100082849084328490860E1
:10552000704730B50F22C47801780123FCB1244CB8
:10553000246801F1E02104F4E064C4F5E064C4F3FC
:105540000724C4F10405E2404478AC408578154056
:1055500025432A0181F80024007800F01F018B40C8
:105560004009800000F1E020C0F8003130BD01F0BA
:105570001F0083404809800000F1E020C0F880311E
:1055800030BD104A114001430D48001F01607047B3
:105590000B4A121D0029116801D0014300E081432C
:1055A000116070474FF0E0210428086903D020F013
:1055B00004000861704740F00400FAE70000FA05B3
:1055C0000CED00E080FFFF1F7C4910B5884206D13A
:1055D0000121084600F058FA002101204FE07849E7
:1055E000884206D10121022000F04EFA002102205B
:1055F00045E07449884206D10121042000F044FAB4
:10560000002104203BE07049884206D10121082096
:1056100000F03AFA0021082031E06C49884206D1B6
:105620000121102000F030FA0021102027E0684905
:10563000884206D10121202000F026FA00212020F6
:105640001DE06449884206D10121402000F01CFA87
:105650000021402013E06049884206D101218020CA
:1056600000F012FA0021802009E05C4988420AD14A
:1056700084150121204600F007FA00212046BDE8EC
:10568000104000F001BA10BDF0B50023012403273B
:105690000D6804FA03F21540954242D1D0F800C0DB
:1056A0005E0007FA06F52CEA050CC0F800C091F878
:1056B00004C0D0F800E00CFA06FC4CEA0E0CC0F86E
:1056C00000C091F804C0BCF1010F02D0BCF1020F80
:1056D0001FD1D0F808C02CEA050CC0F808C091F81A
:1056E00005C0D0F808E00CFA06FC4CEA0E0CC0F835
:1056F00008C0D0F804C02CEA020CC0F804C042680C
:1057000091F806C00CFA03FC1FFA8CFC42EA0C026A
:105710004260C268AA43C260CA79C568B2402A43DF
:10572000C2605B1C102BB3D3F0BD4FF6FF7101605C
:105730000021017141718171C171704708B541F457
:1057400080320092C261C1610099C161C169C069C2
:10575000009008BD0246002012690A4200D00120D4
:105760007047006980B270470246002052690A42C1
:1057700000D001207047406980B2704701837047B4
:10578000418370470AB1018370474183704741618B
:10579000704742694A40426170474B07DB0E9A40AE
:1057A000C90810B500EB8100016A0F249C40A14399
:1057B0000162016A1143016210BD00000000024055
:1057C0000004024000080240000C024000100240A9
:1057D0000014024000180240001C02400020024059
:1057E000EA48016841F001010160E84A00210832FD
:1057F00011600268E64B1A400260031DE54A1A6018
:10580000026822F480220260E0480C300160704798
:10581000DE490022891C0A70087070470246002089
:10582000510901290CD002290CD0D84974310968DA
:1058300002F01F02012393400B4200D00120704769
:10584000D249F4E7D1497031F1E718B500204FF49F
:10585000A06400903120FFF7E1FF0099491C0091FE
:10586000A14201D00028F5D03120FFF7D7FF002852
:1058700000D0012018BDC5490A6822F0F80242EAAA
:10588000C00008607047C44908607047BF490022E3
:1058900070310A700A70012802D0042801D1052055
:1058A00008707047BD490860704741EA82115A0884
:1058B00010B5BB4B029C03EB02421143014341EA8A
:1058C0000460B249091D086010BDB34908667047FD
:1058D000800140EA0170AD49843108607047AE49EB
:1058E00088667047AC49C8647047A84A0832136894
:1058F000084323F0EC63184310607047A34A083252
:105900001368084323F078431843106070479F4A98
:105910000832116821F003010143116070479B4870
:105920000830006800F00C007047984A083211688F
:1059300021F0F001014311607047944A0832116868
:1059400021F4E051014311607047904908310A6821
:1059500022F4604242EAC0000860704770B58B4A8A
:10596000083211688F4C11F00C0104D06610042924
:1059700003D0082903D004601BE0066019E08349C6
:10598000091D0B68C3F380550B6803F03F0315B185
:10599000B6FBF3F301E0B4FBF3F30C680968C4F35E
:1059A00088146343C1F30141491C4900B3FBF1F181
:1059B000016011680F2303EA11117B4B5C5C0168E5
:1059C000E14041601468072505EA94241C5D21FA32
:1059D00004F48460126805EA52329A5CD140C160D6
:1059E00070BDC0F30121032908D1684A083211684B
:1059F00021F4F8136D490140194311606349703176
:105A00000A68C0F30B0002430A60704763494439D7
:105A10000860704761494039086070475E49C1F8C5
:105A20005C017047594A30320029116801D00143A6
:105A300000E0814311607047544A343200291168F4
:105A400001D0014300E08143116070474F4A383272
:105A50000029116801D0014300E0814311607047C3
:105A60004A4A40320029116801D0014300E08143D5
:105A700011607047454A44320029116801D0014342
:105A800000E0814311607047404A103200291168DC
:105A900001D0014300E08143116070473B4A14325A
:105AA0000029116801D0014300E081431160704773
:105AB000364A18320029116801D0014300E08143C1
:105AC00011607047314A20320029116801D001432A
:105AD00000E08143116070472C4A2432002911688C
