:020000040800F2
:10000000B8300020255500084502000847020008C6
:10001000490200084B0200084D02000800000000E1
:100020000000000000000000000000009D0100082A
:100030004F02000800000000E10100085B7B00089F
:100040003F5500083F5500083F5500083F55000840
:100050003F5500083F5500083F5500083F55000830
:100060002F0400087B0400083F550008190300080E
:10007000DB020008650300083F5500087502000810
:100080003F5500087D0200083F5500083F55000815
:100090003F5500083F5500083F5500083F550008F0
:1000A0003F55000889030008A90300083F550008D0
:1000B000AB030008CB030008EB0300083F55000822
:1000C0003F5500083F5500083F5500082B04000825
:1000D0003F550008550200083F5500083F550008ED
:1000E0003F5500083F5500083F5500083F550008A0
:1000F0003F5500083F5500083F5500083B030008E6
:100100003F5500083F5500080B0400082D04000867
:100110003F5500083F5500086F03000877030008AB
:100120003F5500083F5500089F0200083F55000852
:100130003F5500083F5500083F5500083F5500084F
:100140003F5500083F5500083F5500083F5500083F
:10015000D10200083F5500083F5500083F550008F0
:100160003F5500083F5500083F5500083F5500081F
:100170003F5500083F5500083F5500083F5500080F
:100180003F5500083F550008DFF80CD008F070FD1F
:1001900000480047DF520008B8300020234B1968A0
:1001A0000868B0E8F04F80F309884FF0000080F352
:1001B000118870470000000003480068006880F361
:1001C000088862B600DF00BF08ED00E0DFF80C0031
:1001D000016841F470010160704700BF88ED00E0E4
:1001E000EFF30980114B1A681EF0100F08BF20EDC5
:1001F000108A20E9F04F106008B54FF0140080F32A
:10020000118807F080FF4FF0000080F31188BDE8EF
:10021000084019680868B0E8F04F1EF0100F08BFDA
:10022000B0EC108A80F30988704700BF20020020DC
:10023000EFF311804FF0140181F31188704780F3C0
:10024000118870477047FEE7FEE7FEE7FEE770475C
:100250007047704710B5894C40F22551204606F092
:10026000C6FE002805D02046BDE81040202106F03B
:10027000BBBE10BD8249834805F0CBBF70B5814D30
:10028000814C30352146284605F0A0FF002805D0D6
:1002900021462846BDE8704005F0BBBF70BD10B5D3
:1002A0007A497B4805F0B5FF7A484178027841EAFF
:1002B0000221794A1180C178827841EA0221774A85
:1002C00011604179007941EA00207549086010BD4C
:1002D0006F487449483005F09CBF70B5694D724C49
:1002E000483D2146284605F071FF002813D02146DD
:1002F000284605F08EFF6D4802F01DF800280AD14F
:100300006B4C0021204606F0B1FD2046BDE8704050
:10031000012106F0ABBD70BD70B55A4D654C603D16
:100320002146284605F052FF002805D021462846E0
:10033000BDE8704005F06DBF70BD70B5514C5E4DAD
:1003400048342946204605F041FF002809D0002105
:10035000204605F0B0FE29462046BDE8704005F075
:1003600058BF70BD47484649303805F052BF01219B
:10037000524806F01ABC10B50121514806F015FC90
:100380003E497A20888010BD10B54E4C0121204690
:1003900006F00BFC2088C1064B48016801D5491EB8
:1003A00000E0491C016010BD704710B501218C07A9
:1003B000204606F0FAFB2088C1064448016801D5B2
:1003C000491E00E0491C016010BD10B5404C0121E0
:1003D000204606F0EAFB2088C1063E48016801D5A8
:1003E000491E00E0491C016010BD10B53A4C0121C6
:1003F000204606F0DAFB2088C1063848016801D59E
:10040000491E00E0491C016010BD10B5344C0121AB
:10041000204606F0CAFB2088C1063248016801D593
:10042000491E00E0491C016010BD7047704770B55F
:10043000042005F06DFF00281ED020212A4805F079
:10044000C0F92A4D0421284605F09CF91C4C0128CE
:1004500005D00421284605F095F928B109E00021CE
:10046000204606F03BF804E0204606F03BF8204921
:10047000086020490420086070BD704700100140EA
:10048000208000207060024000802020008020102A
:1004900040640240240300200C000020C80100201A
:1004A000CC010020008800200088001042030020BA
:1004B000004800402080001000800028001000400C
:1004C0000014004000000140100000201400002033
:1004D0000004004018000020000800404C010020EB
:1004E000000C0040C001002000000240000C02404F
:1004F000C4010020143C014070B50546002408F0FA
:100500001DF9FE4902E02A5D0A55641C8442FADBAB
:10051000BDE870400121FA4805F0CDBD70B5F94D38
:1005200006460024315D00290BD0284606F0C4FCA5
:100530008021284606F051FD0028F9D0641CE4B261
:10054000F0E770BD70B5EF4E05460024002D0DD0CC
:100550002946304606F0B0FC8021304606F03DFDCD
:100560000028F9D0641CE4B2032CEFD370BD73B53E
:100570000C460020FFF7E6FFE3A0FFF7CFFFDF48C0
:100580002246E2A1823808F0EDFBDC488238FFF712
:10059000C5FFDFA0FFF7C2FFDFA0FFF7BFFFD7480F
:1005A000DAA18238009A08F0DDFBD44E0024D54D44
:1005B000823E2846315D06F07FFC4021284606F049
:1005C0000CFD0028F9D0641C142CF2DBD2A0FFF73C
:1005D000A5FFFF20FFF7B6FFFF20FFF7B3FFBDE841
:1005E0007C40FF20AEE770B505460C46C6A0FFF77D
:1005F00095FFC2482246C5A1823808F0B3FBBF4828
:100600008238FFF78BFFC5A0FFF788FF2846FFF76A
:1006100085FFC1A0FFF782FFBDE87040FF2091E792
:1006200077B5BEA185B00646D1E90001CDE900014C
:10063000B9A0002200680390B3A0B04D0068283D27
:10064000A5F128030290AD4C1146A3F13200A95444
:1006500099548154A154521CD2B21E2AF7D30A21B4
:100660000170FF2444708470C470A448A7A150385E
:10067000079A08F077FBA14902A8503908F046F81C
:100680009E4802A9823808F041F89C4869468238A1
:1006900008F03CF899483146823808F037F8974816
:1006A0009AA15038069A08F05DFB94495039A1F19F
:1006B000320008F02BF8914803A9823808F026F898
:1006C0008E492C706C702839AC70A1F15A0008F07A
:1006D0001DF88A488238FFF70FFF08B070BD2DE97A
:1006E000F74188468DA185B00646D1E90001CDE9E4
:1006F000000189A000220068039083A07F4D00685C
:10070000283DA5F1280102901446A1F13200AC5415
:100710008C548454521CD2B20A2AF8D30A21017094
:10072000FF2747708770C770744878A15038079AC0
:1007300008F018FB714902A8503907F0E7FF6F482D
:1007400002A9823807F0E2FF6C486946823807F058
:10075000DDFF6A483146823807F0D8FF67484146D6
:10076000823807F0D3FF654803A9823807F0CEFF2F
:100770002F706F706149AF70EC7028392C71A1F146
:100780005A0007F0C3FF5D488238FFF7B5FE08B096
:10079000BDE8F08170B50020FFF7D4FE5AA0FFF746
:1007A000BDFE56480D2259A1823808F0DBFA5348A5
:1007B0008238FFF7B3FE59A0FFF7B0FE594C202155
:1007C000204604F0DFFF02464C4850A1823808F072
:1007D000C9FA4A488238FFF7A1FE1021204604F0EA
:1007E000D1FF0246454849A1823808F0BBFA434888
:1007F0008238FFF793FE4C4D8021284604F0C2FF5B
:1008000002463E4841A1823808F0ACFA3B488238A3
:10081000FFF784FE4021284604F0B4FF0246374823
:100820003AA1823808F09EFA34488238FFF776FE03
:100830004FF40041204604F0A5FF02462F4833A1A3
:10084000823808F08FFA2D488238FFF767FE4FF4A0
:100850008041204604F096FF024628482BA18238AA
:1008600008F080FA25488238FFF758FE4FF400510F
:10087000204604F087FF0246204824A1823808F071
:1008800071FA1E488238FFF749FE4021274804F0DC
:1008900079FF024619481DA1823808F063FA17480B
:1008A0008238FFF73BFE1CA0FFF738FEFF20FFF762
:1008B00049FEFF20FFF746FEBDE87040FF2041E6FD
:1008C000FEB51BA10646D1E90001CDE900011AA041
:1008D00000210A4D0068283DA5F1280202900C462F
:1008E000A2F132006C5454544454491CC9B2322908
:1008F000F8D30A210170FF2747701FE0E2020020B1
:10090000B860024000500040740000002564000000
:100910002E7478743D000000220000002E7478745C
:100920003D2200000008024000000240001002408A
:100930002E76616C3D0000006A0000008770C77071
:100940000022AFF23801FE4808F00CFAFC4902A878
:1009500007F0DCFEFA4802A9323807F0D7FEF84863
:100960006946323807F0D2FE3246AFF26001F448F1
:1009700008F0F8F9F249A1F1320007F0C7FE2F7034
:100980006F70EF49AF70EC7028312C71A1F15A00F3
:1009900007F0BCFEEA483238FFF7AEFDFEBD2DE998
:1009A000FC414FF08047384605F09CFDE54D6969F4
:1009B000642640EA014090FBF6F00024019038469E
:1009C00005F090FD696940EA014090FBF6F001995D
:1009D0000090401A00D54042322800DA641C00988A
:1009E0000190022CEBDB0098002800DA4042BDE8C1
:1009F000FC812DE9FC41D44F384605F073FDD14D03
:100A00002969642640EA014090FBF6F00024019039
:100A1000384605F067FD296940EA014090FBF6F091
:100A200001990090401A00D54042322800DA641C37
:100A300000980190022CEBDB00980028D7DA4042A6
:100A4000D5E710B5FFF7ABFF0446FFF7D2FF002C48
:100A500000DA6442002800DA4042204410BD01B5AB
:100A600081B0019800EBC00040000090002801D048
:100A7000401EFAE70CBD01B581B044F25061019807
:100A800048430090002801D0401EFAE70CBD2DE934
:100A9000FC4101211F2004F0DDFF01248DF80440FA
:100AA00000268DF806604FF6FF758DF80740032786
:100AB00000958DF805706946A44804F0FDFD8DF899
:100AC00004408DF806608DF8074000958DF805709C
:100AD00069469F4804F0F0FD8DF804408DF80660EB
:100AE0008DF8074000958DF805706946994804F027
:100AF000E3FD7CE77CB501217E2004F0ABFF002400
:100B0000C0208DF80440012500908DF80750022682
:100B10008DF805606946904804F0CEFD06208DF8FA
:100B2000044000908DF807508DF8056069468748AD
:100B300004F0C2FD04208DF8044000908DF80750A9
:100B40008DF805606946824804F0B6FD7CBD1FB58E
:100B50004FF4E06004F0F8FC36208DF80C0000241F
:100B60008DF80D408DF80E4001208DF80F0003A880
:100B700004F0EFFC0121102004F08AFF3220ADF8D0
:100B80000000ADF80840ADF8024040F2E730734C89
:100B900001906946204605F05FFC0121204606F0E1
:100BA00004F801221146204605F0DFFF002120460F
:100BB00005F094FC0121204605F0C6FC1FBD1FB5C1
:100BC0004FF4E06004F0C0FC37208DF80C000024E6
:100BD0008DF80D408DF80E4001208DF80F0003A810
:100BE00004F0B7FC0121202004F052FF4FF4FA700A
:100BF000ADF80000ADF80840ADF8024040F2E73033
:100C0000574C01906946204605F026FC01212046FC
:100C100005F0CBFF01221146204605F0A6FF00217A
:100C2000204605F05BFC0121204605F08DFC1FBD30
:100C300070B58AB00121022004F034FF01210C209C
:100C400004F008FF424E03220621304604F0BDFDA9
:100C500003220721304604F0B8FD03220821304664
:100C600004F0B3FD03220921304604F0AEFD4FF439
:100C70007070059002208DF8180003208DF819007F
:100C800000248DF81A4001258DF81B5005A9304627
:100C900004F012FDA420ADF81C0040F6B830089016
:100CA0002802304EADF82400ADF81E4007A93046AA
:100CB00005F0D2FB6020ADF80000ADF802500294C0
:100CC000ADF80C400121304605F03EFC00213046D5
:100CD00005F004FC6946304605F040FC69463046A4
:100CE00005F068FC6946304605F0A0FC69463046D0
:100CF00005F0D6FC0121304605F018FF0AB070BDA2
:100D000070B58AB00121082004F0C2FE0121084616
:100D100004F0A0FE104E02220021304604F055FDE2
:100D200002220121304604F050FD022211463046D5
:100D300004F04BFD02220321304604F046FD13E08F
:100D40009202002000000020000001400004024048
:100D500000080240000C0240000002400010004069
:100D600000140040000401400F20059002208DF87F
:100D7000180003208DF8190000248DF81A40012571
:100D80008DF81B5005A9304604F096FCBA20ADF84A
:100D90001C0042F210700890ADF82440ADF81E40DF
:100DA00007A9FE4E304605F057FB6020ADF8000065
:100DB000ADF802500294ADF80C400121304605F028
:100DC000C3FB0021304605F089FB6946304605F03B
:100DD000C5FB6946304605F0EDFB6946304605F037
:100DE00025FC6946304605F05BFC0121304605F0E4
:100DF0009DFE83E770B58AB00121042004F048FE0F
:100E000001210D2004F026FEE54E02220C21304681
:100E100004F0DBFC02220D21304604F0D6FC022255
:100E20000E21304604F0D1FC02220F21304604F09E
:100E3000CCFC4FF47040059002208DF81800032080
:100E40008DF8190000248DF81A4001258DF81B50EB
:100E500005A9304604F030FCA420ADF81C0040F693
:100E6000B83008902802CF4EADF82400ADF81E40EF
:100E700007A9304605F0F0FA6020ADF80000ADF8A3
:100E800002500294ADF80C400121304605F05CFBA5
:100E90000021304605F022FB6946304605F05EFB36
:100EA0006946304605F086FB6946304605F0BEFBD4
:100EB0006946304605F0F4FB20E770B5012188B0A3
:100EC000080404F0EFFD0121084604F0C3FDB64E0E
:100ED00003221146304604F078FC032202213046FA
:100EE00004F073FC0C20009002208DF80400032015
:100EF0008DF8050000248DF8064001258DF8075077
:100F00006946304604F0D8FB4FF6FF70A74EADF8A7
:100F100008400390ADF81040ADF80A4002A93046F1
:100F200005F09AFA0420ADF81400C820ADF81C00B2
:100F3000ADF81640ADF8185005A9304605F046FD4D
:100F40009B4C00231A460321204605F0A8FE0121F0
:100F5000204605F02AFE01221146204605F005FE36
:100F60000121304605F0F0FA0021204605F0B6FADE
:100F700008B070BD2DE9F04701218AB0084604F0A1
:100F800087FD0121022004F083FD0121032004F0EC
:100F900061FDDFF8149201220F21484604F015FC90
:100FA000DFF8108201220321404604F00EFC0222E9
:100FB0000421404604F009FC02220521404604F0C9
:100FC00004FC02268DF80460032738208DF8057094
:100FD000002400908DF8064001258DF807506946E1
:100FE000404604F069FB8DF80460E8038DF8057055
:100FF00000908DF806408DF807506946484604F089
:101000005BFB4FF6FF70ADF80C4004904FF0804949
:10101000ADF81440ADF80E4003A9484605F01CFA9F
:10102000DFF894A103A9504605F016FA4FF0040822
:101030001420ADF81880ADF82000ADF81A60ADF8B6
:101040001C5006A9484605F0C1FC06A9504605F00B
:10105000BDFC02231A460321484605F020FE022368
:101060001A460321504605F01AFE0121484605F0B4
:101070009CFD0121504605F098FD0122114648468D
:1010800005F073FD01221146504605F06EFD012169
:10109000484605F059FA0121504605F055FA00215D
:1010A000484605F01BFA0021504605F017FA780271
:1010B00004F04AFA1D208DF808008DF809708DF8AB
:1010C0000A408DF80B5002A804F043FA1C208DF85A
:1010D00008008DF809808DF80A408DF80B5002A8A1
:1010E00004F037FA0AB0BDE8F08770B501218AB084
:1010F000084604F0D7FC0121102004F0ABFC4FF4AB
:101100002060009002208DF8040003208DF8050077
:1011100000242A4E8DF8064001258DF807506946B7
:10112000304604F0C9FA01220921304604F04DFB93
:1011300001220B21304604F048FB4FF6FF701B4E96
:10114000ADF808400390ADF81040ADF80A4002A990
:10115000304605F081F90420ADF814000A20ADF8FE
:101160001C00ADF81640ADF8185005A9304605F042
:101170002DFC00231A460321304605F090FD012185
:10118000304605F012FD01221146304605F0EDFC17
:101190000121304605F009FD012211E0000C00405C
:1011A000000C024000080040000002400000014026
:1011B00000400140000402400004004000100240D2
:1011C0001146304605F0D1FC0121304605F0BCF94E
:1011D0000021304605F082F94FF4C06004F0B4F904
:1011E00019208DF820008DF821508DF822408DF8BF
:1011F000235008A804F0ADF980E52DE9F0418AB04C
:101200000121042004F044FC0121082004F022FC08
:101210004FF440500226009003208DF80460002413
:101220008DF805008DF8064001258DF807506946B8
:10123000FE4F384604F040FA4FF6FF70DFF8F083B7
:10124000ADF808400390ADF81040ADF80A4002A98F
:10125000404605F001F902220C21384604F0B5FAA7
:1012600002220D21384604F0B0FA0427C820ADF858
:101270001470ADF81C00ADF81660ADF8185005A953
:10128000404605F0A3FB02231A460321404605F021
:1012900006FD0121404605F088FC0122114640462A
:1012A00005F063FC0121404605F04EF942F2107151
:1012B000404605F013F9DE4814300480A8F80050C9
:1012C0004FF4C06004F040F91E208DF820008DF826
:1012D00021708DF822408DF8235008A804F039F9C8
:1012E0000AB0BDE8F0812DE9F0418AB00121082063
:1012F00004F0CEFB0121084604F0ACFB03200226DB
:101300008DF804608DF805000024CA4F00908DF818
:10131000064001258DF807506946384604F0CCF99F
:101320004FF6FF70DFF81083ADF808400390ADF87A
:101330001040ADF80A4002A9404605F08DF802229F
:101340000021384604F041FA02220121384604F017
:101350003CFA0427C820ADF81470ADF81C00ADF8B5
:101360001660ADF8185005A9404605F02FFB022382
:101370001A460321404605F092FC0121404605F043
:1013800014FC01221146404605F0EFFB01214046C6
:1013900005F0DAF842F21071404605F09FF8A648D1
:1013A00014300480A8F800504FF4C06004F0CCF86A
:1013B00032208DF820008DF821708DF822408DF8B4
:1013C000235008A804F0C5F88AE72DE9F0419CB045
:1013D00001219A4804F03EFB01210D02284604F049
:1013E00061FB97480024CDE90040964802A94FF0E0
:1013F000080881E81101A800CDE9054040000790E8
:101400008000CDE908050AA90001012581E8310025
:101410008D4E0D94694630460E9404F013FE012162
:10142000304604F048FE03273C268DF85870159688
:101430008DF85B4015A97F4804F03EF98DF858708F
:1014400015968DF85B4015A9804804F035F93804ED
:10145000CDE91740B001CDE9194017A804F0F7FB1A
:101460001194129413942806754C0F908DF84050E7
:101470004C3C8DF841508DF850800FA9204604F067
:10148000BBFB042301220221204604F02AFC042392
:1014900002220321204604F024FC042303221946DF
:1014A000204604F01EFC04231A460521204604F0C1
:1014B00018FC042305220C21204604F012FC04230E
:1014C00006220D21204604F00CFC042307220E21E5
:1014D000204604F006FC042308220F21204604F0D5
:1014E00000FC0121204604F079FC0121204604F093
:1014F0006BFC0121204604F0C1FB204604F02BFCCC
:101500001CB0EEE608B54FF4E06004F01DF82520AD
:101510008DF8000000208DF801008DF802000120F8
:101520008DF80300684604F014F808BD70B5054650
:1015300096B00121102004F0B5FA0121084604F00C
:1015400089FA0121880504F085FA4FF4C0601390F0
:1015500002208DF8500000248DF852408DF8534041
:10156000344E8DF8510013A9304604F0A5F8072237
:101570000921304604F029F907220A21304604F0F7
:1015800024F90F95ADF844400C20314DADF84040A2
:10159000ADF84600ADF84240ADF848400FA92846E6
:1015A00005F0F3FB0121284605F060FC4FF4A06034
:1015B00003F0CAFF3A208DF854008DF855408DF89D
:1015C000564001208DF8570015A803F0C2FF1E4EAB
:1015D0003036304604F0AEFC4FF000600090194801
:1015E00069461030CDE902040A200490281D0190BC
:1015F0000015CDE905408010CDE9084040020A9071
:1016000004200B9007940320CDE90C0430460E947F
:1016100004F018FD01224021284605F0BEFC0122FD
:101620001021304604F0BCFD012113E0000C024003
:101630000008004000000240000C0040050040008F
:101640004C200140140300201064024000080240B6
:1016500000100140304604F02EFD16B070BDF0B50C
:101660000646012197B0480504F0F4F901214D0424
:10167000284604F00DFA0121082004F0EBF960205F
:10168000139002208DF8500000248DF852408DF800
:1016900053408DF8510013A9FE4F384604F00CF862
:1016A00007220521384604F090F807220621384623
:1016B00004F08BF80F96ADF844400C20F64EADF8D0
:1016C0004040ADF84600ADF84240ADF848400FA9A3
:1016D000304605F05AFB0121304605F0C7FB4FF4B8
:1016E000A06003F031FF11208DF854008DF85540B3
:1016F0008DF8564001208DF8570015A803F029FFFA
:10170000E64F384604F016FCA802009040200390F3
:10171000E34802903C200490301D01900015CDE973
:1017200005408010CDE908400420CDE90A50079417
:101730000320CDE90C04694638460E9404F082FC7F
:1017400001228021304605F028FC0122802130460C
:1017500005F023FC01221021384604F021FD01216F
:10176000384604F0A8FC17B0F0BD70B5054601215D
:1017700096B0880404F08CF90121082004F06AF97D
:101780000121480504F066F94FF4407013900220DF
:101790008DF8500000248DF852408DF85340BD4E16
:1017A0008DF8510013A9304603F086FF0722082167
:1017B000304604F00AF807220921304604F005F803
:1017C0000F95B84EADF84040ADF844400C25ADF84B
:1017D0004240ADF84840ADF846500FA9304605F0FC
:1017E000D4FA0121304605F041FB4FF4A06003F02C
:1017F000ABFE8DF854508DF855408DF856400120C1
:101800008DF8570015A803F0A4FEA44D783D284696
:1018100004F090FB4FF000600090A348CDE9020473
:1018200008200490301D01900015CDE9054080107E
:10183000CDE9084040020A9004200B900794032051
:10184000CDE90C04694628460E9404F0FBFB012206
:101850004021304605F0A1FB01224021304605F031
:101860009CFB01221021284604F09AFC0121284605
:1018700004F021FCF1E6F0B50646012197B0C8045A
:1018800004F006F90121084604F0E4F801214805B6
:1018900004F0E0F802208DF8500000248DF852404A
:1018A0008DF85340814F03258DF85100139513A9EE
:1018B000384603F001FF08220021384603F085FF77
:1018C00008220121384603F080FF0F96ADF844400E
:1018D0000C20774EADF84040ADF84600ADF84240E0
:1018E000ADF848400FA9304605F04FFA01213046C7
:1018F00005F0BCFA4FF4A06003F026FE0D208DF831
:1019000054008DF855408DF8564001208DF8570051
:1019100015A803F01EFE614F603F384604F00AFB35
:1019200078050090604869460F38CDE90204082028
:101930000490301D01900015CDE905408010CDE9DF
:101940000840400207940A900420CDE90C540B9003
:1019500038460E9404F076FB01224021304605F013
:101960001CFB01224021304605F017FB012210210B
:10197000384604F015FC0121384604F09CFBF2E6E1
:101980002DE9F0418046012196B0480504F062F847
:101990000121080504F07CF801210C2004F05AF81C
:1019A00002258DF8405000248DF84240394F04261E
:1019B0008DF843400F968DF841500FA9384603F03B
:1019C0007BFE8DF840508DF842408DF84340E80290
:1019D0008DF84150374D0F900FA9284603F06CFE4B
:1019E00008220221384603F0F0FE08220C21284686
:1019F00003F0EBFE4FF4A06003F0A6FD2F208DF85E
:101A0000540005208DF855008DF8560001208DF802
:101A1000570015A803F09DFDADF84C400C20264D55
:101A2000ADF84840ADF84E00CDF84480ADF84A40DE
:101A3000ADF8504011A9284605F0A7F90121284624
:101A400005F014FA154F1837384604F073FA70068B
:101A5000009040200390144869466038029031207D
:101A60000490281D01900015CDE905408010CDE9B6
:101A700008404002CDE90A0607940320CDE90C0492
:101A800038460E9404F0DEFA01228021284605F043
:101A900084FA13E0000C024000440040A0600240C1
:101AA0007401002000480040420300200000024072
:101AB000004C00400008024000500040012210216C
:101AC000384604F06DFB0121384604F0F4FA16B0F4
:101AD00007E430B585B00121082003F0BBFF0121E8
:101AE000880303F0DFFF00240C208DF8104001254F
:101AF00003908DF8135003A9FE4803F0DDFD022189
:101B0000032005F0B4FA042000908DF80440102062
:101B10008DF805008DF80650684604F0A9FB0820F2
:101B20008DF808008DF809408DF80A408DF80B50AB
:101B300002A803F00EFD05B030BD10B5012810D08D
:101B4000032819D0042822D0052809D1EA4C2046C0
:101B500005F0B2F94021204605F03FFA0028F9D0FF
:101B600010BDE64C204605F0A7F94021204605F0BF
:101B700034FA0028F9D010BDE14C204605F09CF95C
:101B80004021204605F029FA0028F9D010BDDD4C8F
:101B9000204605F091F94021204605F01EFA002864
:101BA000F9D010BDD84900204862D8490861D84909
:101BB0000860D849C8647047D34900204862D349B7
:101BC00008614FF0804250624861D34A10608861DA
:101BD000CF490860CF49C86470474FF0804100206A
:101BE0004862CA4948617047CB4900200860C7492C
:101BF0008861704770B5C54D0020E87004466121CA
:101C00000120FFF79AFF3220FEF735FF641C022CFB
:101C1000F5D30120E8707A20A87070BD70B5BB4D77
:101C200000206871044661210320FFF786FF3220FF
:101C3000FEF721FF641C022CF5D3012068717A2085
:101C4000287170BD2DE9F14F96B0002014908DF8E9
:101C50000000B24C8DF828004FF40045169AAB49AD
:101C6000AC486E1027154FF480584FF40059122AD3
:101C70006BD2DFE802F009262C3034383C4044486F
:101C80004E52575D61656DFD088901280CD0012217
:101C90002946204603F08EFD2946204603F07CFDB0
:101CA000014600229EA04EE000222946204603F075
:101CB00081FD2946204603F06FFD01460022A0A0C9
:101CC00041E0924801228030C16EA5A03BE0016D49
:101CD0000222A5A037E0416D0322A7A033E0C16D29
:101CE0000422A8A02FE0816D0522A9A02BE00622E6
:101CF000C969AAA027E0016E0722ABA023E00C224D
:101D0000096AACA01FE0FEF74AFE01460922ADA019
:101D100019E0C16E0822ADA015E0AE4801680B22A3
:101D2000ADA010E0FEF78DFE01460A22ADA00AE04C
:101D3000816E0D22ADA006E00E22896AAFA002E0FE
:101D4000416E1022B0A0FEF76BFC17B0BDE8F08F1B
:101D5000DFF8BCA20121504603F014FD0246ADA1FC
:101D6000684606F0FFFF69460AA806F0CFFC02218C
:101D7000504603F007FD0246A6A1684606F0F2FFB2
:101D800069460AA806F0C2FC3146504603F0FAFC48
:101D90000246A0A1684606F0E5FF69460AA806F0DB
:101DA000B5FC2946504603F0EDFC024699A1684671
:101DB00006F0D8FF69460AA806F0A8FC082150469C
:101DC00003F0E0FC024693A1684606F0CBFF6946AB
:101DD0000AA806F09BFC4FF48071504603F0D2FC39
:101DE00002468CA1684606F0BDFF69460AA806F0C7
:101DF0008DFC0421504603F0C5FC024685A16846CF
:101E000006F0B0FF69460AA806F080FC8021504623
:101E100003F0B8FC02467FA1684606F0A3FF6946BE
:101E20000AA806F073FC4021504603F0ABFC0246C2
:101E300078A1684606F096FF69460AA806F066FC97
:101E40003946504603F09EFC024672A1684606F0F1
:101E500089FF69460AA806F059FC4146504603F03E
:101E600091FC02466BA1684606F07CFF694600E0E3
:101E7000DCE00AA806F04AFC4D464946504603F00D
:101E800081FC024663A1684606F06CFF69460AA819
:101E900006F03CFC2021504603F074FC02465DA194
:101EA000684606F05FFF69460AA806F02FFC10217D
:101EB000504603F067FC024656A1684606F052FF02
:101EC00069460AA806F022FC2946204603F05AFC7F
:101ED000024650A1684606F045FF69460AA806F08A
:101EE00015FC3146204603F04DFC024649A16846E8
:101EF00092E00000000C0240005000400010014041
:101F000000480040004C004000000140000000205C
:101F10002408004000010020240400400008024082
:101F2000524F424F5420322044414E4720434841B3
:101F3000592053414E20444F3A20202000000000F9
:101F4000524F424F5420322044414E472043484193
:101F5000592053414E2058414E483A20202000003D
:101F6000494D553A000000004C415A45525F4241EC
:101F7000545F424F4E473A004C415A45525F5341DD
:101F8000553A00004C415A45525F504841493A0089
:101F90004C415A45525F545241493A004249454EDC
:101FA0002054524F20593A004249454E2054524F36
:101FB00020583A004249454E2054524F204D414D41
:101FC0003A000000454E5F464C3A000054414D5FD8
:101FD0005900000034040140536572766F5F43611D
:101FE0006D3A0000544F4E473A00000053494C4FA1
:101FF0005F5448415F424F4E473A000054616D20A4
:1020000053494C4F3A00000054414D5F58000000C6
:10201000001002402564000006F0A4FE69460AA8EC
:1020200006F074FB0F220AA9F9A0EAE03946F94844
:1020300003F0B2FB0246AFF22401684606F092FEBE
:1020400069460AA806F062FB8021204603F0A4FB43
:102050000246AFF24001684606F084FE69460AA8CF
:1020600006F054FB4FF40071204603F095FB024646
:10207000AFF26001684606F075FE69460AA806F0F0
:1020800045FBDFF894A33946504603F085FB024632
:10209000AFF28001684606F065FE69460AA806F0C0
:1020A00035FB4FF4006B5946DA4803F075FB0246E6
:1020B000AFF2A001684606F055FE69460AA806F090
:1020C00025FB44464146D34803F066FB0246AFF287
:1020D000BC01684606F046FE69460AA806F016FBF3
:1020E0004946CC4803F058FB0246AFF2D801684697
:1020F00006F038FE69460AA806F008FB3146C548D6
:1021000003F04AFB0246AFF2F401684606F02AFEED
:1021100069460AA806F0FAFA2946BE4803F03CFBD5
:102120000246AFF21011684606F01CFE69460AA886
:1021300006F0ECFA3946504603F02EFB0246AFF2A9
:102140002C11684606F00EFE69460AA806F0DEFA73
:102150003146504603F020FB0246AFF24811684674
:1021600006F000FE69460AA806F0D0FA5946504625
:1021700003F012FB0246AFF26411684606F0F2FD6E
:1021800069460AA806F0C2FAA44D4FF480712846A9
:1021900003F002FB0246AFF28411684606F0E2FD4E
:1021A00069460AA806F0B2FA5946284603F0F4FA3E
:1021B0000246AFF2A011684606F0D4FD69460AA8AF
:1021C00006F0A4FA2146284603F0E6FA0246AFF2EA
:1021D000BC11684606F0C6FD69460AA806F096FAE4
:1021E00040218C4803F0D8FA0246AFF2D811684675
:1021F00006F0B8FD69460AA806F088FA11220AA975
:1022000087A0FEF76CFAA0E50121874803F053BFD1
:1022100011B48648816C009A914201DD002101E0F1
:10222000816C491C8164806C18BC0BE52DE9F0477A
:102230000025794E074601244FF400594FF4804899
:102240004FF4805A00224146304603F0B3FA102082
:10225000FEF705FC274201D0012200E0002249469A
:10226000304603F0A7FA01224146304603F0A2FAB5
:102270001020FEF7F4FB5146304603F083FA00B11C
:102280002543600010F0FF04DCD12846BDE8F0874C
:1022900070B5614E4FF4004500222946304603F0E8
:1022A00089FA1020FEF7DBFB0120FFF7BFFF422079
:1022B000FFF7BCFFFF20FFF7B9FFFF20FFF7B6FFD6
:1022C0005A4CB0342070FF20FFF7B0FF6070FF2041
:1022D000FFF7ACFFA070FF20FFF7A8FFE070FF2022
:1022E000FFF7A4FF2071FF20FFF7A0FF60712946D0
:1022F0003046BDE87040012203F05CBA70B5464E2E
:102300004FF4004500222946304603F053FA1020CE
:10231000FEF7A5FB0120FFF789FF4220FFF786FFAC
:10232000044601222946304603F044FA1020FEF705
:1023300096FB204670BD3E4A00211167C2793B4999
:10234000B0310D2A09D0FF20087048708870C8701D
:102350000871487188710020704702780A704278CD
:102360004A7082788A70C278CA7002790A7142799A
:102370004A7180798871012070472C482C49B0300F
:102380000278FF2A05D14278FF2A02D18278FF2AFB
:1023900009D00A6F531C0B67C82A03DDFF210170A7
:1023A0004170817070470020086770471F48B03047
:1023B000807970471D48B0300078400601D4012074
:1023C0007047002070471948B0300078800701D46A
:1023D000012070470020704770B5144C0125803CE7
:1023E000002604F1F403002803D006DDD8709D70A8
:1023F00007E094F82400D87003E0C0F10000D87022
:102400009E70002916D019DDD9719D711AE0000067
:10241000493A000000040240000C02400000024063
:102420004F55543A00000000A06002400001002017
:102430000000002094F82400D87103E0C1F10000EE
:10244000D8719E71002A03D006DDDA729D7270BDCC
:1024500094F82400D87270BDC2F10000D8729E7248
:1024600070BDFE49C870C871C8727047FB49012031
:10247000F43908627047F948C178032907D2C17955
:10248000032904D2C07A032801D20120704700201A
:102490007047F248F438C06CA0F5EA41303901D0F9
:1024A0000120704700207047FFF7A4BBEC48B0F94B
:1024B0000C0040427047EA48B5EEC00AD0ED1E0A53
:1024C000F1EE10FA02D230EE600A01E030EE200A9E
:1024D000BDEEC00A10EE100A704710B5041EE048A9
:1024E0002DED048B00F180009FEDDE8B11D0806B11
:1024F00014DA06F0B2FA41EC190B204606F0ADFAF8
:1025000053EC182B06F0C8F953EC182B06F0BEF963
:1025100013E09FEDD60ABDEC048B10BD06F09DFACA
:1025200041EC190B204606F098FA53EC182B06F0F4
:10253000B3F953EC182B06F008F953EC192B06F0FD
:102540001DFA06F0AEFA00EE100AE4E7B5EEC00A96
:10255000F1EE10FA01DAB1EE400A7047002800DA15
:1025600040427047BE49803191ED060AD1ED071A0D
:10257000F1EE400A80EEA11A00EE900AF8EEE00AB1
:1025800001EE200ABDEEC00A10EE100A7047F0EE10
:10259000401A9FEDB70AF5EEC01AF1EE10FA01D21B
:1025A000F1EE611AF5EEC00AF1EE10FA01D2F1EE89
:1025B000600AB5EEC01AF1EE10FA01D2B1EE411A7E
:1025C000F4EEC01AF1EE10FA01DDB0EE610AF4EE9D
:1025D000C00AF1EE10FA01DDB0EE600AB4EEC01AE6
:1025E000F1EE10FA01DDB0EE410A70479C488030F0
:1025F000806B70479A488030406E704770B5984C39
:102600002DED068B8034B0EE408A04F18005E06C3D
:10261000A0F5EA4130397ED0A26DE16ED4ED170A03
:10262000891A401A00EE100A94ED011A206EB8EED5
:10263000C00A00EEC10AD4ED000AC0EE208A06F0FE
:102640001DFA94ED0B0A41EC190B20EE280A10EE4E
:10265000100A06F013FA41EC100B06F0B1FB9FEDE7
:1026600085AB51EC100B53EC1A2B06F015F953EC1B
:10267000192B06F00BF906F014FAA067206E06F08D
:10268000FDF994ED020AD4ED0B0A41EC190B38EE7A
:10269000800A20EE200A10EE100A06F0EFF941EC55
:1026A000100B06F08DFB9FED751B51EC100B53ECDE
:1026B000112B06F0F1F853EC192B06F0E7F806F0B1
:1026C000F0F9E06794ED030AD4ED0B0A38EE800AC6
:1026D00020EE200A10EE100A06F0D0F941EC100BA3
:1026E00006F06EFB53EC1A2B51EC100B06F0D4F8ED
:1026F00006F0D7F9C5F80000B5EEC08AF1EE10FA81
:1027000038D0606B80B1012814D0022819D003287A
:1027100030D123E0FFE79FED550A85ED000A84EDF7
:102720001F0A84ED1E0AE7E794ED1E0A30EE480A00
:1027300084ED1E0A94ED1F0A30EE480A84ED1F0A4C
:1027400005E094ED1E0A30EE480A84ED1E0A95ED70
:10275000000A30EE480A85ED000A0BE094ED1E0AEF
:1027600030EE480A84ED1E0A94ED1F0A30EE480A46
:1027700084ED1F0A95ED001AD4ED1F0A94ED1E0A90
:10278000FFF705FF3648D0ED1D0AF8EEE00A80EEAF
:10279000801ABDEEC10A10EE100A2064A16B8142BE
:1027A00000DDA06301202063BDEC068B70BD2C49C9
:1027B000002280310028CA6348640FD18A639FEDEC
:1027C0002B0A47F2305081ED180AC864086581ED84
:1027D000170A4A634A654A660A620FE7704720484B
:1027E000803090ED170AB5EEC00AF1EE10FA04D170
:1027F000416B11B9416D002909D000219FED1B0AE1
:1028000080ED170A41634165C16E8165F6E6704748
:1028100013488030C0ED060A80ED070A7047104A61
:102820008032D36C834209D1D36B8B4206D1D2ED77
:10283000180AF4EE400AF1EE10FA23D0D163916B3E
:1028400009B905219163D16E916582ED180AD064B2
:102850000020906492ED170AD0E600007401002079
:10286000000000209A9999999999B93F00000000B9
:102870006F12833A00000000000000C0000000005A
:10288000000000407047FF4A30B4536D834209D1C5
:10289000D2ED170AF4EE400AF1EE10FA02D1536BB2
:1028A0008B4226D0D46C47F230539C4219D132244B
:1028B000D46305249463984213DAB5EEC00A012369
:1028C000F1EE10FA536602DDD36E834207DCB5EEFB
:1028D000C00AF1EE10FA04D2D36E834201DAB1EEEF
:1028E000400A5163506582ED170A0020906430BCA5
:1028F00084E630BC7047014647F23050C3E71FED15
:10290000250A8CE710B5DF4C2DED028BF0EE608AC6
:10291000D4ED140AB0EE418AF8EEE00AF4EE400A73
:10292000F1EE10FA0BD1E16B814208D1D4ED150A1A
:10293000F8EEE00AF4EE680AF1EE10FA4BD0FDEE84
:10294000C00A0146C4ED140AD4ED1B0AF8EEE00AF1
:1029500030EE600ABDEEC00A10EE102A1FED3D0AEF
:102960001046FFF75CFF94ED1B0AF8EEC00A78EE04
:10297000E00AFDEEE00A10EE900A002800DA40427C
:10298000B8EEC00A642819DDF4EEC08AF1EE10FA40
:1029900001DCB1EE488A18EE100A06F06FF800BFAD
:1029A00006F07FF8FDEEE80ABDEC028B00EE100A9F
:1029B000BDE81040002110EE900A64E738EEC00A2E
:1029C00010EE100A06F05AF89FEDAF1B53EC112BD6
:1029D00005F062FFE4E7BDEC028B10BD10B5A94C19
:1029E000606E01282FDDE16E606D401AFFF7B6FDC5
:1029F0000A2812DA0020A0631FED640AE06384ED68
:102A0000170AFFF7FBFD606E411C6166B0F5FA7FA7
:102A100019DDBDE810400020C9E60520616EE063C5
:102A2000FA29A06301DDFB206066616DE06E8842DB
:102A300002DDBFEE000A01E0B7EE000A84ED170ADE
:102A4000BDE81040DAE510BD8E4910B591ED180AC9
:102A5000B5EEC00AF1EE10FA72D18A6B002A6FD07F
:102A6000486D47F2305398426ADA91ED170AB5EE95
:102A7000C00AF1EE10FA7CD0CC6C9C4261D1B5EE6C
:102A8000C00AF1EE10FA04DD4A69CB6E821A9A424E
:102A900009DBB5EEC00AF1EE10FA17D24A69CB6E27
:102AA00002449A4212DD4A6E032A49DAC01AFFF73D
:102AB00055FD0A28486D0ADA8866002088631FEDF4
:102AC000950AC86381ED170A022048667BE091ED04
:102AD0000E0AD1ED170A6B4AB8EEC00ACB6E803AE7
:102AE000984260EE200A91ED050AB8EEC01A80EE19
:102AF000810A0FDDFFF72AFDCB6E486DC01AFFF784
:102B00002DFD00EE900AB8EEE01AD2ED1F0A40EE5D
:102B1000010A0EE0FFF71AFDCB6E486DC01AFFF7F1
:102B20001DFD00EE900AB8EEE01AD2ED1F0A50EE3D
:102B3000410A91ED0E0AB8EEC01A80EE810A42E019
:102B400046E0B5EEC00AF1EE10FA1ADD00EE900A8A
:102B5000B8EEE01A00EE902AF8EEE00A00EEC01A95
:102B6000D1ED040AF8EEE00A31EE601AD1ED1B0A4D
:102B700000E02BE0F8EEE00AB4EEE01AF1EE10FA15
:102B80001DD3B5EEC00AF1EE10FA1CD200EE900A89
:102B9000B8EEE01A00EE902AF8EEE00A00EEC01A55
:102BA000D1ED040AF8EEE00A31EE201AD1ED1B0A4D
:102BB000F8EEE00AB4EEE01AF1EE10FA03DDC96EA9
:102BC000401AFFF78AFCBDE8104017E5886DF6E76C
:102BD00010BD2C48416E02290CDA1FEDDC0A0022E0
:102BE00080ED180A80ED170A47F230514263C16444
:102BF000C0E91412826C521C8264816A8A4202DB30
:102C00008164016A09B1406A00E0002029E41D4A9C
:102C1000936C5B1C9364834204DD906B0844906367
:102C200000209064704710B5FFF740FC154CE0663B
:102C3000FFF7D4FEE26BA06B4FF0FF31002A0BDDF3
:102C400090420ED006DA216C88420ADAFFF78AFC3D
:102C5000012104E0606F02E000283ADD606CFFF7BC
:102C6000D6FFD4E91B01814203D0FFF7EDFEE06EF1
:102C70002067206B00282FD094ED0E0A0148B8EE93
:102C8000C00A05E0800000207B14AE47E17A743F63
:102C90008030D0ED000A20EE200AFFF70CFC94ED06
:102CA0000E0AD4ED1F0A0246B8EEC00A20EE200A32
:102CB000FFF701FC94ED0E0AD4ED1E0A0146B8EEB2
:102CC000C00A20EE200AFFF7F6FBBDE81040FFF730
:102CD00083BBBDE810407CE710BD30B4F84CE46D18
:102CE000A41A01D4224600E06242C2EB021240F272
:102CF0008A25AA4200DD2A469FEDF21A9C4208DD91
:102D000000EE101AC2F10001F8EEC00A00EE101A2F
:102D100006E000EE101AF8EEC00A04DA00EE102AFF
:102D2000B8EEC00A01E09FEDE80A30BCEAE530B435
:102D3000E34CE46DA41A01D4224600E06242C2EBE7
:102D400002124FF4FA75AA4200DD2A469FEDDD1A01
:102D50009C420ADD00EE101AA2F5E162F8EEC00A0C
:102D600000EE102AB8EEC00A11E00ADAC2F5E162FC
:102D700000EE102A00EE901AB8EEC00AF8EEE00A53
:102D800005E000EE101AF8EEC00A9FEDD00A30BC44
:102D9000B8E530B4CA4CA46DA41A01D4224600E0B0
:102DA0006242C2EB02124FF4FA75AA4200DD2A46D3
:102DB0009FEDC71A9C4206DD00EE101AF8EEC00A1D
:102DC00000EE102A08E000EE101AF8EEC00A06DA4B
:102DD000C2F1000100EE101AB8EEC00A01E09FED4A
:102DE000BA0A30BC8EE530B4B54CA46DA41A01D437
:102DF000224600E06242C2EB02124FF4FA75AA4288
:102E000000DD2A469FEDB21A9C420ADDC2F5E1625E
:102E100000EE102A00EE901AB8EEC00AF8EEE00AB2
:102E20000DE000EE101AF8EEC00A06DAA2F5E16233
:102E300000EE102AB8EEC00A01E09FEDA40A30BCF3
:102E400060E52DE9F0419E4BB0332DED028B987873
:102E5000401FF52801D8012400E000241879401F04
:102E6000F52801D8012500E00025954A187802F1DF
:102E7000B002C10652780FD541060DD581060BD59B
:102E8000010609D544B13DB1910605D5BDEC028BD3
:102E90000020BDE8F0418AE45107DFED8E8A03D4BB
:102EA0002321B0EE688A02E00A219FED898A9846C4
:102EB000834EC306A6F1800647F230574FEA4063BF
:102EC0000CD4002B54DA83064FEA006027D5002883
:102ED0004FEAC2702ADA98B3002034E0002B4FEAA0
:102EE00080630BDB002B4FEA006022DA00284FEAF8
:102EF000C27026DA20B34FF4E16024E0002B4FEAE1
:102F0000006006DB002833DAD00731D04FF461705F
:102F100019E0002823DBD0072AD06F4813E00028EF
:102F200026DAD00724D04FF4E1700CE040B16B48B2
:102F300009E000281CDAD0071AD040F2465002E01F
:102F400016E0A8B16648FFF7DAFC98F80000C10661
:102F50000ED541060CD581060AD5000608D584BBDE
:102F60003DB1F06CB84204D00020FFF720FC00E037
:102F70003CBB98F80210404605290DD24278D20792
:102F80000AD0F06CB8424FF0000002D09FED550A15
:102F900012E0B1EE480A0FE0FA2913D998F80100BF
:102FA000C0070FD0F06CB8424FF0000002D0B0EE76
:102FB000680A01E0B0EE480ABDEC028BBDE8F041C2
:102FC00099E4FFE7BDEC028BBDE8F04107E470B582
:102FD0003B48454A0469611C016101464B69002177
:102FE000C82C03D2D4892344436105E0C824B3FB31
:102FF000F4F301610365416185696B1C8361304BAA
:10300000DC696423642D03D295892C44C46104E0F7
:10301000B4FBF3F481614465C161056A6C1C046210
:10302000274C322D646A03D215892C44446204E093
:10303000B4FBF3F40162C4654162856A6C1C84626E
:103040001F4C642DE46A03D253892344C36204E015
:10305000B4FBF3F381628365C162056B6B1C036390
:10306000174B5C6B3223322D03D215882C444463FA
:1030700004E0B4FBF3F4016304664163856B1B4E0B
:103080006C1C84630E4C322DE46B03D255882C44A7
:10309000C46304E0B4FBF3F4F4618163C163056CC1
:1030A0006C1C0464064C322D646C02D2918821445D
:1030B00003E0B4FBF3F232620164416470BD0000CE
:1030C00000010020CDCCCC3D000000000000E14418
:1030D000CDCC4C3E9A99993E7CFCFFFF3EFEFFFF13
:1030E000BAFAFFFF9A9999BE14030020000000204D
:1030F00030B4FE4D029C1FED091AAD6DEB1AA342D0
:1031000004DD00EE102AF8EEC00A06E00ADA00EE4E
:10311000102AC1F10001F8EEC00A00EE101AB8EE54
:10312000C00A07E000EE102A1FED1A1AF8EEC00AD6
:103130001FED1B0A30BCFFF7E5BB30B4EB4D029C22
:103140001FED201AAD6DEB1AA3420ADDC1F5167111
:1031500000EE101A00EE902AB8EEC00AF8EEE00A6F
:103160000DE000EE102AF8EEC00A06DA01F516713D
:1031700000EE101AB8EEC00A01E09FEDDD0A30BC87
:10318000FFF7C0BB30B4D94D029C1FED321AAD6DB4
:10319000EB1AA34204DD00EE102AF8EEC00A06E0A6
:1031A00000EE102AF8EEC00A06DAC1F1000100EEC6
:1031B000101AB8EEC00A01E01FED3D0A30BCFFF75F
:1031C000A1BB30B4C94D029CED6DEB1A1FED431A43
:1031D000A34204DD00EE102AF8EEC00A06E000EE7D
:1031E000102AF8EEC00A06DAC1F1000100EE101A4A
:1031F000B8EEC00A01E01FED4C0A30BCFFF782BBFD
:1032000070B5BC4D0121284602F0BCFABA4C60B141
:10321000A079C043A07102E0012004F006FF012163
:10322000284602F0AFFA0028F6D0A279B3484FF44E
:10323000806122B10022BDE8704002F0BBBA0122D9
:10324000F9E7F0B5AC48022400F5BA72816CC369A5
:10325000C8398B4246DB066B016CB14200DA06646A
:10326000036C416B8B4200DD0164036A01250A2770
:10327000B34201DA957303E000268B4202DD9673B8
:10328000D773F0BD076CD91B01D48C4601E0C1F1A6
:10329000000CBCF1050F25DDBB4201DD967300E09B
:1032A0009573002900DA4942904B5960C46A04EBD7
:1032B000D4704010642C01DD642500E005468D4289
:1032C00001DB084603E0642C00DD6420586014280C
:1032D00005DAC82C01DC052000E0142058601879BC
:1032E000D073F0BDD473F0BDF0B58349D1E91304B8
:1032F000A04200DACC64D1E91202824200DDC86447
:103300007A4ACB69002532267432A34201DA9575D8
:1033100003E00124834202DD9475D675F0BDCE6CC6
:10332000981B01D4074600E04742052F15DDB34244
:1033300001DD947500E09575FFF710F943006B48C7
:103340004360C96A8B4201DD416003E00F2B01DA63
:103350000F21F9E70079D075F0BD0220FBE7634843
:103360006549B0304279C86CFA2A04D90B6D98428D
:1033700001DD401E05E0052A07D28A6C904204DA7E
:10338000401CC864C82004F050BE7047F0B55A49CC
:10339000D1E91650A84200DACD654E6DC86DB04235
:1033A00000DDCE65514B01243227186E03F1740203
:1033B000A84201DA947403E00025B04202DD95745E
:1033C000D774F0BDCE6D801BFFF7C8F8022817DD5B
:1033D000186ECE6DB04201DD957400E09474801BD0
:1033E000FFF7BCF840005860C96A884200DD5960A8
:1033F00058681E2801DA052058601879D074F0BD8D
:103400000220FBE770B501223C4DD602314628462A
:1034100002F0D0F900222915284602F0CBF9364CEB
:10342000206DE06440F2DC5004F0FFFD07E04B301B
:10343000814204DA01223146284602F0BBF9206DB0
:10344000E16900F10A029142F1DC40F6B83004F083
:10345000ECFDA06CE06402E0012004F0E6FDA06C4D
:10346000E16932388142F7DB0020204E6062306D26
:10347000FA2801DA012500E00025052004F0D5FD39
:10348000606A401C60623228F1DB284616E61A4862
:1034900010B5816C0A39C164416EC165816B0164EC
:1034A0001749C06E0860091D40F26C700860134C2B
:1034B0000022C914204602F07DF900222115204681
:1034C000BDE8104002F076B90D4C40F2A4652560CD
:1034D0004FF47A7740F6B836206864382060206868
:1034E000B84211D9256030460CE0000000010020F0
:1034F00000001644001002400000002000040240BA
:103500003404014004F091FDC82004F08EFDE3E78F
:103510000020FFF74CF94FF47A74204604F085FD43
:10352000FBE770B5FE4DFF21284603F0C5FC0A20DD
:1035300004F07BFDFB4C2846218903F0BDFC0A20EA
:1035400004F073FD6189284603F0B6FC0A2004F0FC
:103550006CFDF5480068642180B2B0FBF1F12846AB
:1035600003F0AAFC0A2004F060FD22890A2004F579
:103570008071012A0CD0B1F85C1089B2B1FBF0F176
:10358000284603F099FCBDE870400A2004F04DBDC8
:10359000B1F85810F1E72DE9F05FDFF888A31426A1
:1035A00046247D250027C821CAF82C10DE4940F2A8
:1035B000A4604FF00A080860DAF84810E800CAF87A
:1035C0004C1004F032FD00210AF5807BCAF824106B
:1035D00077E000BF4FF000095BE000BFAA194FF091
:1035E00000099A4209DDFEF7B9FF0A2290FBF2F2C8
:1035F000DAF840309A1A521E0BE0AA1B9A420ADAF5
:10360000FEF7ACFF0A2290FBF2F2DAF840301A44DF
:10361000521CCAF84020C86E04EB080282420ADD40
:10362000001BFEF79BFF052290FBF2F2DAF85C30FC
:103630009A1A521E0DE0A4EB080282420BDA001B1C
:10364000FEF78CFF052290FBF2F2DAF85C301A44A8
:10365000521CCAF85C20486EC96E084307D0DAE9EC
:103660001621914203DDDAF8540081420DDB384621
:10367000DAF820107F1CCAF84010142805DDFA2063
:10368000CAF82C000020BDE8F09F4FF4C87004F089
:10369000CCFCDBF864305946581B01D4024600E0EC
:1036A0004242B2429ADCCA6E121B00D552424245D7
:1036B00094DC09F101090A2004F0B7FCB9F1640FA8
:1036C000E7DBDBF864005946401B00D54042B042BE
:1036D00080DCC86E001B00D540424045F8DC642009
:1036E00004F0A3FCDAF82400401CCAF824000A28DD
:1036F000E7DBFA20CAF82C000120C4E72DE9F14FDE
:103700002DED028BFFF7C3FEDFF818B2DFF818A229
:103710000BF1800B9FED858ADFED858A814F0BF1E0
:1037200080044FF00A09B86B3864B86CF864092655
:1037300000257E814FF47A7004F077FCA84679E08A
:10374000E80714D040F2A460CAF80000A7F80A9075
:103750004FF47A7004F069FC7E8140F6B83004F0D2
:1037600064FCE16E606E6D1C084305D01FE04FF4F1
:103770008C61CAF80010E9E702984FF000010128B7
:10378000B6EE000A05D0A8F5487000BFFFF77BF839
:1037900005E008F54870F9E7012004F046FCE16E09
:1037A000606E084303D1DBF864000028F4D10020E8
:1037B000FEF7FDFFE16E606E08431AD102984FF0EC
:1037C00000010128B6EE000A05D008F5487000BFD8
:1037D000FFF759F805E0A8F54870F9E7012004F073
:1037E00024FCE16E606E084303D1DBF8640000281E
:1037F000F4D10020FEF7DBFFE16E606E084317D1C5
:1038000040F2DC51CAF800100021B6EE000A404632
:10381000FFF739F802E0012004F007FCDBF8640050
:103820000028F8D1FEF7C3FF40F6B83004F0FDFBE6
:103830000A2D04DC606E10B9E06E002880D00020F4
:10384000FEF7B5FF14E07D2804DA4FF00000BEEE6D
:10385000000A04E006DD4FF00000B6EE000AFFF7B4
:103860004AF801E0FEF7BBFFE16E606E08437DD0D1
:10387000606E7D38FEF772FE0A2802DD606EFF285A
:10388000E1D10020FEF793FF554640F2A4665BE0CD
:10389000E06E502815DD2868B04212D2286840F248
:1038A000AA518842286801D2801C00E0001D2860CF
:1038B000286840F27261884200D92E60142004F01A
:1038C000B4FB606E872803DD0020B0EE480A04E0F8
:1038D000732805DA0020B0EE680AFFF70CF801E063
:1038E000FEF77DFF28681921A0F58C60B0FBF1F090
:1038F000FEF734FEC0F11601072900DA0721E26E57
:10390000606E104332D04FF4E160FEF7F8FF286894
:10391000B042BDD32868B04210D1E06E462809E01D
:10392000004800400000002034040140CDCC4C3E53
:10393000CDCC4CBE02DA606EFF28A9D10020FEF784
:1039400036FF642004F071FB2868B042DFD328689A
:10395000B04205D1E06E462802DA606EFF28D6D16B
:103960000020FEF724FF4FF47A7000E05EE004F0E0
:103970005CFB40E078294FF0000002DDB0EE480A21
:1039800001E0B0EE680AFEF7B6FFE16E606E084334
:103990004CD0606E01467D3800D540422828E9DCD5
:1039A0000020FEF704FF4FF4E16514E0462903DA36
:1039B0004FF00501284604E006DD4FF005014FF009
:1039C0000000FEF79CFF02E00020FEF7F0FEE16E33
:1039D000606E08432AD0606E7D3800D540422828AA
:1039E00006DCE06E0146463800D540420F28DDDC9B
:1039F0000020FEF7DCFE606E7D3800D540422828AE
:103A0000C7DCE06E463800D540420F28C1DC0020FC
:103A1000FEF7CDFEFFF7BFFD40B10020FEF7C7FE69
:103A2000A7F80A90FFF7EEFC002803D10020FEF76C
:103A3000BEFE78E6BDEC028BBDE8F88F2DE9F041C3
:103A40000F46F849F84E2DED048B51F8204030898F
:103A500000219FEDF69A9FEDF68ADFEDF68ADFED05
:103A6000F69A06F58075012802D002287DD0F7E08D
:103A700071626AE0A86D84422FDD47B1B0EE681A2A
:103A8000F0EE690A4FF00A00B0EE480A4DE0A0EBF4
:103A90000400FEF763FD02461E2800DD1E22E968D1
:103AA000686D401AFEF75AFD00EB80004100EB689C
:103AB000686DB0EE681A9842F0EE690A02F10500EE
:103AC00002DDA1F5617102E001F56171494200EE8C
:103AD000101A00BFB8EEC00A27E033DA3FB1B0EEEB
:103AE000681AF0EE690A0A20B0EE490A1DE0001BD0
:103AF000FEF734FD01461E2800DD1E21EA68686DD0
:103B0000801AFEF72BFD00EB80004200EB68686D29
:103B100098420DDDC2F5617000EE100AB0EE681A31
:103B2000F0EE690AB8EEC00A481DFEF7EBFE0CE0A5
:103B300002F56172B0EE681AF0EE690A481D00EEF7
:103B4000102AC7E70020FEF732FEA86D001BFEF723
:103B500005FD03288EDC012004F067FA706A401C22
:103B600070623228F1DB7BE0FFE771626AE0E86DAA
:103B7000844231DD47B1B0EE681AF0EE690A4FF0C9
:103B80000A00B0EE490A51E0A0EB0400FEF7E6FCA3
:103B900041001E2900DD1E21EA68686D801AFEF7CB
:103BA000DDFC00EB80004200EB68686D98420BDDA5
:103BB000C2F5617000EE100AB0EE681AF0EE690A04
:103BC000B8EEC00A481D31E0B0EE681AF0EE690A9E
:103BD000481D02F5617224E031DA3FB1B0EE681A97
:103BE000F0EE690A0A20B0EE480A1FE0001BFEF75B
:103BF000B5FC41001E2900DD1E21EA68686D801AAF
:103C0000FEF7ACFC00EB80004200EB68686DB0EEA4
:103C1000681A9842F0EE690A01F1050009DDA2F583
:103C2000617200EE102A00BFB8EEC00AFEF76AFE0D
:103C300008E002F56172514200EE101AF4E700202C
:103C4000FEF7B5FDE86D001BFEF788FC03288EDC4F
:103C5000012004F0EAF9706A401C70623228F1DB3E
:103C6000BDEC048B0020BDE8F041FEF7A0BD2DE9BE
:103C7000F0410546FDF7A0FF704E0122910230464B
:103C800001F098FD01212846FFF7D8FE0020FEF73D
:103C90008EFD0A210020FEF732FE634C0020684FA3
:103CA000606202E00A2004F0C0F90421384601F005
:103CB00069FD0128F6D0606A401C60623228F4DB9E
:103CC00000224FF40061304601F074FD40F2DC56F2
:103CD0006581304604F0A9F905206081304604F082
:103CE000A4F950484FF461714F4250F82560208983
:103CF000544D012814D002282CD032E0A86D864201
:103D000003DD4FF00501384603E005DA4FF0050109
:103D10004046FEF7F4FD04E00020FEF748FD00E019
:103D20008846A86D801BFEF719FC0128E6DC18E028
:103D3000E86D864203DD4FF00501404603E005DAF9
:103D40004FF005013846FEF7DAFD04E00020FEF7EB
:103D50002EFD00E08846E86D801BFEF7FFFB012882
:103D6000E6DC606DE065BDE8F08130B52E490F24DA
:103D7000344AC86B4FF42F730F38086402E0106D9B
:103D800098420DDB0D6C086A401BFEF7E7FB052827
:103D9000F5DCC86B2044086406E0106D984203DA35
:103DA000C86B0864012030BD0C6C086A001BFEF76C
:103DB000D5FB0528F1DCC86B0864002030BD2DE977
:103DC000F041194C0F460546E06B2064002128465F
:103DD000FFF734FEFFF7C9FF10B36E1C09E0E06B7C
:103DE000206400213046FFF729FEFFF7BEFF18B11F
:103DF000761C1FB1052002E03046B4E70420B04233
:103E0000EDDC6D1E07B30020A8421FDCE06B2064D0
:103E100000212846FFF712FEFFF7A7FF0028F0D188
:103E20002846A0E74C030020000000200000614469
:103E3000000061C46666663F0000000000040240A6
:103E400000100240000100200120DDE70125BBE752
:103E50002DE9F047FE4E0746FE4C56F8278000201D
:103E6000894604F580756062208901280DD01EE026
:103E70001E3081424FF0020342464FF0000101DD47
:103E80001E2000E00F20FEF784FF696DE868814284
:103E9000EEDC10E01E3081424FF0020342464FF04C
:103EA000000101DD1E2000E00F20FEF716FF696D06
:103EB000E8688142EEDC052004F0B7F8606A401C37
:103EC00060623228D0DB49463846FFF778FF054666
:103ED0004FF47A770A2815D056F825600020FEF7AF
:103EE00066FCE06B012220649102DB4801F062FC79
:103EF00040F6B838404604F098F82089D74C01289D
:103F00001CD028E0FDF758FE0A214FF4E160FEF7CF
:103F1000F6FC02E00A2004F088F8FCF792FDB842B3
:103F2000F8DB0020FEF743FC384604F07EF8FBE7A0
:103F30000223324600210F20FEF72BFF04212046EA
:103F400001F020FC0128F3D00BE0022332460021CF
:103F50000F20FEF7C2FE0421204601F013FC0128C9
:103F6000F3D00020FEF723FC0A210020FEF7C7FC57
:103F7000404604F05AF80020FEF719FC61210120A8
:103F8000FDF7DBFD384604F050F82846BDE8F08721
:103F9000B0480122816EC165416C0164D102AE4816
:103FA00001F008BC2DE9F0412DED048BFDF704FE76
:103FB0009FEDAB8AB0EE481A5FED618A3C20F0EECF
:103FC000680A1FED660AFEF79DFC40F6C41402E085
:103FD000012004F02AF8FCF734FDA042F8DB0022AF
:103FE0004FF400619C4801F0E5FBB0EE481AF0EE9A
:103FF000680A3C209FED9B0AFEF784FC4FF47A642C
:1040000002E0012004F011F8FCF71BFDA042F8DBF0
:10401000B0EE481AF0EE680A28209FED930AFEF7EA
:1040200071FC8C4C002504F58076656202E001206D
:1040300003F0FBFFB06D6428F9DC606A401C60622D
:104040003228F7DBFDF7B8FD4FF49667656208E0AC
:104050000523162200212820FEF79BFE012003F0F5
:10406000E4FFFCF7EEFCB842F2DB606A401C6062E1
:104070003228F6DB40F6AC57656208E005231122D2
:1040800000213220FEF785FE012003F0CEFFFCF771
:10409000D8FCB842F2DB606A401C60623228F6DB72
:1040A000B0EE489AB0EE688AB0EE491AB0EE480A0F
:1040B0002D20F0EE400AFEF725FC656202E00120AB
:1040C00003F0B3FFB06D2328F9DB606A401C606227
:1040D0003228F7DBFDF770FDB0EE480AB0EE491A62
:1040E000F0EE400A1E20FEF70DFC4FF4167402E0BD
:1040F000012003F09AFFFCF7A4FCA042F8DB0020AB
:10410000FEF755FBFDF758FDB0EE491AF0EE480AF0
:1041100032209FED560AFEF7F5FB4FF4E16402E012
:10412000012003F082FFFCF78CFCA042F8DBFFF7D4
:10413000AEF9474C05E0052300212820A268FEF7D0
:1041400052FEFCF77EFCB842F5DBBDEC048B002090
:10415000BDE8F041FEF72BBB70B53E4C00252DEDC0
:10416000028B4FF49666656208E005231622002153
:104170002820FEF70EFE012003F057FFFCF761FC3C
:10418000B042F2DB606A401C60623228F6DB41F22A
:104190008836656208E00523112200212820FEF7F9
:1041A000F8FD012003F041FFFCF74BFCB042F2DBCD
:1041B000606A401C60623228F6DBA06B2064206ECF
:1041C000E06500224FF40061234801F0F3FADFEDCF
:1041D000248AB0EE681A1FEDE88A2D20B0EE480A56
:1041E000F0EE400AFEF78EFB6562214D02E00120F1
:1041F00003F01BFFA86D2328F9DB606A401C606296
:104200003228F7DBFDF7D8FCB0EE480AB0EE681AAA
:10421000F0EE400A1E20FEF775FB4FF4167402E024
:10422000012003F002FFFCF70CFCA042F8DB0020A9
:10423000FEF7BDFAFDF7C0FCB0EE681AF0EE480AD2
:1042400032209FED0A0AFEF75DFB4FF4E16414E0B3
:104250004C03002000000020000402400010024037
:10426000CDCCCC3D0000484400002F440000664403
:1042700000010020012003F0D8FEFCF7E2FBA04281
:10428000F8DBFD4D40F6AC54FCF7DBFBA04206DA50
:10429000052300212820AA68FEF7A5FDF4E7B0EE6B
:1042A000681AF0EE480A0A209FEDF40AFEF72AFB8E
:1042B00040F63C7402E0012003F0B7FEFCF7C1FBBE
:1042C000A042F8DBBDEC028B0020BDE87040FEF799
:1042D0006EBAEB4AA0F10F019FEDEA0AD36D192BDC
:1042E00007DAF0EE400AB7EE081A08469FEDE60A34
:1042F00009E0926DB7EE081A322AF0EE400A02DAAF
:1043000008469FEDE20AFEF7FDBA2DE9F05FE04DA9
:1043100083462DED048B40F2E7380026E86B2864D5
:10432000286E0A27E865FDF747FCB7EE081A9FEDEF
:10433000D58A3C20B0EE480AF0EE400AFEF7E2FAD9
:1043400002E0012003F071FEFEF7B0F8FEF706F977
:104350006428F6DC4FF00009CE4C4FF4804AC5F8D3
:10436000249005E03C20FFF7B4FF012003F05DFE40
:104370005146204601F006FA30B94FF4004120467C
:1043800001F000FA0028EDD0052003F04EFE686A27
:10439000401C68621E28EBDBFDF70EFC4C46C5F89E
:1043A00024904FF4FA6905E03C20FFF792FF0120CA
:1043B00003F03BFEFCF745FB4845F5DB686A401C13
:1043C00068623228F6DBA1466C62AD4C05E0232022
:1043D000FFF77FFF012003F028FEE06DFA28F6DBEF
:1043E000052003F022FE686A401C68621E28F4DB88
:1043F00000224021A84801F0DDF9DFF8A0A24FF427
:104400006171CAF800100A20FEF7D1F90220A060FD
:1044100001209949DFEDA28AC5F8240051F8200057
:10442000A26D101AFEF79AF8404509DA686AA26D83
:1044300051F82000101AFEF791F88046686AA060D3
:10444000686A401C68620428E8DB9FED969ADFEDFD
:10445000969A8846A068A26D414658F82000101A26
:10446000FEF77CF805281ADDA06851F82000A16D40
:10447000884208DDB0EE681AF0EE480A4FF01E00E0
:10448000B0EE490A08E0E5DAB0EE681AF0EE480A44
:104490004FF01E00B0EE690AFEF734FADAE7C846BC
:1044A000C5F8249002E0012003F0BFFD296C286AC2
:1044B000A1F10A02904202DA0A318842F3DC0520B7
:1044C00003F0B3FD686A401C68623228EEDBC5F871
:1044D00024804FF4C8780CE0B0EE480A4045B0EEB6
:1044E000681AF0EE400A01DD1E2000E01420FEF7FD
:1044F00009FA606DFA28EFDC052003F096FD686A82
:10450000401C68621E28F4DB082068810020FEF74A
:104510004EF9BBF1000F2FD04FF49678A06E874272
:104520000FD10A20761C03F080FD4645F6DBB0EE85
:10453000480AB0EE681AF0EE400A0F20FEF7E2F9E2
:1045400012E0074600260A2003F06FFDE6E70A2086
:1045500003F06BFDA06E042803DDE168606D884206
:10456000F5DC012003F061FDE168606D8842F1DC5B
:10457000A06E052800D2A0604FF42F71CAF8001079
:10458000072068815946A068FFF762FCA060FFF72A
:104590006EFB0020FEF70BF9BDEC048B01224021DD
:1045A000BDE8F05F3C4801F005B92DE9F041324823
:1045B000374C2DED048B86689FED3C8ADFED318A08
:1045C0009FED2E9A606DE065B0EE481AF0EE680A35
:1045D0003220B0EE490AFEF795F90027284D6762B0
:1045E00002E0012003F021FD686D3228F9DB05208F
:1045F00003F01BFD606A401C60621E28F4DB002291
:104600004FF48061244801F0D5F8A06B206420E0CD
:10461000A86D864208DDA6EB000000EB4000FDF728
:104620009DFFA0F2DC5009E013DAA6EB000000EBDE
:104630004000FDF793FFA0F2DC50404200EE100A6C
:10464000B0EE481AF0EE680AB8EEC00A3220FEF763
:1046500059F9A86D801BFDF781FF0328D8DCB0EE67
:10466000481AF0EE680A3220B0EE490AFEF74AF91D
:104670004FF4E17667621BE04C0300200000E14448
:1046800000010020000000000000E1430000E1C341
:1046900000000020001002400004024034040140E9
:1046A0006666663F000096C3000096439A99993E5D
:1046B000686DB042DFDB012003F0B7FC052003F09A
:1046C000B4FC606A401C60621E28D4DBFDF774FAFB
:1046D000B0EE481AF0EE680A1E20B0EE490AFEF766
:1046E00011F940F2DC5402E0012003F09EFCFCF7DB
:1046F000A8F9A042F8DBFEF7CAFE0A20FEF757F839
:10470000BDEC048B4FF4FA60BDE8F04103F08DBCC2
:1047100070B5FFF747FCFE4C4FF4E16503E007215D
:104720002846FEF7ECF8606E0028F8D0E16E1239EA
:1047300000D549420A29F2DCBDE87040642003F04C
:1047400074BC2DE9F0412DED048BFDF735FA9FED9A
:10475000F18A5FED348A3C20B0EE481AF0EE680A28
:104760009FEDED0AFEF7CEF84FF4FA6702E0012064
:1047700003F05BFCFCF765F9B842F8DBE74C00227C
:104780004FF40061A06B2064206EE065E44801F006
:1047900011F8B0EE481AF0EE680A3C209FEDE10AED
:1047A000FEF7B0F84FF47A6502E0012003F03DFC1B
:1047B000FCF747F9A842F8DBB0EE481AF0EE680AB9
:1047C0003C209FEDD90AFEF79DF80026D04D666289
:1047D00002E0012003F029FCE86D2828F9DC606A7A
:1047E000401C60623228F7DBB0EE489AB0EE688A6F
:1047F000B0EE491AF0EE480A3C209FEDCC0AFEF7D5
:1048000081F8666202E0012003F00FFCE86D1928D0
:10481000F9DC606A401C60623228F7DBFDF7CCF9F6
:10482000F0EE498AB0EE480AB0EE681AF0EE400A9F
:104830003C20FEF767F802E0012003F0F6FBFCF7EE
:1048400000F9B842F8DBB0EE480AB0EE681AF0EEB4
:10485000400A2D20FEF756F8666202E0012003F0C0
:10486000E4FBE86D2328F9DB606A401C60623228B3
:10487000F7DBFDF7A1F9B0EE480AB0EE681AF0EEEA
:10488000400A1E20FEF73EF84FF4167402E00120A5
:1048900003F0CBFBFCF7D5F8A042F8DB0020FDF7D6
:1048A00086FFFDF789F9B0EE681AF0EE480A3C2061
:1048B0009FED9F0AFEF726F84FF4E16402E0012025
:1048C00003F0B3FBFCF7BDF8A042F8DB994D40F6CE
:1048D000AC5400BFFCF7B5F8A04206DA052300216E
:1048E0002820AA68FEF723FAF4E7FDF765F9B0EE91
:1048F000681AF0EE480A0F201FEDA00AFEF702F832
:104900004FF4FA7402E0012003F08FFBFCF799F8F2
:10491000A042F8DBBDEC048B0020BDE8F041FDF7C0
:1049200046BF70B57D4C00252DED028B4FF4966689
:10493000656208E005230A2200212820FEF7CDF950
:10494000012003F072FBFCF77CF8B042F2DB606AF6
:10495000401C60623228F6DB41F28836656208E06E
:104960000523072200212820FEF7B7F9012003F0D4
:104970005CFBFCF766F8B042F2DB606A401C6062E8
:104980003228F6DBA06B2064206EE06500224FF435
:104990000061634800F00EFFDFED5E8AB0EE681A3A
:1049A0001FEDC88A2D20B0EE480AF0EE400AFDF750
:1049B000A9FF6562564D02E0012003F036FBE86D69
:1049C0001928F9DB606A401C60623228F7DBFDF7CA
:1049D000F3F8B0EE480AB0EE681AF0EE400A1E2076
:1049E000FDF790FF4FF4167402E0012003F01DFB69
:1049F000FCF727F8A042F8DB0020FDF7D8FEFDF712
:104A0000DBF8B0EE681AF0EE480A3C209FED480A49
:104A1000FDF778FF4FF4FA6402E0012003F005FB94
:104A2000FCF70FF8A042F8DB424D40F6AC5400BF53
:104A3000FCF707F8A04206DA052300212820AA681F
:104A4000FEF775F9F4E70020FDF7B1FEB0EE681A45
:104A5000F0EE480A0A201FEDF70AFDF753FF40F673
:104A60003C7401E003F0E1FAFBF7EBFFA0424FF0EA
:104A70000100F7DBBDEC028BBDE8704003F0D5BA56
:104A8000234A9FED2D0AA0F10F01D36D192B07DAF0
:104A9000F0EE400AB7EE081A08469FED280A09E032
:104AA000926DB7EE081A322AF0EE400A02DA084692
:104AB0009FED230AFDF726BF2DE9F05F174D8346D2
:104AC0002DED048B40F2E7380026E86B2864286E51
:104AD0000A27E865FDF770F89FED178AB7EE081A08
:104AE0003C20B0EE480AF0EE400AFDF70BFF02E072
:104AF000012003F09AFAFDF7D9FCFDF72FFD642899
:104B0000F6DC4FF000090F4C4FF4804A1CE0000027
:104B100000010020CDCCCC3D000061C4000000208D
:104B200000040240000048C40000FAC3000048C36B
:104B3000000066C44C030020000000000000E143B8
:104B40000000E1C300100240C5F8249005E03C20BD
:104B5000FFF796FF012003F068FA5146204600F067
:104B600011FE30B14FF40041204600F00BFE00284A
:104B7000EDD1686A401C68623228EEDBFDF71CF854
:104B80004C46C5F824904FF4FA6905E03C20FFF745
:104B900077FF012003F049FAFBF753FF4845F5DBA7
:104BA000686A401C68623228F6DBA1466C62FE4CE3
:104BB0004FF4FA7A05E02320FFF762FF012003F0AB
:104BC00034FAA06D5045F6DB686A401C68623228F2
:104BD000F7DB0020FDF7EBFD00224021F34800F059
:104BE000E9FDDFF8CCA34FF46171CAF80010022090
:104BF000A0600120EF49DFEDF08A686251F82000E3
:104C0000E26D101AFDF7AAFC404509DA686AE26D08
:104C100051F82000101AFDF7A1FC8046686AA060D8
:104C2000686A401C68620428E8DB9FEDE49ADFEDC7
:104C3000E49A8846A068E26D414658F82000101AB0
:104C4000FDF78CFC05281ADDA06851F82000E16D05
:104C5000884208DDB0EE681AF0EE480A4FF0140002
:104C6000B0EE490A08E0E5DAB0EE681AF0EE480A5C
:104C70004FF01400B0EE690AFDF744FEDAE7C5F81C
:104C8000249002E0012003F0D0F9286C296AA0F1F9
:104C90000A02914202DA0A308142F3DC052003F075
:104CA000C4F9686A401C68623228EEDB4FF4C878A9
:104CB000606DFA2810DDB0EE480A4045B0EE681A83
:104CC000F0EE400A01DD1E2000E01420FDF71AFE80
:104CD0000A2003F0AAF9EBE7082068810020FDF71D
:104CE00066FDBBF1000F2FD04FF49678A06E87427F
:104CF0000FD10A20761C03F098F94645F6DBB0EE9A
:104D0000480AB0EE681AF0EE400A0F20FDF7FAFDEF
:104D100012E0074600260A2003F087F9E6E70A209A
:104D200003F083F9A06E042803DDE168606D88421A
:104D3000F5DC012003F079F9E168606D8842F1DC6F
:104D4000A06E052800D2A0604FF42F71CAF80010A1
:104D5000072068815946A068FFF77AF8A060FEF73F
:104D600086FF01224021914800F024FDBDEC048B18
:104D70000020BDE8F05FFDF71ABD2DE9F0418D4838
:104D8000904C2DED048B8668606D9FED8F9AB0EE90
:104D9000491A1FED978AE0653220F0EE480ADFEDF0
:104DA0008B8AB0EE680AFDF7ADFD00277E4D676285
:104DB00002E0012003F039F9686D3228F9DB0520A3
:104DC00003F033F9606A401C60621E28F4DB0022A5
:104DD0004FF48061754800F0EDFCA06B206424E086
:104DE000E86D86420BDDA6EB000000EB40004FEAC9
:104DF0004000FDF7B3FBA0F2DC5040420AE014DAB9
:104E0000A6EB000000EB40004FEA4000FDF7A6FBD8
:104E1000A0F2DC5000EE100AB0EE491AF0EE480A9B
:104E2000B8EEC00A3220FDF76DFDE86D801BFDF77E
:104E300095FB0328D4DCB0EE491AF0EE480A322084
:104E4000B0EE680AFDF75EFD4FF4E176676202E0BE
:104E5000012003F0EAF8686DB042F9DB052003F0A9
:104E6000E4F8606A401C60621E28F4DBFCF7A4FED4
:104E7000B0EE491AF0EE480A1E20B0EE680AFDF7BF
:104E800041FD40F2DC5402E0012003F0CEF8FBF7D4
:104E9000D8FDA042F8DBFEF7FAFA1420FDF787FCF4
:104EA000BDEC048B4FF4FA60BDE8F04103F0BDB8EF
:104EB00010B5FFF746FC07214FF4E160FDF71FFD39
:104EC000394C02E0642003F0B0F8606E0028F9D09D
:104ED000E06E123800D540420A28F3DC10BD2DE9FF
:104EE000F0412DED048BFCF767FE1FEDF68AB0EE66
:104EF000481A5FEDEF8A3C20F0EE680A1FEDFA0ACF
:104F0000FDF700FD40F6C41402E0012003F08DF827
:104F1000FBF797FDA042F8DB00224FF40061234825
:104F200000F048FCB0EE481AF0EE680A3C209FED15
:104F3000280AFDF7E7FC4FF47A6402E0012003F051
:104F400074F8FBF77EFDA042F8DBB0EE481AF0EEF5
:104F5000680A32209FED1F0AFDF7D4FC194C002689
:104F6000114D666202E0012003F05FF8E86D282829
:104F7000F9DC606A401C60623228F7DBFCF71CFE3B
:104F800040F6AC57666208E0032305220021322078
:104F9000FDF7A3FE012003F048F8FBF752FDB842ED
:104FA000F2DB606A401C17E00001002000040240B0
:104FB000340401404C0300206666663F00009643BF
:104FC000000096C3000000209A99993E0000E14439
:104FD000000048C400002FC460623228DDDBB0EE60
:104FE000489AB0EE688AB0EE491AB0EE480A2D2011
:104FF000F0EE400AFDF786FC666202E0012003F055
:1050000014F8E86D2328F9DB606A401C60623228DE
:10501000F7DBFCF7D1FDB0EE480AB0EE491AF0EE2E
:10502000400A1E20FDF76EFC4FF4167402E00120CA
:1050300002F0FBFFFBF705FDA042F8DB0020FDF7C7
:10504000B6FBFCF7B9FDB0EE491AF0EE480A322083
:105050009FEDB60AFDF756FC4FF4E16402E0012033
:1050600002F0E3FFFBF7EDFCA042F8DBFEF70FFADE
:105070004FF4486405E00323502200212820FDF767
:1050800056FEFBF7DEFCA042F5DBBDEC048B0020F6
:10509000BDE8F041FDF78BBB012800D008E7FFF722
:1050A00037BB012800D03CE4FFF756B8012808467A
:1050B00000D001E5FFF729B9012800D05DE6FFF730
:1050C00074BA054640F6B8342846FEF717FB0021AF
:1050D0002846FFF7EBFF2846FFF7EEFF204602F0D9
:1050E000A4FFF1E71120FDF793F80F2002F09DFFD8
:1050F000F8E78F4CFDF76BFF607818B1FEF7A1F869
:10510000FEF744F9FEF7F0F8052002F08EFFF1E714
:10511000884DA5F1B004287860666878E066A878C4
:10512000A066E8782067FEF7FCF9072002F07DFF13
:10513000F1E700BFFDF777FD052002F076FFF9E704
:105140001FB5FBF7A4FCFBF7D5FCFBF771FDFBF7E4
:1051500051FEFBF7D5FDFBF70DFFFBF7C6FFFCF794
:105160004CF8FCF732F9FBF72AFD4FF4E134204606
:10517000FCF7DCF92046FCF772FA2046FCF7F5FA5A
:105180002046FCF778FBE000FCF7FAFBFCF732FD69
:10519000FCF712FD664C00254FF4807625700095D3
:1051A000019502952B46324663A16848039502F0AB
:1051B00065FD0095019502950023324664A16A4879
:1051C000039502F05BFD00950195029500233246A0
:1051D00066A16B48039502F051FDA06CE06102E00E
:1051E000012002F022FFA06CE16914388142F7DB54
:1051F000644D012666700221284600F0C3FA08B10A
:10520000268101E0022020810A2060814FF4FA709B
:1052100002F00BFF09206081FA20E062A06CE064DC
:10522000206E01226430E065E06B20644021284656
:1052300000F0C0FA0122D102284600F0BBFA524920
:1052400040F2A4600860FEF722F940F6B83528461F
:1052500002F0EBFE20894D4901281DD00C2008608A
:1052600033204860592088607D20C860A720484EC0
:1052700008610821304600F085FAC0B102213046AD
:1052800000F080FAB8B10121304600F07BFAC0B1DD
:105290000020FDF78CFAECE740F247100860F72099
:1052A0004860AD2088605E20C8601220DFE720895A
:1052B000FFF7F2FE02E02089FFF7F3FE2089FFF7F7
:1052C00000FF2089FEF71AFA00212089FFF7EEFE81
:1052D0002089FFF7F1FE284602F0A7FEF1E77FB52F
:1052E00000244FF4807500940194029423462A46CA
:1052F00028A12B48039402F0C1FC0094019402946D
:1053000000232A4627A12A48039402F0B7FC009400
:105310000194029400232A4614A11948039402F030
:10532000ADFC02F0D1FF04B0002070BD000066C4E7
:1053300000000020B00100207461736B526F626F37
:1053400074416E616C7974696373000033510008B5
:105350007461736B526F626F74416E616C797469C2
:1053600063735F7561727400115100087461736B2F
:10537000446965754B6869656E436F4361750000EC
:10538000F350000800040240340401404C030020A4
:10539000001002407461736B4D61696E0000000083
:1053A000415100087461736B4779726F000000000F
:1053B000E55000080CB500205149019000900A68A2
:1053C00042F480320A604FF4A0630A6802F40032AB
:1053D0000092019A521C0192009A12B9019A9A42C3
:1053E000F3D10A68920334D501200090444840303C
:1053F000026842F0805202604248026842F48042F1
:1054000002603F48083002680260026842F40042CD
:105410000260026842F4A0520260031F3A4A1A6016
:105420000A6842F080720A600A689201FCD5374A25
:1054300040F205611160016821F00301016001681B
:1054400041F0020101600168C1F381010229FAD132
:105450000CBD00900CBD2A4810B5016841F0010157
:105460000160274A0021083211600268284B1A4067
:105470000260031D274A1A60026822F4802202603B
:105480001F480C300160FFF795FF23494FF0006083
:10549000086010BD70B51A4C083420681F4A10F01F
:1054A0000C011F4804D05510042903D0082903D04B
:1054B00002601BE0056019E01149091D0B68C3F388
:1054C00080560B6803F03F0316B1B5FBF3F201E021
:1054D000B2FBF3F20B680968C3F388135A43C1F3B4
:1054E0000141491C4900B2FBF1F1016021680C4AFD
:1054F000C1F30311121D515C0268CA40026070BD05
:10550000003802400070004008544007003C024050
:10551000FFFFF6FE1030002408ED00E00024F40048
:10552000D00100200648804706480047FEE7FEE716
:10553000FEE7FEE7FEE7FEE7FEE7FEE7FEE7FEE743
:105540005754000889010008284908432849086081
:10555000704730B50F22C47801780123FCB1244C88
:10556000246801F1E02104F4E064C4F5E064C4F3CC
:105570000724C4F10405E2404478AC408578154026
:1055800025432A0181F80024007800F01F018B4098
:105590004009800000F1E020C0F8003130BD01F08A
:1055A0001F0083404809800000F1E020C0F88031EE
:1055B00030BD104A114001430D48001F0160704783
:1055C0000B4A121D0029116801D0014300E08143FC
:1055D000116070474FF0E0210428086903D020F0E3
:1055E00004000861704740F00400FAE70000FA0583
:1055F0000CED00E080FFFF1F7C4910B5884206D10A
:105600000121084600F058FA002101204FE07849B6
:10561000884206D10121022000F04EFA002102202A
:1056200045E07449884206D10121042000F044FA83
:10563000002104203BE07049884206D10121082066
:1056400000F03AFA0021082031E06C49884206D186
:105650000121102000F030FA0021102027E06849D5
:10566000884206D10121202000F026FA00212020C6
:105670001DE06449884206D10121402000F01CFA57
:105680000021402013E06049884206D1012180209A
:1056900000F012FA0021802009E05C4988420AD11A
:1056A00084150121204600F007FA00212046BDE8BC
:1056B000104000F001BA10BDF0B50023012403270B
:1056C0000D6804FA03F21540954242D1D0F800C0AB
:1056D0005E0007FA06F52CEA050CC0F800C091F848
:1056E00004C0D0F800E00CFA06FC4CEA0E0CC0F83E
:1056F00000C091F804C0BCF1010F02D0BCF1020F50
:105700001FD1D0F808C02CEA050CC0F808C091F8E9
:1057100005C0D0F808E00CFA06FC4CEA0E0CC0F804
:1057200008C0D0F804C02CEA020CC0F804C04268DB
:1057300091F806C00CFA03FC1FFA8CFC42EA0C023A
:105740004260C268AA43C260CA79C568B2402A43AF
:10575000C2605B1C102BB3D3F0BD4FF6FF7101602C
:105760000021017141718171C171704708B541F427
:1057700080320092C261C1610099C161C169C06992
:10578000009008BD0246002012690A4200D00120A4
:105790007047006980B270470246002052690A4291
:1057A00000D001207047406980B270470183704784
:1057B000418370470AB1018370474183704741615B
:1057C000704742694A40426170474B07DB0E9A407E
:1057D000C90810B500EB8100016A0F249C40A14369
:1057E0000162016A1143016210BD00000000024025
:1057F0000004024000080240000C02400010024079
:105800000014024000180240001C02400020024028
:10581000EA48016841F001010160E84A00210832CC
:1058200011600268E64B1A400260031DE54A1A60E7
:10583000026822F480220260E0480C300160704768
:10584000DE490022891C0A70087070470246002059
:10585000510901290CD002290CD0D84974310968AA
:1058600002F01F02012393400B4200D00120704739
:10587000D249F4E7D1497031F1E718B500204FF46F
:10588000A06400903120FFF7E1FF0099491C0091CE
:10589000A14201D00028F5D03120FFF7D7FF002822
:1058A00000D0012018BDC5490A6822F0F80242EA7A
:1058B000C00008607047C44908607047BF490022B3
:1058C00070310A700A70012802D0042801D1052025
:1058D00008707047BD490860704741EA82115A0854
:1058E00010B5BB4B029C03EB02421143014341EA5A
:1058F0000460B249091D086010BDB34908667047CD
:10590000800140EA0170AD49843108607047AE49BA
:1059100088667047AC49C8647047A84A0832136863
:10592000084323F0EC63184310607047A34A083221
:105930001368084323F078431843106070479F4A68
:105940000832116821F003010143116070479B4840
:105950000830006800F00C007047984A083211685F
:1059600021F0F001014311607047944A0832116838
:1059700021F4E051014311607047904908310A68F1
:1059800022F4604242EAC0000860704770B58B4A5A
:10599000083211688F4C11F00C0104D066100429F4
:1059A00003D0082903D004601BE0066019E0834996
:1059B000091D0B68C3F380550B6803F03F0315B155
:1059C000B6FBF3F301E0B4FBF3F30C680968C4F32E
:1059D00088146343C1F30141491C4900B3FBF1F151
:1059E000016011680F2303EA11117B4B5C5C0168B5
:1059F000E14041601468072505EA94241C5D21FA02
:105A000004F48460126805EA52329A5CD140C160A5
:105A100070BDC0F30121032908D1684A083211681A
:105A200021F4F8136D490140194311606349703145
:105A30000A68C0F30B0002430A60704763494439A7
:105A40000860704761494039086070475E49C1F895
:105A50005C017047594A30320029116801D0014376
:105A600000E0814311607047544A343200291168C4
:105A700001D0014300E08143116070474F4A383242
:105A80000029116801D0014300E081431160704793
:105A90004A4A40320029116801D0014300E08143A5
:105AA00011607047454A44320029116801D0014312
:105AB00000E0814311607047404A103200291168AC
:105AC00001D0014300E08143116070473B4A14322A
:105AD0000029116801D0014300E081431160704743
