:020000040800F2
:10000000B830002055540008450200084702000897
:10001000490200084B0200084D02000800000000E1
:100020000000000000000000000000009D0100082A
:100030004F02000800000000E10100088B7A000870
:100040006F5400086F5400086F5400086F54000884
:100050006F5400086F5400086F5400086F54000874
:100060002F0400087B0400086F54000819030008DF
:10007000DB020008650300086F54000875020008E1
:100080006F5400087D0200086F5400086F54000888
:100090006F5400086F5400086F5400086F54000834
:1000A0006F54000889030008A90300086F54000872
:1000B000AB030008CB030008EB0300086F540008F3
:1000C0006F5400086F5400086F5400082B04000898
:1000D0006F540008550200086F5400086F54000860
:1000E0006F5400086F5400086F5400086F540008E4
:1000F0006F5400086F5400086F5400083B03000859
:100100006F5400086F5400080B0400082D04000809
:100110006F5400086F5400086F030008770300084D
:100120006F5400086F5400089F0200086F540008C5
:100130006F5400086F5400086F5400086F54000893
:100140006F5400086F5400086F5400086F54000883
:10015000D10200086F5400086F5400086F54000863
:100160006F5400086F5400086F5400086F54000863
:100170006F5400086F5400086F5400086F54000853
:100180006F5400086F540008DFF80CD008F008FD29
:100190000048004715520008B8300020234B19686A
:1001A0000868B0E8F04F80F309884FF0000080F352
:1001B000118870470000000003480068006880F361
:1001C000088862B600DF00BF08ED00E0DFF80C0031
:1001D000016841F470010160704700BF88ED00E0E4
:1001E000EFF30980114B1A681EF0100F08BF20EDC5
:1001F000108A20E9F04F106008B54FF0140080F32A
:10020000118807F018FF4FF0000080F31188BDE857
:10021000084019680868B0E8F04F1EF0100F08BFDA
:10022000B0EC108A80F30988704700BF20020020DC
:10023000EFF311804FF0140181F31188704780F3C0
:10024000118870477047FEE7FEE7FEE7FEE770475C
:100250007047704710B5894C40F22551204606F092
:100260005EFE002805D02046BDE81040202106F0A3
:1002700053BE10BD8249834805F063BF70B5814D00
:10028000814C30352146284605F038FF002805D03E
:1002900021462846BDE8704005F053BF70BD10B53B
:1002A0007A497B4805F04DFF7A484178027841EA67
:1002B0000221794A1180C178827841EA0221774A85
:1002C00011604179007941EA00207549086010BD4C
:1002D0006F487449483005F034BF70B5694D724CB1
:1002E000483D2146284605F009FF002813D0214645
:1002F000284605F026FF6D4802F01DF800280AD1B7
:100300006B4C0021204606F049FD2046BDE87040B8
:10031000012106F043BD70BD70B55A4D654C603D7E
:100320002146284605F0EAFE002805D02146284649
:10033000BDE8704005F005BF70BD70B5514C5E4D15
:1003400048342946204605F0D9FE002809D000216E
:10035000204605F048FE29462046BDE8704005F0DD
:10036000F0BE70BD47484649303805F0EABE01216D
:10037000524806F0B2BB10B50121514806F0ADFB62
:100380003E497A20888010BD10B54E4C0121204690
:1003900006F0A3FB2088C1064B48016801D5491E21
:1003A00000E0491C016010BD704710B501218C07A9
:1003B000204606F092FB2088C1064448016801D51A
:1003C000491E00E0491C016010BD10B5404C0121E0
:1003D000204606F082FB2088C1063E48016801D510
:1003E000491E00E0491C016010BD10B53A4C0121C6
:1003F000204606F072FB2088C1063848016801D506
:10040000491E00E0491C016010BD10B5344C0121AB
:10041000204606F062FB2088C1063248016801D5FB
:10042000491E00E0491C016010BD7047704770B55F
:10043000042005F005FF00281ED020212A4805F0E1
:1004400058F92A4D0421284605F034F91C4C01289E
:1004500005D00421284605F02DF928B109E0002136
:10046000204605F0D3FF04E0204605F0D3FF2049E5
:10047000086020490420086070BD704700100140EA
:10048000208000207060024000802020008020102A
:1004900040640240240300200C000020C80100201A
:1004A000CC010020008800200088001042030020BA
:1004B000004800402080001000800028001000400C
:1004C0000014004000000140100000201400002033
:1004D0000004004018000020000800404C010020EB
:1004E000000C0040C001002000000240000C02404F
:1004F000C4010020143C014070B50546002408F0FA
:10050000B5F8FE4902E02A5D0A55641C8442FADB14
:10051000BDE870400121FA4805F065BD70B5F94DA0
:1005200006460024315D00290BD0284606F05CFC0D
:100530008021284606F0E9FC0028F9D0641CE4B2CA
:10054000F0E770BD70B5EF4E05460024002D0DD0CC
:100550002946304606F048FC8021304606F0D5FC9E
:100560000028F9D0641CE4B2032CEFD370BD73B53E
:100570000C460020FFF7E6FFE3A0FFF7CFFFDF48C0
:100580002246E2A1823808F085FBDC488238FFF77A
:10059000C5FFDFA0FFF7C2FFDFA0FFF7BFFFD7480F
:1005A000DAA18238009A08F075FBD44E0024D54DAC
:1005B000823E2846315D06F017FC4021284606F0B1
:1005C000A4FC0028F9D0641C142CF2DBD2A0FFF7A5
:1005D000A5FFFF20FFF7B6FFFF20FFF7B3FFBDE841
:1005E0007C40FF20AEE770B505460C46C6A0FFF77D
:1005F00095FFC2482246C5A1823808F04BFBBF4890
:100600008238FFF78BFFC5A0FFF788FF2846FFF76A
:1006100085FFC1A0FFF782FFBDE87040FF2091E792
:1006200077B5BEA185B00646D1E90001CDE900014C
:10063000B9A0002200680390B3A0B04D0068283D27
:10064000A5F128030290AD4C1146A3F13200A95444
:1006500099548154A154521CD2B21E2AF7D30A21B4
:100660000170FF2444708470C470A448A7A150385E
:10067000079A08F00FFBA14902A8503907F0DEFFE6
:100680009E4802A9823807F0D9FF9C486946823803
:1006900007F0D4FF99483146823807F0CFFF9748DA
:1006A0009AA15038069A08F0F5FA94495039A1F108
:1006B000320007F0C3FF914803A9823807F0BEFF5C
:1006C0008E492C706C702839AC70A1F15A0007F07B
:1006D000B5FF8A488238FFF70FFF08B070BD2DE9DB
:1006E000F74188468DA185B00646D1E90001CDE9E4
:1006F000000189A000220068039083A07F4D00685C
:10070000283DA5F1280102901446A1F13200AC5415
:100710008C548454521CD2B20A2AF8D30A21017094
:10072000FF2747708770C770744878A15038079AC0
:1007300008F0B0FA714902A8503907F07FFF6F48FE
:1007400002A9823807F07AFF6C486946823807F0C0
:1007500075FF6A483146823807F070FF67484146A6
:10076000823807F06BFF654803A9823807F066FFFF
:100770002F706F706149AF70EC7028392C71A1F146
:100780005A0007F05BFF5D488238FFF7B5FE08B0FE
:10079000BDE8F08170B50020FFF7D4FE5AA0FFF746
:1007A000BDFE56480D2259A1823808F073FA53480D
:1007B0008238FFF7B3FE59A0FFF7B0FE594C202155
:1007C000204604F077FF02464C4850A1823808F0DA
:1007D00061FA4A488238FFF7A1FE1021204604F052
:1007E00069FF0246454849A1823808F053FA434858
:1007F0008238FFF793FE4C4D8021284604F05AFFC3
:1008000002463E4841A1823808F044FA3B4882380B
:10081000FFF784FE4021284604F04CFF024637488B
:100820003AA1823808F036FA34488238FFF776FE6B
:100830004FF40041204604F03DFF02462F4833A10B
:10084000823808F027FA2D488238FFF767FE4FF408
:100850008041204604F02EFF024628482BA1823812
:1008600008F018FA25488238FFF758FE4FF4005177
:10087000204604F01FFF0246204824A1823808F0D9
:1008800009FA1E488238FFF749FE4021274804F044
:1008900011FF024619481DA1823808F0FBF91748DC
:1008A0008238FFF73BFE1CA0FFF738FEFF20FFF762
:1008B00049FEFF20FFF746FEBDE87040FF2041E6FD
:1008C000FEB51BA10646D1E90001CDE900011AA041
:1008D00000210A4D0068283DA5F1280202900C462F
:1008E000A2F132006C5454544454491CC9B2322908
:1008F000F8D30A210170FF2747701FE0E2020020B1
:10090000B860024000500040740000002564000000
:100910002E7478743D000000220000002E7478745C
:100920003D2200000008024000000240001002408A
:100930002E76616C3D0000006A0000008770C77071
:100940000022AFF23801FE4808F0A4F9FC4902A8E1
:1009500007F074FEFA4802A9323807F06FFEF84833
:100960006946323807F06AFE3246AFF26001F44859
:1009700008F090F9F249A1F1320007F05FFE2F7004
:100980006F70EF49AF70EC7028312C71A1F15A00F3
:1009900007F054FEEA483238FFF7AEFDFEBD2DE900
:1009A000FC414FF08047384605F034FDE54D69695C
:1009B000642640EA014090FBF6F00024019038469E
:1009C00005F028FD696940EA014090FBF6F00199C5
:1009D0000090401A00D54042322800DA641C00988A
:1009E0000190022CEBDB0098002800DA4042BDE8C1
:1009F000FC812DE9FC41D44F384605F00BFDD14D6B
:100A00002969642640EA014090FBF6F00024019039
:100A1000384605F0FFFC296940EA014090FBF6F0FA
:100A200001990090401A00D54042322800DA641C37
:100A300000980190022CEBDB00980028D7DA4042A6
:100A4000D5E710B5FFF7ABFF0446FFF7D2FF002C48
:100A500000DA6442002800DA4042204410BD01B5AB
:100A600081B0019800EBC00040000090002801D048
:100A7000401EFAE70CBD01B581B044F25061019807
:100A800048430090002801D0401EFAE70CBD2DE934
:100A9000FC4101211F2004F075FF01248DF8044062
:100AA00000268DF806604FF6FF758DF80740032786
:100AB00000958DF805706946A44804F095FD8DF801
:100AC00004408DF806608DF8074000958DF805709C
:100AD00069469F4804F088FD8DF804408DF8066053
:100AE0008DF8074000958DF805706946994804F027
:100AF0007BFD7CE77CB501217E2004F043FF0024D0
:100B0000C0208DF80440012500908DF80750022682
:100B10008DF805606946904804F066FD06208DF862
:100B2000044000908DF807508DF8056069468748AD
:100B300004F05AFD04208DF8044000908DF8075011
:100B40008DF805606946824804F04EFD7CBD1FB5F6
:100B50004FF4E06004F090FC36208DF80C00002487
:100B60008DF80D408DF80E4001208DF80F0003A880
:100B700004F087FC0121102004F022FF3220ADF8A0
:100B80000000ADF80840ADF8024040F2E730734C89
:100B900001906946204605F0F7FB0121204605F04B
:100BA0009CFF01221146204605F077FF00212046D8
:100BB00005F02CFC0121204605F05EFC1FBD1FB591
:100BC0004FF4E06004F058FC37208DF80C0000244E
:100BD0008DF80D408DF80E4001208DF80F0003A810
:100BE00004F04FFC0121202004F0EAFE4FF4FA70DB
:100BF000ADF80000ADF80840ADF8024040F2E73033
:100C0000574C01906946204605F0BEFB0121204665
:100C100005F063FF01221146204605F03EFF00214A
:100C2000204605F0F3FB0121204605F025FC1FBD01
:100C300070B58AB00121022004F0CCFE01210C2005
:100C400004F0A0FE424E03220621304604F055FD7A
:100C500003220721304604F050FD032208213046CC
:100C600004F04BFD03220921304604F046FD4FF409
:100C70007070059002208DF8180003208DF819007F
:100C800000248DF81A4001258DF81B5005A9304627
:100C900004F0AAFCA420ADF81C0040F6B83008907F
:100CA0002802304EADF82400ADF81E4007A93046AA
:100CB00005F06AFB6020ADF80000ADF80250029428
:100CC000ADF80C400121304605F0D6FB002130463E
:100CD00005F09CFB6946304605F0D8FB6946304676
:100CE00005F000FC6946304605F038FC69463046A0
:100CF00005F06EFC0121304605F0B0FE0AB070BD73
:100D000070B58AB00121082004F05AFE012108467E
:100D100004F038FE104E02220021304604F0EDFCB3
:100D200002220121304604F0E8FC0222114630463E
:100D300004F0E3FC02220321304604F0DEFC13E061
:100D40009202002000000020000001400004024048
:100D500000080240000C0240000002400010004069
:100D600000140040000401400F20059002208DF87F
:100D7000180003208DF8190000248DF81A40012571
:100D80008DF81B5005A9304604F02EFCBA20ADF8B2
:100D90001C0042F210700890ADF82440ADF81E40DF
:100DA00007A9FE4E304605F0EFFA6020ADF80000CE
:100DB000ADF802500294ADF80C400121304605F028
:100DC0005BFB0021304605F021FB6946304605F00B
:100DD0005DFB6946304605F085FB6946304605F007
:100DE000BDFB6946304605F0F3FB0121304605F0B6
:100DF00035FE83E770B58AB00121042004F0E0FDE0
:100E000001210D2004F0BEFDE54E02220C213046EA
:100E100004F073FC02220D21304604F06EFC022225
:100E20000E21304604F069FC02220F21304604F006
:100E300064FC4FF47040059002208DF818000320E8
:100E40008DF8190000248DF81A4001258DF81B50EB
:100E500005A9304604F0C8FBA420ADF81C0040F6FC
:100E6000B83008902802CF4EADF82400ADF81E40EF
:100E700007A9304605F088FA6020ADF80000ADF80B
:100E800002500294ADF80C400121304605F0F4FA0E
:100E90000021304605F0BAFA6946304605F0F6FA08
:100EA0006946304605F01EFB6946304605F056FBA4
:100EB0006946304605F08CFB20E770B5012188B00B
:100EC000080404F087FD0121084604F05BFDB64EDE
:100ED00003221146304604F010FC03220221304662
:100EE00004F00BFC0C20009002208DF8040003207D
:100EF0008DF8050000248DF8064001258DF8075077
:100F00006946304604F070FB4FF6FF70A74EADF80F
:100F100008400390ADF81040ADF80A4002A93046F1
:100F200005F032FA0420ADF81400C820ADF81C001A
:100F3000ADF81640ADF8185005A9304605F0DEFCB6
:100F40009B4C00231A460321204605F040FE012158
:100F5000204605F0C2FD01221146204605F09DFD08
:100F60000121304605F088FA0021204605F04EFAAE
:100F700008B070BD2DE9F04701218AB0084604F0A1
:100F80001FFD0121022004F01BFD0121032004F0BC
:100F9000F9FCDFF8149201220F21484604F0ADFB62
:100FA000DFF8108201220321404604F0A6FB022252
:100FB0000421404604F0A1FB02220521404604F032
:100FC0009CFB02268DF80460032738208DF80570FD
:100FD000002400908DF8064001258DF807506946E1
:100FE000404604F001FB8DF80460E8038DF80570BD
:100FF00000908DF806408DF807506946484604F089
:10100000F3FA4FF6FF70ADF80C4004904FF08049B2
:10101000ADF81440ADF80E4003A9484605F0B4F908
:10102000DFF894A103A9504605F0AEF94FF004088B
:101030001420ADF81880ADF82000ADF81A60ADF8B6
:101040001C5006A9484605F059FC06A9504605F073
:1010500055FC02231A460321484605F0B8FD022339
:101060001A460321504605F0B2FD0121484605F01D
:1010700034FD0121504605F030FD0122114648465D
:1010800005F00BFD01221146504605F006FD012139
:10109000484605F0F1F90121504605F0EDF900212F
:1010A000484605F0B3F90021504605F0AFF9780243
:1010B00004F0E2F91D208DF808008DF809708DF814
:1010C0000A408DF80B5002A804F0DBF91C208DF8C3
:1010D00008008DF809808DF80A408DF80B5002A8A1
:1010E00004F0CFF90AB0BDE8F08770B501218AB0ED
:1010F000084604F06FFC0121102004F043FC4FF47B
:101100002060009002208DF8040003208DF8050077
:1011100000242A4E8DF8064001258DF807506946B7
:10112000304604F061FA01220921304604F0E5FA64
:1011300001220B21304604F0E0FA4FF6FF701B4EFF
:10114000ADF808400390ADF81040ADF80A4002A990
:10115000304605F019F90420ADF814000A20ADF866
:101160001C00ADF81640ADF8185005A9304605F042
:10117000C5FB00231A460321304605F028FD012156
:10118000304605F0AAFC01221146304605F085FCE8
:101190000121304605F0A1FC012211E0000C0040C5
:1011A000000C024000080040000002400000014026
:1011B00000400140000402400004004000100240D2
:1011C0001146304605F069FC0121304605F054F91E
:1011D0000021304605F01AF94FF4C06004F04CF9D4
:1011E00019208DF820008DF821508DF822408DF8BF
:1011F000235008A804F045F980E52DE9F0418AB0B4
:101200000121042004F0DCFB0121082004F0BAFBDA
:101210004FF440500226009003208DF80460002413
:101220008DF805008DF8064001258DF807506946B8
:10123000FE4F384604F0D8F94FF6FF70DFF8F08320
:10124000ADF808400390ADF81040ADF80A4002A98F
:10125000404605F099F802220C21384604F04DFA78
:1012600002220D21384604F048FA0427C820ADF8C0
:101270001470ADF81C00ADF81660ADF8185005A953
:10128000404605F03BFB02231A460321404605F089
:101290009EFC0121404605F020FC012211464046FB
:1012A00005F0FBFB0121404605F0E6F842F2107123
:1012B000404605F0ABF8DE4814300480A8F8005032
:1012C0004FF4C06004F0D8F81E208DF820008DF88F
:1012D00021708DF822408DF8235008A804F0D1F831
:1012E0000AB0BDE8F0812DE9F0418AB00121082063
:1012F00004F066FB0121084604F044FB03200226AB
:101300008DF804608DF805000024CA4F00908DF818
:10131000064001258DF807506946384604F064F907
:101320004FF6FF70DFF81083ADF808400390ADF87A
:101330001040ADF80A4002A9404605F025F8022207
:101340000021384604F0D9F902220121384604F080
:10135000D4F90427C820ADF81470ADF81C00ADF81E
:101360001660ADF8185005A9404605F0C7FA0223EB
:101370001A460321404605F02AFC0121404605F0AB
:10138000ACFB01221146404605F087FB0121404697
:1013900005F072F842F21071404605F037F8A648A1
:1013A00014300480A8F800504FF4C06004F064F8D2
:1013B00032208DF820008DF821708DF822408DF8B4
:1013C000235008A804F05DF88AE72DE9F0419CB0AD
:1013D00001219A4804F0D6FA01210D02284604F0B2
:1013E000F9FA97480024CDE90040964802A94FF049
:1013F000080881E81101A800CDE9054040000790E8
:101400008000CDE908050AA90001012581E8310025
:101410008D4E0D94694630460E9404F0ABFD0121CB
:10142000304604F0E0FD03273C268DF858701596F1
:101430008DF85B4015A97F4804F0D6F88DF85870F8
:1014400015968DF85B4015A9804804F0CDF8380456
:10145000CDE91740B001CDE9194017A804F08FFB82
:101460001194129413942806754C0F908DF84050E7
:101470004C3C8DF841508DF850800FA9204604F067
:1014800053FB042301220221204604F0C2FB042363
:1014900002220321204604F0BCFB04230322194648
:1014A000204604F0B6FB04231A460521204604F02A
:1014B000B0FB042305220C21204604F0AAFB0423E0
:1014C00006220D21204604F0A4FB042307220E214E
:1014D000204604F09EFB042308220F21204604F03E
:1014E00098FB0121204604F011FC0121204604F064
:1014F00003FC0121204604F059FB204604F0C3FB05
:101500001CB0EEE608B54FF4E06003F0B5FF25200F
:101510008DF8000000208DF801008DF802000120F8
:101520008DF80300684603F0ACFF08BD70B50546B2
:1015300096B00121102004F04DFA0121084604F074
:1015400021FA0121880504F01DFA4FF4C0601390C0
:1015500002208DF8500000248DF852408DF8534041
:10156000344E8DF8510013A9304604F03DF807229F
:101570000921304604F0C1F807220A21304604F060
:10158000BCF80F95ADF844400C20314DADF840400B
:10159000ADF84600ADF84240ADF848400FA92846E6
:1015A00005F08BFB0121284605F0F8FB4FF4A06005
:1015B00003F062FF3A208DF854008DF855408DF805
:1015C000564001208DF8570015A803F05AFF1E4E13
:1015D0003036304604F046FC4FF000600090194869
:1015E00069461030CDE902040A200490281D0190BC
:1015F0000015CDE905408010CDE9084040020A9071
:1016000004200B9007940320CDE90C0430460E947F
:1016100004F0B0FC01224021284605F056FC0122CE
:101620001021304604F054FD012113E0000C02406B
:101630000008004000000240000C0040050040008F
:101640004C200140140300201064024000080240B6
:1016500000100140304604F0C6FC16B070BDF0B575
:101660000646012197B0480504F08CF901214D048C
:10167000284604F0A5F90121082004F083F9602030
:10168000139002208DF8500000248DF852408DF800
:1016900053408DF8510013A9FE4F384603F0A4FFC4
:1016A00007220521384604F028F80722062138468B
:1016B00004F023F80F96ADF844400C20F64EADF838
:1016C0004040ADF84600ADF84240ADF848400FA9A3
:1016D000304605F0F2FA0121304605F05FFB4FF489
:1016E000A06003F0C9FE11208DF854008DF855401C
:1016F0008DF8564001208DF8570015A803F0C1FE63
:10170000E64F384604F0AEFBA8020090402003905C
:10171000E34802903C200490301D01900015CDE973
:1017200005408010CDE908400420CDE90A50079417
:101730000320CDE90C04694638460E9404F01AFCE7
:1017400001228021304605F0C0FB01228021304675
:1017500005F0BBFB01221021384604F0B9FC012141
:10176000384604F040FC17B0F0BD70B505460121C5
:1017700096B0880404F024F90121082004F002F94D
:101780000121480504F0FEF84FF440701390022048
:101790008DF8500000248DF852408DF85340BD4E16
:1017A0008DF8510013A9304603F01EFF07220821CF
:1017B000304603F0A2FF07220921304603F09DFFC7
:1017C0000F95B84EADF84040ADF844400C25ADF84B
:1017D0004240ADF84840ADF846500FA9304605F0FC
:1017E0006CFA0121304605F0D9FA4FF4A06003F0FD
:1017F00043FE8DF854508DF855408DF85640012029
:101800008DF8570015A803F03CFEA44D783D2846FE
:1018100004F028FB4FF000600090A348CDE90204DB
:1018200008200490301D01900015CDE9054080107E
:10183000CDE9084040020A9004200B900794032051
:10184000CDE90C04694628460E9404F093FB01226E
:101850004021304605F039FB01224021304605F099
:1018600034FB01221021284604F032FC01212846D5
:1018700004F0B9FBF1E6F0B50646012197B0C804C3
:1018800004F09EF80121084604F07CF80121480587
:1018900004F078F802208DF8500000248DF85240B2
:1018A0008DF85340814F03258DF85100139513A9EE
:1018B000384603F099FE08220021384603F01DFF48
:1018C00008220121384603F018FF0F96ADF8444076
:1018D0000C20774EADF84040ADF84600ADF84240E0
:1018E000ADF848400FA9304605F0E7F90121304630
:1018F00005F054FA4FF4A06003F0BEFD0D208DF802
:1019000054008DF855408DF8564001208DF8570051
:1019100015A803F0B6FD614F603F384604F0A2FA07
:1019200078050090604869460F38CDE90204082028
:101930000490301D01900015CDE905408010CDE9DF
:101940000840400207940A900420CDE90C540B9003
:1019500038460E9404F00EFB01224021304605F07B
:10196000B4FA01224021304605F0AFFA01221021DD
:10197000384604F0ADFB0121384604F034FBF2E6B2
:101980002DE9F0418046012196B0480503F0FAFFA9
:101990000121080504F014F801210C2003F0F2FFE6
:1019A00002258DF8405000248DF84240394F04261E
:1019B0008DF843400F968DF841500FA9384603F03B
:1019C00013FE8DF840508DF842408DF84340E802F8
:1019D0008DF84150374D0F900FA9284603F004FEB3
:1019E00008220221384603F088FE08220C212846EE
:1019F00003F083FE4FF4A06003F03EFD2F208DF82E
:101A0000540005208DF855008DF8560001208DF802
:101A1000570015A803F035FDADF84C400C20264DBD
:101A2000ADF84840ADF84E00CDF84480ADF84A40DE
:101A3000ADF8504011A9284605F03FF9012128468C
:101A400005F0ACF9154F1837384604F00BFA70065C
:101A5000009040200390144869466038029031207D
:101A60000490281D01900015CDE905408010CDE9B6
:101A700008404002CDE90A0607940320CDE90C0492
:101A800038460E9404F076FA01228021284605F0AB
:101A90001CFA13E0000C024000440040A060024029
:101AA0007401002000480040420300200000024072
:101AB000004C00400008024000500040012210216C
:101AC000384604F005FB0121384604F08CFA16B0C4
:101AD00007E430B585B00121082003F053FF012150
:101AE000880303F077FF00240C208DF810400125B7
:101AF00003908DF8135003A9FE4803F075FD0221F1
:101B0000032005F04CFA042000908DF804401020CA
:101B10008DF805008DF80650684604F041FB08205A
:101B20008DF808008DF809408DF80A408DF80B50AB
:101B300002A803F0A6FC05B030BD10B5012810D0F6
:101B4000032819D0042822D0052809D1EA4C2046C0
:101B500005F04AF94021204605F0D7F90028F9D0D0
:101B600010BDE64C204605F03FF94021204605F027
:101B7000CCF90028F9D010BDE14C204605F034F92D
:101B80004021204605F0C1F90028F9D010BDDD4CF8
:101B9000204605F029F94021204605F0B6F9002835
:101BA000F9D010BDD84900204862D8490861D84909
:101BB0000860D849C8647047D34900204862D349B7
:101BC00008614FF0804250624861D34A10608861DA
:101BD000CF490860CF49C86470474FF0804100206A
:101BE0004862CA4948617047CB4900200860C7492C
:101BF0008861704770B5C54D0020E87004466121CA
:101C00000120FFF79AFF3220FEF735FF641C022CFB
:101C1000F5D30120E8707A20A87070BD70B5BB4D77
:101C200000206871044661210320FFF786FF3220FF
:101C3000FEF721FF641C022CF5D3012068717A2085
:101C4000287170BD2DE9F14F96B0002014908DF8E9
:101C50000000B24C8DF828004FF40045169AAB49AD
:101C6000AC486E1027154FF480584FF40059122AD3
:101C70006BD2DFE802F009262C3034383C4044486F
:101C80004E52575D61656DFD088901280CD0012217
:101C90002946204603F026FD2946204603F014FD80
:101CA000014600229EA04EE000222946204603F075
:101CB00019FD2946204603F007FD01460022A0A099
:101CC00041E0924801228030C16EA5A03BE0016D49
:101CD0000222A5A037E0416D0322A7A033E0C16D29
:101CE0000422A8A02FE0816D0522A9A02BE00622E6
:101CF000C969AAA027E0016E0722ABA023E00C224D
:101D0000096AACA01FE0FEF74AFE01460922ADA019
:101D100019E0C16E0822ADA015E0AE4801680B22A3
:101D2000ADA010E0FEF78DFE01460A22ADA00AE04C
:101D3000816E0D22ADA006E00E22896AAFA002E0FE
:101D4000416E1022B0A0FEF76BFC17B0BDE8F08F1B
:101D5000DFF8BCA20121504603F0ACFC0246ADA165
:101D6000684606F097FF69460AA806F067FC02215C
:101D7000504603F09FFC0246A6A1684606F08AFF83
:101D800069460AA806F05AFC3146504603F092FC18
:101D90000246A0A1684606F07DFF69460AA806F043
:101DA0004DFC2946504603F085FC024699A1684641
:101DB00006F070FF69460AA806F040FC082150466C
:101DC00003F078FC024693A1684606F063FF69467B
:101DD0000AA806F033FC4FF48071504603F06AFC09
:101DE00002468CA1684606F055FF69460AA806F02F
:101DF00025FC0421504603F05DFC024685A168469F
:101E000006F048FF69460AA806F018FC80215046F3
:101E100003F050FC02467FA1684606F03BFF69468E
:101E20000AA806F00BFC4021504603F043FC024692
:101E300078A1684606F02EFF69460AA806F0FEFB68
:101E40003946504603F036FC024672A1684606F059
:101E500021FF69460AA806F0F1FB4146504603F00F
:101E600029FC02466BA1684606F014FF694600E0B3
:101E7000DCE00AA806F0E2FB4D464946504603F076
:101E800019FC024663A1684606F004FF69460AA8E9
:101E900006F0D4FB2021504603F00CFC02465DA165
:101EA000684606F0F7FE69460AA806F0C7FB10214F
:101EB000504603F0FFFB024656A1684606F0EAFED4
:101EC00069460AA806F0BAFB2946204603F0F2FB51
:101ED000024650A1684606F0DDFE69460AA806F0F3
:101EE000ADFB3146204603F0E5FB024649A16846BA
:101EF00092E00000000C0240005000400010014041
:101F000000480040004C004000000140000000205C
:101F10002408004000010020240400400008024082
:101F2000524F424F5420322044414E4720434841B3
:101F3000592053414E20444F3A20202000000000F9
:101F4000524F424F5420322044414E472043484193
:101F5000592053414E2058414E483A20202000003D
:101F6000494D553A000000004C415A45525F4241EC
:101F7000545F424F4E473A004C415A45525F5341DD
:101F8000553A00004C415A45525F504841493A0089
:101F90004C415A45525F545241493A004249454EDC
:101FA0002054524F20593A004249454E2054524F36
:101FB00020583A004249454E2054524F204D414D41
:101FC0003A000000454E5F464C3A000054414D5FD8
:101FD0005900000034040140536572766F5F43611D
:101FE0006D3A0000544F4E473A00000053494C4FA1
:101FF0005F5448415F424F4E473A000054616D20A4
:1020000053494C4F3A00000054414D5F58000000C6
:10201000001002402564000006F03CFE69460AA854
:1020200006F00CFB0F220AA9F9A0EAE03946F948AC
:1020300003F04AFB0246AFF22401684606F02AFE8E
:1020400069460AA806F0FAFA8021204603F03CFB14
:102050000246AFF24001684606F01CFE69460AA837
:1020600006F0ECFA4FF40071204603F02DFB024617
:10207000AFF26001684606F00DFE69460AA806F058
:10208000DDFADFF894A33946504603F01DFB024603
:10209000AFF28001684606F0FDFD69460AA806F029
:1020A000CDFA4FF4006B5946DA4803F00DFB0246B7
:1020B000AFF2A001684606F0EDFD69460AA806F0F9
:1020C000BDFA44464146D34803F0FEFA0246AFF259
:1020D000BC01684606F0DEFD69460AA806F0AEFAC5
:1020E0004946CC4803F0F0FA0246AFF2D801684600
:1020F00006F0D0FD69460AA806F0A0FA3146C548A8
:1021000003F0E2FA0246AFF2F401684606F0C2FDBF
:1021100069460AA806F092FA2946BE4803F0D4FAA6
:102120000246AFF21011684606F0B4FD69460AA8EF
:1021300006F084FA3946504603F0C6FA0246AFF27A
:102140002C11684606F0A6FD69460AA806F076FA44
:102150003146504603F0B8FA0246AFF248116846DD
:1021600006F098FD69460AA806F068FA59465046F6
:1021700003F0AAFA0246AFF26411684606F08AFD3F
:1021800069460AA806F05AFAA44D4FF48071284611
:1021900003F09AFA0246AFF28411684606F07AFD1F
:1021A00069460AA806F04AFA5946284603F08CFA0E
:1021B0000246AFF2A011684606F06CFD69460AA817
:1021C00006F03CFA2146284603F07EFA0246AFF2BA
:1021D000BC11684606F05EFD69460AA806F02EFAB4
:1021E00040218C4803F070FA0246AFF2D8116846DD
:1021F00006F050FD69460AA806F020FA11220AA945
:1022000087A0FEF76CFAA0E50121874803F0EBBE3A
:1022100011B48648816C009A914201DD002101E0F1
:10222000816C491C8164806C18BC0BE52DE9F0477A
:102230000025794E074601244FF400594FF4804899
:102240004FF4805A00224146304603F04BFA1020EA
:10225000FEF705FC274201D0012200E0002249469A
:10226000304603F03FFA01224146304603F03AFA85
:102270001020FEF7F4FB5146304603F01BFA00B184
:102280002543600010F0FF04DCD12846BDE8F0874C
:1022900070B5614E4FF4004500222946304603F0E8
:1022A00021FA1020FEF7DBFB0120FFF7BFFF4220E1
:1022B000FFF7BCFFFF20FFF7B9FFFF20FFF7B6FFD6
:1022C0005A4CB0342070FF20FFF7B0FF6070FF2041
:1022D000FFF7ACFFA070FF20FFF7A8FFE070FF2022
:1022E000FFF7A4FF2071FF20FFF7A0FF60712946D0
:1022F0003046BDE87040012203F0F4B970B5464E97
:102300004FF4004500222946304603F0EBF9102037
:10231000FEF7A5FB0120FFF789FF4220FFF786FFAC
:10232000044601222946304603F0DCF91020FEF76E
:1023300096FB204670BD3E4A00211167C2793B4999
:10234000B0310D2A09D0FF20087048708870C8701D
:102350000871487188710020704702780A704278CD
:102360004A7082788A70C278CA7002790A7142799A
:102370004A7180798871012070472C482C49B0300F
:102380000278FF2A05D14278FF2A02D18278FF2AFB
:1023900009D00A6F531C0B67C82A03DDFF210170A7
:1023A0004170817070470020086770471F48B03047
:1023B000807970471D48B0300078400601D4012074
:1023C0007047002070471948B0300078800701D46A
:1023D000012070470020704770B5144C0125803CE7
:1023E000002604F1F403002803D006DDD8709D70A8
:1023F00007E094F82400D87003E0C0F10000D87022
:102400009E70002916D019DDD9719D711AE0000067
:10241000493A000000040240000C02400000024063
:102420004F55543A00000000A06002400001002017
:102430000000002094F82400D87103E0C1F10000EE
:10244000D8719E71002A03D006DDDA729D7270BDCC
:1024500094F82400D87270BDC2F10000D8729E7248
:1024600070BDFE49C870C871C8727047FB49012031
:10247000F43908627047F948C178032907D2C17955
:10248000032904D2C07A032801D20120704700201A
:102490007047F248F438C06CA0F5EA41303901D0F9
:1024A0000120704700207047FFF7A4BBEC48B0F94B
:1024B0000C0040427047EA48B5EEC00AD0ED1E0A53
:1024C000F1EE10FA02D230EE600A01E030EE200A9E
:1024D000BDEEC00A10EE100A704710B5041EE048A9
:1024E0002DED048B00F180009FEDDE8B11D0806B11
:1024F00014DA06F04AFA41EC190B204606F045FAC8
:1025000053EC182B06F060F953EC182B06F056F933
:1025100013E09FEDD60ABDEC048B10BD06F035FA32
:1025200041EC190B204606F030FA53EC182B06F05C
:102530004BF953EC182B06F0A0F853EC192B06F0CE
:10254000B5F906F046FA00EE100AE4E7B5EEC00A67
:10255000F1EE10FA01DAB1EE400A7047002800DA15
:1025600040427047BE49803191ED060AD1ED071A0D
:10257000F1EE400A80EEA11A00EE900AF8EEE00AB1
:1025800001EE200ABDEEC00A10EE100A7047F0EE10
:10259000401A9FEDB70AF5EEC01AF1EE10FA01D21B
:1025A000F1EE611AF5EEC00AF1EE10FA01D2F1EE89
:1025B000600AB5EEC01AF1EE10FA01D2B1EE411A7E
:1025C000F4EEC01AF1EE10FA01DDB0EE610AF4EE9D
:1025D000C00AF1EE10FA01DDB0EE600AB4EEC01AE6
:1025E000F1EE10FA01DDB0EE410A70479C488030F0
:1025F000806B70479A488030406E704770B5984C39
:102600002DED068B8034B0EE408A04F18005E06C3D
:10261000A0F5EA4130397ED0A26DE16ED4ED170A03
:10262000891A401A00EE100A94ED011A206EB8EED5
:10263000C00A00EEC10AD4ED000AC0EE208A06F0FE
:10264000B5F994ED0B0A41EC190B20EE280A10EEB7
:10265000100A06F0ABF941EC100B06F049FB9FEDB8
:1026600085AB51EC100B53EC1A2B06F0ADF853EC84
:10267000192B06F0A3F806F0ACF9A067206E06F05F
:1026800095F994ED020AD4ED0B0A41EC190B38EEE2
:10269000800A20EE200A10EE100A06F087F941ECBD
:1026A000100B06F025FB9FED751B51EC100B53EC46
:1026B000112B06F089F853EC192B06F07FF806F081
:1026C00088F9E06794ED030AD4ED0B0A38EE800A2E
:1026D00020EE200A10EE100A06F068F941EC100B0B
:1026E00006F006FB53EC1A2B51EC100B06F06CF8BD
:1026F00006F06FF9C5F80000B5EEC08AF1EE10FAE9
:1027000038D0606B80B1012814D0022819D003287A
:1027100030D123E0FFE79FED550A85ED000A84EDF7
:102720001F0A84ED1E0AE7E794ED1E0A30EE480A00
:1027300084ED1E0A94ED1F0A30EE480A84ED1F0A4C
:1027400005E094ED1E0A30EE480A84ED1E0A95ED70
:10275000000A30EE480A85ED000A0BE094ED1E0AEF
:1027600030EE480A84ED1E0A94ED1F0A30EE480A46
:1027700084ED1F0A95ED001AD4ED1F0A94ED1E0A90
:10278000FFF705FF3648D0ED1D0AF8EEE00A80EEAF
:10279000801ABDEEC10A10EE100A2064A16B8142BE
:1027A00000DDA06301202063BDEC068B70BD2C49C9
:1027B000002280310028CA6348640FD18A639FEDEC
:1027C0002B0A47F2305081ED180AC864086581ED84
:1027D000170A4A634A654A660A620FE7704720484B
:1027E000803090ED170AB5EEC00AF1EE10FA04D170
:1027F000416B11B9416D002909D000219FED1B0AE1
:1028000080ED170A41634165C16E8165F6E6704748
:1028100013488030C0ED060A80ED070A7047104A61
:102820008032D36C834209D1D36B8B4206D1D2ED77
:10283000180AF4EE400AF1EE10FA23D0D163916B3E
:1028400009B905219163D16E916582ED180AD064B2
:102850000020906492ED170AD0E600007401002079
:10286000000000209A9999999999B93F00000000B9
:102870006F12833A00000000000000C0000000005A
:10288000000000407047FF4A30B4536D834209D1C5
:10289000D2ED170AF4EE400AF1EE10FA02D1536BB2
:1028A0008B4226D0D46C47F230539C4219D132244B
:1028B000D46305249463984213DAB5EEC00A012369
:1028C000F1EE10FA536602DDD36E834207DCB5EEFB
:1028D000C00AF1EE10FA04D2D36E834201DAB1EEEF
:1028E000400A5163506582ED170A0020906430BCA5
:1028F00084E630BC7047014647F23050C3E71FED15
:10290000250A8CE710B5DF4C2DED028BF0EE608AC6
:10291000D4ED140AB0EE418AF8EEE00AF4EE400A73
:10292000F1EE10FA0BD1E16B814208D1D4ED150A1A
:10293000F8EEE00AF4EE680AF1EE10FA4BD0FDEE84
:10294000C00A0146C4ED140AD4ED1B0AF8EEE00AF1
:1029500030EE600ABDEEC00A10EE102A1FED3D0AEF
:102960001046FFF75CFF94ED1B0AF8EEC00A78EE04
:10297000E00AFDEEE00A10EE900A002800DA40427C
:10298000B8EEC00A642819DDF4EEC08AF1EE10FA40
:1029900001DCB1EE488A18EE100A06F007F800BF15
:1029A00006F017F8FDEEE80ABDEC028B00EE100A07
:1029B000BDE81040002110EE900A64E738EEC00A2E
:1029C00010EE100A05F0F2FF9FEDAF1B53EC112B38
:1029D00005F0FAFEE4E7BDEC028B10BD10B5A94C82
:1029E000606E01282FDDE16E606D401AFFF7B6FDC5
:1029F0000A2812DA0020A0631FED640AE06384ED68
:102A0000170AFFF7FBFD606E411C6166B0F5FA7FA7
:102A100019DDBDE810400020C9E60520616EE063C5
:102A2000FA29A06301DDFB206066616DE06E8842DB
:102A300002DDBFEE000A01E0B7EE000A84ED170ADE
:102A4000BDE81040DAE510BD8E4910B591ED180AC9
:102A5000B5EEC00AF1EE10FA72D18A6B002A6FD07F
:102A6000486D47F2305398426ADA91ED170AB5EE95
:102A7000C00AF1EE10FA7CD0CC6C9C4261D1B5EE6C
:102A8000C00AF1EE10FA04DD4A69CB6E821A9A424E
:102A900009DBB5EEC00AF1EE10FA17D24A69CB6E27
:102AA00002449A4212DD4A6E032A49DAC01AFFF73D
:102AB00055FD0A28486D0ADA8866002088631FEDF4
:102AC000950AC86381ED170A022048667BE091ED04
:102AD0000E0AD1ED170A6B4AB8EEC00ACB6E803AE7
:102AE000984260EE200A91ED050AB8EEC01A80EE19
:102AF000810A0FDDFFF72AFDCB6E486DC01AFFF784
:102B00002DFD00EE900AB8EEE01AD2ED1F0A40EE5D
:102B1000010A0EE0FFF71AFDCB6E486DC01AFFF7F1
:102B20001DFD00EE900AB8EEE01AD2ED1F0A50EE3D
:102B3000410A91ED0E0AB8EEC01A80EE810A42E019
:102B400046E0B5EEC00AF1EE10FA1ADD00EE900A8A
:102B5000B8EEE01A00EE902AF8EEE00A00EEC01A95
:102B6000D1ED040AF8EEE00A31EE601AD1ED1B0A4D
:102B700000E02BE0F8EEE00AB4EEE01AF1EE10FA15
:102B80001DD3B5EEC00AF1EE10FA1CD200EE900A89
:102B9000B8EEE01A00EE902AF8EEE00A00EEC01A55
:102BA000D1ED040AF8EEE00A31EE201AD1ED1B0A4D
:102BB000F8EEE00AB4EEE01AF1EE10FA03DDC96EA9
:102BC000401AFFF78AFCBDE8104017E5886DF6E76C
:102BD00010BD2C48416E02290CDA1FEDDC0A0022E0
:102BE00080ED180A80ED170A47F230514263C16444
:102BF000C0E91412826C521C8264816A8A4202DB30
:102C00008164016A09B1406A00E0002029E41D4A9C
:102C1000936C5B1C9364834204DD906B0844906367
:102C200000209064704710B5FFF740FC154CE0663B
:102C3000FFF7D4FEE26BA06B4FF0FF31002A0BDDF3
:102C400090420ED006DA216C88420ADAFFF78AFC3D
:102C5000012104E0606F02E000283ADD606CFFF7BC
:102C6000D6FFD4E91B01814203D0FFF7EDFEE06EF1
:102C70002067206B00282FD094ED0E0A0148B8EE93
:102C8000C00A05E0800000207B14AE47E17A743F63
:102C90008030D0ED000A20EE200AFFF70CFC94ED06
:102CA0000E0AD4ED1F0A0246B8EEC00A20EE200A32
:102CB000FFF701FC94ED0E0AD4ED1E0A0146B8EEB2
:102CC000C00A20EE200AFFF7F6FBBDE81040FFF730
:102CD00083BBBDE810407CE710BD70B5FB4D0646D8
:102CE000E86D801AC0EB0010FFF738FC04464FF483
:102CF0001670844200DD04469FEDF51A9C4207DA07
:102D000000EE101A3046F8EEC00A9FEDF20A0FE00E
:102D100000EE101AE86DF8EEC00A9042304603DD6E
:102D2000614200EE101A01E000EE104AB8EEC00A4F
:102D3000BDE87040E6E570B5E44D0646A86D801A22
:102D4000C0EB0010FFF70AFC04464FF416708442F3
:102D500000DD04469FEDDE1A9C4207DA00EE101AF1
:102D60003046F8EEC00A9FEDDB0A0FE000EE101AC5
:102D7000A86DF8EEC00A9042304602DD00EE104A1F
:102D800002E0614200EE101AB8EEC00ABDE87040E1
:102D9000B8E530B4CD4CE46DA41A01D4224600E06D
:102DA0006242C2EB02124FF4FA75AA4200DD2A46D3
:102DB0009FEDC71A9C420ADD00EE101AA2F5E162EF
:102DC000F8EEC00A00EE102AB8EEC00A13E05B422B
:102DD0009C420ADAC2F5E16200EE102A00EE901A77
:102DE000B8EEC00AF8EEE00A05E000EE101AF8EEC0
:102DF000C00A9FEDB90A30BC84E530B4B34CA46D71
:102E0000A41A01D4224600E06242C2EB02124FF43F
:102E1000FA75AA4200DD2A469FEDB01A9C420ADDEF
:102E2000C2F5E16200EE102A00EE901AB8EEC00A78
:102E3000F8EEE00A0FE000EE101A5B429C42F8EE5A
:102E4000C00A06DAA2F5E16200EE102AB8EEC00A66
:102E500001E09FEDA10A30BC54E52DE9F0419B4B08
:102E6000B0332DED028B9878401FF52801D801244E
:102E700000E000241879401FF52801D8012500E062
:102E80000025924A187802F1B002C10652780FD597
:102E900041060DD581060BD5010609D544B13DB1DA
:102EA000910605D5BDEC028B0020BDE8F0417EE423
:102EB0005107DFED8B8A03D42321B0EE688A02E04C
:102EC0000A219FED868A9846804EC306A6F18006A9
:102ED00047F230574FEA40630CD4002B54DA830694
:102EE0004FEA006027D500284FEAC2702ADA98B36B
:102EF000002034E0002B4FEA80630BDB002B4FEA0D
:102F0000006022DA00284FEAC27026DA20B34FF4BC
:102F1000E16024E0002B4FEA006006DB002833DA92
:102F2000D00731D04FF4617019E0002823DBD007BF
:102F30002AD06C4813E0002826DAD00724D04FF4BA
:102F4000E1700CE040B1684809E000281CDAD007C5
:102F50001AD040F2465002E016E0A8B16348FFF7ED
:102F6000CEFC98F80000C1060ED541060CD58106AE
:102F70000AD5000608D584BB3DB1F06CB84204D038
:102F80000020FFF714FC00E03CBB98F8021040461C
:102F900005290DD24278D2070AD0F06CB8424FF022
:102FA000000002D09FED520A12E0B1EE480A0FE095
:102FB000FA2913D998F80100C0070FD0F06CB84275
:102FC0004FF0000002D0B0EE680A01E0B0EE480A0F
:102FD000BDEC028BBDE8F0418DE4FFE7BDEC028B58
:102FE000BDE8F041FFF7FBBB70B538486423414AA8
:102FF0000569691C016101464C690021642D03D2F9
:10300000D5892C44446104E0B4FBF3F40161046508
:10301000416185696C1C84612C4C642DE46903D288
:1030200095892C44C46104E0B4FBF3F481614465E8
:10303000C161056A6C1C0462244C642D646A03D26D
:1030400015892C44446204E0B4FBF3F40162C465C6
:103050004162856A6C1C84621C4C642DE46A03D254
:1030600053892344C36204E0B4FBF3F381628365B4
:10307000C162056B6B1C0363144B5C6B3223322DF6
:1030800003D215882C44446304E0B4FBF3F40163D9
:1030900004664163856B184E6C1C84630B4C322DA7
:1030A000E46B03D255882C44C46304E0B4FBF3F40E
:1030B000F4618163C163056C6C1C0464034C322DA4
:1030C000646C1BD2918821441CE0000000010020A8
:1030D000CDCCCC3D000000000000E144CDCC4C3E06
:1030E0009A99993E7CFCFFFF3EFEFFFFBAFAFFFF74
:1030F0009A9999BE1403002000000020B4FBF3F25B
:1031000032620164416470BD30B4FE4D029C1FED1B
:103110000C1AAD6DEB1AA34204DD00EE102AF8EE96
:10312000C00A07E06442A34209DA00EE102A4942CD
:10313000F8EEC00A00EE101AB8EEC00A07E000EE82
:10314000102A1FED1D1AF8EEC00A1FED1E0A30BC32
:10315000FFF7D8BB30B4EB4D029C1FED231AAD6DC9
:10316000EB1AA3420ADDC1F5167100EE101A00EE4B
:10317000902AB8EEC00AF8EEE00A0FE000EE102A3E
:103180006442A342F8EEC00A06DA01F5167100EEB9
:10319000101AB8EEC00A01E09FEDDB0A30BCFFF761
:1031A000B1BB70B5D94D0121284602F083FAD84C45
:1031B00060B1A079C043A07102E0012004F0CDFE0F
:1031C0000121284602F076FA0028F6D0A279D148EB
:1031D0004FF4806122B10022BDE8704002F082BA53
:1031E0000122F9E7F0B5CA48022400F5BA72816CF1
:1031F000C369C8398B4246DB066B016CB14200DA09
:103200000664036C416B8B4200DD0164036A012597
:103210000A27B34201DA957303E000268B4202DDF0
:103220009673D773F0BD076CD91B01D48C4601E0AF
:10323000C1F1000CBCF1050F25DDBB4201DD967329
:1032400000E09573002900DA4942AE4B5960C46A28
:1032500004EBD4704010642C01DD642500E00546C9
:103260008D4201DB084603E0642C00DD64205860D9
:10327000142805DAC82C01DC052000E01420586071
:103280001879D073F0BDD473F0BDF0B5A049D1E981
:103290001304A04200DACC64D1E91202824200DDBC
:1032A000C864984ACB69002532267432A34201DAF9
:1032B000957503E00124834202DD9475D675F0BD57
:1032C000CE6C981B01D4074600E04742052F15DD60
:1032D000B34201DD947500E09575FFF73FF94300B7
:1032E00088484360C96A8B4201DD416003E00F2BCF
:1032F00001DA0F21F9E70079D075F0BD0220FBE774
:1033000080488349B0304279C86CFA2A04D90B6DE1
:10331000984201DD401E05E0052A07D28A6C9042E2
:1033200004DA401CC864C82004F017BE7047F0B52A
:103330007749D1E91650A84200DACD654E6DC86DC7
:10334000B04200DDCE656F4B01243227186E03F1C9
:103350007402A84201DA947403E00025B04202DD51
:103360009574D774F0BDCE6D801BFFF7F7F8022877
:1033700017DD186ECE6DB04201DD957400E09474D7
:10338000801BFFF7EBF840005860C96A884200DDF7
:10339000596058681E2801DA052058601879D074E1
:1033A000F0BD0220FBE770B501225A4DD60231462E
:1033B000284602F097F900222915284602F092F9D2
:1033C000534C206DE06440F2DC5004F0C6FD07E091
:1033D0004B30814204DA01223146284602F082F95C
:1033E000206DE16900F10A029142F1DC41F288307E
:1033F00004F0B3FDA06CE06402E0012004F0ADFD38
:10340000A06CE16932388142F7DB00203D4E6062FA
:10341000306DFA2801DA012500E00025052004F0CE
:103420009CFD606A401C60623228F1DB284670BD5A
:10343000374810B5816C0A39C164416EC165816B32
:1034400001643549C06E0860091D40F26C70086067
:10345000304C0022C914204602F044F90022211504
:103460002046BDE8104002F03DB92B4C40F2A46567
:1034700025604FF47A7740F6B836206864382060CB
:103480002068B84203D92560304604F066FDC820A4
:1034900004F063FDF1E70020FFF789F94FF47A7437
:1034A000204604F05AFDFBE770B51C4DFF2128466D
:1034B00003F09AFC0A2004F050FD154C284621899F
:1034C00003F092FC0A2004F048FD6189284603F0CD
:1034D0008BFC0A2004F041FD0F480068642180B293
:1034E000B0FBF1F1284603F07FFC0A2004F035FD23
:1034F0002189044801291AD0B0F85C00C0F34E01BC
:1035000028460DE000010020000016440010024093
:103510000000002000040240340401400048004044
:1035200003F062FCBDE870400A2004F016BDB0F85C
:103530005800E3E72DE9F05FDFF800A414264624E5
:103540007D250027C821CAF82C10FD4940F2A4604F
:103550004FF00A080860DAF84810E800CAF84C1082
:1035600004F0FBFC00210AF5807BCAF8241076E009
:103570004FF000095BE000BFAA194FF000099A4222
:1035800009DDFEF7EBFF0A2290FBF2F2DAF8403099
:103590009A1A521E0BE0AA1B9A420ADAFEF7DEFFC5
:1035A0000A2290FBF2F2DAF840301A44521CCAF8B0
:1035B0004020C86E04EB080282420ADD001BFEF7C1
:1035C000CDFF052290FBF2F2DAF85C309A1A521E17
:1035D0000DE0A4EB080282420BDA001BFEF7BEFFEF
:1035E000052290FBF2F2DAF85C301A44521CCAF859
:1035F0005C20486EC96E084307D0DAE91621914273
:1036000003DDDAF8540081420DDB3846DAF8201089
:103610007F1CCAF84010142805DDFA20CAF82C00D7
:103620000020BDE8F09F4FF4C87004F096FCDBF872
:1036300064305946581B01D4024600E04242B2426F
:103640009ADCCA6E121B00D55242424594DC09F145
:1036500001090A2004F081FCB9F1640FE7DBDBF813
:1036600064005946401B00D54042B04280DCC86E21
:10367000001B00D540424045F8DC642004F06DFC9E
:10368000DAF82400401CCAF824000A28E7DBFA20F4
:10369000CAF82C000120C4E72DE9F14F2DED028B73
:1036A000FFF7C6FEDFF894B2DFF894A20BF1800BAF
:1036B0009FEDA48ADFEDA48AA04F0BF180044FF0A8
:1036C0000A0900224FF40061A04802F00BF8B86B21
:1036D0003864B86CF864092600257E814FF47A704E
:1036E00004F03BFCA84679E0E80714D040F2A4605F
:1036F000CAF80000A7F80A904FF47A7004F02DFC85
:103700007E8140F6B83004F028FCE16E606E6D1CDE
:10371000084305D01FE04FF48C61CAF80010E9E7B8
:1037200002984FF000010128B6EE000A05D0A8F576
:10373000487000BFFFF7A7F805E008F54870F9E703
:10374000012004F00AFCE16E606E084303D1DBF84F
:1037500064000028F4D10020FFF729F8E16E606EC4
:1037600008431AD102984FF000010128B6EE000A72
:1037700005D008F5487000BFFFF785F805E0A8F50B
:103780004870F9E7012004F0E8FBE16E606E084341
:1037900003D1DBF864000028F4D10020FFF707F81C
:1037A000E16E606E084317D140F2DC51CAF8001098
:1037B0000021B6EE000A4046FFF765F802E001205E
:1037C00004F0CBFBDBF864000028F8D1FEF7EFFF34
:1037D00040F6B83004F0C1FB0A2D04DC606E10B96D
:1037E000E06E002880D00020FEF7E1FF14E07D2885
:1037F00004DA4FF00000BEEE000A04E006DD4FF0F0
:103800000000B6EE000AFFF776F801E0FEF7E7FFEA
:10381000E16E606E084374D0606E7D38FEF79EFEE8
:103820000A2802DD606EFF28E1D10020FEF7BFFF0D
:10383000554640F2A46650E0E06E502815DD286839
:10384000B04212D2286840F2AA518842286801D2B8
:10385000801C00E0001D2860286840F272618842E8
:1038600000D92E60142004F078FB606E872803DDF9
:103870000020B0EE480A04E0732805DA0020B0EE1C
:10388000680AFFF738F801E0FEF7A9FF2868192158
:10389000A0F58C60B0FBF1F0FEF760FEC0F1160100
:1038A000072900DA0721E26E606E104329D04FF439
:1038B000E160FFF724F82868B042BDD32868B04221
:1038C00005D1E06E462802DA606EFF28B4D10020F0
:1038D000FEF76DFF642004F040FB2868B042EAD395
:1038E0002868B04205D1E06E462802DA606EFF28F3
:1038F000E1D10020FEF75BFF4FF47A7004F02DFB5E
:103900004BE065E078294FF0000002DDB0EE480A98
:1039100001E0B0EE680AFEF7EEFFE16E606E08436C
:1039200056D0606E01467D3800D540422828E9DC3B
:103930000020FEF73CFF4FF4E1651EE00000002090
:1039400034040140CDCC4C3ECDCC4CBE00040240F2
:10395000462903DA4FF00501284604E006DD4FF062
:1039600005014FF00000FEF7CAFF02E00020FEF75D
:103970001EFFE16E606E08432AD0606E7D3800D570
:103980004042282806DCE06E0146463800D5404219
:103990000F28DDDC0020FEF70AFF606E7D3800D5C1
:1039A00040422828BDDCE06E463800D540420F2852
:1039B000B7DC0020FEF7FBFEFFF7BCFD40B10020A6
:1039C000FEF7F5FEA7F80A90FFF7EDFC002803D1FB
:1039D0000020FEF7ECFE74E6BDEC028BBDE8F88F2C
:1039E0002DE9F0410F46FC49FC4E2DED048B51F8BA
:1039F0002040308900219FEDFA9A9FEDFA8ADFED91
:103A0000FA8ADFEDFA9A06F58075012802D00228BD
:103A10007DD0F7E071626AE0A86D84422FDD47B186
:103A2000B0EE681AF0EE690A4FF00A00B0EE480AEC
:103A30004DE0A0EB0400FEF791FD02461E2800DDDC
:103A40001E22E968686D401AFEF788FD00EB8000D1
:103A50004100EB68686DB0EE681A9842F0EE690AB2
:103A600002F1050002DDA1F5617102E001F561716D
:103A7000494200EE101A00BFB8EEC00A27E033DA60
:103A80003FB1B0EE681AF0EE690A0A20B0EE490ABA
:103A90001DE0001BFEF762FD01461E2800DD1E2111
:103AA000EA68686D801AFEF759FD00EB800042005D
:103AB000EB68686D98420DDDC2F5617000EE100A8A
:103AC000B0EE681AF0EE690AB8EEC00A481DFEF7BB
:103AD00019FF0CE002F56172B0EE681AF0EE690AA7
:103AE000481D00EE102AC7E70020FEF760FEA86D13
:103AF000001BFEF733FD03288EDC012004F02DFAB5
:103B0000706A401C70623228F1DB7BE0FFE7716273
:103B10006AE0E86D844231DD47B1B0EE681AF0EE3C
:103B2000690A4FF00A00B0EE490A51E0A0EB040028
:103B3000FEF714FD41001E2900DD1E21EA68686DB4
:103B4000801AFEF70BFD00EB80004200EB68686D09
:103B500098420BDDC2F5617000EE100AB0EE681AF3
:103B6000F0EE690AB8EEC00A481D31E0B0EE681AFE
:103B7000F0EE690A481D02F5617224E031DA3FB1C6
:103B8000B0EE681AF0EE690A0A20B0EE480A1FE0AB
:103B9000001BFEF7E3FC41001E2900DD1E21EA6840
:103BA000686D801AFEF7DAFC00EB80004200EB68DB
:103BB000686DB0EE681A9842F0EE690A01F10500EE
:103BC00009DDA2F5617200EE102A00BFB8EEC00A4E
:103BD000FEF798FE08E002F56172514200EE101AFD
:103BE000F4E70020FEF7E3FDE86D001BFEF7B6FCEE
:103BF00003288EDC012004F0B0F9706A401C70626A
:103C00003228F1DBBDEC048B0020BDE8F041FEF76B
:103C1000CEBD2DE9F0410546FDF7CEFF744E0122E1
:103C20009102304601F05EFD01212846FFF7D8FEE3
:103C30000020FEF7BCFD0A210020FEF760FE674C65
:103C400000206C4F606202E00A2004F086F9042133
:103C5000384601F02FFD0128F6D0606A401C6062F2
:103C60003228F4DB00224FF40061304601F03AFDC7
:103C70004FF47A766581304604F06FF90520608153
:103C8000304604F06AF954484FF461714F4250F8DD
:103C900025602089584D012814D002282CD032E00C
:103CA000A86D864203DD4FF00501384603E005DAD2
:103CB0004FF005014046FEF722FE04E00020FEF72B
:103CC00076FD00E08846A86D801BFEF747FC0128C2
:103CD000E6DC18E0E86D864203DD4FF00501404662
:103CE00003E005DA4FF005013846FEF708FE04E070
:103CF0000020FEF75CFD00E08846E86D801BFEF7C3
:103D00002DFC0128E6DC0020FEF751FD40F6B8301E
:103D100004F023F9606DE065BDE8F08130B52F490E
:103D20000F24354AC86B4FF42F730F38086402E034
:103D3000106D98420DDB0D6C086A401BFEF70EFCFF
:103D40000528F5DCC86B2044086406E0106D984235
:103D500003DAC86B0864012030BD0C6C086A001BD4
:103D6000FEF7FCFB0528F1DCC86B0864002030BDC1
:103D70002DE9F041194C0F460546E06B2064002107
:103D80002846FFF72DFEFFF7C9FF10B36E1C09E0B0
:103D9000E06B206400213046FFF722FEFFF7BEFFF4
:103DA00018B1761C1FB1052002E03046B4E70420AC
:103DB000B042EDDC6D1E77B10020A84220DCE06B44
:103DC000206400212846FFF70BFEFFF7A7FF00281D
:103DD000F0D12846A0E711E04C03002000000020AD
:103DE00000006144000061C46666663F0000000098
:103DF0000004024000100240000100200120DCE726
:103E00000125BAE72DE9F047FF4E0746FF4C56F86B
:103E100027800020894604F580756062208901288A
:103E20000DD01EE01E3081424FF0020342464FF09B
:103E3000000101DD1E2000E00F20FEF77CFF696D10
:103E4000E8688142EEDC10E01E3081424FF0020350
:103E500042464FF0000101DD1E2000E00F20FEF77A
:103E60003CFF696DE8688142EEDC052004F075F8DE
:103E7000606A401C60623228D0DB49463846FFF752
:103E800077FF05464FF47A770A2815D056F8256053
:103E90000020FEF78CFCE06B012220649102DC48DC
:103EA00001F020FC40F6B838404604F056F820896E
:103EB000D84C01281CD028E0FDF77EFE0A214FF4E3
:103EC000E160FEF71CFD02E00A2004F046F8FCF772
:103ED000B8FDB842F8DB0020FEF769FC384604F074
:103EE0003CF8FBE70223324600210F20FEF723FFB8
:103EF0000421204601F0DEFB0128F3D00BE0022371
:103F0000324600210F20FEF7E8FE0421204601F092
:103F1000D1FB0128F3D00020FEF749FC0A21002044
:103F2000FEF7EDFC404604F018F80020FEF73FFCD9
:103F300061210120FDF701FE384604F00EF8284605
:103F4000BDE8F087B1480122816EC165416C016412
:103F5000D102AF4801F0C6BB10B5AC48AC4C012251
:103F6000016EC165816CC164C16B0164D1022046E0
:103F700001F0B8FB01229102204601F0B3FBA649F3
:103F80004FF46170086010BD2DE9F0419F4C4B204B
:103F90002DED048BE062FDF70FFE9FEDA08AB0EEE1
:103FA000481A5FED6E8A3C20F0EE680A1FED740A35
:103FB000FEF7A8FC40F6C41502E0012003F0CDFF97
:103FC000FCF73FFDA842F8DB00224FF40061904867
:103FD00001F088FBB0EE481AF0EE680A3C209FED35
:103FE000900AFEF78FFC4FF47A6502E0012003F09F
:103FF000B4FFFCF726FDA842F8DBB0EE481AF0EE5D
:10400000680A28209FED870AFEF77CFC0025864E73
:10401000656202E0012003F0A0FFB06D6428F9DCC6
:10402000606A401C60623228F7DBFDF7C5FDA06BBB
:1040300065624FF49667206408E00523162200218C
:104040002820FEF778FE012003F087FFFCF7F9FC3B
:10405000B842F2DB606A401C60623228F6DB40F650
:10406000AC57656208E00523112200212820FEF7E5
:1040700062FE012003F071FFFCF7E3FCB842F2DBC3
:10408000606A401C60623228F6DBB0EE489AB0EEFF
:10409000688AB0EE491AB0EE480A2D20F0EE400AC8
:1040A000FEF730FC656202E0012003F056FFB06DC0
:1040B0002328F9DB606A401C60623228F7DBFDF7D9
:1040C0007BFDB0EE480AB0EE491AF0EE400A1E2021
:1040D000FEF718FC4FF4167502E0012003F03DFFD7
:1040E000FCF7AFFCA842F8DB0020FEF760FBFDF711
:1040F00063FDB0EE491AF0EE480A28209FED4B0A06
:10410000FEF700FC4FF4E16502E0012003F025FF1B
:10411000FCF797FCA842F8DB606E3B4D4FF4486615
:10412000E06505E0052300212820AA68FEF765FE6A
:10413000FCF787FCB042F5DBFA20E0620020BDEC22
:10414000048BBDE8F041FEF732BB70B52F4C002563
:104150002DED028B4FF49666656208E0052316226A
:1041600000212820FEF7E7FD012003F0F6FEFCF712
:1041700068FCB042F2DB606A401C60623228F6DB09
:1041800041F28836656208E00523112200212820CB
:10419000FEF7D1FD012003F0E0FEFCF752FCB04237
:1041A000F2DB606A401C60623228F6DBA06B2064A0
:1041B000206EE06500224FF40061154801F092FA8C
:1041C000DFED168AB0EE681A1FEDF88A2D20B0EEEA
:1041D000480AF0EE400AFEF795FB6562124D02E0D8
:1041E000012003F0BAFEA86D2328F9DB606A401CA9
:1041F00060623228F7DBFDF7DFFCB0EE480AB0EE74
:10420000681AF0EE400A13E04C0300200000002082
:10421000000402400010024034040140CDCCCC3DEB
:104220000000484400002F440001002000006644C4
:104230001E20FEF767FB4FF4167402E0012003F026
:104240008CFEFCF7FEFBA042F8DB0020FEF7AFFA85
:10425000FDF7B2FCB0EE681AF0EE480A28201FED18
:104260000D0AFEF74FFB4FF4E16402E0012003F07A
:1042700074FEFCF7E6FBA042F8DBFE4D40F6AC54C2
:10428000FCF7DFFBA04206DA052300212820AA68FC
:10429000FEF7B3FDF4E7B0EE681AF0EE480A0A2024
:1042A0009FEDF50AFEF72EFB40F63C7402E001207C
:1042B00003F053FEFCF7C5FBA042F8DBBDEC028B1C
:1042C0000020BDE87040FEF772BAEC4AA0F10F0181
:1042D0009FEDEB0AD36D192B07DAF0EE400AB7EE2B
:1042E000081A08469FEDE70A09E0926DB7EE081A32
:1042F000322AF0EE400A02DA08469FEDE30AFEF7A2
:1043000001BB2DE9F05FE14D83462DED048B40F2BA
:10431000E7380026E86B2864286E0A27E865FDF771
:104320004BFCB7EE081A9FEDD68A3C20B0EE480A47
:10433000F0EE400AFEF7E6FA02E0012003F00DFE7F
:10434000FEF7B4F8FEF70AF96428F6DC4FF000092E
:10435000CF4C4FF4804AC5F8249005E03C20FFF78D
:10436000B4FF012003F0F9FD5146204601F0A2F907
:1043700030B94FF40041204601F09CF90028EDD0FF
:10438000052003F0EAFD686A401C68621E28EBDB2A
:10439000FDF712FC4C46C5F824904FF4FA6905E08D
:1043A0003C20FFF792FF012003F0D7FDFCF749FB0B
:1043B0004845F5DB686A401C68623228F6DBA14696
:1043C0006C62AE4C05E02320FFF77FFF012003F075
:1043D000C4FDE06DFA28F6DB052003F0BEFD686A37
:1043E000401C68621E28F4DB00224021A94801F02D
:1043F00079F9DFF8A4A24FF46171CAF800100A201D
:10440000FEF7D5F90220A06001209A49DFEDA38ACA
:10441000C5F8240051F82000A26D101AFEF79EF88E
:10442000404509DA686AA26D51F82000101AFEF7BB
:1044300095F88046686AA060686A401C6862042833
:10444000E8DB9FED979ADFED979A8846A068A26D0A
:10445000414658F82000101AFEF780F805281ADDAA
:10446000A06851F82000A16D884208DDB0EE681AFE
:10447000F0EE480A4FF01E00B0EE490A08E0E5DA17
:10448000B0EE681AF0EE480A4FF01E00B0EE690A6E
:10449000FEF738FADAE7C846C5F8249002E00120B2
:1044A00003F05BFD296C286AA1F10A02904202DA4E
:1044B0000A318842F3DC052003F04FFD686A401C96
:1044C00068623228EEDBC5F824804FF4C8780CE02F
:1044D000B0EE480A4045B0EE681AF0EE400A01DD41
:1044E0001E2000E01420FEF70DFA606DFA28EFDCC4
:1044F000052003F032FD686A401C68621E28F4DB68
:10450000082068810020FEF752F9BBF1000F2FD080
:104510004FF49678A06E87420FD10A20761C03F0E4
:104520001CFD4645F6DBB0EE480AB0EE681AF0EE28
:10453000400A0F20FEF7E6F912E0074600260A209F
:1045400003F00BFDE6E70A2003F007FDA06E042848
:1045500003DDE168606D8842F5DC012003F0FDFCBD
:10456000E168606D8842F1DCA06E052800D2A06091
:104570004FF42F71CAF80010072068815946A068CF
:10458000FFF740FCA060FFF744FB0020FEF70FF9A7
:10459000BDEC048B01224021BDE8F05F3D4801F0F5
:1045A000A1B82DE9F0413348384C32212DED048B70
:1045B0008668606DE0654FF4E160FEF7A0F90027C2
:1045C0002E4D676202E0012003F0C7FC686D3228BF
:1045D000F9DB052003F0C1FC606A401C60621E2804
:1045E000F4DB00224FF480612A4801F07BF8A06BD5
:1045F000DFED2D8A9FED228A206420E0A86D86429F
:1046000008DDA6EB000000EB4000FDF7A7FFA0F2DD
:10461000DC5009E013DAA6EB000000EB4000FDF7E8
:104620009DFFA0F2DC50404200EE100AB0EE681A86
:10463000F0EE480AB8EEC00A3220FEF763F9A86D22
:10464000801BFDF78BFF0328D8DCB0EE681A9FEDC6
:104650000A9AF0EE480A3220B0EE490AFEF752F903
:104660004FF4E1766762686DB042FCDB012003F035
:1046700074FC1BE04C0300200000E144000100201A
:10468000000000000000E1430000E1C30000002042
:104690000010024000040240340401406666663F98
:1046A000000096C3000096439A99993E052003F0B6
:1046B00054FC606A401C60621E28D4DBFDF77CFA63
:1046C000B0EE681AF0EE480A1E20B0EE490AFEF776
:1046D00019F940F2DC5402E0012003F03EFCFCF743
:1046E000B0F9A042F8DBFEF7A3FE0A20FEF75FF860
:1046F000BDEC048B4FF4FA60BDE8F04103F02DBC33
:1047000070B5FFF741FCF84C4FF4E16503E0072179
:104710002846FEF7F4F8606E0028F8D0E16E1239F2
:1047200000D549420A29F2DCBDE87040642003F05C
:1047300014BC2DE9F041ED4C4B202DED048BE062D3
:10474000FDF73AFA9FEDEA8A5FED338A3C20B0EE3E
:10475000481AF0EE680A9FEDE70AFEF7D3F84FF427
:10476000FA6702E0012003F0F8FBFCF76AF9B842AF
:10477000F8DBB0EE481AF0EE680A3C209FEDDE0A46
:10478000FEF7C0F84FF47A6502E0012003F0E5FB84
:10479000FCF757F9A842F8DBB0EE481AF0EE680AC9
:1047A0003C209FEDD60AFEF7ADF80026CE4D66629E
:1047B00002E0012003F0D1FBE86D2828F9DC606AF3
:1047C000401C60623228F7DBB0EE481AF0EE680A4F
:1047D0003C209FEDCB0AFEF795F8666202E00120CF
:1047E00003F0BBFBE86D1928F9DC606A401C6062CD
:1047F0003228F7DBFDF7E0F9B0EE489AB0EE688AB0
:10480000A06BB0EE480A2064B0EE491AF0EE400A00
:104810003C20FEF777F802E0012003F09EFBFCF756
:1048200010F9B842F8DBB0EE480AB0EE491AF0EEE3
:10483000400A2D20FEF766F8666202E0012003F0D0
:104840008CFBE86D2328F9DB606A401C606232282B
:10485000F7DBFDF7B1F9B0EE480AB0EE491AF0EE19
:10486000400A1E20FEF74EF84FF4167502E00120B4
:1048700003F073FBFCF7E5F8A842F8DB0020FDF736
:1048800096FFFDF799F9B0EE491AF0EE480A282094
:104890009FED9C0AFEF736F84FF4E16502E0012037
:1048A00003F05BFBFCF7CDF8A842F8DB606E964D99
:1048B0004FF44866E06505E0052300212820AA683A
:1048C000FEF767FAFCF7BDF8B042F5DBFDF774F9C7
:1048D000B0EE491AF0EE480A0F201FED990AFEF7D4
:1048E00011F84FF4967502E0012003F036FBFCF757
:1048F000A8F8A842F8DB0020FDF759FFFA20E06293
:10490000BDEC048BBDE8F08170B5784C00252DED31
:10491000028B4B2065620601E06208E00523082255
:1049200000212820FEF7D9F9012003F016FBFCF73F
:1049300088F8B042F2DB606A401C60623228F6DB25
:10494000A06B656241F28836206408E005230322EB
:1049500000212820FEF7C1F9012003F0FEFAFCF740
:1049600070F8B042F2DB606A401C60623228F6DB0D
:10497000DFED5F8AB0EE681A1FEDBF8A2D20B0EE22
:10498000480AF0EE400AFDF7BDFF6562564D02E0B1
:10499000012003F0E2FAE86D1928F9DB606A401C97
:1049A00060623228F7DBFDF707F9B0EE480AB0EE97
:1049B000681AF0EE400A1E20FDF7A4FF4FF41675AA
:1049C00002E0012003F0C9FAFCF73BF8A842F8DB4B
:1049D0000020FDF7ECFEFDF7EFF8B0EE681AF0EE00
:1049E000480A28209FED470AFDF78CFF4FF4FA652F
:1049F00002E0012003F0B1FAFCF723F8A842F8DB4B
:104A0000606EE065FEF714FD3F4E40F6AC5505E0E4
:104A1000052300212820B268FEF7BBF9FCF711F846
:104A2000A842F5DB0020FDF7C2FEB0EE681AF0EEFA
:104A3000480A0A201FEDF00AFDF764FF40F63C75B6
:104A400002E000BF03F089FAFBF7FBFFA8424FF03A
:104A50000100F7DB03F081FAFA20E062BDEC028B83
:104A600070BD214AA0F10F011FEDFB0AD36D192B78
:104A700007DAF0EE400AB7EE081A08469FED230A5F
:104A800009E0926DB7EE081A322AF0EE400A02DA17
:104A900008469FED1F0AFDF735BF2DE9F05F134D66
:104AA00083462DED048B002640F2E738E86B28643E
:104AB000286E0A273346E865FDF77EF8322118464E
:104AC000FDF71DFF02E0012003F047FAFDF7EEFCC1
:104AD000FDF744FD6428F6DC4FF000090D4C4FF45F
:104AE000804AC5F824901DE000010020000000204D
:104AF000CDCCCC3D000061C4000048C40000FAC326
:104B0000000048C3000066C44C0300200000E143DD
:104B10000000E1C3001002403C20FFF7A2FF01208B
:104B200003F01BFA5146204600F0C4FD30B14FF4AB
:104B30000041204600F0BEFD0028EDD1686A401C0F
:104B400068623228EEDBFDF737F84C46C5F8249052
:104B50004FF4FA6905E03C20FFF783FF012003F0E2
:104B6000FCF9FBF76EFF4845F5DB686A401C68629C
:104B70003228F6DBA1466C62F84C4FF4FA7A05E075
:104B80002320FFF76EFF012003F0E7F9A06D5045E9
:104B9000F6DB686A401C68623228F7DB0020FDF70C
:104BA00006FE00224021EE4800F09CFDDFF8B4A391
:104BB0004FF46171CAF800100220A0600120EA4998
:104BC0009FEDEA8ADFEDEA8AC5F8240051F820005B
:104BD000E26D101AFDF7C2FC404509DA686AE26D21
:104BE00051F82000101AFDF7B9FC8046686AA060F1
:104BF000686A401C68620428E8DB9FEDDE9ADFEDFE
:104C0000DE9A8846A068E26D414658F82000101AE6
:104C1000FDF7A4FC05281ADDA06851F82000E16D1D
:104C2000884208DDB0EE481AF0EE680A4FF0140032
:104C3000B0EE490A08E0E5DAB0EE481AF0EE680A8C
:104C40004FF01400B0EE690AFDF75CFEDAE7C5F834
:104C5000249002E0012003F080F9286C296AA0F179
:104C60000A02914202DA0A308142F3DC052003F0A5
:104C700074F9686A401C68623228EEDBB0EE489A2C
:104C80004FF4C878B0EE688A606DFA2810DDB0EE97
:104C9000480A4045B0EE491AF0EE400A01DD1E20F8
:104CA00000E01420FDF72EFE0A2003F056F9EBE792
:104CB000082068810020FDF77AFDBBF1000F2FD09E
:104CC0004FF49678A06E87420FD10A20761C03F02D
:104CD00044F94645F6DBB0EE480AB0EE491AF0EE6C
:104CE000400A0F20FDF70EFE12E0074600260A20BC
:104CF00003F033F9E6E70A2003F02FF9A06E042849
:104D000003DDE168606D8842F5DC012003F025F9E0
:104D1000E168606D8842F1DCA06E052800D2A060D9
:104D20004FF42F71CAF80010072068815946A06817
:104D3000FFF768F8A060FEF76CFF01224021884869
:104D400000F0D0FCBDEC048B0020BDE8F05FFDF767
:104D50002EBD2DE9F0418448884C2DED048B8668EA
:104D6000606D9FED879AB0EE491A9FED818AE065EC
:104D70003220F0EE480ADFED838AB0EE680AFDF7D4
:104D8000C1FD0027754D676202E0012003F0E5F8E0
:104D9000686D3228F9DB052003F0DFF8606A401CFB
:104DA00060621E28F4DB00224FF480616C4800F042
:104DB00099FCA06B206424E0E86D86420BDDA6EB35
:104DC000000000EB40004FEA4000FDF7C7FBA0F2F7
:104DD000DC5040420AE014DAA6EB000000EB400091
:104DE0004FEA4000FDF7BAFBA0F2DC5000EE100ADB
:104DF000B0EE491AF0EE480AB8EEC00A3220FDF7CC
:104E000081FDE86D801BFDF7A9FB0328D4DCB0EE23
:104E1000491AF0EE480A3220B0EE680AFDF772FD3A
:104E20004FF4E176676202E0012003F096F8686DC6
:104E3000B042F9DB052003F090F8606A401C606224
:104E40001E28F4DBFCF7B8FEB0EE491AF0EE480A73
:104E50001E20B0EE680AFDF755FD40F2DC5402E07A
:104E6000012003F07AF8FBF7ECFDA042F8DBFEF737
:104E7000DFFA1420FDF79BFCBDEC048B4FF4FA60C5
:104E8000BDE8F04103F069B810B5FFF752FC072107
:104E90004FF4E160FDF733FD304C02E0642003F095
:104EA0005CF8606E0028F9D0E06E0028F6D010BDE6
:104EB0002DE9F0412DED048BFCF77EFE1FEDF48A09
:104EC000DFED2B8A3C20B0EE481AF0EE680A1FEDA9
:104ED000F70AFDF717FD40F6C41402E0012003F0C5
:104EE0003CF8FBF7AEFDA042F8DB00224FF4006176
:104EF0001B4800F0F7FBB0EE481AF0EE680A3C20C1
:104F00009FED210AFDF7FEFC4FF47A6402E00120D8
:104F100003F023F8FBF795FDA042F8DBB0EE481A4A
:104F2000F0EE680A32209FED190AFDF7EBFC134CF6
:104F300000260A4D666202E0012003F00EF8E86DDB
:104F40002828F9DC606A401C60623228F7DBFCF735
:104F500033FE40F6AC57666223E0000000010020FB
:104F600000040240340401404C0300206666663FA2
:104F70000000000000009643000096C300000020DF
:104F80009A99993E0000E144000048C400002FC4F3
:104F90000323052200213220FDF79FFE012002F0AD
:104FA000DCFFFBF74EFDB842F2DB606A401C60623A
:104FB0003228F6DBB0EE489AB0EE688AB0EE491AB5
:104FC000B0EE480A2D20F0EE400AFDF79BFC666229
:104FD00002E0012002F0C1FFE86D2328F9DB606ADE
:104FE000401C60623228F7DBFCF7E6FDB0EE480AB1
:104FF000B0EE491AF0EE400A1E20FDF783FC4FF494
:10500000167402E0012002F0A8FFFBF71AFDA0428F
:10501000F8DB0020FDF7CBFBFCF7CEFDB0EE491A24
:10502000F0EE480A32209FED8F0AFDF76BFC4FF43B
:10503000E16402E0012002F090FFFBF702FDA042D4
:10504000F8DBFEF7F5F94FF4486405E0032350223E
:1050500000212820FDF79DFEFBF7F3FCA042F5DBC5
:10506000BDEC048B0020BDE8F041FDF7A0BB01289A
:1050700001D0FFF75EBBFEF787BF012800D043E4F5
:10508000FFF763B80128084600D006E5FFF739B9F5
:10509000012800D05DE6FFF784BA054640F6B83433
:1050A0002846FEF7F9FA00212846FFF7EBFF2846CD
:1050B000FFF7EEFF204602F050FFF1E71120FDF769
:1050C000A7F80F2002F049FFF8E7674CFDF78CFFC7
:1050D000607818B1FEF786F8FEF729F9FEF7D5F8E3
:1050E000032002F03AFFF1E7604DA5F1B004287803
:1050F00060666878E066A878A066E8782067FEF7C2
:10510000D3F9072002F029FFF1E700BFFDF78BFD7F
:10511000052002F022FFF9E71FB5FBF7B8FCFBF70B
:10512000E9FCFBF785FDFBF765FEFBF7E9FDFBF707
:1051300021FFFBF7DAFFFCF760F8FCF746F9FBF715
:105140003EFD4FF4E1342046FCF7F0F92046FCF731
:1051500086FA2046FCF709FB2046FCF78CFBE000B2
:10516000FCF70EFCFCF746FDFCF726FD3E4D002447
:105170004FF480762C7000940194029423463246BA
:105180003BA14048039402F011FD00940194029465
:10519000002332463CA14248039402F007FD0094EC
:1051A00001940294002332463EA14348039402F046
:1051B000FDFCA86CE86102E0012002F0CEFEA86CC4
:1051C000E96914388142F7DB3C4E01246C700221FE
:1051D000304600F06FFA08B12C8101E002202881EE
:1051E0000A2068814FF4FA7002F0B7FE0920688146
:1051F0000122D102304600F075FA012240213046EA
:1052000000F070FA2E4940F2A4600860FEF7A4FE98
:10521000FEF741F97FB500244FF4807500940194A6
:10522000029423462A4627A12948039402F0BEFC93
:1052300000940194029400232A4626A1284803944E
:1052400002F0B4FC00940194029400232A4615A1B4
:105250001948039402F0AAFC02F0CEFF04B000202B
:1052600070BD0000000066C400000020B0010020F6
:105270007461736B526F626F74416E616C797469A3
:10528000637300000B5100087461736B526F626F9F
:1052900074416E616C79746963735F7561727400D7
:1052A000E95000087461736B446965754B68696502
:1052B0006E436F4361750000CB500008000402404C
:1052C000340401407461736B4D61696E000000002D
:1052D000195100087461736B4779726F0000000008
:1052E000BD5000080CB500205149019000900A689B
:1052F00042F480320A604FF4A0630A6802F400327C
:105300000092019A521C0192009A12B9019A9A4293
:10531000F3D10A68920334D501200090444840300C
:10532000026842F0805202604248026842F48042C1
:1053300002603F48083002680260026842F400429E
:105340000260026842F4A0520260031F3A4A1A60E7
:105350000A6842F080720A600A689201FCD5374AF6
:1053600040F205611160016821F0030101600168EC
:1053700041F0020101600168C1F381010229FAD103
:105380000CBD00900CBD2A4810B5016841F0010128
:105390000160274A0021083211600268284B1A4038
:1053A0000260031D274A1A60026822F4802202600C
:1053B0001F480C300160FFF795FF23494FF0006054
:1053C000086010BD70B51A4C083420681F4A10F0F0
:1053D0000C011F4804D05510042903D0082903D01C
:1053E00002601BE0056019E01149091D0B68C3F359
:1053F00080560B6803F03F0316B1B5FBF3F201E0F2
:10540000B2FBF3F20B680968C3F388135A43C1F384
:105410000141491C4900B2FBF1F1016021680C4ACD
:10542000C1F30311121D515C0268CA40026070BDD5
:10543000003802400070004008544007003C024021
:10544000FFFFF6FE1030002408ED00E00024F40019
:10545000D00100200648804706480047FEE7FEE7E7
:10546000FEE7FEE7FEE7FEE7FEE7FEE7FEE7FEE714
:105470008753000889010008284908432849086023
:10548000704730B50F22C47801780123FCB1244C59
:10549000246801F1E02104F4E064C4F5E064C4F39D
:1054A0000724C4F10405E2404478AC4085781540F7
:1054B00025432A0181F80024007800F01F018B4069
:1054C0004009800000F1E020C0F8003130BD01F05B
:1054D0001F0083404809800000F1E020C0F88031BF
:1054E00030BD104A114001430D48001F0160704754
:1054F0000B4A121D0029116801D0014300E08143CD
:10550000116070474FF0E0210428086903D020F0B3
:1055100004000861704740F00400FAE70000FA0553
:105520000CED00E080FFFF1F7C4910B5884206D1DA
:105530000121084600F058FA002101204FE0784987
:10554000884206D10121022000F04EFA00210220FB
:1055500045E07449884206D10121042000F044FA54
:10556000002104203BE07049884206D10121082037
:1055700000F03AFA0021082031E06C49884206D157
:105580000121102000F030FA0021102027E06849A6
:10559000884206D10121202000F026FA0021202097
:1055A0001DE06449884206D10121402000F01CFA28
:1055B0000021402013E06049884206D1012180206B
:1055C00000F012FA0021802009E05C4988420AD1EB
:1055D00084150121204600F007FA00212046BDE88D
:1055E000104000F001BA10BDF0B5002301240327DC
:1055F0000D6804FA03F21540954242D1D0F800C07C
:105600005E0007FA06F52CEA050CC0F800C091F818
:1056100004C0D0F800E00CFA06FC4CEA0E0CC0F80E
:1056200000C091F804C0BCF1010F02D0BCF1020F20
:105630001FD1D0F808C02CEA050CC0F808C091F8BA
:1056400005C0D0F808E00CFA06FC4CEA0E0CC0F8D5
:1056500008C0D0F804C02CEA020CC0F804C04268AC
:1056600091F806C00CFA03FC1FFA8CFC42EA0C020B
:105670004260C268AA43C260CA79C568B2402A4380
:10568000C2605B1C102BB3D3F0BD4FF6FF710160FD
:105690000021017141718171C171704708B541F4F8
:1056A00080320092C261C1610099C161C169C06963
:1056B000009008BD0246002012690A4200D0012075
:1056C0007047006980B270470246002052690A4262
:1056D00000D001207047406980B270470183704755
:1056E000418370470AB1018370474183704741612C
:1056F000704742694A40426170474B07DB0E9A404F
:10570000C90810B500EB8100016A0F249C40A14339
:105710000162016A1143016210BD000000000240F5
:105720000004024000080240000C02400010024049
:105730000014024000180240001C024000200240F9
:10574000EA48016841F001010160E84A002108329D
:1057500011600268E64B1A400260031DE54A1A60B8
:10576000026822F480220260E0480C300160704739
:10577000DE490022891C0A7008707047024600202A
:10578000510901290CD002290CD0D849743109687B
:1057900002F01F02012393400B4200D0012070470A
:1057A000D249F4E7D1497031F1E718B500204FF440
:1057B000A06400903120FFF7E1FF0099491C00919F
:1057C000A14201D00028F5D03120FFF7D7FF0028F3
:1057D00000D0012018BDC5490A6822F0F80242EA4B
:1057E000C00008607047C44908607047BF49002284
:1057F00070310A700A70012802D0042801D10520F6
:1058000008707047BD490860704741EA82115A0824
:1058100010B5BB4B029C03EB02421143014341EA2A
:105820000460B249091D086010BDB349086670479D
:10583000800140EA0170AD49843108607047AE498B
:1058400088667047AC49C8647047A84A0832136834
:10585000084323F0EC63184310607047A34A0832F2
:105860001368084323F078431843106070479F4A39
:105870000832116821F003010143116070479B4811
:105880000830006800F00C007047984A0832116830
:1058900021F0F001014311607047944A0832116809
:1058A00021F4E051014311607047904908310A68C2
:1058B00022F4604242EAC0000860704770B58B4A2B
:1058C000083211688F4C11F00C0104D066100429C5
:1058D00003D0082903D004601BE0066019E0834967
:1058E000091D0B68C3F380550B6803F03F0315B126
:1058F000B6FBF3F301E0B4FBF3F30C680968C4F3FF
:1059000088146343C1F30141491C4900B3FBF1F121
:10591000016011680F2303EA11117B4B5C5C016885
:10592000E14041601468072505EA94241C5D21FAD2
:1059300004F48460126805EA52329A5CD140C16076
:1059400070BDC0F30121032908D1684A08321168EB
:1059500021F4F8136D490140194311606349703116
:105960000A68C0F30B0002430A6070476349443978
:105970000860704761494039086070475E49C1F866
:105980005C017047594A30320029116801D0014347
:1059900000E0814311607047544A34320029116895
:1059A00001D0014300E08143116070474F4A383213
:1059B0000029116801D0014300E081431160704764
:1059C0004A4A40320029116801D0014300E0814376
:1059D00011607047454A44320029116801D00143E3
:1059E00000E0814311607047404A1032002911687D
:1059F00001D0014300E08143116070473B4A1432FB
:105A00000029116801D0014300E081431160704713
:105A1000364A18320029116801D0014300E0814361
:105A200011607047314A20320029116801D00143CA
:105A300000E08143116070472C4A2432002911682C
:105A400001D0014300E0814311607047274A503282
:105A50000029116801D0014300E0814311607047C3
:105A6000224A54320029116801D0014300E08143E9
:105A7000116070471D4A58320029116801D0014356
:105A800000E0814311607047184A603200291168B4
:105A900001D0014300E0814311607047134A643232
:105AA0000029116801D0014300E081431160704773
:105AB0000E4A0D320029117801D0014300E08143E4
:105AC0001170704709487430016841F080710160BD
:105AD00070470146054A00200C3212680A4200D085
