:020000040800F2
:10000000C0300020F55100084502000847020008F2
:10001000490200084B0200084D02000800000000E1
:100020000000000000000000000000009D0100082A
:100030004F02000800000000E10100082B780008D2
:100040000F5200080F5200080F5200080F5200080C
:100050000F5200080F5200080F5200080F520008FC
:100060002F0400087B0400080F5200081903000841
:10007000DB020008650300080F5200087502000843
:100080000F5200087D0200080F5200080F520008AE
:100090000F5200080F5200080F5200080F520008BC
:1000A0000F52000889030008A90300080F52000836
:1000B000AB030008CB030008EB0300080F52000855
:1000C0000F5200080F5200080F5200082B040008BE
:1000D0000F520008550200080F5200080F52000886
:1000E0000F5200080F5200080F5200080F5200086C
:1000F0000F5200080F5200080F5200083B0300087F
:100100000F5200080F5200080B0400082D040008CD
:100110000F5200080F5200086F0300087703000811
:100120000F5200080F5200089F0200080F520008EB
:100130000F5200080F5200080F5200080F5200081B
:100140000F5200080F5200080F5200080F5200080B
:10015000D10200080F5200080F5200080F52000889
:100160000F5200080F5200080F5200080F520008EB
:100170000F5200080F5200080F5200080F520008DB
:100180000F5200080F520008DFF80CD008F0D8FB1F
:10019000004800470B500008C0300020234B19686E
:1001A0000868B0E8F04F80F309884FF0000080F352
:1001B000118870470000000003480068006880F361
:1001C000088862B600DF00BF08ED00E0DFF80C0031
:1001D000016841F470010160704700BF88ED00E0E4
:1001E000EFF30980114B1A681EF0100F08BF20EDC5
:1001F000108A20E9F04F106008B54FF0140080F32A
:10020000118807F0E8FD4FF0000080F31188BDE889
:10021000084019680868B0E8F04F1EF0100F08BFDA
:10022000B0EC108A80F30988704700BF28020020D4
:10023000EFF311804FF0140181F31188704780F3C0
:10024000118870477047FEE7FEE7FEE7FEE770475C
:100250007047704710B5894C40F22551204606F092
:100260002EFD002805D02046BDE81040202106F0D4
:1002700023BD10BD8249834805F033BE70B5814D62
:10028000814C30352146284605F008FE002805D06F
:1002900021462846BDE8704005F023BE70BD10B56C
:1002A0007A497B4805F01DFE7A484178027841EA98
:1002B0000221794A1180C178827841EA0221774A85
:1002C00011604179007941EA00207549086010BD4C
:1002D0006F487449483005F004BE70B5694D724CE2
:1002E000483D2146284605F0D9FD002813D0214677
:1002F000284605F0F6FD6D4802F01DF800280AD1E9
:100300006B4C0021204606F019FC2046BDE87040E9
:10031000012106F013BC70BD70B55A4D654C603DAF
:100320002146284605F0BAFD002805D0214628467A
:10033000BDE8704005F0D5BD70BD70B5514C5E4D47
:1003400048342946204605F0A9FD002809D000219F
:10035000204605F018FD29462046BDE8704005F00E
:10036000C0BD70BD47484649303805F0BABD0121CF
:10037000524806F082BA10B50121514806F07DFAC4
:100380003E497A20888010BD10B54E4C0121204690
:1003900006F073FA2088C1064B48016801D5491E52
:1003A00000E0491C016010BD704710B501218C07A9
:1003B000204606F062FA2088C1064448016801D54B
:1003C000491E00E0491C016010BD10B5404C0121E0
:1003D000204606F052FA2088C1063E48016801D541
:1003E000491E00E0491C016010BD10B53A4C0121C6
:1003F000204606F042FA2088C1063848016801D537
:10040000491E00E0491C016010BD10B5344C0121AB
:10041000204606F032FA2088C1063248016801D52C
:10042000491E00E0491C016010BD7047704770B55F
:10043000042005F0D5FD00281ED020212A4805F013
:1004400028F82A4D0421284605F004F81C4C012800
:1004500005D00421284604F0FDFF28B109E0002161
:10046000204605F0A3FE04E0204605F0A3FE204947
:10047000086020490420086070BD704700100140EA
:10048000208000207060024000802020008020102A
:10049000406402402C0300200C000020D00100200A
:1004A000D401002000880020008800104A030020AA
:1004B000004800402080001000800028001000400C
:1004C0000014004000000140100000201400002033
:1004D00000040040180000200008004054010020E3
:1004E000000C0040C801002000000240000C024047
:1004F000CC010020143C014070B50546002407F0F3
:1005000085FFFE4902E02A5D0A55641C8442FADB3D
:10051000BDE870400121FA4805F035BC70B5F94DD1
:1005200006460024315D00290BD0284606F02CFB3E
:100530008021284606F0B9FB0028F9D0641CE4B2FB
:10054000F0E770BD70B5EF4E05460024002D0DD0CC
:100550002946304606F018FB8021304606F0A5FB00
:100560000028F9D0641CE4B2032CEFD370BD73B53E
:100570000C460020FFF7E6FFE3A0FFF7CFFFDF48C0
:100580002246E2A1823808F055FADC488238FFF7AB
:10059000C5FFDFA0FFF7C2FFDFA0FFF7BFFFD7480F
:1005A000DAA18238009A08F045FAD44E0024D54DDD
:1005B000823E2846315D06F0E7FA4021284606F0E3
:1005C00074FB0028F9D0641C142CF2DBD2A0FFF7D6
:1005D000A5FFFF20FFF7B6FFFF20FFF7B3FFBDE841
:1005E0007C40FF20AEE770B505460C46C6A0FFF77D
:1005F00095FFC2482246C5A1823808F01BFABF48C1
:100600008238FFF78BFFC5A0FFF788FF2846FFF76A
:1006100085FFC1A0FFF782FFBDE87040FF2091E792
:1006200077B5BEA185B00646D1E90001CDE900014C
:10063000B9A0002200680390B3A0B04D0068283D27
:10064000A5F128030290AD4C1146A3F13200A95444
:1006500099548154A154521CD2B21E2AF7D30A21B4
:100660000170FF2444708470C470A448A7A150385E
:10067000079A08F0DFF9A14902A8503907F0AEFE49
:100680009E4802A9823807F0A9FE9C486946823834
:1006900007F0A4FE99483146823807F09FFE97483C
:1006A0009AA15038069A08F0C5F994495039A1F139
:1006B000320007F093FE914803A9823807F08EFEBE
:1006C0008E492C706C702839AC70A1F15A0007F07B
:1006D00085FE8A488238FFF70FFF08B070BD2DE90C
:1006E000F74188468DA185B00646D1E90001CDE9E4
:1006F000000189A000220068039083A07F4D00685C
:10070000283DA5F1280102901446A1F13200AC5415
:100710008C548454521CD2B20A2AF8D30A21017094
:10072000FF2747708770C770744878A15038079AC0
:1007300008F080F9714902A8503907F04FFE6F4860
:1007400002A9823807F04AFE6C486946823807F0F1
:1007500045FE6A483146823807F040FE6748414608
:10076000823807F03BFE654803A9823807F036FE61
:100770002F706F706149AF70EC7028392C71A1F146
:100780005A0007F02BFE5D488238FFF7B5FE08B02F
:10079000BDE8F08170B50020FFF7D4FE5AA0FFF746
:1007A000BDFE56480D2259A1823808F043F953483E
:1007B0008238FFF7B3FE59A0FFF7B0FE594C202155
:1007C000204604F047FE02464C4850A1823808F00B
:1007D00031F94A488238FFF7A1FE1021204604F083
:1007E00039FE0246454849A1823808F023F94348BA
:1007F0008238FFF793FE4C4D8021284604F02AFEF4
:1008000002463E4841A1823808F014F93B4882383C
:10081000FFF784FE4021284604F01CFE02463748BC
:100820003AA1823808F006F934488238FFF776FE9C
:100830004FF40041204604F00DFE02462F4833A13C
:10084000823808F0F7F82D488238FFF767FE4FF43A
:100850008041204604F0FEFD024628482BA1823844
:1008600008F0E8F825488238FFF758FE4FF40051A9
:10087000204604F0EFFD0246204824A1823808F00B
:10088000D9F81E488238FFF749FE4021274804F076
:10089000E1FD024619481DA1823808F0CBF817483F
:1008A0008238FFF73BFE1CA0FFF738FEFF20FFF762
:1008B00049FEFF20FFF746FEBDE87040FF2041E6FD
:1008C000FEB51BA10646D1E90001CDE900011AA041
:1008D00000210A4D0068283DA5F1280202900C462F
:1008E000A2F132006C5454544454491CC9B2322908
:1008F000F8D30A210170FF2747701FE0EA020020A9
:10090000B860024000500040740000002564000000
:100910002E7478743D000000220000002E7478745C
:100920003D2200000008024000000240001002408A
:100930002E76616C3D0000006A0000008770C77071
:100940000022AFF23801FE4808F074F8FC4902A812
:1009500007F044FDFA4802A9323807F03FFDF84895
:100960006946323807F03AFD3246AFF26001F4488A
:1009700008F060F8F249A1F1320007F02FFD2F7066
:100980006F70EF49AF70EC7028312C71A1F15A00F3
:1009900007F024FDEA483238FFF7AEFDFEBD2DE931
:1009A000FC414FF08047384605F004FCE54D69698D
:1009B000642640EA014090FBF6F00024019038469E
:1009C00005F0F8FB696940EA014090FBF6F00199F7
:1009D0000090401A00D54042322800DA641C00988A
:1009E0000190022CEBDB0098002800DA4042BDE8C1
:1009F000FC812DE9FC41D44F384605F0DBFBD14D9D
:100A00002969642640EA014090FBF6F00024019039
:100A1000384605F0CFFB296940EA014090FBF6F02B
:100A200001990090401A00D54042322800DA641C37
:100A300000980190022CEBDB00980028D7DA4042A6
:100A4000D5E710B5FFF7ABFF0446FFF7D2FF002C48
:100A500000DA6442002800DA4042204410BD01B5AB
:100A600081B0019800EBC00040000090002801D048
:100A7000401EFAE70CBD01B581B044F25061019807
:100A800048430090002801D0401EFAE70CBD2DE934
:100A9000FC4101211F2004F045FE01248DF8044093
:100AA00000268DF806604FF6FF758DF80740032786
:100AB00000958DF805706946A44804F065FC8DF832
:100AC00004408DF806608DF8074000958DF805709C
:100AD00069469F4804F058FC8DF804408DF8066084
:100AE0008DF8074000958DF805706946994804F027
:100AF0004BFC7CE77CB501217E2004F013FE002432
:100B0000C0208DF80440012500908DF80750022682
:100B10008DF805606946904804F036FC06208DF893
:100B2000044000908DF807508DF8056069468748AD
:100B300004F02AFC04208DF8044000908DF8075042
:100B40008DF805606946824804F01EFC7CBD1FB527
:100B50004FF4E06004F060FB36208DF80C000024B8
:100B60008DF80D408DF80E4001208DF80F0003A880
:100B700004F057FB0121102004F0F2FD3220ADF803
:100B80000000ADF80840ADF8024040F2E730734C89
:100B900001906946204605F0C7FA0121204605F07C
:100BA0006CFE01221146204605F047FE002120463A
:100BB00005F0FCFA0121204605F02EFB1FBD1FB5F4
:100BC0004FF4E06004F028FB37208DF80C0000247F
:100BD0008DF80D408DF80E4001208DF80F0003A810
:100BE00004F01FFB0121202004F0BAFD4FF4FA703D
:100BF000ADF80000ADF80840ADF8024040F2E73033
:100C0000574C01906946204605F08EFA0121204696
:100C100005F033FE01221146204605F00EFE0021AC
:100C2000204605F0C3FA0121204605F0F5FA1FBD64
:100C300070B58AB00121022004F09CFD01210C2036
:100C400004F070FD424E03220621304604F025FCDC
:100C500003220721304604F020FC032208213046FD
:100C600004F01BFC03220921304604F016FC4FF46B
:100C70007070059002208DF8180003208DF819007F
:100C800000248DF81A4001258DF81B5005A9304627
:100C900004F07AFBA420ADF81C0040F6B8300890B0
:100CA0002802304EADF82400ADF81E4007A93046AA
:100CB00005F03AFA6020ADF80000ADF80250029459
:100CC000ADF80C400121304605F0A6FA002130466F
:100CD00005F06CFA6946304605F0A8FA69463046D8
:100CE00005F0D0FA6946304605F008FB6946304603
:100CF00005F03EFB0121304605F080FD0AB070BDD5
:100D000070B58AB00121082004F02AFD01210846AF
:100D100004F008FD104E02220021304604F0BDFB15
:100D200002220121304604F0B8FB0222114630466F
:100D300004F0B3FB02220321304604F0AEFB13E0C3
:100D40009A02002000000020000001400004024040
:100D500000080240000C0240000002400010004069
:100D600000140040000401400F20059002208DF87F
:100D7000180003208DF8190000248DF81A40012571
:100D80008DF81B5005A9304604F0FEFABA20ADF8E4
:100D90001C0042F210700890ADF82440ADF81E40DF
:100DA00007A9FE4E304605F0BFF96020ADF80000FF
:100DB000ADF802500294ADF80C400121304605F028
:100DC0002BFA0021304605F0F1F96946304605F06E
:100DD0002DFA6946304605F055FA6946304605F069
:100DE0008DFA6946304605F0C3FA0121304605F018
:100DF00005FD83E770B58AB00121042004F0B0FC42
:100E000001210D2004F08EFCE54E02220C2130461B
:100E100004F043FB02220D21304604F03EFB022287
:100E20000E21304604F039FB02220F21304604F037
:100E300034FB4FF47040059002208DF81800032019
:100E40008DF8190000248DF81A4001258DF81B50EB
:100E500005A9304604F098FAA420ADF81C0040F62D
:100E6000B83008902802CF4EADF82400ADF81E40EF
:100E700007A9304605F058F96020ADF80000ADF83C
:100E800002500294ADF80C400121304605F0C4F93F
:100E90000021304605F08AF96946304605F0C6F96A
:100EA0006946304605F0EEF96946304605F026FA07
:100EB0006946304605F05CFA20E770B5012188B03C
:100EC000080404F057FC0121084604F02BFCB64E40
:100ED00003221146304604F0E0FA03220221304694
:100EE00004F0DBFA0C20009002208DF804000320AF
:100EF0008DF8050000248DF8064001258DF8075077
:100F00006946304604F040FA4FF6FF70A74EADF840
:100F100008400390ADF81040ADF80A4002A93046F1
:100F200005F002F90420ADF81400C820ADF81C004B
:100F3000ADF81640ADF8185005A9304605F0AEFBE7
:100F40009B4C00231A460321204605F010FD012189
:100F5000204605F092FC01221146204605F06DFC6A
:100F60000121304605F058F90021204605F01EF910
:100F700008B070BD2DE9F04701218AB0084604F0A1
:100F8000EFFB0121022004F0EBFB0121032004F020
:100F9000C9FBDFF8149201220F21484604F07DFAC4
:100FA000DFF8108201220321404604F076FA022283
:100FB0000421404604F071FA02220521404604F063
:100FC0006CFA02268DF80460032738208DF805702E
:100FD000002400908DF8064001258DF807506946E1
:100FE000404604F0D1F98DF80460E8038DF80570EF
:100FF00000908DF806408DF807506946484604F089
:10100000C3F94FF6FF70ADF80C4004904FF08049E3
:10101000ADF81440ADF80E4003A9484605F084F839
:10102000DFF894A103A9504605F07EF84FF00408BC
:101030001420ADF81880ADF82000ADF81A60ADF8B6
:101040001C5006A9484605F029FB06A9504605F0A4
:1010500025FB02231A460321484605F088FC02239B
:101060001A460321504605F082FC0121484605F04E
:1010700004FC0121504605F000FC012211464846BF
:1010800005F0DBFB01221146504605F0D6FB01219D
:10109000484605F0C1F80121504605F0BDF8002191
:1010A000484605F083F80021504605F07FF87802A5
:1010B00004F0B2F81D208DF808008DF809708DF845
:1010C0000A408DF80B5002A804F0ABF81C208DF8F4
:1010D00008008DF809808DF80A408DF80B5002A8A1
:1010E00004F09FF80AB0BDE8F08770B501218AB01E
:1010F000084604F03FFB0121102004F013FB4FF4DD
:101100002060009002208DF8040003208DF8050077
:1011100000242A4E8DF8064001258DF807506946B7
:10112000304604F031F901220921304604F0B5F9C6
:1011300001220B21304604F0B0F94FF6FF701B4E30
:10114000ADF808400390ADF81040ADF80A4002A990
:10115000304604F0E9FF0420ADF814000A20ADF891
:101160001C00ADF81640ADF8185005A9304605F042
:1011700095FA00231A460321304605F0F8FB0121B9
:10118000304605F07AFB01221146304605F055FB4A
:101190000121304605F071FB012211E0000C0040F6
:1011A000000C024000080040000002400000014026
:1011B00000400140000402400004004000100240D2
:1011C0001146304605F039FB0121304605F024F880
:1011D0000021304604F0EAFF4FF4C06004F01CF830
:1011E00019208DF820008DF821508DF822408DF8BF
:1011F000235008A804F015F880E52DE9F0418AB0E5
:101200000121042004F0ACFA0121082004F08AFA3C
:101210004FF440500226009003208DF80460002413
:101220008DF805008DF8064001258DF807506946B8
:10123000FE4F384604F0A8F84FF6FF70DFF8F08351
:10124000ADF808400390ADF81040ADF80A4002A98F
:10125000404604F069FF02220C21384604F01DF9D3
:1012600002220D21384604F018F90427C820ADF8F1
:101270001470ADF81C00ADF81660ADF8185005A953
:10128000404605F00BFA02231A460321404605F0BA
:101290006EFB0121404605F0F0FA0122114640465E
:1012A00005F0CBFA0121404604F0B6FF42F210717E
:1012B000404604F07BFFDE4814300480A8F800505C
:1012C0004FF4C06003F0A8FF1E208DF820008DF8B9
:1012D00021708DF822408DF8235008A803F0A1FF5B
:1012E0000AB0BDE8F0812DE9F0418AB00121082063
:1012F00004F036FA0121084604F014FA032002260D
:101300008DF804608DF805000024CA4F00908DF818
:10131000064001258DF807506946384604F034F838
:101320004FF6FF70DFF81083ADF808400390ADF87A
:101330001040ADF80A4002A9404604F0F5FE022232
:101340000021384604F0A9F802220121384604F0B1
:10135000A4F80427C820ADF81470ADF81C00ADF84F
:101360001660ADF8185005A9404605F097F902231C
:101370001A460321404605F0FAFA0121404605F0DD
:101380007CFA01221146404605F057FA01214046F9
:1013900004F042FF42F21071404604F007FFA648F5
:1013A00014300480A8F800504FF4C06003F034FFFC
:1013B00032208DF820008DF821708DF822408DF8B4
:1013C000235008A803F02DFF8AE72DE9F0419CB0D7
:1013D00001219A4804F0A6F901210D02284604F0E3
:1013E000C9F997480024CDE90040964802A94FF07A
:1013F000080881E81101A800CDE9054040000790E8
:101400008000CDE908050AA90001012581E8310025
:101410008D4E0D94694630460E9404F07BFC0121FC
:10142000304604F0B0FC03273C268DF85870159622
:101430008DF85B4015A97F4803F0A6FF8DF8587022
:1014400015968DF85B4015A9804803F09DFF380480
:10145000CDE91740B001CDE9194017A804F05FFAB3
:101460001194129413942806754C0F908DF84050E7
:101470004C3C8DF841508DF850800FA9204604F067
:1014800023FA042301220221204604F092FA0423C5
:1014900002220321204604F08CFA04230322194679
:1014A000204604F086FA04231A460521204604F05B
:1014B00080FA042305220C21204604F07AFA042342
:1014C00006220D21204604F074FA042307220E217F
:1014D000204604F06EFA042308220F21204604F06F
:1014E00068FA0121204604F0E1FA0121204604F0C7
:1014F000D3FA0121204604F029FA204604F093FA99
:101500001CB0EEE608B54FF4E06003F085FE252040
:101510008DF8000000208DF801008DF802000120F8
:101520008DF80300684603F07CFE08BD70B50546E3
:1015300096B00121102004F01DF90121084604F0A5
:10154000F1F80121880504F0EDF84FF4C060139024
:1015500002208DF8500000248DF852408DF8534041
:10156000344E8DF8510013A9304603F00DFF0722C9
:101570000921304603F091FF07220A21304603F08B
:101580008CFF0F95ADF844400C20314DADF8404034
:10159000ADF84600ADF84240ADF848400FA92846E6
:1015A00005F05BFA0121284605F0C8FA4FF4A06067
:1015B00003F032FE3A208DF854008DF855408DF836
:1015C000564001208DF8570015A803F02AFE1E4E44
:1015D0003036304604F016FB4FF00060009019489A
:1015E00069461030CDE902040A200490281D0190BC
:1015F0000015CDE905408010CDE9084040020A9071
:1016000004200B9007940320CDE90C0430460E947F
:1016100004F080FB01224021284605F026FB012230
:101620001021304604F024FC012113E0000C02409C
:101630000008004000000240000C0040050040008F
:101640004C2001401C0300201064024000080240AE
:1016500000100140304604F096FB16B070BDF0B5A6
:101660000646012197B0480504F05CF801214D04BD
:10167000284604F075F80121082004F053F8602092
:10168000139002208DF8500000248DF852408DF800
:1016900053408DF8510013A9FE4F384603F074FEF5
:1016A00007220521384603F0F8FE072206213846B6
:1016B00003F0F3FE0F96ADF844400C20F64EADF863
:1016C0004040ADF84600ADF84240ADF848400FA9A3
:1016D000304605F0C2F90121304605F02FFA4FF4EB
:1016E000A06003F099FD11208DF854008DF855404D
:1016F0008DF8564001208DF8570015A803F091FD94
:10170000E64F384604F07EFAA8020090402003908D
:10171000E34802903C200490301D01900015CDE973
:1017200005408010CDE908400420CDE90A50079417
:101730000320CDE90C04694638460E9404F0EAFA19
:1017400001228021304605F090FA012280213046A6
:1017500005F08BFA01221021384604F089FB0121A3
:10176000384604F010FB17B0F0BD70B505460121F6
:1017700096B0880403F0F4FF0121082003F0D2FFA3
:101780000121480503F0CEFF4FF440701390022072
:101790008DF8500000248DF852408DF85340BD4E16
:1017A0008DF8510013A9304603F0EEFD0722082101
:1017B000304603F072FE07220921304603F06DFE29
:1017C0000F95B84EADF84040ADF844400C25ADF84B
:1017D0004240ADF84840ADF846500FA9304605F0FC
:1017E0003CF90121304605F0A9F94FF4A06003F05F
:1017F00013FD8DF854508DF855408DF8564001205A
:101800008DF8570015A803F00CFDA44D783D28462F
:1018100004F0F8F94FF000600090A348CDE902040D
:1018200008200490301D01900015CDE9054080107E
:10183000CDE9084040020A9004200B900794032051
:10184000CDE90C04694628460E9404F063FA01229F
:101850004021304605F009FA01224021304605F0CA
:1018600004FA01221021284604F002FB0121284637
:1018700004F089FAF1E6F0B50646012197B0C804F4
:1018800003F06EFF0121084603F04CFF01214805DB
:1018900003F048FF02208DF8500000248DF85240DC
:1018A0008DF85340814F03258DF85100139513A9EE
:1018B000384603F069FD08220021384603F0EDFDAB
:1018C00008220121384603F0E8FD0F96ADF84440A8
:1018D0000C20774EADF84040ADF84600ADF84240E0
:1018E000ADF848400FA9304605F0B7F80121304661
:1018F00005F024F94FF4A06003F08EFC0D208DF864
:1019000054008DF855408DF8564001208DF8570051
:1019100015A803F086FC614F603F384604F072F969
:1019200078050090604869460F38CDE90204082028
:101930000490301D01900015CDE905408010CDE9DF
:101940000840400207940A900420CDE90C540B9003
:1019500038460E9404F0DEF901224021304605F0AD
:1019600084F901224021304605F07FF9012210213F
:10197000384604F07DFA0121384604F004FAF2E614
:101980002DE9F0418046012196B0480503F0CAFEDA
:101990000121080503F0E4FE01210C2003F0C2FE42
:1019A00002258DF8405000248DF84240394F04261E
:1019B0008DF843400F968DF841500FA9384603F03B
:1019C000E3FC8DF840508DF842408DF84340E8022A
:1019D0008DF84150374D0F900FA9284603F0D4FCE5
:1019E00008220221384603F058FD08220C2128461F
:1019F00003F053FD4FF4A06003F00EFC2F208DF890
:101A0000540005208DF855008DF8560001208DF802
:101A1000570015A803F005FCADF84C400C20264DEE
:101A2000ADF84840ADF84E00CDF84480ADF84A40DE
:101A3000ADF8504011A9284605F00FF801212846BD
:101A400005F07CF8154F1837384604F0DBF87006BF
:101A5000009040200390144869466038029031207D
:101A60000490281D01900015CDE905408010CDE9B6
:101A700008404002CDE90A0607940320CDE90C0492
:101A800038460E9404F046F901228021284605F0DC
:101A9000ECF813E0000C024000440040A06002405B
:101AA0007C010020004800404A0300200000024062
:101AB000004C00400008024000500040012210216C
:101AC000384604F0D5F90121384604F05CF916B027
:101AD00007E430B585B00121082003F023FE012181
:101AE000880303F047FE00240C208DF810400125E8
:101AF00003908DF8135003A9FE4803F045FC022122
:101B0000032005F01CF9042000908DF804401020FB
:101B10008DF805008DF80650684604F011FA08208B
:101B20008DF808008DF809408DF80A408DF80B50AB
:101B300002A803F076FB05B030BD10B5012810D027
:101B4000032819D0042822D0052809D1EA4C2046C0
:101B500005F01AF84021204605F0A7F80028F9D032
:101B600010BDE64C204605F00FF84021204605F058
:101B70009CF80028F9D010BDE14C204605F004F88F
:101B80004021204605F091F80028F9D010BDDD4C29
:101B9000204604F0F9FF4021204605F086F8002891
:101BA000F9D010BDD84900204862D8490861D84909
:101BB0000860D84948657047D34900204862D34936
:101BC00008614FF0804250624861D34A10608861DA
:101BD000CF490860CF49486570474FF080410020E9
:101BE0004862CA4948617047CB4900200860C7492C
:101BF0008861704770B5C54D0020E87004466121CA
:101C00000120FFF79AFF3220FEF735FF641C022CFB
:101C1000F5D30120E8707A20A87070BD70B5BB4D77
:101C200000206871044661210320FFF786FF3220FF
:101C3000FEF721FF641C022CF5D3012068717A2085
:101C4000287170BD2DE9F14F96B0002014908DF8E9
:101C50000000B24C8DF828004FF40045169AAB49AD
:101C6000AC486E1027154FF480584FF40059122AD3
:101C70006BD2DFE802F009262C3034383C4044486F
:101C80004E52575D61656DFD088901280CD0012217
:101C90002946204603F0F6FB2946204603F0E4FBE4
:101CA000014600229EA04EE000222946204603F075
:101CB000E9FB2946204603F0D7FB01460022A0A0FD
:101CC00041E0924801228030416FA5A03BE0816D48
:101CD0000222A5A037E0C16D0322A7A033E0416E28
:101CE0000422A8A02FE0016E0522A9A02BE0062265
:101CF000C969AAA027E0816E0722ABA023E00C22CD
:101D0000096AACA01FE0FEF74AFE01460922ADA019
:101D100019E0416F0822ADA015E0AE4801680B2222
:101D2000ADA010E0FEF78DFE01460A22ADA00AE04C
:101D3000016F0D22ADA006E00E22896AAFA002E07D
:101D4000C16E1022B0A0FEF76BFC17B0BDE8F08F9B
:101D5000DFF8BCA20121504603F07CFB0246ADA196
:101D6000684606F067FE69460AA806F037FB0221BE
:101D7000504603F06FFB0246A6A1684606F05AFEE5
:101D800069460AA806F02AFB3146504603F062FB7A
:101D90000246A0A1684606F04DFE69460AA806F074
:101DA0001DFB2946504603F055FB024699A16846A3
:101DB00006F040FE69460AA806F010FB08215046CE
:101DC00003F048FB024693A1684606F033FE6946DD
:101DD0000AA806F003FB4FF48071504603F03AFB6B
:101DE00002468CA1684606F025FE69460AA806F060
:101DF000F5FA0421504603F02DFB024685A1684602
:101E000006F018FE69460AA806F0E8FA8021504656
:101E100003F020FB02467FA1684606F00BFE6946F0
:101E20000AA806F0DBFA4021504603F013FB0246F5
:101E300078A1684606F0FEFD69460AA806F0CEFACB
:101E40003946504603F006FB024672A1684606F08A
:101E5000F1FD69460AA806F0C1FA4146504603F072
:101E6000F9FA02466BA1684606F0E4FD694600E017
:101E7000DCE00AA806F0B2FA4D464946504603F0A7
:101E8000E9FA024663A1684606F0D4FD69460AA84D
:101E900006F0A4FA2021504603F0DCFA02465DA1C8
:101EA000684606F0C7FD69460AA806F097FA1021B1
:101EB000504603F0CFFA024656A1684606F0BAFD36
:101EC00069460AA806F08AFA2946204603F0C2FAB3
:101ED000024650A1684606F0ADFD69460AA806F024
:101EE0007DFA3146204603F0B5FA024649A168461C
:101EF00092E00000000C0240005000400010014041
:101F000000480040004C004000000140000000205C
:101F10002408004000010020240400400008024082
:101F2000524F424F5420322044414E4720434841B3
:101F3000592053414E20444F3A20202000000000F9
:101F4000524F424F5420322044414E472043484193
:101F5000592053414E2058414E483A20202000003D
:101F6000494D553A000000004C415A45525F4241EC
:101F7000545F424F4E473A004C415A45525F5341DD
:101F8000553A00004C415A45525F504841493A0089
:101F90004C415A45525F545241493A004249454EDC
:101FA0002054524F20593A004249454E2054524F36
:101FB00020583A004249454E2054524F204D414D41
:101FC0003A000000454E5F464C3A000054414D5FD8
:101FD0005900000034040140536572766F5F43611D
:101FE0006D3A0000544F4E473A00000053494C4FA1
:101FF0005F5448415F424F4E473A000054616D20A4
:1020000053494C4F3A00000054414D5F58000000C6
:10201000001002402564000006F00CFD69460AA885
:1020200006F0DCF90F220AA9F9A0EAE03946F948DE
:1020300003F01AFA0246AFF22401684606F0FAFCF1
:1020400069460AA806F0CAF98021204603F00CFA76
:102050000246AFF24001684606F0ECFC69460AA869
:1020600006F0BCF94FF40071204603F0FDF902467A
:10207000AFF26001684606F0DDFC69460AA806F08A
:10208000ADF9DFF894A33946504603F0EDF9024666
:10209000AFF28001684606F0CDFC69460AA806F05A
:1020A0009DF94FF4006B5946DA4803F0DDF902461A
:1020B000AFF2A001684606F0BDFC69460AA806F02A
:1020C0008DF944464146D34803F0CEF90246AFF2BB
:1020D000BC01684606F0AEFC69460AA806F07EF927
:1020E0004946CC4803F0C0F90246AFF2D801684631
:1020F00006F0A0FC69460AA806F070F93146C5480A
:1021000003F0B2F90246AFF2F401684606F092FC21
:1021100069460AA806F062F92946BE4803F0A4F908
:102120000246AFF21011684606F084FC69460AA820
:1021300006F054F93946504603F096F90246AFF2DC
:102140002C11684606F076FC69460AA806F046F9A6
:102150003146504603F088F90246AFF2481168460E
:1021600006F068FC69460AA806F038F95946504658
:1021700003F07AF90246AFF26411684606F05AFCA1
:1021800069460AA806F02AF9A44D4FF48071284642
:1021900003F06AF90246AFF28411684606F04AFC81
:1021A00069460AA806F01AF95946284603F05CF970
:1021B0000246AFF2A011684606F03CFC69460AA848
:1021C00006F00CF92146284603F04EF90246AFF21C
:1021D000BC11684606F02EFC69460AA806F0FEF817
:1021E00040218C4803F040F90246AFF2D81168460E
:1021F00006F020FC69460AA806F0F0F811220AA9A8
:1022000087A0FEF76CFAA0E50121874803F0BBBD6B
:1022100011B48648016D009A914201DD002101E070
:10222000016D491C0165006D18BC0BE52DE9F047F7
:102230000025794E074601244FF400594FF4804899
:102240004FF4805A00224146304603F01BF910201B
:10225000FEF705FC274201D0012200E0002249469A
:10226000304603F00FF901224146304603F00AF9E7
:102270001020FEF7F4FB5146304603F0EBF800B1B6
:102280002543600010F0FF04DCD12846BDE8F0874C
:1022900070B5614E4FF4004500222946304603F0E8
:1022A000F1F81020FEF7DBFB0120FFF7BFFF422013
:1022B000FFF7BCFFFF20FFF7B9FFFF20FFF7B6FFD6
:1022C0005A4CB8342070FF20FFF7B0FF6070FF2039
:1022D000FFF7ACFFA070FF20FFF7A8FFE070FF2022
:1022E000FFF7A4FF2071FF20FFF7A0FF60712946D0
:1022F0003046BDE87040012203F0C4B870B5464EC8
:102300004FF4004500222946304603F0BBF8102068
:10231000FEF7A5FB0120FFF789FF4220FFF786FFAC
:10232000044601222946304603F0ACF81020FEF79F
:1023300096FB204670BD3E4A00219167C2793B4919
:10234000B8310D2A09D0FF20087048708870C87015
:102350000871487188710020704702780A704278CD
:102360004A7082788A70C278CA7002790A7142799A
:102370004A7180798871012070472C482C49B83007
:102380000278FF2A05D14278FF2A02D18278FF2AFB
:1023900009D08A6F531C8B67C82A03DDFF210170A7
:1023A0004170817070470020886770471F48B830BF
:1023B000807970471D48B8300078400601D401206C
:1023C0007047002070471948B8300078800701D462
:1023D000012070470020704770B5144C0125803CE7
:1023E000002604F1FC03002803D006DDD8709D70A0
:1023F00007E094F82C00D87003E0C0F10000D8701A
:102400009E70002916D019DDD9719D711AE0000067
:10241000493A000000040240000C02400000024063
:102420004F55543A00000000A06002400001002017
:102430000000002094F82C00D87103E0C1F10000E6
:10244000D8719E71002A03D006DDDA729D7270BDCC
:1024500094F82C00D87270BDC2F10000D8729E7240
:1024600070BDFC49C870C871C8727047F949012035
:10247000FC3988627047F748C178032907D2C179CF
:10248000032904D2C07A032801D20120704700201A
:102490007047F048FC38406DA0F5EA41303901D072
:1024A0000120704700207047FFF7A4BBEA48B0F94D
:1024B0000C0040427047E848B5EEC00A8030D0EDCD
:1024C000000AF1EE10FA02D230EE600A01E030EEBE
:1024D000200ABDEEC00A10EE100A704710B5041EA7
:1024E000DD482DED048B00F180009FEDDC8B11D0D9
:1024F000006C14DA06F019F941EC190B204606F0CD
:1025000014F953EC182B06F02FF853EC182B06F0A7
:1025100025F813E09FEDD30ABDEC048B10BD06F047
:1025200004F941EC190B204606F0FFF853EC182B88
:1025300006F01AF853EC182B05F06FFF53EC192B2B
:1025400006F084F806F015F900EE100AE4E7B5EE9F
:10255000C00AF1EE10FA01DAB1EE400A7047002825
:1025600000DA40427047BC49803191ED080AD1ED54
:10257000091AF1EE400A80EEA11A00EE900AF8EE78
:10258000E00A01EE200ABDEEC00A10EE100A704704
:10259000F0EE401A9FEDB40AF5EEC01AF1EE10FA13
:1025A00001D2F1EE611AF5EEC00AF1EE10FA01D295
:1025B000F1EE600AB5EEC01AF1EE10FA01D2B1EEFA
:1025C000411AF4EEC01AF1EE10FA01DDB0EE610A24
:1025D000F4EEC00AF1EE10FA01DDB0EE600AB4EEDE
:1025E000C01AF1EE10FA01DDB0EE410A70479A48C8
:1025F0008030006C704798488030C06E704770B56E
:10260000954D2DED068B8035B0EE408A05F18004A6
:10261000686DA0F5EA4130397DD02A6E696FD5ED3D
:10262000190A891A401A00EE100A95ED031AA86ECD
:10263000B8EEC00A00EEC10AD5ED020AC0EE208A4B
:1026400006F084F895ED0D0A41EC190B20EE280AEE
:1026500010EE100A06F07AF841EC100B06F018FAAA
:102660009FED82AB51EC100B53EC1A2B05F07CFF65
:1026700053EC192B05F072FF06F07BF82060A86E72
:1026800006F064F895ED040AD5ED0D0A41EC190B3E
:1026900038EE800A20EE200A10EE100A06F056F8F6
:1026A00041EC100B06F0F4F99FED721B51EC100B8E
:1026B00053EC112B05F058FF53EC192B05F04EFF8E
:1026C00006F057F8606095ED050AD5ED0D0A38EE75
:1026D000800A20EE200A10EE100A06F037F841ECCE
:1026E000100B06F0D5F953EC1A2B51EC100B05F03A
:1026F0003BFF06F03EF8A060B5EEC08AF1EE10FA9E
:1027000038D0E86B80B1012814D0022819D00328F2
:1027100030D123E0FFE79FED530A84ED020A84EDF8
:10272000010A84ED000AE7E794ED000A30EE480A5A
:1027300084ED000A94ED010A30EE480A84ED010AA6
:1027400005E094ED000A30EE480A84ED000A94EDAD
:10275000020A30EE480A84ED020A0BE094ED000A0A
:1027600030EE480A84ED000A94ED010A30EE480A82
:1027700084ED010A94EC030AFFF70AFF3648D0ED16
:102780001F0AF8EEE00A80EE801ABDEEC10A10EED4
:10279000100AA864296C814200DD28640120A86326
:1027A000BDEC068B70BD2C490022803100284A64A4
:1027B000C8640FD10A649FED2B0A47F2305081EDB7
:1027C0001A0A4865886581ED190ACA63CA65CA662E
:1027D0008A6214E770472048803090ED190AB5EE00
:1027E000C00AF1EE10FA04D1C16B11B9C16D002914
:1027F00009D000219FED1B0A80ED190AC163C16554
:10280000416F0166FBE6704713488030C0ED080A4F
:1028100080ED090A7047104A8032536D834209D116
:10282000536C8B4206D1D2ED1A0AF4EE400AF1EE57
:1028300010FA23D05164116C09B905211164516F4C
:10284000116682ED1A0A50650020106592ED190A92
:10285000D5E600007C010020000000209A9999999B
:102860009999B93F000000006F12833A0000000000
:10287000000000C000000000000000407047FF4A58
:1028800030B4D36D834209D1D2ED190AF4EE400A77
:10289000F1EE10FA02D1D36B8B4226D0546D47F281
:1028A00030539C4219D13224546405241464984254
:1028B00013DAB5EEC00A0123F1EE10FAD36602DD99
:1028C000536F834207DCB5EEC00AF1EE10FA04D272
:1028D000536F834201DAB1EE400AD163D06582EDD5
:1028E000190A0020106530BC89E630BC70470146EB
:1028F00047F23050C3E71FED250A8CE710B5DF4CD7
:102900002DED028BF0EE608AD4ED160AB0EE418A0E
:10291000F8EEE00AF4EE400AF1EE10FA0BD1616C29
:10292000814208D1D4ED170AF8EEE00AF4EE680A05
:10293000F1EE10FA4BD0FDEEC00A0146C4ED160AC6
:10294000D4ED1D0AF8EEE00A30EE600ABDEEC00AD2
:1029500010EE102A1FED3D0A1046FFF75CFF94EDC4
:102960001D0AF8EEC00A78EEE00AFDEEE00A10EE6D
:10297000900A002800DA4042B8EEC00A642819DD47
:10298000F4EEC08AF1EE10FA01DCB1EE488A18EEDE
:10299000100A05F0DBFE00BF05F0EBFEFDEEE80AD5
:1029A000BDEC028B00EE100ABDE81040002110EED5
:1029B000900A64E738EEC00A10EE100A05F0C6FE71
:1029C0009FEDAF1B53EC112B05F0CEFDE4E7BDEC02
:1029D000028B10BD10B5A94CE06E01282FDD616F90
:1029E000E06D401AFFF7BBFD0A2812DA00202064D0
:1029F0001FED640A606484ED190AFFF700FEE06EC3
:102A0000411CE166B0F5FA7F19DDBDE810400020F9
:102A1000C9E60520E16E6064FA29206401DDFB202F
:102A2000E066E16D606F884202DDBFEE000A01E002
:102A3000B7EE000A84ED190ABDE81040DFE510BDCD
:102A40008E4910B591ED1A0AB5EEC00AF1EE10FAF2
:102A500070D10A6C002A6DD0C86D47F2305398428D
:102A600068DA91ED190AB5EEC00AF1EE10FA7CD0E1
:102A70004C6D9C425FD1B5EEC00AF1EE10FA04DD58
:102A8000CA694B6F821A9A4209DBB5EEC00AF1EEB1
:102A900010FA17D2CA694B6F02449A4212DDCA6E0D
:102AA000032A47DAC01AFFF75AFD0A28C86D0ADA66
:102AB0000867002008641FED950A486481ED190A33
:102AC0000220C86679E091ED100AD1ED190A4A6F2B
:102AD000B8EEC00A904260EE200A91ED070AB8EE07
:102AE000C01A80EE810A0FDDFFF731FD4A6FC86D15
:102AF000801AFFF734FD00EE900AB8EEE01AD1ED2F
:102B0000010A40EE010A0EE0FFF721FD4A6FC86D91
:102B1000801AFFF724FD00EE900AB8EEE01AD1ED1E
:102B2000010A50EE410A91ED100AB8EEC01A80EE8B
:102B3000810A42E046E0B5EEC00AF1EE10FA1ADD75
:102B400000EE900AB8EEE01A00EE902AF8EEE00AE5
:102B500000EEC01AD1ED060AF8EEE00A31EE601A76
:102B6000D1ED1D0AF8EEE00A00E029E0B4EEE01A2B
:102B7000F1EE10FA1DD3B5EEC00AF1EE10FA1CD238
:102B800000EE900AB8EEE01A00EE902AF8EEE00AA5
:102B900000EEC01AD1ED060AF8EEE00A31EE201A76
:102BA000D1ED1D0AF8EEE00AB4EEE01AF1EE10FAEB
:102BB00003DD496F401AFFF791FCBDE810401EE5A8
:102BC000086EF6E710BD2D48C16E02290CDA1FED24
:102BD000DB0A002280ED1A0A80ED190A47F2305113
:102BE000C2634165C0E91612026D521C0265016B99
:102BF0008A4202DB0165816A09B1C06A00E00020F7
:102C00002FE41E4A136D5B1C1365834204DD106CB8
:102C10000844106400201065704710B5FFF746FCAB
:102C2000164C6067FFF7D6FE626C206C4FF0FF31E8
:102C3000002A0BDD90420ED006DAA16C88420ADA37
:102C4000FFF791FC012104E0E06F02E000283BDD8A
:102C5000E06CFFF7D6FFD4E91D01814203D0FFF7F6
:102C6000EFFE606FA067A06B002830D094ED100AD3
:102C7000024BB8EEC00A803306E00000800000205E
:102C80007B14AE47E17A743FD3ED020A20EE200AAE
:102C9000FFF711FC94ED100AD3ED010A0246B8EEDD
:102CA000C00A20EE200AFFF706FC94ED100AD3EDCF
:102CB000000A0146B8EEC00A20EE200AFFF7FBFB2F
:102CC000BDE81040FFF788BBBDE810407BE710BDB2
:102CD00070B5FB4D0646686E801AC0EB0010FFF71A
:102CE0003EFC04464FF41670844200DD04469FED1E
:102CF000F51A9C4207DA00EE101A3046F8EEC00AC8
:102D00009FEDF10A0FE000EE101A686EF8EEC00AAF
:102D10009042304603DD614200EE101A01E000EE01
:102D2000104AB8EEC00ABDE87040E7E570B5E44D62
:102D30000646286E801AC0EB0010FFF710FC044610
:102D40004FF41670844200DD04469FEDDE1A9C426B
:102D500007DA00EE101A3046F8EEC00A9FEDDA0AE4
:102D60000FE000EE101A286EF8EEC00A90423046CE
:102D700002DD00EE104A02E0614200EE101AB8EEE9
:102D8000C00ABDE87040B9E530B4CD4C646EA41AF9
:102D900001D4224600E06242C2EB02124FF4E17518
:102DA000AA4200DD2A469FEDC71A9C420ADD00EECA
:102DB000101AA2F5E162F8EEC00A00EE102AB8EE91
:102DC000C00A13E05B429C420ADAC2F5E16200EEFF
:102DD000102A00EE901AB8EEC00AF8EEE00A05E0FC
:102DE00000EE101AF8EEC00A9FEDB80A30BC85E577
:102DF00030B4B34C246EA41A01D4224600E06242DF
:102E0000C2EB02124FF4E175AA4200DD2A469FEDA3
:102E1000B01A9C420ADDC2F5E16200EE102A00EE13
:102E2000901AB8EEC00AF8EEE00A0FE000EE101AB1
:102E30005B429C42F8EEC00A06DAA2F5E16200EEBF
:102E4000102AB8EEC00A01E09FEDA00A30BC55E59B
:102E50002DE9F0419A4BB8332DED028B9878401F45
:102E6000F52801D8012400E000241879401FF52836
:102E700001D8012500E00025914A187802F1B80236
:102E8000C10652780FD541060DD581060BD5010636
:102E900009D544B13DB1910605D5BDEC028B0020AA
:102EA000BDE8F0417FE45107DFED8A8A03D4232196
:102EB000B0EE688A02E00A219FED858A9846804E2E
:102EC000C306A6F1800647F230574FEA40630CD4A0
:102ED000002B54DA83064FEA006027D500284FEA1A
:102EE000C2702ADA98B3002034E0002B4FEA8063E6
:102EF0000BDB002B4FEA006022DA00284FEAC27099
:102F000026DA20B34FF4E16024E0002B4FEA0060A2
:102F100006DB002833DAD00731D04FF4617019E0B6
:102F2000002823DBD0072AD06B4813E0002826DADC
:102F3000D00724D04FF4E1700CE040B1674809E0BD
:102F400000281CDAD0071AD040F2465002E016E002
:102F5000A8B16348FFF7CFFC98F80000C1060ED572
:102F600041060CD581060AD5000608D584BB3DB1C3
:102F7000706DB84204D00020FFF715FC00E03CBBA8
:102F800098F80210404605290DD24278D2070AD09F
:102F9000706DB8424FF0000002D09FED520A12E06F
:102FA000B1EE480A0FE0FA2913D998F80100C007DA
:102FB0000FD0706DB8424FF0000002D0B0EE680A3A
:102FC00001E0B0EE480ABDEC028BBDE8F0418EE4B2
:102FD000FFE7BDEC028BBDE8F041FFF7FCBB70B52D
:102FE00037486423404A8569691C81610146CC6980
:102FF0000021642D03D2D5892C44C46104E0B4FBC4
:10300000F3F481618465C161056A6C1C04622C4C17
:10301000642D646A03D295892C44446204E0B4FBB5
:10302000F3F40162C4654162856A6C1C8462244CBD
:10303000642DE46A03D215892C44C46204E0B4FB15
:10304000F3F481624466C162056B6C1C04631C4C22
:10305000642D646B03D253892344436304E0B4FBBF
:10306000F3F3016303664163856B6B1C8363144B4D
:10307000DC6B3223322D03D215882C44C46304E068
:10308000B4FBF3F481638466C163056C174E6C1C5A
:1030900004640B4C322D646C03D255882C44446478
:1030A00004E0B4FBF3F4F46101644164856C6C1CCE
:1030B0008464034C322DE46C1AD2918821441BE0C5
:1030C00000010020CDCCCC3D000000000000E14418
:1030D000CDCC4C3E9A99993E7CFCFFFF3EFEFFFF13
:1030E000BAFAFFFF9A9999BE1C0300200000002045
:1030F000B4FBF3F232628164C16470BD30B4FE4D42
:10310000029C1FED0C1A2D6EEB1AA34204DD00EE9B
:10311000102AF8EEC00A07E06442A34209DA00EE82
:10312000102A4942F8EEC00A00EE101AB8EEC00AA2
:1031300007E000EE102A1FED1D1AF8EEC00A1FED81
:103140001E0A30BCFFF7DABB30B4EB4D029C1FED1A
:10315000231A2D6EEB1AA3420ADDC1F5167100EE9B
:10316000101A00EE902AB8EEC00AF8EEE00A0FE05E
:1031700000EE102A6442A342F8EEC00A06DA01F516
:10318000167100EE101AB8EEC00A01E09FEDDB0ADE
:1031900030BCFFF7B3BB70B5D94D0121284602F012
:1031A00059F9D84C60B1A079C043A07102E0012068
:1031B00004F0A3FD0121284602F04CF90028F6D0C6
:1031C000A279D1484FF4806122B10022BDE870405D
:1031D00002F058B90122F9E7F0B5CA48022400F517
:1031E000BE72816CC369C8398B4246DB066B016CC9
:1031F000B14200DA0664036C416B8B4200DD01646E
:10320000036A01250A27B34201DA957303E0002619
:103210008B4202DD9673D773F0BD076CD91B01D4C6
:103220008C4601E0C1F1000CBCF1050F25DDBB426D
:1032300001DD967300E09573002900DA4942AE4B38
:10324000D960C46A04EBD4704010642C01DD64259D
:1032500000E005468D4201DB084603E0642C00DDFA
:103260006420D860142805DAC82C01DC052000E0B1
:103270001420D860187BD073F0BDD473F0BDF0B5C6
:10328000A049D1E91304A04200DACC64D1E91202CA
:10329000824200DDC864984ACB69002532267C3220
:1032A000A34201DA957503E00124834202DD94759F
:1032B000D675F0BDCE6C981B01D4074600E047429E
:1032C000052F15DDB34201DD947500E09575FFF71C
:1032D00046F943008848C360C96A8B4201DDC1607A
:1032E00003E00F2B01DA0F21F9E7007BD075F0BD69
:1032F0000220FBE780488349B8304279C86CFA2A3B
:1033000004D90B6D984201DD401E05E0052A07D265
:103310008A6C904204DA401CC864C82004F0EDBCFA
:103320007047F0B57749D1E91650A84200DACD656B
:103330004E6DC86DB04200DDCE656F4B0124322763
:10334000986E03F17C02A84201DA947403E0002530
:10335000B04202DD9574D774F0BDCE6D801BFFF7CF
:10336000FEF8022817DD986ECE6DB04201DD95742F
:1033700000E09474801BFFF7F2F84000D860C96A3F
:10338000884200DDD960D8681E2801DA0520D8609F
:10339000187BD074F0BD0220FBE770B501225A4DB6
:1033A000D6023146284602F06DF80022291528463B
:1033B00002F068F8534C206DE06440F2DC5004F0F9
:1033C0009CFC07E04B30814204DA0122314628465A
:1033D00002F058F8206DE16900F10A029142F1DC37
:1033E0004FF4FA6004F089FCA06CE06402E0012074
:1033F00004F083FCA06CE16932388142F7DB0020E5
:103400003D4E6062B06DFA2801DA012500E000252A
:10341000052004F072FC606A401C60623228F1DB17
:10342000284670BD374810B5816C0A39C164416EB9
:10343000C165816B0164C16E0167344940F26C70F3
:103440000860314C0022C914204602F01BF800220B
:1034500021152046BDE8104002F014B82B4C40F274
:10346000A465241F25604FF47A7740F6B8362068AB
:10347000643820602068B84203D92560304604F0E3
:103480003CFCC82004F039FCF1E70020FFF78BF981
:103490004FF47A74204604F030FCFBE71B48001F11
:1034A000036818490A6F934207D003689342026881
:1034B00001D9521E00E0521C0260486F04F01DBC8E
:1034C00070B5134DFF21284603F05EFB0A2004F07F
:1034D00014FC0C4C2846218903F056FB0A2004F00A
:1034E0000CFC6189284603F04FFB0A2004F005FC20
:1034F0000648001F00680DE000010020000016448F
:103500000010024000000020000402403804014086
:103510000048004080B26421B0FBF1F1284603F07E
:1035200033FB0A2004F0E9FB218904F580700129AE
:103530000CD0B0F8640000BFC0F34E01284603F081
:1035400023FBBDE870400A2004F0D7BBB0F8600050
:10355000F2E72DE9F05FDFF8F4A3142646247D2579
:103560000027C821CAF82C10F94940F2A4604FF096
:103570000A080860DAF84810E800CAF84C1004F0AD
:10358000BCFB00210AF5807BCAF8241077E000BF5D
:103590004FF000095BE000BFAA194FF000099A4202
:1035A00009DDFEF7DCFF0A2290FBF2F2DAF8403088
:1035B0009A1A521E0BE0AA1B9A420ADAFEF7CFFFB4
:1035C0000A2290FBF2F2DAF840301A44521CCAF890
:1035D0004020486F04EB080282420ADD001BFEF720
:1035E000BEFF052290FBF2F2DAF85C309A1A521E06
:1035F0000DE0A4EB080282420BDA001BFEF7AFFFDE
:10360000052290FBF2F2DAF85C301A44521CCAF838
:103610005C20C86E496F084307D0DAE91621914251
:1036200003DDDAF8540081420DDB3846DAF8201069
:103630007F1CCAF84010142805DDFA20CAF82C00B7
:103640000020BDE8F09F4FF4C87004F056FBDBF893
:103650006C305946581B01D4024600E04242B24247
:103660009ADC4A6F121B00D55242424594DC09F1A4
:1036700001090A2004F041FBB9F1640FE7DBDBF834
:103680006C005946401B00D54042B04280DC486F78
:10369000001B00D540424045F8DC642004F02DFBBF
:1036A000DAF82400401CCAF824000A28E7DBFA20D4
:1036B000CAF82C000120C4E72DE9F14F2DED028B53
:1036C000FFF7B0FEDFF884A24FF47A7B0AF1800A9C
:1036D000DFEDA08A9FEDA08A9C4E0AF180044FF096
:1036E0000A0900224FF400619C4801F0CBFEB06B48
:1036F0003064B06CF064092700257781584604F0E7
:10370000FCFAA84673E0E80712D040F2A4603067E4
:10371000A6F80A90584604F0F0FA778140F6B830DF
:1037200004F0EBFA616FE06E6D1C084303D01CE0FF
:103730004FF48C60EBE702984FF000010128B6EEE1
:10374000000A04D0A8F54870FFF799F805E008F5DD
:103750004870F9E7012004F0D0FA616FE06E084389
:1037600003D1DAF86C000028F4D10020FFF71BF831
:10377000616FE06E08431AD102984FF000010128F2
:10378000B6EE000A05D008F5487000BFFFF777F8DD
:1037900005E0A8F54870F9E7012004F0AEFA616F82
:1037A000E06E084303D1DAF86C000028F4D1002061
:1037B000FEF7F9FF616FE06E084316D140F2DC506E
:1037C00030670021B6EE000A4046FFF758F802E0E5
:1037D000012004F092FADAF86C000028F8D1FEF724
:1037E000E2FF40F6B83004F088FA0A2D04DCE06EFF
:1037F00010B9606F002886D00020FEF7D4FF14E0D7
:103800007D2804DA4FF00000BEEE000A04E006DD79
:103810004FF00000B6EE000AFFF769F801E0FEF78E
:10382000DAFF616FE06E084373D0E06E7D38FEF71B
:1038300096FE0A2802DDE06EFF28E1D10020FEF7A7
:10384000B2FF40F2A467424D50E0606F502815DD92
:103850002868B84212D2286840F2AA5188422868E3
:1038600001D2801C00E0001D2860286840F27261CF
:10387000884200D92F60142004F03FFAE06E8728B8
:1038800003DD0020B0EE680A04E0732805DA0020AA
:10389000B0EE480AFFF72BF801E0FEF79CFF28681E
:1038A0001921A0F58C60B0FBF1F0FEF758FEC0F1D5
:1038B0001601072900DA0721626FE06E104328D055
:1038C0004FF4E160FFF717F82868B842BDD32868C5
:1038D000B84205D1606F462802DAE06EFF28B4D105
:1038E0000020FEF760FF642004F007FA2868B84261
:1038F000EAD32868B84205D1606F462802DAE06E44
:10390000FF28E1D10020FEF74EFF584604F0F5F9FC
:103910004BE065E078294FF0000002DDB0EE680A68
:1039200001E0B0EE480AFEF7E2FF616FE06E084387
:1039300056D0E06E01467D3800D540422828E9DCAB
:103940000020FEF730FF4FF4E1651EE0000000208C
:1039500034040140CDCC4C3ECDCC4CBE00040240E2
:10396000462903DA4FF00501284604E006DD4FF052
:1039700005014FF00000FEF7BEFF02E00020FEF759
:1039800012FF616FE06E08432AD0E06E7D3800D5EB
:103990004042282806DC606F0146463800D5404288
:1039A0000F28DDDC0020FEF7FEFEE06E7D3800D53E
:1039B00040422828BDDC606F463800D540420F28C1
:1039C000B7DC0020FEF7EFFEFFF7C3FD40B100209B
:1039D000FEF7E9FEA6F80A90FFF7DFFC002803D106
:1039E0000020FEF7E0FE7CE6BDEC028BBDE8F88F20
:1039F0002DE9F0410F46F849F84E2DED048B51F8B2
:103A00002040318900209FEDF68ADFEDF68A9FED98
:103A1000F69ADFEDF69A06F58075012902D00229A3
:103A20007DD0F7E070626AE0286E84422FDD47B1F6
:103A3000B0EE491AF0EE690A4FF00A00B0EE680ADB
:103A40004DE0A0EB0400FEF78AFD01461E2800DDD4
:103A50001E216A69E86D801AFEF781FD00EB800087
:103A600042006B69E86DB0EE491A9842F0EE690ABF
:103A700001F1050002DDA2F561723AE002F5617222
:103A8000514200EE101A00BFB8EEC00A27E033DA48
:103A90003FB1B0EE491AF0EE690A0A20B0EE480ACA
:103AA0001DE0001BFEF75BFD01461E2800DD1E2108
:103AB0006A69E86D801AFEF752FD00EB8000420053
:103AC0006B69E86D98420DDDC2F5617000EE100A79
:103AD000B0EE491AF0EE690AB8EEC00A481DFEF7CA
:103AE0000DFF0CE0B0EE491AF0EE690A481D02F530
:103AF000617200EE102AC7E70020FEF754FE286E20
:103B0000001BFEF72CFD03288EDC012004F0F5F8E5
:103B1000706A401C70623228F1DB7BE0FFE7706264
:103B20006AE0686E844231DD47B1B0EE491AF0EECA
:103B3000690A4FF00A00B0EE480A51E0A0EB040019
:103B4000FEF70DFD02461E2800DD1E22E96D6869A4
:103B5000081AFEF704FD00EB800041006B69E86D78
:103B600098420BDDC1F5617000EE100AB0EE491A03
:103B7000F0EE690AB8EEC00A501D31E0B0EE491A05
:103B8000F0EE690A501D01F561712FE031DA3FB1A5
:103B9000B0EE491AF0EE690A0A20B0EE680A1FE09A
:103BA000001BFEF7DCFC01461E2800DD1E216A69B1
:103BB000E86D801AFEF7D3FC00EB800042006B69D1
:103BC000E86DB0EE491A9842F0EE690A01F105007D
:103BD00009DDA2F5617200EE102A00BFB8EEC00A3E
:103BE000FEF78CFE08E002F56172514200EE101AF9
:103BF000F4E70020FEF7D7FD686E001BFEF7AFFC70
:103C000003288EDC012004F078F8706A401C706292
:103C10003228F1DBBDEC048B0020BDE8F041FEF75B
:103C2000C2BD2DE9F0410546FDF7C6FF704E0122E9
:103C30009102304601F026FC01212846FFF7D8FE0C
:103C40000020FEF7B0FD0A210020FEF754FE634C71
:103C50000020684F606202E00A2004F04EF8042160
:103C6000384601F0F7FB0128F6D0606A401C60621C
:103C70003228F4DB00224FF40061304601F002FCF0
:103C80004FF47A766581304604F037F8052060817C
:103C9000304604F032F850484FF461714F4250F80A
:103CA00025602089544D012814D002282CD032E000
:103CB000286E864203DD4FF00501384603E005DA41
:103CC0004FF005014046FEF716FE04E00020FEF727
:103CD0006AFD00E08846286E801BFEF740FC012844
:103CE000E6DC18E0686E864203DD4FF005014046D1
:103CF00003E005DA4FF005013846FEF7FCFD04E06D
:103D00000020FEF750FD00E08846686E801BFEF73D
:103D100026FC0128E6DC0020FEF745FD40F6B83021
:103D200003F0EBFF606DE065BDE8F08130B52B4935
:103D30000F24314AC86B4FF42F730F38086402E028
:103D4000906D98420DDB0D6C086A401BFEF707FC76
:103D50000528F5DCC86B2044086406E0906D9842A5
:103D600003DAC86B0864012030BD0C6C086A001BC4
:103D7000FEF7F5FB0528F1DCC86B0864002030BDB8
:103D800070B5164C05460021E06B20642846FFF70D
:103D90002FFEFFF7CBFFC8B16E1C09E0E06B20647B
:103DA00000213046FFF724FEFFF7C0FF80B1761CEC
:103DB000052EF3DB6D1E0DD4E06B20640021284638
:103DC000FFF716FEFFF7B2FF0028F3D1284670BDBB
:103DD000304670BD0125D6E75403002000000020C6
:103DE00000006144000061C46666663F0000000098
:103DF0000004024000100240000100202DE9F041C3
:103E0000FD4E8046FD4C56F82870002004F5807564
:103E10006062208901280DD01EE0323081424FF0CF
:103E200002033A464FF0000101DD1E2000E00F20A2
:103E3000FEF77CFFE96D68698142EEDC10E032310B
:103E400088424FF002033A464FF0000101DD1E2088
:103E500000E00F20FEF73CFF6969E86D8842EEDC68
:103E6000052003F04AFF606A401C60623228D0DB04
:103E70004046FFF785FF05464FF47A770A2815D0AC
:103E800056F825600020FEF78EFCE06B01222064CE
:103E90009102DB4801F0F6FA40F6B838404603F0EC
:103EA0002CFF2089D74C01281CD028E0FDF784FE88
:103EB0000A214FF4E160FEF71EFD02E00A2003F044
:103EC0001CFFFCF7BEFDB842F8DB0020FEF76BFCE0
:103ED000384603F012FFFBE70223324600210F2091
:103EE000FEF724FF0421204601F0B4FA0128F3D0A4
:103EF0000BE00223324600210F20FEF7E9FE0421E9
:103F0000204601F0A7FA0128F3D00020FEF74BFC71
:103F10000A210020FEF7EFFC404603F0EEFE0020F1
:103F2000FEF741FC61210120FDF707FE384603F052
:103F3000E4FE2846F8E6B1480122816EC165416C75
:103F40000164D102AE4801F09DBAAC4810B5016ED3
:103F5000C165816CC164C16B01640122D102A848B2
:103F600001F090FAA8494FF46170086010BDA34CAD
:103F70004B202DED028BE062FDF71EFEDFEDA38AE4
:103F8000B0EE681A1FED678A3C20F0EE480A1FED7C
:103F90006C0AFEF7B3FC40F6C41502E0012003F002
:103FA000ACFEFCF74EFDA842F8DB00224FF40061A6
:103FB000934801F067FAB0EE681AF0EE480A3C2028
:103FC0009FED930AFEF79AFC4FF47A6502E0012018
:103FD00003F093FEFCF735FDA842F8DBB0EE681A5B
:103FE000F0EE480A32209FED8B0AFEF787FC002690
:103FF000894D666202E0012003F07FFE286E8C2866
:10400000F9DC606A401C60623228F7DBFDF7D4FD02
:10401000FFF708FA40F6AC57666208E00523112264
:1040200000212820FEF782FE012003F066FEFCF747
:1040300008FDB842F2DB606A401C60623228F6DBA1
:10404000B0EE480AB0EE681AF0EE400A2D20FEF7F6
:1040500055FC666202E0012003F04FFE286E322814
:10406000F9DB606A401C60623228F7DBFDF7A4FDD3
:10407000B0EE480AB0EE681AF0EE400A2D20FEF7C6
:104080003DFC4FF4167402E0012003F036FEFCF70D
:10409000D8FCA042F8DB0020FEF785FBFFF7F5F91E
:1040A00070B5564C00252DED028B4FF49666656277
:1040B00008E00523162200212820FEF737FE012004
:1040C00003F01BFEFCF7BDFCB042F2DB606A401C53
:1040D00060623228F6DB41F28836656208E005232B
:1040E000112200212820FEF721FE012003F005FE09
:1040F000FCF7A7FCB042F2DB606A401C6062322829
:10410000F6DBA06B2064206EE06500224FF40061B6
:104110003B4801F0B7F9DFED3D8AB0EE681A1FEDBC
:10412000CD8A2D20B0EE480AF0EE400AFEF7E6FBFD
:104130006562394D02E0012003F0DFFD286E23287F
:10414000F9DB606A401C60623228F7DBFDF734FD62
:10415000B0EE480AB0EE681AF0EE400A1E20FEF7F4
:10416000CDFB4FF4167402E0012003F0C6FDFCF70E
:1041700068FCA042F8DB0020FEF715FBFDF71CFDF4
:10418000B0EE681AF0EE480A28209FED240AFEF7E8
:10419000B5FB4FF4E16402E0012003F0AEFDFCF753
:1041A00050FCA042F8DB144D40F6AC54FCF749FC3F
:1041B000A04206DA052300212820AA68FEF718FE8F
:1041C000F4E7B0EE681AF0EE480A0A209FED140AF0
:1041D000FEF794FB40F63C7402E0012003F08DFDF5
:1041E000FCF72FFCA042F8DBBDEC028B0020BDE801
:1041F0007040FEF7D8BA00005403002000000020F1
:10420000000402400010024034040140CDCCCC3DFB
:104210000000484400002F440001002000006644D4
:104220000000E144FE4AA0F10F019FEDFE0A536E2B
:10423000192B07DAF0EE400AB7EE081A08469FED90
:10424000FA0A09E0126EB7EE081A322AF0EE400AB6
:1042500002DA08469FEDF50AFEF750BBF44C40F237
:10426000E7372DED048BE06B2064206EE065FDF7F1
:10427000A3FCB7EE081A9FEDEB8A3C20B0EE480A8B
:10428000F0EE400AFEF73AFB02E0012003F035FDB4
:10429000FEF70CF9FEF763F96428F6DC0026E54D1D
:1042A0004FF480494FF40048666205E03C20FFF778
:1042B000B9FF012003F021FD4946284601F0CAF864
:1042C00028B94146284601F0C5F80028EED005205F
:1042D00003F013FD606A401C60621E28ECDBFDF7F2
:1042E0006BFC4FF4FA65666205E03C20FFF79AFF2D
:1042F000012003F002FDFCF7A4FBA842F5DB606A95
:10430000401C60623228F6DBC54D4FF4A57866622A
:1043100005E02320FFF786FF012003F0EEFC686E26
:104320004045F6DB052003F0E8FC606A401C606253
:104330001E28F4DB00224021BF4801F0A3F8BF494A
:1043400040F2A23008600A20FEF72DFA0220286110
:104350000120DFF8EC82DFEDBB8A606258F82000B4
:10436000296E081AFEF7FBF8B84209DA606A296E6E
:1043700058F82000081AFEF7F2F80746606A28612C
:10438000606A401C60620428E8DBDFEDAF9A9FEDB5
:10439000AF9A2869296E58F82000081AFEF7DFF84E
:1043A00005281ADD2869296E58F82000884208DDA2
:1043B000B0EE681AF0EE480A4FF01E00B0EE690A3F
:1043C00008E0E6DAB0EE681AF0EE480A4FF01E0098
:1043D000B0EE490AFEF792FADBE7666202E00120DE
:1043E00003F08BFC206C216AA0F10A02914202DAF0
:1043F0000A308142F3DC052003F07FFC606A401C38
:1044000060623228EEDB66624FF4C8760CE0B0EEF4
:10441000480AB042B0EE681AF0EE400A01DD1E20F4
:1044200000E01420FEF76AFAE86DFA28EFDC0520B8
:1044300003F063FC606A401C60621E28F4DB082005
:1044400060810020FEF7AFF9FFF71FF82DE9F0417A
:104450007B48774C32212DED048B8668606DE065DA
:104460004FF4E160FEF747FA00276D4D676202E006
:10447000012003F042FCE86D3C28F9DB052003F045
:104480003CFC606A401C60621E28F4DB00224FF492
:104490008061694800F0F6FFA06BDFED6D8A9FED4B
:1044A000618A206420E0286E864208DDA6EB0000C9
:1044B00000EB4000FEF753F8A0F2DC5009E013DAFD
:1044C000A6EB000000EB4000FEF749F8A0F2DC503C
:1044D000404200EE100AB0EE681AF0EE480AB8EE5C
:1044E000C00A3220FEF70AFA286E801BFEF737F862
:1044F0000328D8DCB0EE681AF0EE480A32201FED2F
:10450000B89AB0EE490AFEF7F9F94FF4E17667621E
:10451000E86DB042FCDB012003F0EFFB052003F067
:10452000ECFB606A401C60621E28F1DBFDF744FB77
:10453000B0EE681AF0EE480A1E20B0EE490AFEF707
:10454000DDF940F2DC5402E0012003F0D6FBFCF779
:1045500078FAA042F8DBFEF765FF0A20FEF723F9A0
:10456000BDEC048B4FF4FA60BDE8F04103F0C5BB2D
:10457000FFF7FDFC2DE9F0412D4C4B202DED048B78
:10458000E062FDF719FB1FEDDF8ADFED268A3C2094
:10459000B0EE481AF0EE680A9FED2E0AFEF7AEF96B
:1045A0004FF4FA6702E0012003F0A7FBFCF749FA99
:1045B000B842F8DBB0EE481AF0EE680A3C209FEDF6
:1045C000260AFEF79BF94FF47A6502E0012003F01A
:1045D00094FBFCF736FAA842F8DBB0EE481AF0EE8E
:1045E000680A3C209FED1D0AFEF788F900260C4D55
:1045F000666202E0012003F080FB686E2828F9DC87
:10460000606A401C60623228F7DBB0EE481AF0EEB8
:10461000680A3C209FED120AFEF770F9666224E0FA
:1046200000010020000000000000E1430000E1C3A1
:104630000000002000100240000402403404014049
:10464000540300206666663F000096C30000964350
:104650009A99993E000061C4000048C40000FAC362
:10466000000048C3012003F048FB686E1428F9DC01
:10467000606A401C60623228F7DBFDF79DFAB0EEFD
:10468000489AB0EE688AA06BB0EE480A2064B0EE9B
:10469000491AF0EE400A3C20FEF730F902E0012012
:1046A00003F02BFBFCF7CDF9B842F8DBB0EE480A7B
:1046B000B0EE491AF0EE400A2D20FEF71FF96662AF
:1046C00002E0012003F019FB686E2328F9DB606A21
:1046D000401C60623228F7DBFDF76EFAB0EE480A44
:1046E000B0EE491AF0EE400A1E20FEF707F94FF42B
:1046F000167502E0012003F000FBFCF7A2F9A842C6
:10470000F8DB0020FEF74FF8FDF756FAB0EE491A35
:10471000F0EE480A28209FEDFE0AFEF7EFF84FF46E
:10472000E16502E0012003F0E8FAFCF78AF9A8420B
:10473000F8DB606EF74D4FF44866E06505E0052351
:1047400000212820AA68FEF71FFBFCF77AF9B04287
:10475000F5DBFDF731FAB0EE491AF0EE480A0F200A
:104760009FEDED0AFEF7CAF84FF4967502E00120BE
:1047700003F0C3FAFCF765F9A842F8DB0020FEF766
:1047800012F8FA20E062BDEC048BBDE8F08170B550
:10479000E24C00252DED028B4B2065620601E062A4
:1047A00008E00523082200212820FEF791FA0120C5
:1047B00003F0A3FAFCF745F9B042F2DB606A401C53
:1047C00060623228F6DBA06B656241F288362064B5
:1047D00008E00523032200212820FEF779FA0120B2
:1047E00003F08BFAFCF72DF9B042F2DB606A401C53
:1047F00060623228F6DBDFEDCA8AB0EE681A1FED80
:10480000778A2D20B0EE480AF0EE400AFEF776F8DF
:104810006562C44D02E0012003F06FFA686E19284A
:10482000F9DB606A401C60623228F7DBFDF7C4F9EF
:10483000B0EE480AB0EE681AF0EE400A1E20FEF70D
:104840005DF84FF4167502E0012003F056FAFCF70C
:10485000F8F8A842F8DB0020FDF7A5FFFDF7ACF95A
:10486000B0EE681AF0EE480A28209FEDA90AFEF77C
:1048700045F84FF4FA6502E0012003F03EFAFCF738
:10488000E0F8A842F8DB606EE065FEF7CBFDA14ED4
:1048900040F6AC5505E0052300212820B268FEF75C
:1048A00073FAFCF7CEF8A842F5DB0020FDF77BFF9A
:1048B000B0EE681AF0EE480A0A209FED970AFEF75C
:1048C0001DF840F63C7501E003F017FAFCF7B9F863
:1048D000A8424FF00100F7DB03F00FFAFA20E06284
:1048E000BDEC028B70BD8F4AA0F10F011FEDB30A22
:1048F000536E192B07DAF0EE400AB7EE081A084695
:104900001FEDB70A09E0126EB7EE081A322AF0EE70
:10491000400A02DA08461FEDBB0AFDF7EFBF2DE99A
:10492000F05F7E4C40F2E7370025E06B2064206E9C
:104930000A26E065FDF740F9B7EE081A1FEDC70A31
:104940003C20F0EE400AFDF7D9FF02E0012003F021
:10495000D4F9FDF7ABFDFDF702FE6428F6DC4FF05D
:104960000009DFF8C4814FF4804A4FF4004BC4F8CB
:10497000249005E03C20FFF7B6FF012003F0BDF9CD
:104980005146404600F066FD28B15946404600F0C9
:1049900061FD0028EED1606A401C60623228EFDBC6
:1049A000FDF70AF9C846C4F824904FF4FA6905E007
:1049B0003C20FFF798FF012003F09FF9FCF741F836
:1049C0004845F5DB606A401C60623228F6DBC4F8BB
:1049D0002480DFF850814FF4A57905E02320FFF70C
:1049E00082FF012003F089F9D8F860004845F5DB23
:1049F000606A401C60623228F6DB0020FDF7D3FEBF
:104A0000DFF828A100224021504600F03BFDDFF8EE
:104A1000209140F2A231C9F800100220C8F810001D
:104A200001203C49C4F82400D8F8642051F8200043
:104A3000101AFDF794FDB8420BDA606AD8F86420CA
:104A400051F82000101AFDF78AFD0746606AC8F881
:104A50001000606A401C60620428E5DB4FEA010731
:104A6000D8F85C00F02809DDD8F8101002230F20D8
:104A700057F821200021FEF72BF9F1E70020FDF780
:104A800092FE082060810020FDF78DFE4FF496779E
:104A9000D8F87000864223D10A206D1C03F02DF94E
:104AA000BD42F5DBD8F87000052801D2C8F8100027
:104AB0004FF42F71C9F8001007206081D8F810005A
:104AC000FFF79CF9C8F81000FFF7ABF8012240216E
:104AD000504600F0D7FCBDE8F05F0020FDF763BE54
:104AE000064600250A2003F008F9D1E72DE9F04138
:104AF00008480A4C32212DED048B8668606DE06514
:104B00004FF4E160FDF7F7FE0027064D676214E001
:104B1000000066C4540300200000E14400000020AF
:104B2000CDCCCC3D0001002000100240000402402A
:104B300034040140012003F0E0F8E86D3228F9DB8D
:104B4000052003F0DAF8606A401C60621E28F4DB7E
:104B500000224FF48061F64800F094FCA06B2064C2
:104B600005E00223324600213220FEF70DF9686E7F
:104B7000801BFDF7F4FC0528F3DC9FEDEE8AB0EE18
:104B8000481ADFEDED8A1FED1C9A3220F0EE680A1C
:104B9000B0EE490AFDF7B2FE4FF4E176676202E03B
:104BA000012003F0AAF8E86DB042F9DB052003F01C
:104BB000A4F8606A401C60621E28F4DBFCF7FCFF6E
:104BC000B0EE481AF0EE680A1E20B0EE490AFDF772
:104BD00095FE40F2DC5402E0012003F08EF8FBF772
:104BE00030FFA042F8DBFEF71DFC1420FDF7DBFDD3
:104BF000BDEC048B4FF4FA60BDE8F04103F07DB8E2
:104C000010B5FFF7B7FC07214FF4E160FDF773FE25
:104C1000CA4C02E0642003F070F8E06E0028F9D07E
:104C2000606F0028F6D010BD2DE9F041C44C4B2038
:104C30002DED048BE062FCF7BFFF1FED478AB0EE5D
:104C4000481ADFEDBD8A3C20F0EE680A9FEDBD0AF0
:104C5000FDF754FE40F6C41502E0012003F04DF8C4
:104C6000FBF7EFFEA842F8DB00224FF40061B048EA
:104C700000F008FCB0EE481AF0EE680A3C209FED08
:104C8000B20AFDF73BFE4FF47A6502E0012003F023
:104C900034F8FBF7D6FEA842F8DBB0EE481AF0EE87
:104CA000680A32209FEDA90AFDF728FE0026A34DD1
:104CB000666202E0012003F020F8686E8C28F9DCBF
:104CC000606A401C60623228F7DBFCF775FFFEF774
:104CD000A9FB40F6AC57666208E0052311220021CB
:104CE0002820FDF7F5FF012003F007F8FBF7A9FEE8
:104CF000B842F2DB606A401C60623228F6DBB0EE3C
:104D0000489AB0EE688AB0EE491AB0EE480A2D20F3
:104D1000F0EE400AFDF7F2FD666202E0012002F0CB
:104D2000ECFF686E3C28F9DB606A401C6062322848
:104D3000F7DBFCF741FFB0EE480AB0EE491AF0EE9F
:104D4000400A1E20FDF7DAFD4FF4167502E001203F
:104D500002F0D3FFFBF775FEA842F8DB0020FDF759
:104D600022FDFCF729FFB0EE491AF0EE480A322086
:104D70001FED990AFDF7C2FD4FF4E16502E0012045
:104D800002F0BBFFFBF75DFEA842F8DB704D4FF46D
:104D9000486600BFFBF755FEB04206DA0323002148
:104DA0002820AA68FDF7F0FFF4E70020FDF7FBFCE0
:104DB000FA20E062E7E410B5012802D0BDE8104017
:104DC00032E7FFF7D4F8012800D0E0E4FFF768B934
:104DD00010B5012802D0BDE81040A0E5FFF73EFA6B
:104DE000012800D082E6FFF731BB054640F6B83413
:104DF0002846FEF761FC2846FFF7EAFF2846FFF742
:104E0000EFFF204602F079FFF2E71120FDF700FAEC
:104E1000FEF744FB0A2002F070FFF6E7484C00BFA3
:104E2000FEF7DDF8607818B1FEF7D6F9FEF779FAEB
:104E3000FEF725FA032002F060FFF1E73F4D3F4CFB
:104E4000B8352878E06668786067A8782067E878E1
:104E5000A067FEF735FB072002F04FFFF1E700BF28
:104E6000FDF7DBFE052002F048FFF9E71FB5FBF771
:104E70000EFEFBF73FFEFBF7DBFEFBF7BBFFFBF78E
:104E80003FFFFCF777F8FCF730F9FCF7B6F9FCF7D1
:104E90009CFAFBF794FE4FF4E1342046FCF746FB06
:104EA0002046FCF7DCFB2046FCF75FFC2046FCF7C5
:104EB000E2FCE000FCF764FDFCF79CFEFCF77CFEE6
:104EC0001F4E00244FF480753470009401940294B6
:104ED00023462A461FA12448039402F037FD00947C
:104EE0000194029400232A4620A12648039402F04C
:104EF0002DFD00940194029400232A4622A1274804
:104F0000039402F023FDB06CF06102E0012002F096
:104F1000F4FEB06CF16914388142F7DB044D0124D2
:104F200074700221284600F095FAC8B334813AE043
:104F3000000402409A99993E000000000001002000
:104F400000000020000061C4000048C400002FC41D
:104F5000540300207461736B526F626F74416E6111
:104F60006C797469637300005F4E00087461736B41
:104F7000526F626F74416E616C79746963735F75AF
:104F8000617274003D4E00087461736B446965750D
:104F90004B6869656E436F43617500001D4E0008E4
:104FA000FFE7022030810A2070814FF4FA7002F08E
:104FB000A4FE092070810122D102284600F062FA85
:104FC00001224021284600F05DFA6420F062FEF7DD
:104FD00029FA40F2A46541F27070356702F08DFE47
:104FE0001E4C40F24C4747F2305605E02068401F07
:104FF0002060192002F081FE2068B842F6D23046C7
:1050000002F07BFE25603046F4E77FB500244FF4C4
:10501000807500940194029423462A4610A11348F7
:10502000039402F093FC00940194029400232A4616
:105030000FA11248039402F089FC00940194029499
:1050400000232A46AFF2C0010D48039402F07EFC13
:1050500002F0A2FF04B0002070BD00003404014043
:105060007461736B4D61696E000000006D4E000845
:105070007461736B4779726F000000000B4E00087B
:105080001D4E00080CB500205149019000900A689F
:1050900042F480320A604FF4A0630A6802F40032DE
:1050A0000092019A521C0192009A12B9019A9A42F6
:1050B000F3D10A68920334D501200090444840306F
:1050C000026842F0805202604248026842F4804224
:1050D00002603F48083002680260026842F4004201
:1050E0000260026842F4A0520260031F3A4A1A604A
:1050F0000A6842F080720A600A689201FCD5374A59
:1051000040F205611160016821F00301016001684E
:1051100041F0020101600168C1F381010229FAD165
:105120000CBD00900CBD2A4810B5016841F001018A
:105130000160274A0021083211600268284B1A409A
:105140000260031D274A1A60026822F4802202606E
:105150001F480C300160FFF795FF23494FF00060B6
:10516000086010BD70B51A4C083420681F4A10F052
:105170000C011F4804D05510042903D0082903D07E
:1051800002601BE0056019E01149091D0B68C3F3BB
:1051900080560B6803F03F0316B1B5FBF3F201E054
:1051A000B2FBF3F20B680968C3F388135A43C1F3E7
:1051B0000141491C4900B2FBF1F1016021680C4A30
:1051C000C1F30311121D515C0268CA40026070BD38
:1051D000003802400070004008544007003C024084
:1051E000FFFFF6FE1030002408ED00E00024F4007C
:1051F000D80100200648804706480047FEE7FEE742
:10520000FEE7FEE7FEE7FEE7FEE7FEE7FEE7FEE776
:1052100027510008890100082849084328490860E7
:10522000704730B50F22C47801780123FCB1244CBB
:10523000246801F1E02104F4E064C4F5E064C4F3FF
:105240000724C4F10405E2404478AC408578154059
:1052500025432A0181F80024007800F01F018B40CB
:105260004009800000F1E020C0F8003130BD01F0BD
:105270001F0083404809800000F1E020C0F8803121
:1052800030BD104A114001430D48001F01607047B6
:105290000B4A121D0029116801D0014300E081432F
:1052A000116070474FF0E0210428086903D020F016
:1052B00004000861704740F00400FAE70000FA05B6
:1052C0000CED00E080FFFF1F7C4910B5884206D13D
:1052D0000121084600F058FA002101204FE07849EA
:1052E000884206D10121022000F04EFA002102205E
:1052F00045E07449884206D10121042000F044FAB7
:10530000002104203BE07049884206D10121082099
:1053100000F03AFA0021082031E06C49884206D1B9
:105320000121102000F030FA0021102027E0684908
:10533000884206D10121202000F026FA00212020F9
:105340001DE06449884206D10121402000F01CFA8A
:105350000021402013E06049884206D101218020CD
:1053600000F012FA0021802009E05C4988420AD14D
:1053700084150121204600F007FA00212046BDE8EF
:10538000104000F001BA10BDF0B50023012403273E
:105390000D6804FA03F21540954242D1D0F800C0DE
:1053A0005E0007FA06F52CEA050CC0F800C091F87B
:1053B00004C0D0F800E00CFA06FC4CEA0E0CC0F871
:1053C00000C091F804C0BCF1010F02D0BCF1020F83
:1053D0001FD1D0F808C02CEA050CC0F808C091F81D
:1053E00005C0D0F808E00CFA06FC4CEA0E0CC0F838
:1053F00008C0D0F804C02CEA020CC0F804C042680F
:1054000091F806C00CFA03FC1FFA8CFC42EA0C026D
:105410004260C268AA43C260CA79C568B2402A43E2
:10542000C2605B1C102BB3D3F0BD4FF6FF7101605F
:105430000021017141718171C171704708B541F45A
:1054400080320092C261C1610099C161C169C069C5
:10545000009008BD0246002012690A4200D00120D7
:105460007047006980B270470246002052690A42C4
:1054700000D001207047406980B2704701837047B7
:10548000418370470AB1018370474183704741618E
:10549000704742694A40426170474B07DB0E9A40B1
:1054A000C90810B500EB8100016A0F249C40A1439C
:1054B0000162016A1143016210BD00000000024058
:1054C0000004024000080240000C024000100240AC
:1054D0000014024000180240001C0240002002405C
:1054E000EA48016841F001010160E84A0021083200
:1054F00011600268E64B1A400260031DE54A1A601B
:10550000026822F480220260E0480C30016070479B
:10551000DE490022891C0A7008707047024600208C
:10552000510901290CD002290CD0D84974310968DD
:1055300002F01F02012393400B4200D0012070476C
:10554000D249F4E7D1497031F1E718B500204FF4A2
:10555000A06400903120FFF7E1FF0099491C009101
:10556000A14201D00028F5D03120FFF7D7FF002855
:1055700000D0012018BDC5490A6822F0F80242EAAD
:10558000C00008607047C44908607047BF490022E6
:1055900070310A700A70012802D0042801D1052058
:1055A00008707047BD490860704741EA82115A0887
:1055B00010B5BB4B029C03EB02421143014341EA8D
:1055C0000460B249091D086010BDB3490866704700
:1055D000800140EA0170AD49843108607047AE49EE
:1055E00088667047AC49C8647047A84A0832136897
:1055F000084323F0EC63184310607047A34A083255
:105600001368084323F078431843106070479F4A9B
:105610000832116821F003010143116070479B4873
:105620000830006800F00C007047984A0832116892
:1056300021F0F001014311607047944A083211686B
:1056400021F4E051014311607047904908310A6824
:1056500022F4604242EAC0000860704770B58B4A8D
:10566000083211688F4C11F00C0104D06610042927
:1056700003D0082903D004601BE0066019E08349C9
:10568000091D0B68C3F380550B6803F03F0315B188
:10569000B6FBF3F301E0B4FBF3F30C680968C4F361
:1056A00088146343C1F30141491C4900B3FBF1F184
:1056B000016011680F2303EA11117B4B5C5C0168E8
:1056C000E14041601468072505EA94241C5D21FA35
:1056D00004F48460126805EA52329A5CD140C160D9
:1056E00070BDC0F30121032908D1684A083211684E
:1056F00021F4F8136D490140194311606349703179
:105700000A68C0F30B0002430A60704763494439DA
:105710000860704761494039086070475E49C1F8C8
:105720005C017047594A30320029116801D00143A9
:1057300000E0814311607047544A343200291168F7
:1057400001D0014300E08143116070474F4A383275
:105750000029116801D0014300E0814311607047C6
:105760004A4A40320029116801D0014300E08143D8
:1057700011607047454A44320029116801D0014345
:1057800000E0814311607047404A103200291168DF
:1057900001D0014300E08143116070473B4A14325D
:1057A0000029116801D0014300E081431160704776
:1057B000364A18320029116801D0014300E08143C4
:1057C00011607047314A20320029116801D001432D
:1057D00000E08143116070472C4A2432002911688F
:1057E00001D0014300E0814311607047274A5032E5
:1057F0000029116801D0014300E081431160704726
:10580000224A54320029116801D0014300E081434B
:10581000116070471D4A58320029116801D00143B8
:1058200000E0814311607047184A60320029116816
:1058300001D0014300E0814311607047134A643294
:105840000029116801D0014300E0814311607047D5
:105850000E4A0D320029117801D0014300E0814346
:105860001170704709487430016841F0807101601F
:1058700070470146054A00200C3212680A4200D0E7
:105880000120704701490E3108707047003802400E
:10589000FFFFF6FE1030002400004742800E474212
:1058A0000000FFFF0024F400EC010020FFFCFF0FCC
:1058B00010B501210C022046FFF78EFF2046BDE8FF
:1058C00010400021FFF788BF30B54268C84B0C7903
:1058D0001A400B6842EA0422134343608268C54BB6
:1058E0004D791A40D1E9034323438C6844EA4504C7
:1058F000234313438360C26A097D22F47002491E68
:10590000C9B242EA0151C16230BD0021016001719A
:1059100041718160C1600161012101757047B64B21
:1059200010B5D3F80423B5490A40D0E90014214347
:10593000D0E90240044321431143C3F8041310BDCE
:105940000021016041608160C16070470029816869
:1059500002D041F0010101E021F0010181607047B6
:105960004268A74B1A400A43426070474162826214
:105970007047426822F01F020A43426070479E4906
:105980000028D1F8040302D040F4000001E020F424
:105990000000C1F80403704797490028D1F80403B8
:1059A00002D040F4800001E020F48000C1F804033C
:1059B000704770B5072409290AD9C568A1F10A06FC
:1059C00006EB4606B440A543B3401D43C56007E05F
:1059D000056901EB4106B440A543B3401D43056191
:1059E0001F23072A09D2446B521E02EB8202934006
:1059F0009C4391400C43446370BD0D2A09D2046B53
:105A0000D21F02EB820293409C4391400C430463FB
:105A100070BDC46A0D3A02EB820293409C439140F0
:105A20000C43C46270BD816841F080418160704761
:105A3000014600208968490200D5012070470029ED
:105A4000816802D041F4806101E021F480618160CD
:105A500070470029816802D041F0020101E021F085
:105A60000201816070474268491E22F4604242EAA6
:105A70004131416070470029416802D041F4006122
:105A800001E021F4006141607047C06C80B2704752
:105A90005948D0F8080370470029816802D041F4C2
:105AA000807101E021F48071816070470029816874
:105AB00002D041F4007101E021F40071816070476F
:105AC0004D490028D1F8040302D040F4005001E011
:105AD00020F40050C1F80403704770B50724092969
